{
  "_format": "hh-sol-artifact-1",
  "contractName": "EmergencyManager",
  "sourceName": "contracts/EmergencyManager.sol",
  "abi": [
    {
      "inputs": [
        {
          "internalType": "address",
          "name": "_defaiEstate",
          "type": "address"
        }
      ],
      "stateMutability": "nonpayable",
      "type": "constructor"
    },
    {
      "anonymous": false,
      "inputs": [
        {
          "indexed": true,
          "internalType": "uint256",
          "name": "estateId",
          "type": "uint256"
        },
        {
          "indexed": true,
          "internalType": "address",
          "name": "executor",
          "type": "address"
        },
        {
          "indexed": true,
          "internalType": "address",
          "name": "multisig",
          "type": "address"
        },
        {
          "indexed": false,
          "internalType": "uint256",
          "name": "timestamp",
          "type": "uint256"
        }
      ],
      "name": "EmergencyForceUnlock",
      "type": "event"
    },
    {
      "anonymous": false,
      "inputs": [
        {
          "indexed": true,
          "internalType": "uint256",
          "name": "estateId",
          "type": "uint256"
        },
        {
          "indexed": false,
          "internalType": "enum EmergencyManager.LockType",
          "name": "lockType",
          "type": "uint8"
        },
        {
          "indexed": false,
          "internalType": "string",
          "name": "reason",
          "type": "string"
        },
        {
          "indexed": true,
          "internalType": "address",
          "name": "initiator",
          "type": "address"
        },
        {
          "indexed": false,
          "internalType": "uint256",
          "name": "timestamp",
          "type": "uint256"
        }
      ],
      "name": "EmergencyLockInitiated",
      "type": "event"
    },
    {
      "anonymous": false,
      "inputs": [
        {
          "indexed": true,
          "internalType": "uint256",
          "name": "estateId",
          "type": "uint256"
        },
        {
          "indexed": true,
          "internalType": "address",
          "name": "attempter",
          "type": "address"
        },
        {
          "indexed": false,
          "internalType": "string",
          "name": "reason",
          "type": "string"
        },
        {
          "indexed": false,
          "internalType": "uint256",
          "name": "timestamp",
          "type": "uint256"
        }
      ],
      "name": "EmergencyUnlockFailed",
      "type": "event"
    },
    {
      "anonymous": false,
      "inputs": [
        {
          "indexed": true,
          "internalType": "uint256",
          "name": "estateId",
          "type": "uint256"
        },
        {
          "indexed": true,
          "internalType": "address",
          "name": "executor",
          "type": "address"
        },
        {
          "indexed": false,
          "internalType": "uint256",
          "name": "attempts",
          "type": "uint256"
        },
        {
          "indexed": false,
          "internalType": "uint256",
          "name": "timestamp",
          "type": "uint256"
        }
      ],
      "name": "EmergencyUnlockSuccessful",
      "type": "event"
    },
    {
      "anonymous": false,
      "inputs": [
        {
          "indexed": true,
          "internalType": "uint256",
          "name": "estateId",
          "type": "uint256"
        },
        {
          "indexed": true,
          "internalType": "address",
          "name": "guardian",
          "type": "address"
        },
        {
          "indexed": false,
          "internalType": "uint256",
          "name": "timestamp",
          "type": "uint256"
        }
      ],
      "name": "GuardianAdded",
      "type": "event"
    },
    {
      "anonymous": false,
      "inputs": [
        {
          "indexed": true,
          "internalType": "uint256",
          "name": "estateId",
          "type": "uint256"
        },
        {
          "indexed": true,
          "internalType": "address",
          "name": "guardian",
          "type": "address"
        },
        {
          "indexed": false,
          "internalType": "bool",
          "name": "approved",
          "type": "bool"
        },
        {
          "indexed": false,
          "internalType": "uint256",
          "name": "timestamp",
          "type": "uint256"
        }
      ],
      "name": "GuardianApproval",
      "type": "event"
    },
    {
      "anonymous": false,
      "inputs": [
        {
          "indexed": true,
          "internalType": "uint256",
          "name": "estateId",
          "type": "uint256"
        },
        {
          "indexed": true,
          "internalType": "address",
          "name": "guardian",
          "type": "address"
        },
        {
          "indexed": false,
          "internalType": "uint256",
          "name": "timestamp",
          "type": "uint256"
        }
      ],
      "name": "GuardianRemoved",
      "type": "event"
    },
    {
      "anonymous": false,
      "inputs": [
        {
          "indexed": false,
          "internalType": "address",
          "name": "account",
          "type": "address"
        }
      ],
      "name": "Paused",
      "type": "event"
    },
    {
      "anonymous": false,
      "inputs": [
        {
          "indexed": true,
          "internalType": "bytes32",
          "name": "role",
          "type": "bytes32"
        },
        {
          "indexed": true,
          "internalType": "bytes32",
          "name": "previousAdminRole",
          "type": "bytes32"
        },
        {
          "indexed": true,
          "internalType": "bytes32",
          "name": "newAdminRole",
          "type": "bytes32"
        }
      ],
      "name": "RoleAdminChanged",
      "type": "event"
    },
    {
      "anonymous": false,
      "inputs": [
        {
          "indexed": true,
          "internalType": "bytes32",
          "name": "role",
          "type": "bytes32"
        },
        {
          "indexed": true,
          "internalType": "address",
          "name": "account",
          "type": "address"
        },
        {
          "indexed": true,
          "internalType": "address",
          "name": "sender",
          "type": "address"
        }
      ],
      "name": "RoleGranted",
      "type": "event"
    },
    {
      "anonymous": false,
      "inputs": [
        {
          "indexed": true,
          "internalType": "bytes32",
          "name": "role",
          "type": "bytes32"
        },
        {
          "indexed": true,
          "internalType": "address",
          "name": "account",
          "type": "address"
        },
        {
          "indexed": true,
          "internalType": "address",
          "name": "sender",
          "type": "address"
        }
      ],
      "name": "RoleRevoked",
      "type": "event"
    },
    {
      "anonymous": false,
      "inputs": [
        {
          "indexed": false,
          "internalType": "address",
          "name": "account",
          "type": "address"
        }
      ],
      "name": "Unpaused",
      "type": "event"
    },
    {
      "inputs": [],
      "name": "DEFAULT_ADMIN_ROLE",
      "outputs": [
        {
          "internalType": "bytes32",
          "name": "",
          "type": "bytes32"
        }
      ],
      "stateMutability": "view",
      "type": "function"
    },
    {
      "inputs": [],
      "name": "GUARDIAN_ROLE",
      "outputs": [
        {
          "internalType": "bytes32",
          "name": "",
          "type": "bytes32"
        }
      ],
      "stateMutability": "view",
      "type": "function"
    },
    {
      "inputs": [],
      "name": "OPERATOR_ROLE",
      "outputs": [
        {
          "internalType": "bytes32",
          "name": "",
          "type": "bytes32"
        }
      ],
      "stateMutability": "view",
      "type": "function"
    },
    {
      "inputs": [
        {
          "internalType": "uint256",
          "name": "estateId",
          "type": "uint256"
        },
        {
          "internalType": "address",
          "name": "guardian",
          "type": "address"
        }
      ],
      "name": "addGuardian",
      "outputs": [],
      "stateMutability": "nonpayable",
      "type": "function"
    },
    {
      "inputs": [
        {
          "internalType": "uint256",
          "name": "estateId",
          "type": "uint256"
        }
      ],
      "name": "approveUnlock",
      "outputs": [],
      "stateMutability": "nonpayable",
      "type": "function"
    },
    {
      "inputs": [
        {
          "internalType": "uint256",
          "name": "estateId",
          "type": "uint256"
        },
        {
          "internalType": "string",
          "name": "",
          "type": "string"
        }
      ],
      "name": "attemptEmergencyUnlock",
      "outputs": [],
      "stateMutability": "nonpayable",
      "type": "function"
    },
    {
      "inputs": [
        {
          "internalType": "uint256",
          "name": "estateId",
          "type": "uint256"
        }
      ],
      "name": "canUnlock",
      "outputs": [
        {
          "internalType": "bool",
          "name": "",
          "type": "bool"
        }
      ],
      "stateMutability": "view",
      "type": "function"
    },
    {
      "inputs": [],
      "name": "config",
      "outputs": [
        {
          "internalType": "uint256",
          "name": "maxUnlockAttempts",
          "type": "uint256"
        },
        {
          "internalType": "uint256",
          "name": "unlockCooldown",
          "type": "uint256"
        },
        {
          "internalType": "uint256",
          "name": "emergencyPauseDuration",
          "type": "uint256"
        },
        {
          "internalType": "bool",
          "name": "requireMultisigForUnlock",
          "type": "bool"
        },
        {
          "internalType": "uint256",
          "name": "minGuardiansForAction",
          "type": "uint256"
        }
      ],
      "stateMutability": "view",
      "type": "function"
    },
    {
      "inputs": [],
      "name": "defaiEstate",
      "outputs": [
        {
          "internalType": "contract IDefAIEstate",
          "name": "",
          "type": "address"
        }
      ],
      "stateMutability": "view",
      "type": "function"
    },
    {
      "inputs": [
        {
          "internalType": "uint256",
          "name": "",
          "type": "uint256"
        }
      ],
      "name": "emergencyLocks",
      "outputs": [
        {
          "internalType": "uint256",
          "name": "estateId",
          "type": "uint256"
        },
        {
          "internalType": "enum EmergencyManager.LockType",
          "name": "lockType",
          "type": "uint8"
        },
        {
          "internalType": "string",
          "name": "reason",
          "type": "string"
        },
        {
          "internalType": "uint256",
          "name": "lockedAt",
          "type": "uint256"
        },
        {
          "internalType": "address",
          "name": "lockedBy",
          "type": "address"
        },
        {
          "internalType": "bool",
          "name": "isActive",
          "type": "bool"
        },
        {
          "internalType": "uint256",
          "name": "unlockAttempts",
          "type": "uint256"
        },
        {
          "internalType": "uint256",
          "name": "lastUnlockAttempt",
          "type": "uint256"
        }
      ],
      "stateMutability": "view",
      "type": "function"
    },
    {
      "inputs": [
        {
          "internalType": "uint256",
          "name": "",
          "type": "uint256"
        },
        {
          "internalType": "uint256",
          "name": "",
          "type": "uint256"
        }
      ],
      "name": "estateGuardians",
      "outputs": [
        {
          "internalType": "address",
          "name": "",
          "type": "address"
        }
      ],
      "stateMutability": "view",
      "type": "function"
    },
    {
      "inputs": [
        {
          "internalType": "uint256",
          "name": "estateId",
          "type": "uint256"
        }
      ],
      "name": "forceUnlockByMultisig",
      "outputs": [],
      "stateMutability": "nonpayable",
      "type": "function"
    },
    {
      "inputs": [
        {
          "internalType": "uint256",
          "name": "estateId",
          "type": "uint256"
        }
      ],
      "name": "getEmergencyLock",
      "outputs": [
        {
          "components": [
            {
              "internalType": "uint256",
              "name": "estateId",
              "type": "uint256"
            },
            {
              "internalType": "enum EmergencyManager.LockType",
              "name": "lockType",
              "type": "uint8"
            },
            {
              "internalType": "string",
              "name": "reason",
              "type": "string"
            },
            {
              "internalType": "uint256",
              "name": "lockedAt",
              "type": "uint256"
            },
            {
              "internalType": "address",
              "name": "lockedBy",
              "type": "address"
            },
            {
              "internalType": "bool",
              "name": "isActive",
              "type": "bool"
            },
            {
              "internalType": "uint256",
              "name": "unlockAttempts",
              "type": "uint256"
            },
            {
              "internalType": "uint256",
              "name": "lastUnlockAttempt",
              "type": "uint256"
            }
          ],
          "internalType": "struct EmergencyManager.EmergencyLock",
          "name": "",
          "type": "tuple"
        }
      ],
      "stateMutability": "view",
      "type": "function"
    },
    {
      "inputs": [
        {
          "internalType": "uint256",
          "name": "estateId",
          "type": "uint256"
        }
      ],
      "name": "getEstateGuardians",
      "outputs": [
        {
          "internalType": "address[]",
          "name": "",
          "type": "address[]"
        }
      ],
      "stateMutability": "view",
      "type": "function"
    },
    {
      "inputs": [
        {
          "internalType": "uint256",
          "name": "estateId",
          "type": "uint256"
        }
      ],
      "name": "getGuardianApprovalCount",
      "outputs": [
        {
          "internalType": "uint256",
          "name": "",
          "type": "uint256"
        }
      ],
      "stateMutability": "view",
      "type": "function"
    },
    {
      "inputs": [
        {
          "internalType": "bytes32",
          "name": "role",
          "type": "bytes32"
        }
      ],
      "name": "getRoleAdmin",
      "outputs": [
        {
          "internalType": "bytes32",
          "name": "",
          "type": "bytes32"
        }
      ],
      "stateMutability": "view",
      "type": "function"
    },
    {
      "inputs": [
        {
          "internalType": "bytes32",
          "name": "role",
          "type": "bytes32"
        },
        {
          "internalType": "address",
          "name": "account",
          "type": "address"
        }
      ],
      "name": "grantRole",
      "outputs": [],
      "stateMutability": "nonpayable",
      "type": "function"
    },
    {
      "inputs": [
        {
          "internalType": "uint256",
          "name": "",
          "type": "uint256"
        },
        {
          "internalType": "address",
          "name": "",
          "type": "address"
        }
      ],
      "name": "guardianApprovals",
      "outputs": [
        {
          "internalType": "bool",
          "name": "",
          "type": "bool"
        }
      ],
      "stateMutability": "view",
      "type": "function"
    },
    {
      "inputs": [
        {
          "internalType": "bytes32",
          "name": "role",
          "type": "bytes32"
        },
        {
          "internalType": "address",
          "name": "account",
          "type": "address"
        }
      ],
      "name": "hasRole",
      "outputs": [
        {
          "internalType": "bool",
          "name": "",
          "type": "bool"
        }
      ],
      "stateMutability": "view",
      "type": "function"
    },
    {
      "inputs": [
        {
          "internalType": "uint256",
          "name": "estateId",
          "type": "uint256"
        },
        {
          "internalType": "enum EmergencyManager.LockType",
          "name": "lockType",
          "type": "uint8"
        },
        {
          "internalType": "string",
          "name": "reason",
          "type": "string"
        }
      ],
      "name": "initiateEmergencyLock",
      "outputs": [],
      "stateMutability": "nonpayable",
      "type": "function"
    },
    {
      "inputs": [
        {
          "internalType": "uint256",
          "name": "estateId",
          "type": "uint256"
        }
      ],
      "name": "isLocked",
      "outputs": [
        {
          "internalType": "bool",
          "name": "",
          "type": "bool"
        }
      ],
      "stateMutability": "view",
      "type": "function"
    },
    {
      "inputs": [],
      "name": "pauseAllOperations",
      "outputs": [],
      "stateMutability": "nonpayable",
      "type": "function"
    },
    {
      "inputs": [],
      "name": "paused",
      "outputs": [
        {
          "internalType": "bool",
          "name": "",
          "type": "bool"
        }
      ],
      "stateMutability": "view",
      "type": "function"
    },
    {
      "inputs": [
        {
          "internalType": "uint256",
          "name": "estateId",
          "type": "uint256"
        },
        {
          "internalType": "address",
          "name": "guardian",
          "type": "address"
        }
      ],
      "name": "removeGuardian",
      "outputs": [],
      "stateMutability": "nonpayable",
      "type": "function"
    },
    {
      "inputs": [
        {
          "internalType": "bytes32",
          "name": "role",
          "type": "bytes32"
        },
        {
          "internalType": "address",
          "name": "account",
          "type": "address"
        }
      ],
      "name": "renounceRole",
      "outputs": [],
      "stateMutability": "nonpayable",
      "type": "function"
    },
    {
      "inputs": [
        {
          "internalType": "uint256",
          "name": "estateId",
          "type": "uint256"
        }
      ],
      "name": "revokeApproval",
      "outputs": [],
      "stateMutability": "nonpayable",
      "type": "function"
    },
    {
      "inputs": [
        {
          "internalType": "bytes32",
          "name": "role",
          "type": "bytes32"
        },
        {
          "internalType": "address",
          "name": "account",
          "type": "address"
        }
      ],
      "name": "revokeRole",
      "outputs": [],
      "stateMutability": "nonpayable",
      "type": "function"
    },
    {
      "inputs": [
        {
          "internalType": "bytes4",
          "name": "interfaceId",
          "type": "bytes4"
        }
      ],
      "name": "supportsInterface",
      "outputs": [
        {
          "internalType": "bool",
          "name": "",
          "type": "bool"
        }
      ],
      "stateMutability": "view",
      "type": "function"
    },
    {
      "inputs": [],
      "name": "unpauseAllOperations",
      "outputs": [],
      "stateMutability": "nonpayable",
      "type": "function"
    },
    {
      "inputs": [
        {
          "internalType": "uint256",
          "name": "maxUnlockAttempts",
          "type": "uint256"
        },
        {
          "internalType": "uint256",
          "name": "unlockCooldown",
          "type": "uint256"
        },
        {
          "internalType": "uint256",
          "name": "emergencyPauseDuration",
          "type": "uint256"
        },
        {
          "internalType": "bool",
          "name": "requireMultisigForUnlock",
          "type": "bool"
        },
        {
          "internalType": "uint256",
          "name": "minGuardiansForAction",
          "type": "uint256"
        }
      ],
      "name": "updateConfig",
      "outputs": [],
      "stateMutability": "nonpayable",
      "type": "function"
    }
  ],
  "bytecode": "0x608034620001c657601f620027d938819003918201601f1916830192916001600160401b03919082851184861017620001cb5780849260409687528339602093849181010312620001c65751916001600160a01b0383168303620001c657600180546001600160a81b03191660089490941b610100600160a81b0316939093178355600080805280825284812033825282528481205490929060ff16156200018f575b7f55435dd261a4b9b3364963f7738a7a662ad9c84396d64be3365284bb7f0a5041808452838352858420338552835260ff86852054161562000156575b5084519260a0840191821184831017620001425750845260038252620151808091830152600260806203f4809384878201528560608201520152600360055560065560075560ff1960085416176008556002600955516125d79081620001e28239f35b634e487b7160e01b81526041600452602490fd5b80845283835285842033855283528584208560ff1982541617905533903390600080516020620027b98339815191528680a438620000df565b82805282825284832033845282528483208460ff19825416179055333384600080516020620027b98339815191528180a4620000a2565b600080fd5b634e487b7160e01b600052604160045260246000fdfe608080604052600436101561001357600080fd5b60003560e01c90816301ffc9a7146116c6575080631cd2eb19146115985780631cf38851146114c757806322a250821461140e578063248a9ca3146113df57806324ea54f4146113b65780632ea715eb146111d85780632f2ff15d1461113757806332df90e01461111157806336568abe1461107f57806337f2c86f14610e715780634a44a85814610ddd57806350f7920c14610db05780635c1ff52b14610d0a5780635c975abb14610ce757806367f3353014610bac5780636e0457ea14610b5a57806379502c5514610b1557806391d1485414610ac8578063a217fddf14610aac578063b1e130fc14610a10578063b20d413414610629578063c6e9ef7914610571578063caeb53d3146104f2578063d22b0e7d14610296578063d547741f14610255578063d94a7af51461022d578063f4aab522146101e0578063f5b541a6146101a55763f6aacfb11461016957600080fd5b346101a05760203660031901126101a0576004356000526002602052602060ff60046040600020015460a01c166040519015158152f35b600080fd5b346101a05760003660031901126101a05760206040517f97667070c54ef182b0f5858b034beac1b6f3089aa2d3188bb1e8929f4fa9b9298152f35b346101a05760403660031901126101a0576101f96117c9565b600435600052600460205260406000209060018060a01b0316600052602052602060ff604060002054166040519015158152f35b346101a05760203660031901126101a057602061024b6004356121eb565b6040519015158152f35b346101a05760403660031901126101a0576102946004356102746117c9565b9080600052600060205261028f600160406000200154611adb565b611bd9565b005b346101a05760003660031901126101a0573360009081527f8a40f0b47fdc2a0ce293b772acfc7508c8315a4d462786c1adc3a56f92ca2d0560209081526040909120546000805160206125828339815191529060ff161561036a57506001549060ff82166103335760017f62e78cea01bee320cd4e420270b5ea74000d11b0c9f74754ebdbfc544b05a2589260ff191617600155604051338152a1005b6064906040519062461bcd60e51b82526004820152601060248201526f14185d5cd8589b194e881c185d5cd95960821b6044820152fd5b9061037433611c6b565b9160405161038181611735565b604281528281019160603684378151156104dc576030835381516001908110156104dc57607860218401536041905b8082116104825750506104515761041d9361042c92604892604051968793600080516020612562833981519152888601526103f4815180928a6037890191016118cc565b8401917001034b99036b4b9b9b4b733903937b6329607d1b6037840152518093868401906118cc565b01036028810185520183611750565b61044d60405192839262461bcd60e51b8452600484015260248301906118ef565b0390fd5b6064836040519062461bcd60e51b825280600483015260248201526000805160206125228339815191526044820152fd5b9091600f811660108110156104dc576f181899199a1a9b1b9c1cb0b131b232b360811b901a6104b18486611c5a565b5360041c9180156104c65760001901906103b0565b634e487b7160e01b600052601160045260246000fd5b634e487b7160e01b600052603260045260246000fd5b346101a05760a03660031901126101a0576064358015158091036101a05761051861192c565b60405160a081016001600160401b03811191111761055b5760043560055560243560065560443560075560ff801960085416911617600855608435600955600080f35b634e487b7160e01b600052604160045260246000fd5b346101a0576020806003193601126101a05760043560005260038152604060002060405190818382549182815201908192600052846000209060005b8682821061060c5786866105c382880383611750565b604051928392818401908285525180915260408401929160005b8281106105ec57505050500390f35b83516001600160a01b0316855286955093810193928101926001016105dd565b83546001600160a01b0316855290930192600192830192016105ad565b346101a05760603660031901126101a057600560243510156101a0576044356001600160401b0381116101a057610664903690600401611773565b60015460405163786420d160e01b815260048035908201526103c09182908290602490829060081c6001600160a01b03165afa908115610a04576106c0926000926109d7575b5050602001516001600160a01b03163314611f21565b600435600052600260205260ff60046040600020015460a01c166109975780516005811015908161098b575b501561094e576040516106fe81611719565b600435815261071260243560208301611f60565b816040820152426060820152336080820152600160a0820152600060c0820152600060e082015260043560005260026020526040600020908051825560018201602082015160058110156109385760ff80198354169116179055604081015180519060018060401b03821161055b5761078e60028501546117df565b601f81116108f1575b50602090601f831160011461087c5791806006949260e094600092610871575b50508160011b916000199060031b1c19161760028501555b606081015160038501556004840160018060a01b0360808301511681549060ff60a01b60a0850151151560a01b169160018060a81b0319161717905560c08101516005850155015191015561083e6040519161082d836024356118bf565b6060602084015260608301906118ef565b4260408301527f41bd0ad99110f3fac92b268abcbcbe501cf674b50b295bb98ebf698ae1758371339280600435930390a3005b0151905087806107b7565b906002850160005260206000209160005b601f19851681106108d95750926006949260019260e09583601f198116106108c0575b505050811b0160028501556107cf565b015160001960f88460031b161c191690558780806108b0565b9192602060018192868501518155019401920161088d565b600285016000526020600020601f840160051c810160208510610931575b601f830160051c82018110610925575050610797565b6000815560010161090f565b508061090f565b634e487b7160e01b600052602160045260246000fd5b60405162461bcd60e51b8152602060048201526015602482015274092dcecc2d8d2c840e4cac2e6dedc40d8cadccee8d605b1b6044820152606490fd5b60c891501115826106ec565b60405162461bcd60e51b8152602060048201526018602482015277456d657267656e6379206c6f636b2069732061637469766560401b6044820152606490fd5b6109f69250803d106109fd575b6109ee8183611750565b810190611d88565b83806106aa565b503d6109e4565b6040513d6000823e3d90fd5b346101a0576020806003193601126101a057600435600080516020612582833981519152600052600082526040600020336000528252610a5760ff60406000205416612163565b610a69610a6433836122e8565b6121a0565b80600052600482526040600020336000528252604060002060ff1981541690556040519160008352429083015260008051602061254283398151915260403393a3005b346101a05760003660031901126101a057602060405160008152f35b346101a05760403660031901126101a057610ae16117c9565b600435600052600060205260406000209060018060a01b0316600052602052602060ff604060002054166040519015158152f35b346101a05760003660031901126101a05760a060055460065460075460ff60085416906009549260405194855260208501526040840152151560608301526080820152f35b346101a05760403660031901126101a0576024356004356000526003602052604060002080548210156101a057602091610b9391611914565b905460405160039290921b1c6001600160a01b03168152f35b346101a0576020806003193601126101a057600060e0604051610bce81611719565b8281528284820152606060408201528260608201528260808201528260a08201528260c0820152015260043560005260028152604060002060405190610c1382611719565b8054825260ff600182015416610c2c8484019182611f60565b610c3860028301611819565b9060408401918252600383015492606085019384526004810154608086019360018060a01b0390818316865260ff60a089019360a01c1615158352610ca8600660058601549560c08b0196875201549560e08a019687526040519a8b9a818c5251908b01525160408a01906118bf565b5194610cc2610100968760608b01526101208a01906118ef565b96516080890152511660a087015251151560c08601525160e085015251908301520390f35b346101a05760003660031901126101a057602060ff600154166040519015158152f35b346101a05760203660031901126101a05760043560005260026020526040600020805460ff60018301541691610d4260028201611819565b60038201549160ff6004820154610d836006600585015494015494610d72604051998a998a5260208a01906118bf565b6101008060408a01528801906118ef565b94606087015260018060a01b038116608087015260a01c16151560a085015260c084015260e08301520390f35b346101a05760003660031901126101a05760015460405160089190911c6001600160a01b03168152602090f35b346101a05760003660031901126101a057610df661192c565b60015460ff811615610e355760ff19166001557f5db9ee0a495bf2e6ff9c91a7834c1ba4fdd244a5e8aa4e537bd38aeae4b073aa6020604051338152a1005b60405162461bcd60e51b815260206004820152601460248201527314185d5cd8589b194e881b9bdd081c185d5cd95960621b6044820152606490fd5b346101a05760403660031901126101a057600435610e8d6117c9565b60015460405163786420d160e01b8152600481018490526103c09392916001600160a01b03919085908290602490829060081c86165afa948515610a0457600095611060575b5050610ee781602080960151163314611f21565b811692831561102157610efa82846122e8565b610fe8576000838152600382526040902080549092600160401b82101561055b57610f4f827f328cfb31557826bd0ee2af22d41990313383e5254b4a543c6eeb1dbc72e8a42e956001610f6e95018155611914565b90919082549060031b9160018060a01b03809116831b921b1916179055565b6000805160206125828339815191528060005260008252604060002085600052825260ff6040600020541615610fa9575b50604051428152a3005b806000526000825260406000208560005282526040600020600160ff19825416179055843391600080516020612502833981519152600080a484610f9f565b6064906040519062461bcd60e51b82526004820152601260248201527120b63932b0b23c90309033bab0b93234b0b760711b6044820152fd5b6064906040519062461bcd60e51b825260048201526018602482015277496e76616c696420677561726469616e206164647265737360401b6044820152fd5b611077929550803d106109fd576109ee8183611750565b928480610ed3565b346101a05760403660031901126101a0576110986117c9565b336001600160a01b038216036110b45761029490600435611bd9565b60405162461bcd60e51b815260206004820152602f60248201527f416363657373436f6e74726f6c3a2063616e206f6e6c792072656e6f756e636560448201526e103937b632b9903337b91039b2b63360891b6064820152608490fd5b346101a05760203660031901126101a057602061112f60043561238a565b604051908152f35b346101a05760403660031901126101a0576004356111536117c9565b81600052600060205261116d600160406000200154611adb565b81600052600060205260406000209060018060a01b0316908160005260205260ff604060002054161561119c57005b8160005260006020526040600020816000526020526040600020600160ff198254161790553391600080516020612502833981519152600080a4005b346101a05760403660031901126101a0576004356111f46117c9565b6001805460405163786420d160e01b8152600481018590529193916001600160a01b03916024916103c091829082908590829060081c88165afa918215610a0457611258928592602092600092611399575b50500151879693949291163314611f21565b61126a61126583866122e8565b612163565b83600052600392836020526040600020928260009116975b6112d7575b8786806000526004602052604060002082600052602052604060002060ff1981541690557f690def215684b8f198111c31d1ff34bebcca5ca00ed2cc1202bb3c9f14f0dadb6020604051428152a3005b8354808210156113935788846112ed8488611914565b905490891b1c1614611309575061130390611fb7565b86611282565b9293949596506000199283810190811161137e5790610f4f8561132f61133d9489611914565b9054908a1b1c169187611914565b835490811561136a575001926113538484611914565b81939154921b1b1916905555808380808080611287565b634e487b7160e01b60009081526031600452fd5b82634e487b7160e01b60005260116004526000fd5b50611287565b6113af9250803d106109fd576109ee8183611750565b8980611246565b346101a05760003660031901126101a05760206040516000805160206125828339815191528152f35b346101a05760203660031901126101a05760043560005260006020526020600160406000200154604051908152f35b346101a0576020806003193601126101a057600435806000526002825261144260ff60046040600020015460a01c16611f6c565b60008051602061258283398151915260005260008252604060002033600052825261147460ff60406000205416612163565b611481610a6433836122e8565b806000526004825260406000203360005282526040600020600160ff198254161790556040519160018352429083015260008051602061254283398151915260403393a3005b346101a05760403660031901126101a0576004356024356001600160401b0381116101a0576114fa903690600401611773565b5060015460405163786420d160e01b8152600481018390526103c092916001600160a01b039084908390602490829060081c85165afa938415610a0457610294946115569360209260009261157b575b50500151163314611f21565b80600052600260205261157660ff60046040600020015460a01c16611f6c565b611fc6565b6115919250803d106109fd576109ee8183611750565b868061154a565b346101a05760203660031901126101a05760043560018060a01b038060015460081c16604051809163786420d160e01b82528460048301528160246103c09485935afa908115610a04576103a0926000926116a9575b5050015116330361166e5780600052600260205261161960ff60046040600020015460a01c16611f6c565b6000818152600260205260409020600401805460ff60a01b1916905561163e81612453565b60405142815233917fe7884c519cf08248780098c2ef938ed6518d8888a9fea4a432e8357db6290d0e60203393a4005b60405162461bcd60e51b81526020600482015260136024820152724e6f7420657374617465206d756c746973696760681b6044820152606490fd5b6116bf9250803d106109fd576109ee8183611750565b84806115ee565b346101a05760203660031901126101a0576004359063ffffffff60e01b82168092036101a057602091637965db0b60e01b8114908115611708575b5015158152f35b6301ffc9a760e01b14905083611701565b61010081019081106001600160401b0382111761055b57604052565b608081019081106001600160401b0382111761055b57604052565b601f909101601f19168101906001600160401b0382119082101761055b57604052565b81601f820112156101a0578035906001600160401b03821161055b57604051926117a7601f8401601f191660200185611750565b828452602083830101116101a057816000926020809301838601378301015290565b602435906001600160a01b03821682036101a057565b90600182811c9216801561180f575b60208310146117f957565b634e487b7160e01b600052602260045260246000fd5b91607f16916117ee565b906040519182600082549261182d846117df565b90818452600194858116908160001461189c5750600114611859575b505061185792500383611750565b565b9093915060005260209081600020936000915b81831061188457505061185793508201013880611849565b8554888401850152948501948794509183019161186c565b91505061185794506020925060ff191682840152151560051b8201013880611849565b9060058210156109385752565b60005b8381106118df5750506000910152565b81810151838201526020016118cf565b90602091611908815180928185528580860191016118cc565b601f01601f1916010190565b80548210156104dc5760005260206000200190600090565b3360009081527fad3228b676f7d3cd4284a5443f17f1962b36e491b30a40b2405849e597ba5fb5602090815260408083205490929060ff161561196e57505050565b61197733611c6b565b908084519061198582611735565b60428252848201926060368537825115611ac75760308453825190600191821015611ac75790607860218501536041915b818311611a5957505050611a2957604861044d938693611a0d936119fe98519889936000805160206125628339815191528a8601526103f4815180928c6037890191016118cc565b01036028810187520185611750565b5192839262461bcd60e51b8452600484015260248301906118ef565b60648486519062461bcd60e51b825280600483015260248201526000805160206125228339815191526044820152fd5b909192600f81166010811015611ab3576f181899199a1a9b1b9c1cb0b131b232b360811b901a611a898587611c5a565b5360041c928015611a9f576000190191906119b6565b634e487b7160e01b82526011600452602482fd5b634e487b7160e01b83526032600452602483fd5b634e487b7160e01b81526032600452602490fd5b600090808252602090828252604092838120338252835260ff848220541615611b045750505050565b611b0d33611c6b565b91845190611b1a82611735565b60428252848201926060368537825115611ac75760308453825190600191821015611ac75790607860218501536041915b818311611b9357505050611a2957604861044d938693611a0d936119fe98519889936000805160206125628339815191528a8601526103f4815180928c6037890191016118cc565b909192600f81166010811015611ab3576f181899199a1a9b1b9c1cb0b131b232b360811b901a611bc38587611c5a565b5360041c928015611a9f57600019019190611b4b565b9060009180835282602052604083209160018060a01b03169182845260205260ff604084205416611c0957505050565b80835282602052604083208284526020526040832060ff1981541690557ff6391f5c32d9c69d2a47ea670b442974b53935d1edc7fd64eb21e047a839171b339380a4565b919082018092116104c657565b9081518110156104dc570160200190565b60405190606082016001600160401b0381118382101761055b57604052602a82526020820160403682378251156104dc576030905381516001908110156104dc57607860218401536029905b808211611cf9575050611cc75790565b606460405162461bcd60e51b815260206004820152602060248201526000805160206125228339815191526044820152fd5b9091600f81166010811015611d52576f181899199a1a9b1b9c1cb0b131b232b360811b901a611d288486611c5a565b5360041c918015611d3d576000190190611cb7565b60246000634e487b7160e01b81526011600452fd5b60246000634e487b7160e01b81526032600452fd5b51906001600160a01b03821682036101a057565b519081151582036101a057565b80916103c092839103126101a0576040519182016001600160401b0381118382101761055b5760405280518252611dc160208201611d67565b602083015260408101516040830152606081015160608301526080810151608083015260a081015160a083015260c081015160c083015260e081015160e08301526101008082015190830152610120611e1b818301611d7b565b90830152610140611e2d818301611d7b565b90830152610160808201519083015261018080820151908301526101a080820151908301526101c0611e60818301611d7b565b908301526101e0611e72818301611d67565b90830152610200808201519083015261022080820151908301526102408082015190830152610260808201519083015261028080820151908301526102a080820151908301526102c080820151908301526102e0808201519083015261030080820151908301526103208082015190830152610340611ef2818301611d7b565b9083015261036080820151908301526103808082015190830152611f1a6103a0809201611d67565b9082015290565b15611f2857565b60405162461bcd60e51b815260206004820152601060248201526f2737ba1032b9ba30ba329037bbb732b960811b6044820152606490fd5b60058210156109385752565b15611f7357565b60405162461bcd60e51b815260206004820152601c60248201527b456d657267656e6379206c6f636b206973206e6f742061637469766560201b6044820152606490fd5b60001981146104c65760010190565b8060005260026020526040908160002060058101805480612109575b6005548110156120c657611ff590611fb7565b815542600683015560ff60085416612053575b60047fd9aa9f69368d3a93c3607757fd0d8cc29edd3fab0c153b7dfbf9b623e51523a1920160ff60a01b19815416905561204183612453565b549280519384524260208501523393a3565b61205c8361238a565b6009541115612008575050601f8251928084528301527f496e73756666696369656e7420677561726469616e20617070726f76616c730060608301524260208301527fba8550bb2727971e047c6a3f2189c01472fb5306be939ed9a5d30b4ec41764ec60803393a3565b845162461bcd60e51b815260206004820152601c60248201527b13585e081d5b9b1bd8dac8185d1d195b5c1d1cc8195e18d95959195960221b6044820152606490fd5b61211a600684015460065490611c4d565b421015611fe257845162461bcd60e51b815260206004820152601b60248201527a10dbdbdb191bdddb881c195c9a5bd9081b9bdd08195b185c1cd959602a1b6044820152606490fd5b1561216a57565b60405162461bcd60e51b815260206004820152600e60248201526d2737ba10309033bab0b93234b0b760911b6044820152606490fd5b156121a757565b60405162461bcd60e51b815260206004820152601c60248201527b4e6f7420677561726469616e20666f7220746869732065737461746560201b6044820152606490fd5b600090808252600260205260e06040832060405161220881611719565b8154815261222060ff60018401541660208301611f60565b61222c60028301611819565b60408201526003820154606082015260ff600483015460018060a01b038116608084015260a01c161590811560a082015260066005840154938460c0840152015493849101526122ce576005548110156122ce576122b2575b5060ff60085416612298575b5050600190565b6122a19061238a565b600954116122af5780612291565b90565b6006546122be91611c4d565b42106122ca5738612285565b5090565b50505090565b80518210156104dc5760209160051b010190565b90600091825260206003815260408320906040518092839183825491828152019187528387209387905b8282106123675750505061232892500382611750565b825b81518110156122ce576001600160a01b038061234683856122d4565b51169084161461235e5761235990611fb7565b61232a565b50505050600190565b85546001600160a01b031684526001958601958795509381019390910190612312565b9060009180835260209260038452604093848220908551808383829554938481520190865283862092865b85828210612434575050506123cc92500383611750565b8293835b835181101561242a57818552600483528785206001600160a01b036123f583876122d4565b51168652835260ff8886205416612415575b61241090611fb7565b6123d0565b9461242261241091611fb7565b959050612407565b5093955050505050565b85546001600160a01b03168452600195860195889550930192016123b5565b600081815260209060038252604091828220908351808383829554938481520190865283862092865b858282106124e25750505061249392500383611750565b825b82518110156124da57858452600482528484206124d591906001600160a01b036124bf83876122d4565b511686528352858520805460ff19169055611fb7565b612495565b505050505050565b85546001600160a01b031684526001958601958895509301920161247c56fe2f8788117e7eff1d82e926ec794901d17c78024a50270940304540a733656f0d537472696e67733a20686578206c656e67746820696e73756666696369656e74c07b782a6f11ab80f8d853ed1c5788869623d7d858a363f9356161cc2b480131416363657373436f6e74726f6c3a206163636f756e742000000000000000000055435dd261a4b9b3364963f7738a7a662ad9c84396d64be3365284bb7f0a5041a2646970667358221220369e1b200a0c88e6a97a9f082e4debab2f35e8373c185840d3812d331486afcd64736f6c634300081300332f8788117e7eff1d82e926ec794901d17c78024a50270940304540a733656f0d",
  "linkReferences": {},
  "deployedLinkReferences": {}
}