{
  "_format": "hh-sol-artifact-1",
  "contractName": "DefaiSwap",
  "sourceName": "contracts/DefaiSwap.sol",
  "abi": [
    {
      "inputs": [
        {
          "internalType": "address",
          "name": "_oldDefaiToken",
          "type": "address"
        },
        {
          "internalType": "address",
          "name": "_defaiToken",
          "type": "address"
        },
        {
          "internalType": "address",
          "name": "_nftCollection",
          "type": "address"
        },
        {
          "internalType": "address",
          "name": "_treasury",
          "type": "address"
        },
        {
          "internalType": "uint256[5]",
          "name": "_prices",
          "type": "uint256[5]"
        },
        {
          "internalType": "address",
          "name": "_vrfCoordinator",
          "type": "address"
        },
        {
          "internalType": "uint64",
          "name": "_subscriptionId",
          "type": "uint64"
        },
        {
          "internalType": "bytes32",
          "name": "_keyHash",
          "type": "bytes32"
        }
      ],
      "stateMutability": "nonpayable",
      "type": "constructor"
    },
    {
      "inputs": [
        {
          "internalType": "address",
          "name": "have",
          "type": "address"
        },
        {
          "internalType": "address",
          "name": "want",
          "type": "address"
        }
      ],
      "name": "OnlyCoordinatorCanFulfill",
      "type": "error"
    },
    {
      "anonymous": false,
      "inputs": [
        {
          "indexed": true,
          "internalType": "address",
          "name": "admin",
          "type": "address"
        },
        {
          "indexed": false,
          "internalType": "string",
          "name": "action",
          "type": "string"
        },
        {
          "indexed": false,
          "internalType": "uint256",
          "name": "timestamp",
          "type": "uint256"
        }
      ],
      "name": "AdminAction",
      "type": "event"
    },
    {
      "anonymous": false,
      "inputs": [
        {
          "indexed": true,
          "internalType": "address",
          "name": "user",
          "type": "address"
        },
        {
          "indexed": false,
          "internalType": "uint256",
          "name": "amount",
          "type": "uint256"
        },
        {
          "indexed": false,
          "internalType": "uint256",
          "name": "vestingStart",
          "type": "uint256"
        },
        {
          "indexed": false,
          "internalType": "uint256",
          "name": "vestingEnd",
          "type": "uint256"
        }
      ],
      "name": "AirdropClaimed",
      "type": "event"
    },
    {
      "anonymous": false,
      "inputs": [
        {
          "indexed": true,
          "internalType": "address",
          "name": "user",
          "type": "address"
        },
        {
          "indexed": true,
          "internalType": "uint256",
          "name": "tokenId",
          "type": "uint256"
        },
        {
          "indexed": false,
          "internalType": "uint16",
          "name": "oldBonusBps",
          "type": "uint16"
        },
        {
          "indexed": false,
          "internalType": "uint16",
          "name": "newBonusBps",
          "type": "uint16"
        },
        {
          "indexed": false,
          "internalType": "uint256",
          "name": "taxPaid",
          "type": "uint256"
        },
        {
          "indexed": false,
          "internalType": "uint256",
          "name": "timestamp",
          "type": "uint256"
        }
      ],
      "name": "BonusRerolled",
      "type": "event"
    },
    {
      "anonymous": false,
      "inputs": [
        {
          "indexed": true,
          "internalType": "address",
          "name": "previousOwner",
          "type": "address"
        },
        {
          "indexed": true,
          "internalType": "address",
          "name": "newOwner",
          "type": "address"
        }
      ],
      "name": "OwnershipTransferred",
      "type": "event"
    },
    {
      "anonymous": false,
      "inputs": [
        {
          "indexed": false,
          "internalType": "address",
          "name": "account",
          "type": "address"
        }
      ],
      "name": "Paused",
      "type": "event"
    },
    {
      "anonymous": false,
      "inputs": [
        {
          "indexed": true,
          "internalType": "address",
          "name": "user",
          "type": "address"
        },
        {
          "indexed": true,
          "internalType": "uint256",
          "name": "tokenId",
          "type": "uint256"
        },
        {
          "indexed": false,
          "internalType": "uint256",
          "name": "amountReturned",
          "type": "uint256"
        },
        {
          "indexed": false,
          "internalType": "uint256",
          "name": "feesDeducted",
          "type": "uint256"
        },
        {
          "indexed": false,
          "internalType": "uint256",
          "name": "timestamp",
          "type": "uint256"
        }
      ],
      "name": "RedemptionExecuted",
      "type": "event"
    },
    {
      "anonymous": false,
      "inputs": [
        {
          "indexed": true,
          "internalType": "address",
          "name": "user",
          "type": "address"
        },
        {
          "indexed": false,
          "internalType": "uint8",
          "name": "tier",
          "type": "uint8"
        },
        {
          "indexed": false,
          "internalType": "uint256",
          "name": "price",
          "type": "uint256"
        },
        {
          "indexed": false,
          "internalType": "uint256",
          "name": "taxAmount",
          "type": "uint256"
        },
        {
          "indexed": false,
          "internalType": "uint16",
          "name": "bonusBps",
          "type": "uint16"
        },
        {
          "indexed": true,
          "internalType": "uint256",
          "name": "tokenId",
          "type": "uint256"
        },
        {
          "indexed": false,
          "internalType": "uint256",
          "name": "timestamp",
          "type": "uint256"
        }
      ],
      "name": "SwapExecuted",
      "type": "event"
    },
    {
      "anonymous": false,
      "inputs": [
        {
          "indexed": true,
          "internalType": "address",
          "name": "user",
          "type": "address"
        },
        {
          "indexed": false,
          "internalType": "uint16",
          "name": "oldRateBps",
          "type": "uint16"
        },
        {
          "indexed": false,
          "internalType": "uint16",
          "name": "newRateBps",
          "type": "uint16"
        },
        {
          "indexed": false,
          "internalType": "uint256",
          "name": "timestamp",
          "type": "uint256"
        }
      ],
      "name": "TaxReset",
      "type": "event"
    },
    {
      "anonymous": false,
      "inputs": [
        {
          "indexed": false,
          "internalType": "address",
          "name": "account",
          "type": "address"
        }
      ],
      "name": "Unpaused",
      "type": "event"
    },
    {
      "anonymous": false,
      "inputs": [
        {
          "indexed": true,
          "internalType": "address",
          "name": "user",
          "type": "address"
        },
        {
          "indexed": true,
          "internalType": "uint256",
          "name": "tokenId",
          "type": "uint256"
        },
        {
          "indexed": false,
          "internalType": "uint256",
          "name": "amountClaimed",
          "type": "uint256"
        },
        {
          "indexed": false,
          "internalType": "uint256",
          "name": "totalVested",
          "type": "uint256"
        },
        {
          "indexed": false,
          "internalType": "uint256",
          "name": "timestamp",
          "type": "uint256"
        }
      ],
      "name": "VestingClaimed",
      "type": "event"
    },
    {
      "inputs": [],
      "name": "ADMIN_TIMELOCK_DURATION",
      "outputs": [
        {
          "internalType": "uint256",
          "name": "",
          "type": "uint256"
        }
      ],
      "stateMutability": "view",
      "type": "function"
    },
    {
      "inputs": [],
      "name": "CLIFF_DURATION",
      "outputs": [
        {
          "internalType": "uint256",
          "name": "",
          "type": "uint256"
        }
      ],
      "stateMutability": "view",
      "type": "function"
    },
    {
      "inputs": [],
      "name": "INITIAL_TAX_BPS",
      "outputs": [
        {
          "internalType": "uint16",
          "name": "",
          "type": "uint16"
        }
      ],
      "stateMutability": "view",
      "type": "function"
    },
    {
      "inputs": [],
      "name": "TAX_CAP_BPS",
      "outputs": [
        {
          "internalType": "uint16",
          "name": "",
          "type": "uint16"
        }
      ],
      "stateMutability": "view",
      "type": "function"
    },
    {
      "inputs": [],
      "name": "TAX_INCREMENT_BPS",
      "outputs": [
        {
          "internalType": "uint16",
          "name": "",
          "type": "uint16"
        }
      ],
      "stateMutability": "view",
      "type": "function"
    },
    {
      "inputs": [],
      "name": "TAX_RESET_DURATION",
      "outputs": [
        {
          "internalType": "uint256",
          "name": "",
          "type": "uint256"
        }
      ],
      "stateMutability": "view",
      "type": "function"
    },
    {
      "inputs": [],
      "name": "VESTING_DURATION",
      "outputs": [
        {
          "internalType": "uint256",
          "name": "",
          "type": "uint256"
        }
      ],
      "stateMutability": "view",
      "type": "function"
    },
    {
      "inputs": [],
      "name": "acceptAdminChange",
      "outputs": [],
      "stateMutability": "nonpayable",
      "type": "function"
    },
    {
      "inputs": [],
      "name": "adminChangeTimestamp",
      "outputs": [
        {
          "internalType": "uint256",
          "name": "",
          "type": "uint256"
        }
      ],
      "stateMutability": "view",
      "type": "function"
    },
    {
      "inputs": [
        {
          "internalType": "address",
          "name": "token",
          "type": "address"
        },
        {
          "internalType": "uint256",
          "name": "amount",
          "type": "uint256"
        }
      ],
      "name": "adminWithdraw",
      "outputs": [],
      "stateMutability": "nonpayable",
      "type": "function"
    },
    {
      "inputs": [],
      "name": "airdropMerkleRoot",
      "outputs": [
        {
          "internalType": "bytes32",
          "name": "",
          "type": "bytes32"
        }
      ],
      "stateMutability": "view",
      "type": "function"
    },
    {
      "inputs": [
        {
          "internalType": "address",
          "name": "",
          "type": "address"
        }
      ],
      "name": "airdropVestings",
      "outputs": [
        {
          "internalType": "uint256",
          "name": "totalAmount",
          "type": "uint256"
        },
        {
          "internalType": "uint256",
          "name": "releasedAmount",
          "type": "uint256"
        },
        {
          "internalType": "uint256",
          "name": "startTimestamp",
          "type": "uint256"
        },
        {
          "internalType": "uint256",
          "name": "endTimestamp",
          "type": "uint256"
        },
        {
          "internalType": "uint256",
          "name": "lastClaimedTimestamp",
          "type": "uint256"
        }
      ],
      "stateMutability": "view",
      "type": "function"
    },
    {
      "inputs": [
        {
          "internalType": "uint256",
          "name": "",
          "type": "uint256"
        }
      ],
      "name": "bonusStates",
      "outputs": [
        {
          "internalType": "uint8",
          "name": "tier",
          "type": "uint8"
        },
        {
          "internalType": "uint16",
          "name": "bonusBps",
          "type": "uint16"
        },
        {
          "internalType": "uint256",
          "name": "vestingStart",
          "type": "uint256"
        },
        {
          "internalType": "bool",
          "name": "claimed",
          "type": "bool"
        },
        {
          "internalType": "uint256",
          "name": "feeDeducted",
          "type": "uint256"
        }
      ],
      "stateMutability": "view",
      "type": "function"
    },
    {
      "inputs": [
        {
          "internalType": "uint256",
          "name": "amount",
          "type": "uint256"
        },
        {
          "internalType": "bytes32[]",
          "name": "merkleProof",
          "type": "bytes32[]"
        }
      ],
      "name": "claimAirdrop",
      "outputs": [],
      "stateMutability": "nonpayable",
      "type": "function"
    },
    {
      "inputs": [
        {
          "internalType": "uint256",
          "name": "tokenId",
          "type": "uint256"
        }
      ],
      "name": "claimVested",
      "outputs": [],
      "stateMutability": "nonpayable",
      "type": "function"
    },
    {
      "inputs": [],
      "name": "claimVestedAirdrop",
      "outputs": [],
      "stateMutability": "nonpayable",
      "type": "function"
    },
    {
      "inputs": [],
      "name": "defaiToken",
      "outputs": [
        {
          "internalType": "contract IERC20",
          "name": "",
          "type": "address"
        }
      ],
      "stateMutability": "view",
      "type": "function"
    },
    {
      "inputs": [
        {
          "internalType": "uint16[5]",
          "name": "_tierSupplies",
          "type": "uint16[5]"
        },
        {
          "internalType": "bytes32",
          "name": "_ogTier0MerkleRoot",
          "type": "bytes32"
        },
        {
          "internalType": "bytes32",
          "name": "_airdropMerkleRoot",
          "type": "bytes32"
        },
        {
          "internalType": "uint16",
          "name": "_ogTier0Supply",
          "type": "uint16"
        }
      ],
      "name": "initializeCollection",
      "outputs": [],
      "stateMutability": "nonpayable",
      "type": "function"
    },
    {
      "inputs": [],
      "name": "initializeUserTax",
      "outputs": [],
      "stateMutability": "nonpayable",
      "type": "function"
    },
    {
      "inputs": [],
      "name": "nftCollection",
      "outputs": [
        {
          "internalType": "contract IERC721",
          "name": "",
          "type": "address"
        }
      ],
      "stateMutability": "view",
      "type": "function"
    },
    {
      "inputs": [
        {
          "internalType": "address",
          "name": "",
          "type": "address"
        }
      ],
      "name": "ogTier0Claimed",
      "outputs": [
        {
          "internalType": "bool",
          "name": "",
          "type": "bool"
        }
      ],
      "stateMutability": "view",
      "type": "function"
    },
    {
      "inputs": [],
      "name": "ogTier0MerkleRoot",
      "outputs": [
        {
          "internalType": "bytes32",
          "name": "",
          "type": "bytes32"
        }
      ],
      "stateMutability": "view",
      "type": "function"
    },
    {
      "inputs": [],
      "name": "ogTier0Minted",
      "outputs": [
        {
          "internalType": "uint16",
          "name": "",
          "type": "uint16"
        }
      ],
      "stateMutability": "view",
      "type": "function"
    },
    {
      "inputs": [],
      "name": "ogTier0Supply",
      "outputs": [
        {
          "internalType": "uint16",
          "name": "",
          "type": "uint16"
        }
      ],
      "stateMutability": "view",
      "type": "function"
    },
    {
      "inputs": [],
      "name": "oldDefaiToken",
      "outputs": [
        {
          "internalType": "contract IERC20",
          "name": "",
          "type": "address"
        }
      ],
      "stateMutability": "view",
      "type": "function"
    },
    {
      "inputs": [],
      "name": "owner",
      "outputs": [
        {
          "internalType": "address",
          "name": "",
          "type": "address"
        }
      ],
      "stateMutability": "view",
      "type": "function"
    },
    {
      "inputs": [],
      "name": "pause",
      "outputs": [],
      "stateMutability": "nonpayable",
      "type": "function"
    },
    {
      "inputs": [],
      "name": "paused",
      "outputs": [
        {
          "internalType": "bool",
          "name": "",
          "type": "bool"
        }
      ],
      "stateMutability": "view",
      "type": "function"
    },
    {
      "inputs": [],
      "name": "pendingAdmin",
      "outputs": [
        {
          "internalType": "address",
          "name": "",
          "type": "address"
        }
      ],
      "stateMutability": "view",
      "type": "function"
    },
    {
      "inputs": [
        {
          "internalType": "uint256",
          "name": "",
          "type": "uint256"
        }
      ],
      "name": "pendingSwaps",
      "outputs": [
        {
          "internalType": "address",
          "name": "user",
          "type": "address"
        },
        {
          "internalType": "uint8",
          "name": "tier",
          "type": "uint8"
        },
        {
          "internalType": "uint256",
          "name": "tokenId",
          "type": "uint256"
        },
        {
          "internalType": "uint256",
          "name": "price",
          "type": "uint256"
        },
        {
          "internalType": "uint256",
          "name": "taxAmount",
          "type": "uint256"
        },
        {
          "internalType": "bool",
          "name": "isOldDefai",
          "type": "bool"
        },
        {
          "internalType": "bool",
          "name": "isOgTier0",
          "type": "bool"
        },
        {
          "internalType": "uint256",
          "name": "vestingAmount",
          "type": "uint256"
        }
      ],
      "stateMutability": "view",
      "type": "function"
    },
    {
      "inputs": [
        {
          "internalType": "address",
          "name": "_newAdmin",
          "type": "address"
        }
      ],
      "name": "proposeAdminChange",
      "outputs": [],
      "stateMutability": "nonpayable",
      "type": "function"
    },
    {
      "inputs": [
        {
          "internalType": "uint256",
          "name": "requestId",
          "type": "uint256"
        },
        {
          "internalType": "uint256[]",
          "name": "randomWords",
          "type": "uint256[]"
        }
      ],
      "name": "rawFulfillRandomWords",
      "outputs": [],
      "stateMutability": "nonpayable",
      "type": "function"
    },
    {
      "inputs": [
        {
          "internalType": "uint256",
          "name": "tokenId",
          "type": "uint256"
        }
      ],
      "name": "redeem",
      "outputs": [],
      "stateMutability": "nonpayable",
      "type": "function"
    },
    {
      "inputs": [],
      "name": "renounceOwnership",
      "outputs": [],
      "stateMutability": "nonpayable",
      "type": "function"
    },
    {
      "inputs": [
        {
          "internalType": "uint256",
          "name": "tokenId",
          "type": "uint256"
        }
      ],
      "name": "rerollBonus",
      "outputs": [],
      "stateMutability": "nonpayable",
      "type": "function"
    },
    {
      "inputs": [],
      "name": "resetUserTax",
      "outputs": [],
      "stateMutability": "nonpayable",
      "type": "function"
    },
    {
      "inputs": [
        {
          "internalType": "uint8",
          "name": "tier",
          "type": "uint8"
        },
        {
          "internalType": "uint256",
          "name": "tokenId",
          "type": "uint256"
        }
      ],
      "name": "swapDefaiForNft",
      "outputs": [],
      "stateMutability": "nonpayable",
      "type": "function"
    },
    {
      "inputs": [
        {
          "internalType": "uint256",
          "name": "vestingAmount",
          "type": "uint256"
        },
        {
          "internalType": "bytes32[]",
          "name": "merkleProof",
          "type": "bytes32[]"
        },
        {
          "internalType": "uint256",
          "name": "tokenId",
          "type": "uint256"
        }
      ],
      "name": "swapOgTier0ForNft",
      "outputs": [],
      "stateMutability": "nonpayable",
      "type": "function"
    },
    {
      "inputs": [
        {
          "internalType": "uint8",
          "name": "tier",
          "type": "uint8"
        },
        {
          "internalType": "uint256",
          "name": "tokenId",
          "type": "uint256"
        }
      ],
      "name": "swapOldDefaiForNft",
      "outputs": [],
      "stateMutability": "nonpayable",
      "type": "function"
    },
    {
      "inputs": [
        {
          "internalType": "uint256",
          "name": "",
          "type": "uint256"
        },
        {
          "internalType": "uint256",
          "name": "",
          "type": "uint256"
        }
      ],
      "name": "tierBonusRanges",
      "outputs": [
        {
          "internalType": "uint16",
          "name": "",
          "type": "uint16"
        }
      ],
      "stateMutability": "view",
      "type": "function"
    },
    {
      "inputs": [
        {
          "internalType": "uint256",
          "name": "",
          "type": "uint256"
        }
      ],
      "name": "tierMinted",
      "outputs": [
        {
          "internalType": "uint16",
          "name": "",
          "type": "uint16"
        }
      ],
      "stateMutability": "view",
      "type": "function"
    },
    {
      "inputs": [
        {
          "internalType": "uint256",
          "name": "",
          "type": "uint256"
        }
      ],
      "name": "tierPrices",
      "outputs": [
        {
          "internalType": "uint256",
          "name": "",
          "type": "uint256"
        }
      ],
      "stateMutability": "view",
      "type": "function"
    },
    {
      "inputs": [
        {
          "internalType": "uint256",
          "name": "",
          "type": "uint256"
        }
      ],
      "name": "tierSupplies",
      "outputs": [
        {
          "internalType": "uint16",
          "name": "",
          "type": "uint16"
        }
      ],
      "stateMutability": "view",
      "type": "function"
    },
    {
      "inputs": [
        {
          "internalType": "address",
          "name": "newOwner",
          "type": "address"
        }
      ],
      "name": "transferOwnership",
      "outputs": [],
      "stateMutability": "nonpayable",
      "type": "function"
    },
    {
      "inputs": [],
      "name": "treasury",
      "outputs": [
        {
          "internalType": "address",
          "name": "",
          "type": "address"
        }
      ],
      "stateMutability": "view",
      "type": "function"
    },
    {
      "inputs": [],
      "name": "unpause",
      "outputs": [],
      "stateMutability": "nonpayable",
      "type": "function"
    },
    {
      "inputs": [
        {
          "internalType": "uint256[5]",
          "name": "_prices",
          "type": "uint256[5]"
        }
      ],
      "name": "updatePrices",
      "outputs": [],
      "stateMutability": "nonpayable",
      "type": "function"
    },
    {
      "inputs": [
        {
          "internalType": "address",
          "name": "_treasury",
          "type": "address"
        }
      ],
      "name": "updateTreasury",
      "outputs": [],
      "stateMutability": "nonpayable",
      "type": "function"
    },
    {
      "inputs": [
        {
          "internalType": "address",
          "name": "",
          "type": "address"
        }
      ],
      "name": "userTaxStates",
      "outputs": [
        {
          "internalType": "uint16",
          "name": "taxRateBps",
          "type": "uint16"
        },
        {
          "internalType": "uint256",
          "name": "lastSwapTimestamp",
          "type": "uint256"
        },
        {
          "internalType": "uint32",
          "name": "swapCount",
          "type": "uint32"
        }
      ],
      "stateMutability": "view",
      "type": "function"
    },
    {
      "inputs": [
        {
          "internalType": "uint256",
          "name": "",
          "type": "uint256"
        }
      ],
      "name": "vestingStates",
      "outputs": [
        {
          "internalType": "uint256",
          "name": "totalAmount",
          "type": "uint256"
        },
        {
          "internalType": "uint256",
          "name": "releasedAmount",
          "type": "uint256"
        },
        {
          "internalType": "uint256",
          "name": "startTimestamp",
          "type": "uint256"
        },
        {
          "internalType": "uint256",
          "name": "endTimestamp",
          "type": "uint256"
        },
        {
          "internalType": "uint256",
          "name": "lastClaimedTimestamp",
          "type": "uint256"
        }
      ],
      "stateMutability": "view",
      "type": "function"
    },
    {
      "inputs": [],
      "name": "vrfCallbackGasLimit",
      "outputs": [
        {
          "internalType": "uint32",
          "name": "",
          "type": "uint32"
        }
      ],
      "stateMutability": "view",
      "type": "function"
    },
    {
      "inputs": [],
      "name": "vrfCoordinator",
      "outputs": [
        {
          "internalType": "contract VRFCoordinatorV2Interface",
          "name": "",
          "type": "address"
        }
      ],
      "stateMutability": "view",
      "type": "function"
    },
    {
      "inputs": [],
      "name": "vrfEnabled",
      "outputs": [
        {
          "internalType": "bool",
          "name": "",
          "type": "bool"
        }
      ],
      "stateMutability": "view",
      "type": "function"
    },
    {
      "inputs": [],
      "name": "vrfKeyHash",
      "outputs": [
        {
          "internalType": "bytes32",
          "name": "",
          "type": "bytes32"
        }
      ],
      "stateMutability": "view",
      "type": "function"
    },
    {
      "inputs": [],
      "name": "vrfNumWords",
      "outputs": [
        {
          "internalType": "uint32",
          "name": "",
          "type": "uint32"
        }
      ],
      "stateMutability": "view",
      "type": "function"
    },
    {
      "inputs": [],
      "name": "vrfRequestConfirmations",
      "outputs": [
        {
          "internalType": "uint16",
          "name": "",
          "type": "uint16"
        }
      ],
      "stateMutability": "view",
      "type": "function"
    },
    {
      "inputs": [
        {
          "internalType": "uint256",
          "name": "",
          "type": "uint256"
        }
      ],
      "name": "vrfRequestToTokenId",
      "outputs": [
        {
          "internalType": "uint256",
          "name": "",
          "type": "uint256"
        }
      ],
      "stateMutability": "view",
      "type": "function"
    },
    {
      "inputs": [],
      "name": "vrfSubscriptionId",
      "outputs": [
        {
          "internalType": "uint64",
          "name": "",
          "type": "uint64"
        }
      ],
      "stateMutability": "view",
      "type": "function"
    }
  ],
  "bytecode": "0x600061014081815261016082905260a09081526101809182526105dc6101a081905260c0929092526101c09182526113886101e081905260e0929092526107d0610200908152612710610220526101005261028060405261024091825261753061026052610120919091526200007a906002906005620001d8565b50601880546001600160581b0319166a01000000010003000186a0179055348015620000a557600080fd5b5060405162003b1b38038062003b1b833981016040819052620000c89162000377565b82620000d43362000188565b6000805460ff60a01b19169055600180556001600160a01b03908116608052600780546001600160a01b03199081168b8416179091556008805482168a8416179055600980548216898416179055600a805490911691871691909117905562000141600b85600562000229565b50601680546001600160401b03909316600160a01b026001600160e01b03199093166001600160a01b03909416939093179190911790915560175550620004789350505050565b600080546001600160a01b038381166001600160a01b0319831681178455604051919092169283917f8be0079c531659141344cd1fd0a4f28419497f9722a3daafe3b4186f6b6457e09190a35050565b826005810192821562000217579160200282015b828111156200021757825162000206908390600262000268565b5091602001919060010190620001ec565b506200022592915062000300565b5090565b82600581019282156200025a579160200282015b828111156200025a5782518255916020019190600101906200023d565b506200022592915062000316565b6001830191839082156200025a5791602002820160005b83821115620002c157835183826101000a81548161ffff021916908361ffff16021790555092602001926002016020816001010492830192600103026200027f565b8015620002f15782816101000a81549061ffff0219169055600201602081600101049283019260010302620002c1565b50506200022592915062000316565b8082111562000225576000815560010162000300565b8082111562000225576000815560010162000300565b80516001600160a01b03811681146200034457600080fd5b919050565b634e487b7160e01b600052604160045260246000fd5b80516001600160401b03811681146200034457600080fd5b600080600080600080600080610180898b0312156200039557600080fd5b620003a0896200032c565b97506020620003b1818b016200032c565b9750620003c160408b016200032c565b9650620003d160608b016200032c565b95508a609f8b0112620003e357600080fd5b60405160a081016001600160401b038111828210171562000408576200040862000349565b604052806101208c018d8111156200041f57600080fd5b60808d015b818110156200043d578051835291840191840162000424565b508297506200044c816200032c565b965050505050620004616101408a016200035f565b915061016089015190509295985092959890939650565b6080516136806200049b600039600081816112de015261132001526136806000f3fe608060405234801561001057600080fd5b506004361061038e5760003560e01c80635c55b927116101de5780639802b1261161010f578063d5a92156116100ad578063ed647d211161007c578063ed647d21146108fc578063f192a9d514610930578063f2fde38b14610938578063fecaac141461094b57600080fd5b8063d5a9215614610878578063d93bdf6e146108d8578063db006a75146108e1578063df87c4e5146108f457600080fd5b8063afaf06a7116100e9578063afaf06a7146107b2578063b3daa6521461055c578063b8b1ccc8146107bb578063bced052e146107ce57600080fd5b80639802b12614610783578063a3e56fa814610796578063a5ce30d2146107a957600080fd5b80637f51bb1f1161017c578063872715f611610156578063872715f6146106d6578063876b6834146106ea5780638d92bb55146106fd5780638da5cb5b1461077257600080fd5b80637f51bb1f146106a8578063828a9985146106bb5780638456cb59146106ce57600080fd5b80636588103b116101b85780636588103b1461067c57806368cb4d9c1461068f578063715018a61461069857806377f3110d146106a057600080fd5b80635c55b927146106435780635c975abb1461065757806361d027b31461066957600080fd5b806326782247116102c3578063401d4482116102615780634cfc4d30116102305780634cfc4d30146106045780635151804a1461060e578063538120f114610625578063598bc4861461062e57600080fd5b8063401d4482146105cc5780634267a1f5146105df5780634505d24e146105f25780634b4ec2b1146105fa57600080fd5b806330d2df831161029d57806330d2df831461057957806334e6fc911461058c5780633b7ed7341461059f5780633f4ba83a146105c457600080fd5b806326782247146105425780632b285f1b1461055c578063300eccab1461056657600080fd5b8063121829ca116103305780631fe543e31161030a5780631fe543e314610501578063204fd3b4146105145780632327a76514610527578063266dad321461053a57600080fd5b8063121829ca146104a2578063176d6ae9146104cd57806317978ac0146104e057600080fd5b8063050d69c21161036c578063050d69c2146104345780630bcae1ac146104675780630fb6f1341461047c578063109565a21461048f57600080fd5b8063019ccb821461039357806301b72900146103fd578063041d443e1461042b575b600080fd5b6103d06103a1366004612fb2565b601b60205260009081526040902080546001820154600283015460038401546004909401549293919290919085565b604080519586526020860194909452928401919091526060830152608082015260a0015b60405180910390f35b61041d61040b366004612fb2565b601e6020526000908152604090205481565b6040519081526020016103f4565b61041d60175481565b610457610442366004612fe0565b601c6020526000908152604090205460ff1681565b60405190151581526020016103f4565b61047a610475366004613049565b610988565b005b61047a61048a366004613095565b610b33565b61047a61049d366004613095565b610f69565b6007546104b5906001600160a01b031681565b6040516001600160a01b0390911681526020016103f4565b61047a6104db366004613137565b6112be565b6014546104ee9061ffff1681565b60405161ffff90911681526020016103f4565b61047a61050f366004613197565b6112d3565b61047a610522366004612fb2565b611357565b61047a610535366004613260565b611595565b6104ee606481565b6014546104b590600160201b90046001600160a01b031681565b61041d6202a30081565b61041d610574366004612fb2565b6115cc565b61047a610587366004612fe0565b6115e3565b61047a61059a366004612fb2565b61169a565b6018546105af9063ffffffff1681565b60405163ffffffff90911681526020016103f4565b61047a611a3f565b61047a6105da3660046132e7565b611a9e565b61047a6105ed366004613305565b611b23565b61047a611e04565b61041d6201518081565b61041d6276a70081565b6018546105af90600160301b900463ffffffff1681565b6104ee610bb881565b6018546104ee90600160201b900461ffff1681565b60185461045790600160501b900460ff1681565b600054600160a01b900460ff16610457565b600a546104b5906001600160a01b031681565b6009546104b5906001600160a01b031681565b6104ee6101f481565b61047a611fa7565b61047a611fb9565b61047a6106b6366004612fe0565b612085565b6008546104b5906001600160a01b031681565b61047a6120f8565b6014546104ee9062010000900461ffff1681565b6104ee6106f8366004612fb2565b61214f565b61074161070b366004612fb2565b601a60205260009081526040902080546001820154600283015460039093015460ff8084169461010090940461ffff1693169085565b6040805160ff909616865261ffff90941660208601529284019190915215156060830152608082015260a0016103f4565b6000546001600160a01b03166104b5565b6104ee610791366004613358565b61217d565b6016546104b5906001600160a01b031681565b61041d60135481565b61041d60155481565b6104ee6107c9366004612fb2565b6121bd565b61082d6107dc366004612fb2565b601f602052600090815260409020805460018201546002830154600384015460048501546005909501546001600160a01b0385169560ff600160a01b90960486169581811692610100909204169088565b604080516001600160a01b03909916895260ff90971660208901529587019490945260608601929092526080850152151560a0840152151560c083015260e0820152610100016103f4565b6108b2610886366004612fe0565b60196020526000908152604090208054600182015460029092015461ffff909116919063ffffffff1683565b6040805161ffff9094168452602084019290925263ffffffff16908201526060016103f4565b61041d60125481565b61047a6108ef366004612fb2565b6121cd565b61047a612376565b60165461091790600160a01b900467ffffffffffffffff1681565b60405167ffffffffffffffff90911681526020016103f4565b61047a6124b1565b61047a610946366004612fe0565b6124f5565b6103d0610959366004612fe0565b601d60205260009081526040902080546001820154600283015460038401546004909401549293919290919085565b61099061256b565b6109986125b8565b336000908152601d602052604090208054156109ed5760405162461bcd60e51b815260206004820152600f60248201526e105b1c9958591e4818db185a5b5959608a1b60448201526064015b60405180910390fd5b6040516001600160601b03193360601b16602082015260348101859052600090605401604051602081830303815290604052805190602001209050610a69848480806020026020016040519081016040528093929190818152602001838360200280828437600092019190915250506013549150849050612611565b610aa55760405162461bcd60e51b815260206004820152600d60248201526c24b73b30b634b210383937b7b360991b60448201526064016109e4565b848255600060018301554260028301819055610ac5906276a70090613390565b6003830155426004830181905533907ffedf0b5680f1b4c33012be9dc9002760386b67e06ee715d4e62ded585fb312ee908790610b056276a70082613390565b6040805193845260208401929092529082015260600160405180910390a25050610b2e60018055565b505050565b610b3b61256b565b610b436125b8565b60058260ff1610610b855760405162461bcd60e51b815260206004820152600c60248201526b24b73b30b634b2103a34b2b960a11b60448201526064016109e4565b8160ff16600003610bdb57601454601054600091610baa9161ffff91821691166133b9565b60115490915061ffff808316911610610bd55760405162461bcd60e51b81526004016109e4906133db565b50610c60565b60108260ff1660058110610bf157610bf16133a3565b601091828204019190066002029054906101000a900461ffff1661ffff1660118360ff1660058110610c2557610c256133a3565b601091828204019190066002029054906101000a900461ffff1661ffff1610610c605760405162461bcd60e51b81526004016109e4906133db565b3360009081526019602052604081208054909161ffff9091169003610c8d57805461ffff19166101f41781555b62015180816001015442610ca191906133fe565b10610cc357805461ffff19166101f417815560028101805463ffffffff191690555b6000600b8460ff1660058110610cdb57610cdb6133a3565b0154825490915060009061271090610cf79061ffff1684613411565b610d01919061343e565b90506000610d0f82846133fe565b600a54600854919250610d31916001600160a01b039081169133911685612629565b600854610d49906001600160a01b0316333084612629565b8354610d6b90610d5f9060649061ffff16613452565b61ffff16610bb8612694565b845461ffff191661ffff9190911617845560028401805463ffffffff16906000610d948361346d565b91906101000a81548163ffffffff021916908363ffffffff1602179055505042846001018190555060118660ff1660058110610dd257610dd26133a3565b6010918282040191900660020281819054906101000a900461ffff1680929190610dfb90613490565b82546101009290920a61ffff818102199093169190921691909102179055506000858152601f6020526040902080546001600160a81b0319163360ff60a01b191617600160a01b60ff8981169190910291909117825560018201879055600282018590556003820184905560048201805460ff19169055601854600160501b90041615610f45576016546017546018546040516305d3b1d360e41b81526000936001600160a01b03811693635d3b1d3093610eeb939192600160a01b900467ffffffffffffffff1691600160201b820461ffff169163ffffffff80821692600160301b90920416906004016134a7565b6020604051808303816000875af1158015610f0a573d6000803e3d6000fd5b505050506040513d601f19601f82011682018060405250810190610f2e91906134e1565b6000908152601e6020526040902087905550610f57565b610f5786610f52886126ae565b612705565b5050505050610f6560018055565b5050565b610f7161256b565b610f796125b8565b60058260ff1610610fbb5760405162461bcd60e51b815260206004820152600c60248201526b24b73b30b634b2103a34b2b960a11b60448201526064016109e4565b8160ff1660000361101157601454601054600091610fe09161ffff91821691166133b9565b60115490915061ffff80831691161061100b5760405162461bcd60e51b81526004016109e4906133db565b50611096565b60108260ff1660058110611027576110276133a3565b601091828204019190066002029054906101000a900461ffff1661ffff1660118360ff166005811061105b5761105b6133a3565b601091828204019190066002029054906101000a900461ffff1661ffff16106110965760405162461bcd60e51b81526004016109e4906133db565b6000600b8360ff16600581106110ae576110ae6133a3565b01546007549091506110cb906001600160a01b0316333084612629565b336000908152601960205260408120600281018054919263ffffffff909216916110f48361346d565b91906101000a81548163ffffffff021916908363ffffffff1602179055505060118460ff1660058110611129576111296133a3565b6010918282040191900660020281819054906101000a900461ffff168092919061115290613490565b82546101009290920a61ffff818102199093169190921691909102179055506000838152601f6020526040812080546001600160a81b0319163360ff60a01b191617600160a01b60ff88811691909102919091178255600182810187905560028301869055600383019390935560048201805460ff19169093179092556018549091600160501b90910416156112a5576016546017546018546040516305d3b1d360e41b81526000936001600160a01b03811693635d3b1d309361124b939192600160a01b900467ffffffffffffffff1691600160201b820461ffff169163ffffffff80821692600160301b90920416906004016134a7565b6020604051808303816000875af115801561126a573d6000803e3d6000fd5b505050506040513d601f19601f8201168201806040525081019061128e91906134e1565b6000908152601e60205260409020859055506112b2565b6112b284610f52866126ae565b505050610f6560018055565b6112c6612957565b610f65600b826005612ed2565b336001600160a01b037f0000000000000000000000000000000000000000000000000000000000000000161461134d5760405163073e64fd60e21b81523360048201526001600160a01b037f00000000000000000000000000000000000000000000000000000000000000001660248201526044016109e4565b610f6582826129b1565b61135f61256b565b6113676125b8565b6009546040516331a9108f60e11b81526004810183905233916001600160a01b031690636352211e90602401602060405180830381865afa1580156113b0573d6000803e3d6000fd5b505050506040513d601f19601f820116820180604052508101906113d491906134fa565b6001600160a01b0316146113fa5760405162461bcd60e51b81526004016109e490613517565b6000818152601b60205260409020600281015461141b906202a30090613390565b42101561145b5760405162461bcd60e51b815260206004820152600e60248201526d29ba34b6361034b71031b634b33360911b60448201526064016109e4565b600081600201544261146d91906133fe565b905060008260020154836003015461148591906133fe565b90506000818310611498575082546114b4565b835482906114a7908590613411565b6114b1919061343e565b90505b60008460010154826114c691906133fe565b90506000811161150b5760405162461bcd60e51b815260206004820152601060248201526f4e6f7468696e6720746f20636c61696d60801b60448201526064016109e4565b8085600101600082825461151f9190613390565b9091555050426004860155600854611541906001600160a01b03163383612a39565b604080518281526020810184905242818301529051879133917f6a24ffa6f73d1b90bd1f1f3fb25d4f9826cd292542b65f1be0357c7e9aba0cf29181900360600190a3505050505061159260018055565b50565b61159d612957565b6115aa6010856005612f10565b506012929092556013556014805461ffff191661ffff90921691909117905550565b600b81600581106115dc57600080fd5b0154905081565b6115eb612957565b60148054640100000000600160c01b031916600160201b6001600160a01b0384160217905561161d6202a30042613390565b6015556040517f50726f706f73652061646d696e206368616e676520746f20000000000000000060208201526001600160601b0319606083901b166038820152339060008051602061362b83398151915290604c015b60408051601f198184030181529082905261168f91429061358a565b60405180910390a250565b6116a261256b565b6116aa6125b8565b6009546040516331a9108f60e11b81526004810183905233916001600160a01b031690636352211e90602401602060405180830381865afa1580156116f3573d6000803e3d6000fd5b505050506040513d601f19601f8201168201806040525081019061171791906134fa565b6001600160a01b03161461173d5760405162461bcd60e51b81526004016109e490613517565b6000818152601a60209081526040808320601b83528184203385526019909352908320815491939091600b9060ff166005811061177c5761177c6133a3565b01546008546040516370a0823160e01b815233600482015291925082916001600160a01b03909116906370a0823190602401602060405180830381865afa1580156117cb573d6000803e3d6000fd5b505050506040513d601f19601f820116820180604052508101906117ef91906134e1565b10156118345760405162461bcd60e51b8152602060048201526014602482015273496e73756666696369656e742062616c616e636560601b60448201526064016109e4565b81546000906127109061184b9061ffff1684613411565b611855919061343e565b8554601854919250610100900461ffff1690600160501b900460ff16156118d15760405162461bcd60e51b815260206004820152602a60248201527f565246207265726f6c6c206e6f7420696d706c656d656e74656420696e2074686044820152696973206578616d706c6560b01b60648201526084016109e4565b60006118dc886126ae565b875490915060009060029060ff16600581106118fa576118fa6133a3565b0154885461ffff909116915060009060029060ff166005811061191f5761191f6133a3565b015462010000900461ffff169050600061193a848484612a69565b8a5462ffff00191661010061ffff831602178b554260018c015560038b018054919250879160009061196d908490613390565b909155506000905061271061198661ffff84168a613411565b611990919061343e565b808b55600060018c01554260028c018190559091506119b3906276a70090613390565b60038b015588546119ce90610d5f9060649061ffff16613452565b895461ffff191661ffff918216178a55604080518883168152918416602083015281018890524260608201528c9033907faf5797b911bb72dfba095d596dd02097401d47ca2b856447eed7e41562fe4baf9060800160405180910390a3505050505050505050505061159260018055565b611a47612957565b611a4f612ab9565b604080518181526010918101919091526f155b9c185d5cd9481c1c9bdd1bd8dbdb60821b6060820152426020820152339060008051602061362b833981519152906080015b60405180910390a2565b611aa6612957565b611aba6001600160a01b0383163383612a39565b6040516802bb4ba34323930bb960bd1b6020820152602981018290526620746f6b656e7360c81b6049820152339060008051602061362b8339815191529060500160408051601f1981840301815290829052611b1791429061358a565b60405180910390a25050565b611b2b61256b565b611b336125b8565b336000908152601c602052604090205460ff1615611b855760405162461bcd60e51b815260206004820152600f60248201526e105b1c9958591e4818db185a5b5959608a1b60448201526064016109e4565b60145461ffff808216620100009092041610611bb35760405162461bcd60e51b81526004016109e4906133db565b6040516001600160601b03193360601b16602082015260348101859052600090605401604051602081830303815290604052805190602001209050611c2f848480806020026020016040519081016040528093929190818152602001838360200280828437600092019190915250506012549150849050612611565b611c6b5760405162461bcd60e51b815260206004820152600d60248201526c24b73b30b634b210383937b7b360991b60448201526064016109e4565b336000908152601c60205260409020805460ff191660011790556014805461ffff6201000090910416906002611ca083613490565b825461ffff91821661010093840a90810292021916179091556000848152601f60205260408120805460ff60a01b1933166001600160a81b03199091161781556001810186905560028101829055600381019190915560048101805461ff00191690921790915560058101879055601854909150600160501b900460ff1615611de6576016546017546018546040516305d3b1d360e41b81526000936001600160a01b03811693635d3b1d3093611d8c939192600160a01b900467ffffffffffffffff1691600160201b820461ffff169163ffffffff80821692600160301b90920416906004016134a7565b6020604051808303816000875af1158015611dab573d6000803e3d6000fd5b505050506040513d601f19601f82011682018060405250810190611dcf91906134e1565b6000908152601e6020526040902084905550611df3565b611df383610f52856126ae565b5050611dfe60018055565b50505050565b611e0c61256b565b611e146125b8565b336000908152601d602052604090208054611e5e5760405162461bcd60e51b815260206004820152600a60248201526904e6f2061697264726f760b41b60448201526064016109e4565b6202a3008160020154611e719190613390565b421015611eb15760405162461bcd60e51b815260206004820152600e60248201526d29ba34b6361034b71031b634b33360911b60448201526064016109e4565b6000816002015442611ec391906133fe565b9050600082600201548360030154611edb91906133fe565b90506000818310611eee57508254611f0a565b83548290611efd908590613411565b611f07919061343e565b90505b6000846001015482611f1c91906133fe565b905060008111611f615760405162461bcd60e51b815260206004820152601060248201526f4e6f7468696e6720746f20636c61696d60801b60448201526064016109e4565b80856001016000828254611f759190613390565b9091555050426004860155600854611f97906001600160a01b03163383612a39565b5050505050611fa560018055565b565b611faf612957565b611fa56000612b0e565b3360009081526019602052604090206001810154611fdb906201518090613390565b4210156120205760405162461bcd60e51b815260206004820152601360248201527254617820726573657420746f6f206561726c7960681b60448201526064016109e4565b80546101f461ffff1982168117835560028301805463ffffffff191690556040805161ffff909316808452602084019290925242908301529033907ffcdf5d5fb743dc2da891518ffed2e459bd9249595b2450b166fbe4b6de8eb26c90606001611b17565b61208d612957565b6001600160a01b0381166120d65760405162461bcd60e51b815260206004820152601060248201526f496e76616c696420747265617375727960801b60448201526064016109e4565b600a80546001600160a01b0319166001600160a01b0392909216919091179055565b612100612957565b612108612b5e565b60408051818152600e918101919091526d14185d5cd9481c1c9bdd1bd8dbdb60921b6060820152426020820152339060008051602061362b83398151915290608001611a94565b6010816005811061215f57600080fd5b60109182820401919006600202915054906101000a900461ffff1681565b6002826005811061218d57600080fd5b01816002811061219c57600080fd5b60109182820401919006600202915091509054906101000a900461ffff1681565b6011816005811061215f57600080fd5b6121d561256b565b6121dd6125b8565b6009546040516331a9108f60e11b81526004810183905233916001600160a01b031690636352211e90602401602060405180830381865afa158015612226573d6000803e3d6000fd5b505050506040513d601f19601f8201168201806040525081019061224a91906134fa565b6001600160a01b0316146122705760405162461bcd60e51b81526004016109e490613517565b6000818152601a60205260409020600281015460ff16156122c65760405162461bcd60e51b815260206004820152601060248201526f105b1c9958591e481c995919595b595960821b60448201526064016109e4565b8054600090600b9060ff16600581106122e1576122e16133a3565b0154905060008260030154826122f791906133fe565b600854909150612311906001600160a01b03163383612a39565b60028301805460ff1916600117905560038301546040805183815260208101929092524290820152849033907ff28d461e116017e46c539071aa0d370bbfbae5b98b762a3df5d87209470514689060600160405180910390a350505061159260018055565b61237e612957565b601454600160201b90046001600160a01b03166123d05760405162461bcd60e51b815260206004820152601060248201526f2737903832b73234b7339030b236b4b760811b60448201526064016109e4565b6015544210156124195760405162461bcd60e51b8152602060048201526014602482015273151a5b595b1bd8dac81b9bdd08195e1c1a5c995960621b60448201526064016109e4565b6000546014546001600160a01b039182169161243c91600160201b900416612b0e565b60148054640100000000600160c01b03191690819055600060155560405170020b236b4b71031b430b733b2b2103a379607d1b6020820152600160201b90910460601b6001600160601b03191660318201526001600160a01b0382169060008051602061362b83398151915290604501611673565b3360009081526019602052604081208054909161ffff909116900361159257805461ffff19166101f417815542600182015560028101805463ffffffff1916905550565b6124fd612957565b6001600160a01b0381166125625760405162461bcd60e51b815260206004820152602660248201527f4f776e61626c653a206e6577206f776e657220697320746865207a65726f206160448201526564647265737360d01b60648201526084016109e4565b61159281612b0e565b600054600160a01b900460ff1615611fa55760405162461bcd60e51b815260206004820152601060248201526f14185d5cd8589b194e881c185d5cd95960821b60448201526064016109e4565b60026001540361260a5760405162461bcd60e51b815260206004820152601f60248201527f5265656e7472616e637947756172643a207265656e7472616e742063616c6c0060448201526064016109e4565b6002600155565b60008261261e8584612ba1565b1490505b9392505050565b6040516001600160a01b0380851660248301528316604482015260648101829052611dfe9085906323b872dd60e01b906084015b60408051601f198184030181529190526020810180516001600160e01b03166001600160e01b031990931692909217909152612bee565b60008183106126a357816126a5565b825b90505b92915050565b60408051426020820152449181019190915233606090811b6001600160601b031916908201526074810182905243609482015260009060b40160408051601f19818403018152919052805160209091012092915050565b6000828152601f6020526040902080546001600160a01b031661275c5760405162461bcd60e51b815260206004820152600f60248201526e04e6f2070656e64696e67207377617608c1b60448201526064016109e4565b8054600090600290600160a01b900460ff166005811061277e5761277e6133a3565b0154825461ffff9091169150600090600290600160a01b900460ff16600581106127aa576127aa6133a3565b015462010000900461ffff16905060006127c5858484612a69565b6000878152601a602090815260408083208854815461ffff871661010090810262ffffff1990921660ff600160a01b90940484161791909117835542600184015560028301805460ff1916905560038301869055601b90945291842060048a0154959650909490939290041661285b576127108461ffff16886002015461284c9190613411565b612856919061343e565b612861565b86600501545b808355600060018401554260028401819055909150612884906276a70090613390565b6003838101919091554260048401819055885460028a0154928a015460408051600160a01b840460ff168152602081019590955284015261ffff8716606084015260808301919091528a916001600160a01b03909116907fdc374c3f84852f802ebe16a5acd2f36d10740c35266374a67858c5c0f30ee8ff9060a00160405180910390a350505060009586525050601f60205250506040822080546001600160a81b031916815560018101839055600281018390556003810183905560048101805461ffff191690556005019190915550565b6000546001600160a01b03163314611fa55760405162461bcd60e51b815260206004820181905260248201527f4f776e61626c653a2063616c6c6572206973206e6f7420746865206f776e657260448201526064016109e4565b6000828152601e602052604081205490819003612a025760405162461bcd60e51b815260206004820152600f60248201526e125b9d985b1a59081c995c5d595cdd608a1b60448201526064016109e4565b612a268183600081518110612a1957612a196133a3565b6020026020010151612705565b50506000908152601e6020526040812055565b6040516001600160a01b038316602482015260448101829052610b2e90849063a9059cbb60e01b9060640161265d565b600080612a7684846133b9565b90508061ffff16600003612a8d5783915050612622565b612a98816001613452565b612aa69061ffff16866135ac565b612ab09085613452565b95945050505050565b612ac1612cc3565b6000805460ff60a01b191690557f5db9ee0a495bf2e6ff9c91a7834c1ba4fdd244a5e8aa4e537bd38aeae4b073aa335b6040516001600160a01b03909116815260200160405180910390a1565b600080546001600160a01b038381166001600160a01b0319831681178455604051919092169283917f8be0079c531659141344cd1fd0a4f28419497f9722a3daafe3b4186f6b6457e09190a35050565b612b6661256b565b6000805460ff60a01b1916600160a01b1790557f62e78cea01bee320cd4e420270b5ea74000d11b0c9f74754ebdbfc544b05a258612af13390565b600081815b8451811015612be657612bd282868381518110612bc557612bc56133a3565b6020026020010151612d13565b915080612bde816135c0565b915050612ba6565b509392505050565b6000612c43826040518060400160405280602081526020017f5361666545524332303a206c6f772d6c6576656c2063616c6c206661696c6564815250856001600160a01b0316612d429092919063ffffffff16565b9050805160001480612c64575080806020019051810190612c6491906135d9565b610b2e5760405162461bcd60e51b815260206004820152602a60248201527f5361666545524332303a204552433230206f7065726174696f6e20646964206e6044820152691bdd081cdd58d8d9595960b21b60648201526084016109e4565b600054600160a01b900460ff16611fa55760405162461bcd60e51b815260206004820152601460248201527314185d5cd8589b194e881b9bdd081c185d5cd95960621b60448201526064016109e4565b6000818310612d2f5760008281526020849052604090206126a5565b60008381526020839052604090206126a5565b6060612d518484600085612d59565b949350505050565b606082471015612dba5760405162461bcd60e51b815260206004820152602660248201527f416464726573733a20696e73756666696369656e742062616c616e636520666f6044820152651c8818d85b1b60d21b60648201526084016109e4565b600080866001600160a01b03168587604051612dd691906135fb565b60006040518083038185875af1925050503d8060008114612e13576040519150601f19603f3d011682016040523d82523d6000602084013e612e18565b606091505b5091509150612e2987838387612e34565b979650505050505050565b60608315612ea3578251600003612e9c576001600160a01b0385163b612e9c5760405162461bcd60e51b815260206004820152601d60248201527f416464726573733a2063616c6c20746f206e6f6e2d636f6e747261637400000060448201526064016109e4565b5081612d51565b612d518383815115612eb85781518083602001fd5b8060405162461bcd60e51b81526004016109e49190613617565b8260058101928215612f00579160200282015b82811115612f00578251825591602001919060010190612ee5565b50612f0c929150612f9d565b5090565b600183019183908215612f005791602002820160005b83821115612f6657835183826101000a81548161ffff021916908361ffff1602179055509260200192600201602081600101049283019260010302612f26565b8015612f945782816101000a81549061ffff0219169055600201602081600101049283019260010302612f66565b5050612f0c9291505b5b80821115612f0c5760008155600101612f9e565b600060208284031215612fc457600080fd5b5035919050565b6001600160a01b038116811461159257600080fd5b600060208284031215612ff257600080fd5b813561262281612fcb565b60008083601f84011261300f57600080fd5b50813567ffffffffffffffff81111561302757600080fd5b6020830191508360208260051b850101111561304257600080fd5b9250929050565b60008060006040848603121561305e57600080fd5b83359250602084013567ffffffffffffffff81111561307c57600080fd5b61308886828701612ffd565b9497909650939450505050565b600080604083850312156130a857600080fd5b823560ff811681146130b957600080fd5b946020939093013593505050565b634e487b7160e01b600052604160045260246000fd5b60405160a0810167ffffffffffffffff81118282101715613100576131006130c7565b60405290565b604051601f8201601f1916810167ffffffffffffffff8111828210171561312f5761312f6130c7565b604052919050565b600060a0828403121561314957600080fd5b82601f83011261315857600080fd5b6131606130dd565b8060a084018581111561317257600080fd5b845b8181101561318c578035845260209384019301613174565b509095945050505050565b600080604083850312156131aa57600080fd5b8235915060208084013567ffffffffffffffff808211156131ca57600080fd5b818601915086601f8301126131de57600080fd5b8135818111156131f0576131f06130c7565b8060051b9150613201848301613106565b818152918301840191848101908984111561321b57600080fd5b938501935b8385101561323957843582529385019390850190613220565b8096505050505050509250929050565b803561ffff8116811461325b57600080fd5b919050565b600080600080610100858703121561327757600080fd5b85601f86011261328657600080fd5b61328e6130dd565b8060a08701888111156132a057600080fd5b875b818110156132c1576132b381613249565b8452602093840193016132a2565b509095503593505060c085013591506132dc60e08601613249565b905092959194509250565b600080604083850312156132fa57600080fd5b82356130b981612fcb565b6000806000806060858703121561331b57600080fd5b84359350602085013567ffffffffffffffff81111561333957600080fd5b61334587828801612ffd565b9598909750949560400135949350505050565b6000806040838503121561336b57600080fd5b50508035926020909101359150565b634e487b7160e01b600052601160045260246000fd5b808201808211156126a8576126a861337a565b634e487b7160e01b600052603260045260246000fd5b61ffff8281168282160390808211156133d4576133d461337a565b5092915050565b6020808252600990820152684e6f20737570706c7960b81b604082015260600190565b818103818111156126a8576126a861337a565b80820281158282048414176126a8576126a861337a565b634e487b7160e01b600052601260045260246000fd5b60008261344d5761344d613428565b500490565b61ffff8181168382160190808211156133d4576133d461337a565b600063ffffffff8083168181036134865761348661337a565b6001019392505050565b600061ffff8083168181036134865761348661337a565b94855267ffffffffffffffff93909316602085015261ffff91909116604084015263ffffffff908116606084015216608082015260a00190565b6000602082840312156134f357600080fd5b5051919050565b60006020828403121561350c57600080fd5b815161262281612fcb565b6020808252600990820152682737ba1037bbb732b960b91b604082015260600190565b60005b8381101561355557818101518382015260200161353d565b50506000910152565b6000815180845261357681602086016020860161353a565b601f01601f19169290920160200192915050565b60408152600061359d604083018561355e565b90508260208301529392505050565b6000826135bb576135bb613428565b500690565b6000600182016135d2576135d261337a565b5060010190565b6000602082840312156135eb57600080fd5b8151801515811461262257600080fd5b6000825161360d81846020870161353a565b9190910192915050565b6020815260006126a5602083018461355e56fedacf2138f2c7d272efe049f9aebc583d6419f0500344c074f73516bace83ac4ca26469706673582212204bb41cc5d33c9517bf4265ae028802e5d827b65b812b7476ec3035ec61b224eb64736f6c63430008140033",
  "linkReferences": {},
  "deployedLinkReferences": {}
}