{
  "_format": "hh-sol-artifact-1",
  "contractName": "DefAIEstateMinimal",
  "sourceName": "contracts/DefAIEstateMinimal.sol",
  "abi": [
    {
      "inputs": [],
      "stateMutability": "nonpayable",
      "type": "constructor"
    },
    {
      "anonymous": false,
      "inputs": [
        {
          "indexed": true,
          "internalType": "address",
          "name": "owner",
          "type": "address"
        },
        {
          "indexed": true,
          "internalType": "address",
          "name": "spender",
          "type": "address"
        },
        {
          "indexed": false,
          "internalType": "uint256",
          "name": "value",
          "type": "uint256"
        }
      ],
      "name": "Approval",
      "type": "event"
    },
    {
      "anonymous": false,
      "inputs": [
        {
          "indexed": true,
          "internalType": "uint256",
          "name": "estateId",
          "type": "uint256"
        },
        {
          "indexed": true,
          "internalType": "address",
          "name": "beneficiary",
          "type": "address"
        },
        {
          "indexed": false,
          "internalType": "uint256",
          "name": "share",
          "type": "uint256"
        },
        {
          "indexed": false,
          "internalType": "string",
          "name": "name",
          "type": "string"
        },
        {
          "indexed": false,
          "internalType": "uint256",
          "name": "timestamp",
          "type": "uint256"
        }
      ],
      "name": "BeneficiaryAdded",
      "type": "event"
    },
    {
      "anonymous": false,
      "inputs": [
        {
          "indexed": true,
          "internalType": "uint256",
          "name": "estateId",
          "type": "uint256"
        },
        {
          "indexed": true,
          "internalType": "address",
          "name": "owner",
          "type": "address"
        },
        {
          "indexed": false,
          "internalType": "uint256",
          "name": "timestamp",
          "type": "uint256"
        }
      ],
      "name": "EstateCheckedIn",
      "type": "event"
    },
    {
      "anonymous": false,
      "inputs": [
        {
          "indexed": true,
          "internalType": "uint256",
          "name": "estateId",
          "type": "uint256"
        },
        {
          "indexed": true,
          "internalType": "address",
          "name": "owner",
          "type": "address"
        },
        {
          "indexed": false,
          "internalType": "uint256",
          "name": "estateNumber",
          "type": "uint256"
        },
        {
          "indexed": false,
          "internalType": "uint256",
          "name": "inactivityPeriod",
          "type": "uint256"
        },
        {
          "indexed": false,
          "internalType": "uint256",
          "name": "gracePeriod",
          "type": "uint256"
        },
        {
          "indexed": false,
          "internalType": "uint256",
          "name": "timestamp",
          "type": "uint256"
        }
      ],
      "name": "EstateCreated",
      "type": "event"
    },
    {
      "anonymous": false,
      "inputs": [
        {
          "indexed": true,
          "internalType": "uint256",
          "name": "estateId",
          "type": "uint256"
        },
        {
          "indexed": false,
          "internalType": "uint256",
          "name": "timestamp",
          "type": "uint256"
        }
      ],
      "name": "EstateLocked",
      "type": "event"
    },
    {
      "anonymous": false,
      "inputs": [
        {
          "indexed": true,
          "internalType": "uint256",
          "name": "estateId",
          "type": "uint256"
        },
        {
          "indexed": true,
          "internalType": "address",
          "name": "beneficiary",
          "type": "address"
        },
        {
          "indexed": false,
          "internalType": "uint256",
          "name": "share",
          "type": "uint256"
        },
        {
          "indexed": false,
          "internalType": "uint256",
          "name": "solAmount",
          "type": "uint256"
        },
        {
          "indexed": false,
          "internalType": "uint256",
          "name": "estateTokenAmount",
          "type": "uint256"
        },
        {
          "indexed": false,
          "internalType": "uint256",
          "name": "timestamp",
          "type": "uint256"
        }
      ],
      "name": "InheritanceClaimed",
      "type": "event"
    },
    {
      "anonymous": false,
      "inputs": [
        {
          "indexed": false,
          "internalType": "address",
          "name": "account",
          "type": "address"
        }
      ],
      "name": "Paused",
      "type": "event"
    },
    {
      "anonymous": false,
      "inputs": [
        {
          "indexed": true,
          "internalType": "uint256",
          "name": "rwaId",
          "type": "uint256"
        },
        {
          "indexed": true,
          "internalType": "uint256",
          "name": "estateId",
          "type": "uint256"
        },
        {
          "indexed": false,
          "internalType": "string",
          "name": "assetType",
          "type": "string"
        },
        {
          "indexed": false,
          "internalType": "uint256",
          "name": "value",
          "type": "uint256"
        },
        {
          "indexed": false,
          "internalType": "uint256",
          "name": "timestamp",
          "type": "uint256"
        }
      ],
      "name": "RWAAdded",
      "type": "event"
    },
    {
      "anonymous": false,
      "inputs": [
        {
          "indexed": true,
          "internalType": "uint256",
          "name": "rwaId",
          "type": "uint256"
        },
        {
          "indexed": true,
          "internalType": "uint256",
          "name": "estateId",
          "type": "uint256"
        },
        {
          "indexed": false,
          "internalType": "uint256",
          "name": "timestamp",
          "type": "uint256"
        }
      ],
      "name": "RWADeleted",
      "type": "event"
    },
    {
      "anonymous": false,
      "inputs": [
        {
          "indexed": true,
          "internalType": "bytes32",
          "name": "role",
          "type": "bytes32"
        },
        {
          "indexed": true,
          "internalType": "bytes32",
          "name": "previousAdminRole",
          "type": "bytes32"
        },
        {
          "indexed": true,
          "internalType": "bytes32",
          "name": "newAdminRole",
          "type": "bytes32"
        }
      ],
      "name": "RoleAdminChanged",
      "type": "event"
    },
    {
      "anonymous": false,
      "inputs": [
        {
          "indexed": true,
          "internalType": "bytes32",
          "name": "role",
          "type": "bytes32"
        },
        {
          "indexed": true,
          "internalType": "address",
          "name": "account",
          "type": "address"
        },
        {
          "indexed": true,
          "internalType": "address",
          "name": "sender",
          "type": "address"
        }
      ],
      "name": "RoleGranted",
      "type": "event"
    },
    {
      "anonymous": false,
      "inputs": [
        {
          "indexed": true,
          "internalType": "bytes32",
          "name": "role",
          "type": "bytes32"
        },
        {
          "indexed": true,
          "internalType": "address",
          "name": "account",
          "type": "address"
        },
        {
          "indexed": true,
          "internalType": "address",
          "name": "sender",
          "type": "address"
        }
      ],
      "name": "RoleRevoked",
      "type": "event"
    },
    {
      "anonymous": false,
      "inputs": [
        {
          "indexed": true,
          "internalType": "address",
          "name": "from",
          "type": "address"
        },
        {
          "indexed": true,
          "internalType": "address",
          "name": "to",
          "type": "address"
        },
        {
          "indexed": false,
          "internalType": "uint256",
          "name": "value",
          "type": "uint256"
        }
      ],
      "name": "Transfer",
      "type": "event"
    },
    {
      "anonymous": false,
      "inputs": [
        {
          "indexed": false,
          "internalType": "address",
          "name": "account",
          "type": "address"
        }
      ],
      "name": "Unpaused",
      "type": "event"
    },
    {
      "inputs": [],
      "name": "ADMIN_ROLE",
      "outputs": [
        {
          "internalType": "bytes32",
          "name": "",
          "type": "bytes32"
        }
      ],
      "stateMutability": "view",
      "type": "function"
    },
    {
      "inputs": [],
      "name": "DEFAULT_ADMIN_ROLE",
      "outputs": [
        {
          "internalType": "bytes32",
          "name": "",
          "type": "bytes32"
        }
      ],
      "stateMutability": "view",
      "type": "function"
    },
    {
      "inputs": [],
      "name": "ESTATE_FEE",
      "outputs": [
        {
          "internalType": "uint256",
          "name": "",
          "type": "uint256"
        }
      ],
      "stateMutability": "view",
      "type": "function"
    },
    {
      "inputs": [],
      "name": "MAX_BENEFICIARIES",
      "outputs": [
        {
          "internalType": "uint256",
          "name": "",
          "type": "uint256"
        }
      ],
      "stateMutability": "view",
      "type": "function"
    },
    {
      "inputs": [],
      "name": "MAX_GRACE_PERIOD",
      "outputs": [
        {
          "internalType": "uint256",
          "name": "",
          "type": "uint256"
        }
      ],
      "stateMutability": "view",
      "type": "function"
    },
    {
      "inputs": [],
      "name": "MAX_INACTIVITY_PERIOD",
      "outputs": [
        {
          "internalType": "uint256",
          "name": "",
          "type": "uint256"
        }
      ],
      "stateMutability": "view",
      "type": "function"
    },
    {
      "inputs": [],
      "name": "MIN_GRACE_PERIOD",
      "outputs": [
        {
          "internalType": "uint256",
          "name": "",
          "type": "uint256"
        }
      ],
      "stateMutability": "view",
      "type": "function"
    },
    {
      "inputs": [],
      "name": "MIN_INACTIVITY_PERIOD",
      "outputs": [
        {
          "internalType": "uint256",
          "name": "",
          "type": "uint256"
        }
      ],
      "stateMutability": "view",
      "type": "function"
    },
    {
      "inputs": [],
      "name": "RWA_FEE",
      "outputs": [
        {
          "internalType": "uint256",
          "name": "",
          "type": "uint256"
        }
      ],
      "stateMutability": "view",
      "type": "function"
    },
    {
      "inputs": [
        {
          "internalType": "address",
          "name": "owner",
          "type": "address"
        },
        {
          "internalType": "address",
          "name": "spender",
          "type": "address"
        }
      ],
      "name": "allowance",
      "outputs": [
        {
          "internalType": "uint256",
          "name": "",
          "type": "uint256"
        }
      ],
      "stateMutability": "view",
      "type": "function"
    },
    {
      "inputs": [
        {
          "internalType": "address",
          "name": "spender",
          "type": "address"
        },
        {
          "internalType": "uint256",
          "name": "amount",
          "type": "uint256"
        }
      ],
      "name": "approve",
      "outputs": [
        {
          "internalType": "bool",
          "name": "",
          "type": "bool"
        }
      ],
      "stateMutability": "nonpayable",
      "type": "function"
    },
    {
      "inputs": [
        {
          "internalType": "address",
          "name": "account",
          "type": "address"
        }
      ],
      "name": "balanceOf",
      "outputs": [
        {
          "internalType": "uint256",
          "name": "",
          "type": "uint256"
        }
      ],
      "stateMutability": "view",
      "type": "function"
    },
    {
      "inputs": [
        {
          "internalType": "uint256",
          "name": "estateId",
          "type": "uint256"
        }
      ],
      "name": "checkIn",
      "outputs": [],
      "stateMutability": "nonpayable",
      "type": "function"
    },
    {
      "inputs": [
        {
          "internalType": "uint256",
          "name": "estateId",
          "type": "uint256"
        },
        {
          "internalType": "uint256",
          "name": "beneficiaryIndex",
          "type": "uint256"
        }
      ],
      "name": "claimInheritance",
      "outputs": [],
      "stateMutability": "nonpayable",
      "type": "function"
    },
    {
      "inputs": [
        {
          "internalType": "uint256",
          "name": "",
          "type": "uint256"
        },
        {
          "internalType": "address",
          "name": "",
          "type": "address"
        }
      ],
      "name": "claimRecords",
      "outputs": [
        {
          "internalType": "uint256",
          "name": "estateId",
          "type": "uint256"
        },
        {
          "internalType": "address",
          "name": "beneficiary",
          "type": "address"
        },
        {
          "internalType": "uint256",
          "name": "sharePercentage",
          "type": "uint256"
        },
        {
          "internalType": "uint256",
          "name": "claimTime",
          "type": "uint256"
        },
        {
          "internalType": "uint256",
          "name": "solAmount",
          "type": "uint256"
        },
        {
          "internalType": "uint256",
          "name": "estateTokenAmount",
          "type": "uint256"
        },
        {
          "internalType": "bool",
          "name": "claimed",
          "type": "bool"
        }
      ],
      "stateMutability": "view",
      "type": "function"
    },
    {
      "inputs": [
        {
          "internalType": "uint256",
          "name": "inactivityPeriod",
          "type": "uint256"
        },
        {
          "internalType": "uint256",
          "name": "gracePeriod",
          "type": "uint256"
        },
        {
          "internalType": "bytes32",
          "name": "ownerEmailHash",
          "type": "bytes32"
        }
      ],
      "name": "createEstate",
      "outputs": [
        {
          "internalType": "uint256",
          "name": "",
          "type": "uint256"
        }
      ],
      "stateMutability": "payable",
      "type": "function"
    },
    {
      "inputs": [
        {
          "internalType": "uint256",
          "name": "estateId",
          "type": "uint256"
        },
        {
          "internalType": "string",
          "name": "assetType",
          "type": "string"
        },
        {
          "internalType": "string",
          "name": "description",
          "type": "string"
        },
        {
          "internalType": "uint256",
          "name": "value",
          "type": "uint256"
        },
        {
          "internalType": "string",
          "name": "documentHash",
          "type": "string"
        }
      ],
      "name": "createRWA",
      "outputs": [
        {
          "internalType": "uint256",
          "name": "",
          "type": "uint256"
        }
      ],
      "stateMutability": "payable",
      "type": "function"
    },
    {
      "inputs": [],
      "name": "decimals",
      "outputs": [
        {
          "internalType": "uint8",
          "name": "",
          "type": "uint8"
        }
      ],
      "stateMutability": "view",
      "type": "function"
    },
    {
      "inputs": [
        {
          "internalType": "address",
          "name": "spender",
          "type": "address"
        },
        {
          "internalType": "uint256",
          "name": "subtractedValue",
          "type": "uint256"
        }
      ],
      "name": "decreaseAllowance",
      "outputs": [
        {
          "internalType": "bool",
          "name": "",
          "type": "bool"
        }
      ],
      "stateMutability": "nonpayable",
      "type": "function"
    },
    {
      "inputs": [
        {
          "internalType": "uint256",
          "name": "rwaId",
          "type": "uint256"
        },
        {
          "internalType": "uint256",
          "name": "estateId",
          "type": "uint256"
        }
      ],
      "name": "deleteRWA",
      "outputs": [],
      "stateMutability": "nonpayable",
      "type": "function"
    },
    {
      "inputs": [
        {
          "internalType": "uint256",
          "name": "",
          "type": "uint256"
        }
      ],
      "name": "estates",
      "outputs": [
        {
          "internalType": "uint256",
          "name": "estateId",
          "type": "uint256"
        },
        {
          "internalType": "address",
          "name": "owner",
          "type": "address"
        },
        {
          "internalType": "bytes32",
          "name": "ownerEmailHash",
          "type": "bytes32"
        },
        {
          "internalType": "uint256",
          "name": "lastActive",
          "type": "uint256"
        },
        {
          "internalType": "uint256",
          "name": "inactivityPeriod",
          "type": "uint256"
        },
        {
          "internalType": "uint256",
          "name": "gracePeriod",
          "type": "uint256"
        },
        {
          "internalType": "uint256",
          "name": "totalBeneficiaries",
          "type": "uint256"
        },
        {
          "internalType": "uint256",
          "name": "creationTime",
          "type": "uint256"
        },
        {
          "internalType": "uint256",
          "name": "estateValue",
          "type": "uint256"
        },
        {
          "internalType": "bool",
          "name": "isLocked",
          "type": "bool"
        },
        {
          "internalType": "bool",
          "name": "isClaimable",
          "type": "bool"
        },
        {
          "internalType": "uint256",
          "name": "estateNumber",
          "type": "uint256"
        },
        {
          "internalType": "uint256",
          "name": "totalClaims",
          "type": "uint256"
        }
      ],
      "stateMutability": "view",
      "type": "function"
    },
    {
      "inputs": [
        {
          "internalType": "uint256",
          "name": "estateId",
          "type": "uint256"
        },
        {
          "internalType": "address",
          "name": "beneficiary",
          "type": "address"
        }
      ],
      "name": "getClaimRecord",
      "outputs": [
        {
          "components": [
            {
              "internalType": "uint256",
              "name": "estateId",
              "type": "uint256"
            },
            {
              "internalType": "address",
              "name": "beneficiary",
              "type": "address"
            },
            {
              "internalType": "uint256",
              "name": "sharePercentage",
              "type": "uint256"
            },
            {
              "internalType": "uint256",
              "name": "claimTime",
              "type": "uint256"
            },
            {
              "internalType": "uint256",
              "name": "solAmount",
              "type": "uint256"
            },
            {
              "internalType": "uint256",
              "name": "estateTokenAmount",
              "type": "uint256"
            },
            {
              "internalType": "bool",
              "name": "claimed",
              "type": "bool"
            }
          ],
          "internalType": "struct DefAIEstateMinimal.ClaimRecord",
          "name": "",
          "type": "tuple"
        }
      ],
      "stateMutability": "view",
      "type": "function"
    },
    {
      "inputs": [
        {
          "internalType": "uint256",
          "name": "estateId",
          "type": "uint256"
        }
      ],
      "name": "getEstate",
      "outputs": [
        {
          "components": [
            {
              "internalType": "uint256",
              "name": "estateId",
              "type": "uint256"
            },
            {
              "internalType": "address",
              "name": "owner",
              "type": "address"
            },
            {
              "internalType": "bytes32",
              "name": "ownerEmailHash",
              "type": "bytes32"
            },
            {
              "internalType": "uint256",
              "name": "lastActive",
              "type": "uint256"
            },
            {
              "internalType": "uint256",
              "name": "inactivityPeriod",
              "type": "uint256"
            },
            {
              "internalType": "uint256",
              "name": "gracePeriod",
              "type": "uint256"
            },
            {
              "components": [
                {
                  "internalType": "address",
                  "name": "wallet",
                  "type": "address"
                },
                {
                  "internalType": "uint256",
                  "name": "share",
                  "type": "uint256"
                },
                {
                  "internalType": "string",
                  "name": "name",
                  "type": "string"
                },
                {
                  "internalType": "string",
                  "name": "relationship",
                  "type": "string"
                },
                {
                  "internalType": "bytes32",
                  "name": "emailHash",
                  "type": "bytes32"
                }
              ],
              "internalType": "struct DefAIEstateMinimal.Beneficiary[]",
              "name": "beneficiaries",
              "type": "tuple[]"
            },
            {
              "internalType": "uint256",
              "name": "totalBeneficiaries",
              "type": "uint256"
            },
            {
              "internalType": "uint256",
              "name": "creationTime",
              "type": "uint256"
            },
            {
              "internalType": "uint256",
              "name": "estateValue",
              "type": "uint256"
            },
            {
              "internalType": "bool",
              "name": "isLocked",
              "type": "bool"
            },
            {
              "internalType": "bool",
              "name": "isClaimable",
              "type": "bool"
            },
            {
              "internalType": "uint256",
              "name": "estateNumber",
              "type": "uint256"
            },
            {
              "internalType": "uint256",
              "name": "totalClaims",
              "type": "uint256"
            }
          ],
          "internalType": "struct DefAIEstateMinimal.Estate",
          "name": "",
          "type": "tuple"
        }
      ],
      "stateMutability": "view",
      "type": "function"
    },
    {
      "inputs": [
        {
          "internalType": "uint256",
          "name": "rwaId",
          "type": "uint256"
        }
      ],
      "name": "getRWA",
      "outputs": [
        {
          "components": [
            {
              "internalType": "uint256",
              "name": "rwaId",
              "type": "uint256"
            },
            {
              "internalType": "uint256",
              "name": "estateId",
              "type": "uint256"
            },
            {
              "internalType": "string",
              "name": "assetType",
              "type": "string"
            },
            {
              "internalType": "string",
              "name": "description",
              "type": "string"
            },
            {
              "internalType": "uint256",
              "name": "value",
              "type": "uint256"
            },
            {
              "internalType": "uint256",
              "name": "createdAt",
              "type": "uint256"
            },
            {
              "internalType": "bool",
              "name": "isDeleted",
              "type": "bool"
            },
            {
              "internalType": "address",
              "name": "owner",
              "type": "address"
            },
            {
              "internalType": "string",
              "name": "documentHash",
              "type": "string"
            }
          ],
          "internalType": "struct DefAIEstateMinimal.RWA",
          "name": "",
          "type": "tuple"
        }
      ],
      "stateMutability": "view",
      "type": "function"
    },
    {
      "inputs": [
        {
          "internalType": "bytes32",
          "name": "role",
          "type": "bytes32"
        }
      ],
      "name": "getRoleAdmin",
      "outputs": [
        {
          "internalType": "bytes32",
          "name": "",
          "type": "bytes32"
        }
      ],
      "stateMutability": "view",
      "type": "function"
    },
    {
      "inputs": [
        {
          "internalType": "bytes32",
          "name": "role",
          "type": "bytes32"
        },
        {
          "internalType": "address",
          "name": "account",
          "type": "address"
        }
      ],
      "name": "grantRole",
      "outputs": [],
      "stateMutability": "nonpayable",
      "type": "function"
    },
    {
      "inputs": [
        {
          "internalType": "bytes32",
          "name": "role",
          "type": "bytes32"
        },
        {
          "internalType": "address",
          "name": "account",
          "type": "address"
        }
      ],
      "name": "hasRole",
      "outputs": [
        {
          "internalType": "bool",
          "name": "",
          "type": "bool"
        }
      ],
      "stateMutability": "view",
      "type": "function"
    },
    {
      "inputs": [
        {
          "internalType": "address",
          "name": "spender",
          "type": "address"
        },
        {
          "internalType": "uint256",
          "name": "addedValue",
          "type": "uint256"
        }
      ],
      "name": "increaseAllowance",
      "outputs": [
        {
          "internalType": "bool",
          "name": "",
          "type": "bool"
        }
      ],
      "stateMutability": "nonpayable",
      "type": "function"
    },
    {
      "inputs": [],
      "name": "name",
      "outputs": [
        {
          "internalType": "string",
          "name": "",
          "type": "string"
        }
      ],
      "stateMutability": "view",
      "type": "function"
    },
    {
      "inputs": [],
      "name": "paused",
      "outputs": [
        {
          "internalType": "bool",
          "name": "",
          "type": "bool"
        }
      ],
      "stateMutability": "view",
      "type": "function"
    },
    {
      "inputs": [
        {
          "internalType": "bytes32",
          "name": "role",
          "type": "bytes32"
        },
        {
          "internalType": "address",
          "name": "account",
          "type": "address"
        }
      ],
      "name": "renounceRole",
      "outputs": [],
      "stateMutability": "nonpayable",
      "type": "function"
    },
    {
      "inputs": [
        {
          "internalType": "bytes32",
          "name": "role",
          "type": "bytes32"
        },
        {
          "internalType": "address",
          "name": "account",
          "type": "address"
        }
      ],
      "name": "revokeRole",
      "outputs": [],
      "stateMutability": "nonpayable",
      "type": "function"
    },
    {
      "inputs": [
        {
          "internalType": "uint256",
          "name": "",
          "type": "uint256"
        }
      ],
      "name": "rwas",
      "outputs": [
        {
          "internalType": "uint256",
          "name": "rwaId",
          "type": "uint256"
        },
        {
          "internalType": "uint256",
          "name": "estateId",
          "type": "uint256"
        },
        {
          "internalType": "string",
          "name": "assetType",
          "type": "string"
        },
        {
          "internalType": "string",
          "name": "description",
          "type": "string"
        },
        {
          "internalType": "uint256",
          "name": "value",
          "type": "uint256"
        },
        {
          "internalType": "uint256",
          "name": "createdAt",
          "type": "uint256"
        },
        {
          "internalType": "bool",
          "name": "isDeleted",
          "type": "bool"
        },
        {
          "internalType": "address",
          "name": "owner",
          "type": "address"
        },
        {
          "internalType": "string",
          "name": "documentHash",
          "type": "string"
        }
      ],
      "stateMutability": "view",
      "type": "function"
    },
    {
      "inputs": [
        {
          "internalType": "bytes4",
          "name": "interfaceId",
          "type": "bytes4"
        }
      ],
      "name": "supportsInterface",
      "outputs": [
        {
          "internalType": "bool",
          "name": "",
          "type": "bool"
        }
      ],
      "stateMutability": "view",
      "type": "function"
    },
    {
      "inputs": [],
      "name": "symbol",
      "outputs": [
        {
          "internalType": "string",
          "name": "",
          "type": "string"
        }
      ],
      "stateMutability": "view",
      "type": "function"
    },
    {
      "inputs": [],
      "name": "totalSupply",
      "outputs": [
        {
          "internalType": "uint256",
          "name": "",
          "type": "uint256"
        }
      ],
      "stateMutability": "view",
      "type": "function"
    },
    {
      "inputs": [
        {
          "internalType": "address",
          "name": "to",
          "type": "address"
        },
        {
          "internalType": "uint256",
          "name": "amount",
          "type": "uint256"
        }
      ],
      "name": "transfer",
      "outputs": [
        {
          "internalType": "bool",
          "name": "",
          "type": "bool"
        }
      ],
      "stateMutability": "nonpayable",
      "type": "function"
    },
    {
      "inputs": [
        {
          "internalType": "address",
          "name": "from",
          "type": "address"
        },
        {
          "internalType": "address",
          "name": "to",
          "type": "address"
        },
        {
          "internalType": "uint256",
          "name": "amount",
          "type": "uint256"
        }
      ],
      "name": "transferFrom",
      "outputs": [
        {
          "internalType": "bool",
          "name": "",
          "type": "bool"
        }
      ],
      "stateMutability": "nonpayable",
      "type": "function"
    },
    {
      "inputs": [
        {
          "internalType": "uint256",
          "name": "estateId",
          "type": "uint256"
        }
      ],
      "name": "triggerInheritance",
      "outputs": [],
      "stateMutability": "nonpayable",
      "type": "function"
    },
    {
      "inputs": [
        {
          "internalType": "uint256",
          "name": "estateId",
          "type": "uint256"
        },
        {
          "components": [
            {
              "internalType": "address",
              "name": "wallet",
              "type": "address"
            },
            {
              "internalType": "uint256",
              "name": "share",
              "type": "uint256"
            },
            {
              "internalType": "string",
              "name": "name",
              "type": "string"
            },
            {
              "internalType": "string",
              "name": "relationship",
              "type": "string"
            },
            {
              "internalType": "bytes32",
              "name": "emailHash",
              "type": "bytes32"
            }
          ],
          "internalType": "struct DefAIEstateMinimal.Beneficiary[]",
          "name": "beneficiaries",
          "type": "tuple[]"
        }
      ],
      "name": "updateBeneficiaries",
      "outputs": [],
      "stateMutability": "nonpayable",
      "type": "function"
    }
  ],
  "bytecode": "0x60803462000409576001600160401b0390604090808201838111828210176200030957825260128152602090712232b320a49022b9ba30ba32902a37b5b2b760711b828201528251938385018581108282111762000309578452600685526545535441544560d01b83860152815190808211620003095760038054926001948585811c95168015620003fe575b87861014620003e8578190601f9586811162000392575b5087908683116001146200032b576000926200031f575b505060001982841b1c191690851b1781555b8651918211620003095760049283548581811c91168015620002fe575b87821014620002e9578181116200029e575b5085908311600114620002325782939495969760009362000226575b505082851b92600019911b1c19161790555b8060065560ff1990816007541660075560008052600583528360002033600052835260ff84600020541615620001eb575b7fa49807205ce4d355092ef5a8a18f56e8913cf4a201fbe287825b095693c217759283600052600581528460002033600052815260ff85600020541615620001ac575b84516130df90816200040f8239f35b836000526005815284600020903360005252836000209182541617905533903390600080516020620034ee833981519152600080a4388080806200019d565b60008052600583528360002033600052835283600020818382541617905533336000600080516020620034ee8339815191528180a46200015a565b01519150388062000117565b90601f1983169184600052866000209260005b81811062000288575098848798999a979697106200026d575b50505050811b01905562000129565b01519060f884600019921b161c19169055388080806200025e565b8a83015185559387019391880191880162000245565b84600052866000208280860160051c820192898710620002df575b0160051c019086905b828110620002d2575050620000fb565b60008155018690620002c2565b92508192620002b9565b602285634e487b7160e01b6000525260246000fd5b90607f1690620000e9565b634e487b7160e01b600052604160045260246000fd5b015190503880620000ba565b90879350601f1983169185600052896000209260005b8b8282106200037b575050841162000362575b505050811b018155620000cc565b015160001983861b60f8161c1916905538808062000354565b8385015186558b9790950194938401930162000341565b90915083600052876000208680850160051c8201928a8610620003de575b918991869594930160051c01915b828110620003ce575050620000a3565b60008155859450899101620003be565b92508192620003b0565b634e487b7160e01b600052602260045260246000fd5b94607f16946200008c565b600080fdfe608080604052600436101561001357600080fd5b60003560e01c90816301ffc9a71461250d5750806306fdde0314612468578063095ea7b31461244257806310db0c291461233b578063167bb9d01461203b57806318160ddd1461201d5780631a7fdcd214611ffa5780632348dd1814611fde57806323b872dd14611f20578063248a9ca314611ef15780632da413fc14611a135780632f2ff15d14611960578063313ce5671461194457806336568abe146118b2578063374c8d27146118905780633899ad0b146116e15780633950935114611690578063466196491461167257806351ded3b514610ff95780635c975abb14610fd65780636cf7adac14610f0a57806370a0823114610edf57806375b238fc14610ea4578063786420d114610bd65780638493eb2514610bb6578063883a0038146108fe57806391d1485414610b6957806395d89b4114610a87578063a0ec0e08146109f7578063a217fddf146109db578063a457c2d714610934578063a9059cbb14610903578063b106d2d2146108fe578063c041cd13146107d4578063c906d2d014610579578063d547741f14610538578063d70f83c214610476578063dd62ed3e14610425578063ddca659b146102a75763e95a644f146101d757600080fd5b346102a2576020806003193601126102a25760043580600052600a80835261022c60018060a01b0361021481600160406000200154161515612e43565b83600052828552600160406000200154163314612e87565b8160005280835261024760ff82604060002001541615612ec6565b8160005280835261026560ff826040600020015460081c1615612f05565b816000528252426003604060002001557fb0022a0f98088ff564fe03fac14ad27ea389cb10868809d658387f2ce6f124e0604051924284523393a3005b600080fd5b346102a2576020806003193601126102a257604051906102c68261263c565b60008252808201600090526060918260408201528280820152608081016000905260a081016000905260c081016000905260e08101600090528261010080920152600435600052600b82526040600020604051936103238561263c565b81548552600182015484860190815261033e60028401612722565b604087019081529361035260038501612722565b948388019586526004850154946080890195865260058101549160a08a0192835260068201549260c08b019160ff85161515835260e08c0193600160a01b60019003809660081c1685526007016103a890612722565b96868d019788528b6040519d8e9d8e5251908d01525160408c01525161012080988c01526101408b016103da91612583565b9851601f19998a8c82030160808d01526103f391612583565b975160a08b01525160c08a015251151560e08901525116908601525192848303019084015261042191612583565b0390f35b346102a25760403660031901126102a25761043e6125a8565b6104466125be565b9060018060a01b038091166000526001602052604060002091166000526020526020604060002054604051908152f35b346102a25760203660031901126102a257600435600052600a6020526101a0604060002080549060018060a01b036001820154169060ff6002820154600383015460048401546005850154600786015490600887015492600988015494600a89015496600c600b8b01549a01549a6040519c8d5260208d015260408c015260608b015260808a015260a089015260c088015260e0870152610100860152818116151561012086015260081c161515610140840152610160830152610180820152f35b346102a25760403660031901126102a2576105776004356105576125be565b908060005260056020526105726001604060002001546127e6565b612af1565b005b60603660031901126102a2576004356024803567016345785d8a0000341061079657620151808084101580610787575b15610747578110158061073a575b156106ff57600854916001830160085582600052600a60205282600b6040600020828155600181013360018060a01b03198254161790556044356002820155426003820155866004820155846005820155426008820155015533156106bb5760025469d3c21bcecceda1000000918282018092116106a7575061069c60209585937f02938784278c3ccf94bcab2aad0bbf50a31c57832ecd6f3fa11442f5a2995d959360025533600052600088526040600020818154019055604051908152600060008051602061308a833981519152893393a3604051918291339642918785612e27565b0390a3604051908152f35b634e487b7160e01b60009081526011600452fd5b606490601f6040519162461bcd60e51b8352602060048401528201527f45524332303a206d696e7420746f20746865207a65726f2061646472657373006044820152fd5b60405162461bcd60e51b81526020600482015260148184015273125b9d985b1a590819dc9858d9481c195c9a5bd960621b6044820152606490fd5b506276a7008111156105b7565b60405162461bcd60e51b81526020600482015260198185015278125b9d985b1a59081a5b9858dd1a5d9a5d1e481c195c9a5bd9603a1b6044820152606490fd5b50640233e85a008411156105a9565b60405162461bcd60e51b81526020600482015260178184015276496e73756666696369656e74206573746174652066656560481b6044820152606490fd5b346102a2576020806003193601126102a2576004359081600052600a815261080d60018060a01b03600160406000200154161515612e43565b81600052600a81526040600020600a81019081549060ff8260081c166108c55761084f61083e600383015442612fe6565b916005600482015491015490612b82565b101561088c5761ff0019166101001790556040514281527fc9ccdc96894a59107b5d11a4ba1bec39459494af58ac9db7d991e410da347f6d9190a2005b60405162461bcd60e51b81526004810184905260116024820152704e6f742079657420636c61696d61626c6560781b6044820152606490fd5b60405162461bcd60e51b8152600481018590526011602482015270416c726561647920636c61696d61626c6560781b6044820152606490fd5b6127c8565b346102a25760403660031901126102a25761092961091f6125a8565b6024359033612b8f565b602060405160018152f35b346102a25760403660031901126102a25761094d6125a8565b60243590336000526001602052604060002060018060a01b038216600052602052604060002054918083106109885761092992039033612ceb565b60405162461bcd60e51b815260206004820152602560248201527f45524332303a2064656372656173656420616c6c6f77616e63652062656c6f77604482015264207a65726f60d81b6064820152608490fd5b346102a25760003660031901126102a257602060405160008152f35b346102a25760403660031901126102a25760e0610a126125be565b600435600052600c602052604060002060018060a01b038092166000526020526040600020805491600182015416906002810154600382015460048301549160ff600660058601549501541694604051968752602087015260408601526060850152608084015260a0830152151560c0820152f35b346102a25760003660031901126102a257604051600090600454610aaa816126e8565b808352600191808316908115610b415750600114610ae7575b61042183610ad381870382612658565b604051918291602083526020830190612583565b6004600090815260209450917f8a35acfbc15ff81a39ae7d344fd709f28e8600b4aa8c65c6b64bfe7fe36bd19b5b828410610b2e57505050810190910190610ad381610ac3565b8054858501870152928501928101610b15565b6104219550610ad393506020915091849260ff191682840152151560051b8201019350610ac3565b346102a25760403660031901126102a257610b826125be565b600435600052600560205260406000209060018060a01b0316600052602052602060ff604060002054166040519015158152f35b346102a25760003660031901126102a2576020604051640233e85a008152f35b346102a25760203660031901126102a25760006101a0604051610bf881612620565b8281528260208201528260408201528260608201528260808201528260a0820152606060c08201528260e082015282610100820152826101208201528261014082015282610160820152826101808201520152600435600052600a6020526040600020604051610c6781612620565b8154815260018201546001600160a01b03166020820152600282015460408201526003820154606082015260048201546080820152600582015460a0820152600682018054909290610cb8816126d1565b90610cc66040519283612658565b80825260208201946000526020600020946000905b828210610e865785600c868660c0840152600781015460e08401526008810154610100840152600981015461012084015260ff600a820154818116151561014086015260081c161515610160840152600b81015461018084015201546101a0820152604051602081528151602082015260018060a01b0360208301511660408201526040820151606082015260608201516080820152608082015160a082015260a082015160c082015260c08201516101c060e08301526101e082018151809152610200906020828501928260051b8601019301916000905b828210610e17578580866101a08a60e0810151610100850152610100810151610120850152610120810151610140850152610140810151151561016085015261016081015115156101808501526101808101518285015201516101c08301520390f35b909192936020806001926101ff19898203018552875190848060a01b0382511681528282015183820152608080610e72610e60604086015160a0604087015260a0860190612583565b60608601518582036060870152612583565b930151910152960192019201909291610db4565b60056020600192610e968a612ff3565b815201970191019095610cdb565b346102a25760003660031901126102a25760206040517fa49807205ce4d355092ef5a8a18f56e8913cf4a201fbe287825b095693c217758152f35b346102a25760203660031901126102a2576020610f02610efd6125a8565b612b67565b604051908152f35b346102a25760203660031901126102a257600435600052600b60205260406000208054610421600183015492610f4260028201612722565b610f4e60038301612722565b91600481015492610f9f600583015491610f91610f72600760068701549601612722565b956040519a8b9a8b5260208b01526101208060408c01528a0190612583565b9088820360608a0152612583565b608087019490945260a086015260ff8116151560c086015260081c6001600160a01b031660e0850152838203610100850152612583565b346102a25760003660031901126102a257602060ff600754166040519015158152f35b346102a25760403660031901126102a2576024356001600160401b0381116102a257366023820112156102a2578060040135611034816126d1565b916110426040519384612658565b8183526024602084019260051b820101903682116102a25760248101925b8284106115ba5784600435600052600a8060205261108f60018060a01b03600160406000200154161515612e43565b600435600052806020526110b460018060a01b03600160406000200154163314612e87565b600435600052806020526110d260ff82604060002001541615612ec6565b600435600052806020526110f360ff826040600020015460081c1615612f05565b8082511161157c576000805b83518210156111305761112461112a91602061111b8588612f56565b51015190612b82565b91612f47565b906110ff565b606491500361153d57600435600052602052604060002090600682015460006006840155806114c8575b50906000915b80518310156114be576111738382612f56565b51926006830154600160401b8110156113e05780600161119c9201600686015560068501612fca565b6114a857845181546001600160a01b0319166001600160a01b03919091161781556020850151600182015560408501518051906001600160401b0382116113e05781906111ec60028501546126e8565b601f8111611473575b50602090601f8311600114611401576000926113f6575b50508160011b916000199060031b1c19161760028201555b60608501518051906001600160401b0382116113e05761124760038401546126e8565b601f81116113a0575b50602090601f831160011461132657968260049360809361131498999a60009261131b575b50508160011b916000199060031b1c19161760038501555b01519101556001600160a01b036112a48285612f56565b51511660206112b38386612f56565b5101517fd7a243fbeddaab5a4bab82da5752dfe983503b54cab7b68274ed87f43ab8993061130060406112e68689612f56565b510151604051938452606060208501526060840190612583565b9142604082015280600435930390a3612f47565b9190611160565b015190508a80611275565b906003840160005260206000209160005b601f198516811061138857508360809361131498999a93600193600497601f1981161061136f575b505050811b01600385015561128d565b015160001960f88460031b161c191690558a808061135f565b91926020600181928685015181550194019201611337565b6113d090600385016000526020600020601f850160051c810191602086106113d6575b601f0160051c0190612f6a565b87611250565b90915081906113c3565b634e487b7160e01b600052604160045260246000fd5b01519050878061120c565b9250600284016000526020600020906000935b601f1984168510611458576001945083601f1981161061143f575b505050811b016002820155611224565b015160001960f88460031b161c1916905587808061142f565b81810151835560209485019460019093019290910190611414565b6114a290600286016000526020600020601f850160051c810191602086106113d657601f0160051c0190612f6a565b886111f5565b634e487b7160e01b600052600060045260246000fd5b5160079190910155005b8060050290600582040361152757600683016000526020600020908101905b8181106114f4575061115a565b806000600592556000600182015561150e60028201612f81565b61151a60038201612f81565b60006004820155016114e7565b634e487b7160e01b600052601160045260246000fd5b60405162461bcd60e51b8152602060048201526017602482015276536861726573206d7573742073756d20746f203130302560481b6044820152606490fd5b60405162461bcd60e51b8152602060048201526016602482015275546f6f206d616e792062656e6566696369617269657360501b6044820152606490fd5b83356001600160401b0381116102a257820160a060231982360301126102a257604051916115e783612605565b60248201356001600160a01b03811681036102a25783526044820135602084015260648201356001600160401b0381116102a25761162b906024369185010161267b565b60408401526084820135926001600160401b0384116102a25760a46020949361165b86956024369184010161267b565b606084015201356080820152815201930192611060565b346102a25760003660031901126102a25760206040516276a7008152f35b346102a25760403660031901126102a2576109296116ac6125a8565b336000526001602052604060002060018060a01b0382166000526020526116da602435604060002054612b82565b9033612ceb565b346102a2576116ef366125d4565b9081600052600a60209080825261173360018060a01b0361171b81600160406000200154161515612e43565b85600052828452600160406000200154163314612e87565b8360005280825261174e60ff82604060002001541615612ec6565b8360005280825261176c60ff826040600020015460081c1615612f05565b82600052600b825283600160406000200154036118575782600052600b825260ff6006604060002001541661181c57907fe10c368853368fe4f821442fc1f3413d6cba3799d460305812c953a6ee07d4c69183600052600b82526006604060002001600160ff198254161790558460005280825261180360096040600020015485600052600b845260046040600020015490612fe6565b90856000528252600960406000200155604051428152a3005b60405162461bcd60e51b81526004810183905260136024820152721495d048185b1c9958591e4819195b195d1959606a1b6044820152606490fd5b60405162461bcd60e51b8152600481018390526011602482015270525741206e6f7420696e2065737461746560781b6044820152606490fd5b346102a25760003660031901126102a2576020604051662386f26fc100008152f35b346102a25760403660031901126102a2576118cb6125be565b336001600160a01b038216036118e75761057790600435612af1565b60405162461bcd60e51b815260206004820152602f60248201527f416363657373436f6e74726f6c3a2063616e206f6e6c792072656e6f756e636560448201526e103937b632b9903337b91039b2b63360891b6064820152608490fd5b346102a25760003660031901126102a257602060405160128152f35b346102a25760403660031901126102a25760043561197c6125be565b8160005260056020526119966001604060002001546127e6565b81600052600560205260406000209060018060a01b0316908160005260205260ff60406000205416156119c557005b8160005260056020526040600020816000526020526040600020600160ff1982541617905533917f2f8788117e7eff1d82e926ec794901d17c78024a50270940304540a733656f0d600080a4005b60a03660031901126102a2576004356001600160401b036024358181116102a257611a4290369060040161267b565b916044358281116102a257611a5b90369060040161267b565b926084358381116102a257611a7490369060040161267b565b9082600052602094600a865260018060a01b0390611aba600192611aa2818560406000200154161515612e43565b86600052600a89528360406000200154163314612e87565b84600052600a8752611ad760ff600a604060002001541615612ec6565b84600052600a8752611af760ff600a6040600020015460081c1615612f05565b662386f26fc100003410611eb5576009549582870160095586600052600b8852604060002092878455868185015560028401928551938385116113e057611b3e81546126e8565b94601f958c878211611e86575b5050808c8d888311600114611e215750600091611e16575b50600019600383901b1c191690841b1790555b805160038601918482116113e0578190611b9084546126e8565b8d888211611de7575b50508c908d888411600114611d815750600092611d76575b5050600019600383901b1c191690831b1790555b60643560048501819055426005860155600685018054610100600160a81b0319163360081b610100600160a81b03161790558651909460070193909283116113e0578896611c1385546126e8565b8b838211611d3d575b50508a918411600114611cbe57928060008051602061306a8339815191529795938193611c9d9896600094611cb3575b50501b916000199060031b1c19161790555b85600052600a8852611c7881600960406000200154612b82565b86600052600a8952600960406000200155604051928392606084526060840190612583565b90888301524260408301520390a3604051908152f35b015192508d80611c4c565b90601f93929319831691856000528b6000209260005b8d828210611d2657505091611c9d979593918560008051602061306a8339815191529a98969410611d0d575b505050811b019055611c5e565b015160001960f88460031b161c191690558b8080611d00565b8484015186558d9b50948701949384019301611cd4565b611d66918760005284826000209181890160051c8301938910611d6d575b0160051c0190612f6a565b8b8b611c1c565b92508192611d5b565b015190508c80611bb1565b9190869450601f1984168660005283600020936000905b828210611dce5750508411611db5575b505050811b019055611bc5565b015160001960f88460031b161c191690558c8080611da8565b8484015186558997909501949384019390810190611d98565b611e0f918660005289826000209181870160051c8301938710611d6d570160051c0190612f6a565b8d8d611b99565b90508801518d611b63565b90869350601f1983168560005282600020926000905b8d838310611e6e575050508311611e55575b5050811b019055611b76565b8a015160001960f88460031b161c191690558d80611e49565b84015185558996909401939283019290810190611e37565b611eae918460005288826000209181860160051c8301938610611d6d570160051c0190612f6a565b8c8c611b4b565b60405162461bcd60e51b8152600481018890526014602482015273496e73756666696369656e74205257412066656560601b6044820152606490fd5b346102a25760203660031901126102a25760043560005260056020526020600160406000200154604051908152f35b346102a25760603660031901126102a257611f396125a8565b611f416125be565b6044359060018060a01b0383166000526001602052604060002033600052602052604060002054926000198403611f7d575b6109299350612b8f565b828410611f9957611f948361092995033383612ceb565b611f73565b60405162461bcd60e51b815260206004820152601d60248201527f45524332303a20696e73756666696369656e7420616c6c6f77616e63650000006044820152606490fd5b346102a25760003660031901126102a2576020604051600a8152f35b346102a25760003660031901126102a257602060405167016345785d8a00008152f35b346102a25760003660031901126102a2576020600254604051908152f35b346102a257612049366125d4565b9080600052602091600a835260018060a01b039061207282600160406000200154161515612e43565b6002600654146122f657600260065582600052600a845260406000209060ff600a83015460081c16156122ba5760068201805482101561227f576120bf916120b991612fca565b50612ff3565b9082825116330361223d5783600052600c85526040600020336000528552604060002094600686019081549360ff8516612206579285926001600c93600596015196606461210d8947612ded565b049a60646121298a6121248689019d8e5416612b67565b612ded565b0497818c8a935584810133868060a01b03198254161790558a60028201554260038201558d6004820155015560ff1916179055016121678154612f47565b905585801580156121d3575b5050817fb0af14f0a98cdde289bfb0cf3d5dbf47481b38e9af8e1fed9a5d52c0b179c76494816121be575b5050506121b46040519283923397429285612e27565b0390a36001600655005b6121cb9233915416612b8f565b85818161219e565b6000906121fd575b600080809381933390f1156121f1578587612173565b6040513d6000823e3d90fd5b506108fc6121db565b60405162461bcd60e51b815260048101839052600f60248201526e105b1c9958591e4818db185a5b5959608a1b6044820152606490fd5b60405162461bcd60e51b815260048101869052601a6024820152794e6f7420617574686f72697a65642062656e656669636961727960301b6044820152606490fd5b60405162461bcd60e51b8152600481018790526013602482015272496e76616c69642062656e656669636961727960681b6044820152606490fd5b60405162461bcd60e51b8152600481018690526014602482015273457374617465206e6f7420636c61696d61626c6560601b6044820152606490fd5b60405162461bcd60e51b815260048101859052601f60248201527f5265656e7472616e637947756172643a207265656e7472616e742063616c6c006044820152606490fd5b346102a25760403660031901126102a25760e06123566125be565b600060c0604051612366816125ea565b8281528260208201528260408201528260608201528260808201528260a08201520152600435600052600c602052604060002060018060a01b038092166000526020526040600020604051906123bb826125ea565b805492838352806001830154169060208401918252600283015460408501908152600384015491606086019283526004850154936080870194855260c060ff600660058901549860a08b01998a5201541697019615158752604051978852511660208701525160408601525160608501525160808401525160a083015251151560c0820152f35b346102a25760403660031901126102a25761092961245e6125a8565b6024359033612ceb565b346102a25760003660031901126102a25760405160009060035461248b816126e8565b808352600191808316908115610b4157506001146124b35761042183610ad381870382612658565b6003600090815260209450917fc2575a0e9e593c00f959f8c92f12db2869c3395a3b0502d05e2516446f71f85b5b8284106124fa57505050810190910190610ad381610ac3565b80548585018701529285019281016124e1565b346102a25760203660031901126102a2576004359063ffffffff60e01b82168092036102a257602091637965db0b60e01b811490811561254f575b5015158152f35b6301ffc9a760e01b14905083612548565b60005b8381106125735750506000910152565b8181015183820152602001612563565b9060209161259c81518092818552858086019101612560565b601f01601f1916010190565b600435906001600160a01b03821682036102a257565b602435906001600160a01b03821682036102a257565b60409060031901126102a2576004359060243590565b60e081019081106001600160401b038211176113e057604052565b60a081019081106001600160401b038211176113e057604052565b6101c081019081106001600160401b038211176113e057604052565b61012081019081106001600160401b038211176113e057604052565b601f909101601f19168101906001600160401b038211908210176113e057604052565b81601f820112156102a2578035906001600160401b0382116113e057604051926126af601f8401601f191660200185612658565b828452602083830101116102a257816000926020809301838601378301015290565b6001600160401b0381116113e05760051b60200190565b90600182811c92168015612718575b602083101461270257565b634e487b7160e01b600052602260045260246000fd5b91607f16916126f7565b9060405191826000825492612736846126e8565b9081845260019485811690816000146127a55750600114612762575b505061276092500383612658565b565b9093915060005260209081600020936000915b81831061278d57505061276093508201013880612752565b85548884018501529485019487945091830191612775565b91505061276094506020925060ff191682840152151560051b8201013880612752565b346102a25760003660031901126102a2576020604051620151808152f35b60009080825260209060058252604092838120338252835260ff8482205416156128105750505050565b8351916001600160401b0390336060850183811186821017612add578752602a85528585019187368437855115612ac95760308353855191600192831015612ab5576078602188015360295b838111612a4b5750612a1b5790875193608085019085821090821117612a07578852604284528684019460603687378451156129f3576030865384518210156129f35790607860218601536041915b8183116129855750505061295557612951938693612935936129266048946128fd9a519a8b9576020b1b1b2b9b9a1b7b73a3937b61d1030b1b1b7bab73a1604d1b8c8801525180926037880190612560565b8401917001034b99036b4b9b9b4b733903937b6329607d1b603784015251809386840190612560565b01036028810187520185612658565b5192839262461bcd60e51b845260048401526024830190612583565b0390fd5b60648587519062461bcd60e51b8252806004830152602482015260008051602061304a8339815191526044820152fd5b909192600f811660108110156129df576f181899199a1a9b1b9c1cb0b131b232b360811b901a6129b58588612e00565b5360041c9280156129cb576000190191906128ab565b634e487b7160e01b82526011600452602482fd5b634e487b7160e01b83526032600452602483fd5b634e487b7160e01b81526032600452602490fd5b634e487b7160e01b86526041600452602486fd5b60648789519062461bcd60e51b8252806004830152602482015260008051602061304a8339815191526044820152fd5b90600f81166010811015612aa1576f181899199a1a9b1b9c1cb0b131b232b360811b901a612a79838a612e00565b5360041c908015612a8d576000190161285c565b634e487b7160e01b87526011600452602487fd5b634e487b7160e01b88526032600452602488fd5b634e487b7160e01b86526032600452602486fd5b634e487b7160e01b85526032600452602485fd5b634e487b7160e01b85526041600452602485fd5b906000918083526005602052604083209160018060a01b03169182845260205260ff604084205416612b2257505050565b8083526005602052604083208284526020526040832060ff1981541690557ff6391f5c32d9c69d2a47ea670b442974b53935d1edc7fd64eb21e047a839171b339380a4565b6001600160a01b031660009081526020819052604090205490565b9190820180921161152757565b6001600160a01b03908116918215612c985716918215612c4757600082815280602052604081205491808310612bf3576040828260008051602061308a833981519152958760209652828652038282205586815220818154019055604051908152a3565b60405162461bcd60e51b815260206004820152602660248201527f45524332303a207472616e7366657220616d6f756e7420657863656564732062604482015265616c616e636560d01b6064820152608490fd5b60405162461bcd60e51b815260206004820152602360248201527f45524332303a207472616e7366657220746f20746865207a65726f206164647260448201526265737360e81b6064820152608490fd5b60405162461bcd60e51b815260206004820152602560248201527f45524332303a207472616e736665722066726f6d20746865207a65726f206164604482015264647265737360d81b6064820152608490fd5b6001600160a01b03908116918215612d9c5716918215612d4c5760207f8c5be1e5ebec7d5bd14f71427d1e84f3dd0314c0f7b2291e5b200ac8c7c3b925918360005260018252604060002085600052825280604060002055604051908152a3565b60405162461bcd60e51b815260206004820152602260248201527f45524332303a20617070726f766520746f20746865207a65726f206164647265604482015261737360f01b6064820152608490fd5b60405162461bcd60e51b8152602060048201526024808201527f45524332303a20617070726f76652066726f6d20746865207a65726f206164646044820152637265737360e01b6064820152608490fd5b8181029291811591840414171561152757565b908151811015612e11570160200190565b634e487b7160e01b600052603260045260246000fd5b9094939260609260808301968352602083015260408201520152565b15612e4a57565b60405162461bcd60e51b8152602060048201526015602482015274115cdd185d1948191bd95cc81b9bdd08195e1a5cdd605a1b6044820152606490fd5b15612e8e57565b60405162461bcd60e51b815260206004820152601060248201526f2737ba1032b9ba30ba329037bbb732b960811b6044820152606490fd5b15612ecd57565b60405162461bcd60e51b815260206004820152601060248201526f115cdd185d19481a5cc81b1bd8dad95960821b6044820152606490fd5b15612f0c57565b60405162461bcd60e51b815260206004820152601360248201527245737461746520697320636c61696d61626c6560681b6044820152606490fd5b60001981146115275760010190565b8051821015612e115760209160051b010190565b818110612f75575050565b60008155600101612f6a565b612f8b81546126e8565b9081612f95575050565b81601f60009311600114612fa7575055565b908083918252612fc6601f60208420940160051c840160018501612f6a565b5555565b8054821015612e11576000526005602060002091020190600090565b9190820391821161152757565b9060405161300081612605565b82546001600160a01b031681526001830154602082015291829060809060049061302c60028201612722565b604085015261303d60038201612722565b6060850152015491015256fe537472696e67733a20686578206c656e67746820696e73756666696369656e748b9849c4ecd9dbd48ef4c9fe9f6cf25ed6769e832eb22eb3c5a34c3460183c1cddf252ad1be2c89b69c2b068fc378daa952ba7f163c4a11628f55a4df523b3efa26469706673582212207f0cf62a5b2c9572cef2c4331e939f75e0d16928c198d02743d802f2dfa9c68864736f6c634300081300332f8788117e7eff1d82e926ec794901d17c78024a50270940304540a733656f0d",
  "linkReferences": {},
  "deployedLinkReferences": {}
}