{
  "_format": "hh-sol-artifact-1",
  "contractName": "TokenVault",
  "sourceName": "contracts/TokenVault.sol",
  "abi": [
    {
      "inputs": [
        {
          "internalType": "address",
          "name": "_defaiEstate",
          "type": "address"
        }
      ],
      "stateMutability": "nonpayable",
      "type": "constructor"
    },
    {
      "anonymous": false,
      "inputs": [
        {
          "indexed": true,
          "internalType": "uint256",
          "name": "estateId",
          "type": "uint256"
        },
        {
          "indexed": true,
          "internalType": "address",
          "name": "collection",
          "type": "address"
        },
        {
          "indexed": false,
          "internalType": "uint256",
          "name": "tokenId",
          "type": "uint256"
        },
        {
          "indexed": true,
          "internalType": "address",
          "name": "beneficiary",
          "type": "address"
        },
        {
          "indexed": false,
          "internalType": "uint256",
          "name": "timestamp",
          "type": "uint256"
        }
      ],
      "name": "NFTClaimed",
      "type": "event"
    },
    {
      "anonymous": false,
      "inputs": [
        {
          "indexed": true,
          "internalType": "uint256",
          "name": "estateId",
          "type": "uint256"
        },
        {
          "indexed": true,
          "internalType": "address",
          "name": "collection",
          "type": "address"
        },
        {
          "indexed": false,
          "internalType": "uint256",
          "name": "tokenId",
          "type": "uint256"
        },
        {
          "indexed": false,
          "internalType": "address",
          "name": "depositor",
          "type": "address"
        },
        {
          "indexed": false,
          "internalType": "uint256",
          "name": "timestamp",
          "type": "uint256"
        }
      ],
      "name": "NFTDeposited",
      "type": "event"
    },
    {
      "anonymous": false,
      "inputs": [
        {
          "indexed": true,
          "internalType": "address",
          "name": "previousOwner",
          "type": "address"
        },
        {
          "indexed": true,
          "internalType": "address",
          "name": "newOwner",
          "type": "address"
        }
      ],
      "name": "OwnershipTransferred",
      "type": "event"
    },
    {
      "anonymous": false,
      "inputs": [
        {
          "indexed": true,
          "internalType": "uint256",
          "name": "estateId",
          "type": "uint256"
        },
        {
          "indexed": true,
          "internalType": "address",
          "name": "token",
          "type": "address"
        },
        {
          "indexed": true,
          "internalType": "address",
          "name": "beneficiary",
          "type": "address"
        },
        {
          "indexed": false,
          "internalType": "uint256",
          "name": "amount",
          "type": "uint256"
        },
        {
          "indexed": false,
          "internalType": "uint256",
          "name": "timestamp",
          "type": "uint256"
        }
      ],
      "name": "TokensClaimed",
      "type": "event"
    },
    {
      "anonymous": false,
      "inputs": [
        {
          "indexed": true,
          "internalType": "uint256",
          "name": "estateId",
          "type": "uint256"
        },
        {
          "indexed": true,
          "internalType": "address",
          "name": "token",
          "type": "address"
        },
        {
          "indexed": false,
          "internalType": "uint256",
          "name": "amount",
          "type": "uint256"
        },
        {
          "indexed": false,
          "internalType": "address",
          "name": "depositor",
          "type": "address"
        },
        {
          "indexed": false,
          "internalType": "uint256",
          "name": "timestamp",
          "type": "uint256"
        }
      ],
      "name": "TokensDeposited",
      "type": "event"
    },
    {
      "inputs": [
        {
          "internalType": "uint256",
          "name": "estateId",
          "type": "uint256"
        },
        {
          "internalType": "uint256",
          "name": "nftIndex",
          "type": "uint256"
        }
      ],
      "name": "claimNFT",
      "outputs": [],
      "stateMutability": "nonpayable",
      "type": "function"
    },
    {
      "inputs": [
        {
          "internalType": "uint256",
          "name": "estateId",
          "type": "uint256"
        },
        {
          "internalType": "address",
          "name": "token",
          "type": "address"
        }
      ],
      "name": "claimTokens",
      "outputs": [],
      "stateMutability": "nonpayable",
      "type": "function"
    },
    {
      "inputs": [],
      "name": "defaiEstate",
      "outputs": [
        {
          "internalType": "contract IDefAIEstate",
          "name": "",
          "type": "address"
        }
      ],
      "stateMutability": "view",
      "type": "function"
    },
    {
      "inputs": [
        {
          "internalType": "uint256",
          "name": "estateId",
          "type": "uint256"
        },
        {
          "internalType": "address",
          "name": "collection",
          "type": "address"
        },
        {
          "internalType": "uint256",
          "name": "tokenId",
          "type": "uint256"
        }
      ],
      "name": "depositNFT",
      "outputs": [],
      "stateMutability": "nonpayable",
      "type": "function"
    },
    {
      "inputs": [
        {
          "internalType": "uint256",
          "name": "estateId",
          "type": "uint256"
        },
        {
          "internalType": "address",
          "name": "token",
          "type": "address"
        },
        {
          "internalType": "uint256",
          "name": "amount",
          "type": "uint256"
        }
      ],
      "name": "depositTokens",
      "outputs": [],
      "stateMutability": "nonpayable",
      "type": "function"
    },
    {
      "inputs": [
        {
          "internalType": "address",
          "name": "collection",
          "type": "address"
        },
        {
          "internalType": "uint256",
          "name": "tokenId",
          "type": "uint256"
        },
        {
          "internalType": "address",
          "name": "to",
          "type": "address"
        }
      ],
      "name": "emergencyWithdrawNFT",
      "outputs": [],
      "stateMutability": "nonpayable",
      "type": "function"
    },
    {
      "inputs": [
        {
          "internalType": "address",
          "name": "token",
          "type": "address"
        },
        {
          "internalType": "uint256",
          "name": "amount",
          "type": "uint256"
        },
        {
          "internalType": "address",
          "name": "to",
          "type": "address"
        }
      ],
      "name": "emergencyWithdrawToken",
      "outputs": [],
      "stateMutability": "nonpayable",
      "type": "function"
    },
    {
      "inputs": [
        {
          "internalType": "uint256",
          "name": "",
          "type": "uint256"
        },
        {
          "internalType": "uint256",
          "name": "",
          "type": "uint256"
        }
      ],
      "name": "estateNFTs",
      "outputs": [
        {
          "internalType": "address",
          "name": "collection",
          "type": "address"
        },
        {
          "internalType": "uint256",
          "name": "tokenId",
          "type": "uint256"
        },
        {
          "internalType": "uint256",
          "name": "depositTime",
          "type": "uint256"
        }
      ],
      "stateMutability": "view",
      "type": "function"
    },
    {
      "inputs": [
        {
          "internalType": "uint256",
          "name": "",
          "type": "uint256"
        },
        {
          "internalType": "address",
          "name": "",
          "type": "address"
        }
      ],
      "name": "estateTokenBalances",
      "outputs": [
        {
          "internalType": "uint256",
          "name": "amount",
          "type": "uint256"
        },
        {
          "internalType": "uint256",
          "name": "lastUpdated",
          "type": "uint256"
        }
      ],
      "stateMutability": "view",
      "type": "function"
    },
    {
      "inputs": [
        {
          "internalType": "uint256",
          "name": "estateId",
          "type": "uint256"
        },
        {
          "internalType": "address",
          "name": "token",
          "type": "address"
        },
        {
          "internalType": "address",
          "name": "beneficiary",
          "type": "address"
        }
      ],
      "name": "getClaimableTokenAmount",
      "outputs": [
        {
          "internalType": "uint256",
          "name": "",
          "type": "uint256"
        }
      ],
      "stateMutability": "view",
      "type": "function"
    },
    {
      "inputs": [
        {
          "internalType": "uint256",
          "name": "estateId",
          "type": "uint256"
        }
      ],
      "name": "getEstateNFTs",
      "outputs": [
        {
          "components": [
            {
              "internalType": "address",
              "name": "collection",
              "type": "address"
            },
            {
              "internalType": "uint256",
              "name": "tokenId",
              "type": "uint256"
            },
            {
              "internalType": "uint256",
              "name": "depositTime",
              "type": "uint256"
            }
          ],
          "internalType": "struct TokenVault.NFTDeposit[]",
          "name": "",
          "type": "tuple[]"
        }
      ],
      "stateMutability": "view",
      "type": "function"
    },
    {
      "inputs": [
        {
          "internalType": "uint256",
          "name": "estateId",
          "type": "uint256"
        },
        {
          "internalType": "address",
          "name": "token",
          "type": "address"
        }
      ],
      "name": "getEstateTokenBalance",
      "outputs": [
        {
          "internalType": "uint256",
          "name": "",
          "type": "uint256"
        }
      ],
      "stateMutability": "view",
      "type": "function"
    },
    {
      "inputs": [
        {
          "internalType": "uint256",
          "name": "",
          "type": "uint256"
        },
        {
          "internalType": "uint256",
          "name": "",
          "type": "uint256"
        },
        {
          "internalType": "address",
          "name": "",
          "type": "address"
        }
      ],
      "name": "nftClaims",
      "outputs": [
        {
          "internalType": "bool",
          "name": "",
          "type": "bool"
        }
      ],
      "stateMutability": "view",
      "type": "function"
    },
    {
      "inputs": [
        {
          "internalType": "address",
          "name": "",
          "type": "address"
        },
        {
          "internalType": "address",
          "name": "",
          "type": "address"
        },
        {
          "internalType": "uint256",
          "name": "",
          "type": "uint256"
        },
        {
          "internalType": "bytes",
          "name": "",
          "type": "bytes"
        }
      ],
      "name": "onERC721Received",
      "outputs": [
        {
          "internalType": "bytes4",
          "name": "",
          "type": "bytes4"
        }
      ],
      "stateMutability": "nonpayable",
      "type": "function"
    },
    {
      "inputs": [],
      "name": "owner",
      "outputs": [
        {
          "internalType": "address",
          "name": "",
          "type": "address"
        }
      ],
      "stateMutability": "view",
      "type": "function"
    },
    {
      "inputs": [],
      "name": "renounceOwnership",
      "outputs": [],
      "stateMutability": "nonpayable",
      "type": "function"
    },
    {
      "inputs": [
        {
          "internalType": "uint256",
          "name": "",
          "type": "uint256"
        },
        {
          "internalType": "address",
          "name": "",
          "type": "address"
        },
        {
          "internalType": "address",
          "name": "",
          "type": "address"
        }
      ],
      "name": "tokenClaims",
      "outputs": [
        {
          "internalType": "bool",
          "name": "",
          "type": "bool"
        }
      ],
      "stateMutability": "view",
      "type": "function"
    },
    {
      "inputs": [
        {
          "internalType": "address",
          "name": "newOwner",
          "type": "address"
        }
      ],
      "name": "transferOwnership",
      "outputs": [],
      "stateMutability": "nonpayable",
      "type": "function"
    }
  ],
  "bytecode": "0x6080346100ab57601f61194e38819003918201601f19168301916001600160401b038311848410176100b0578084926020946040528339810103126100ab57516001600160a01b0390818116908190036100ab5760005460018060a01b0319903382821617600055604051933391167f8be0079c531659141344cd1fd0a4f28419497f9722a3daafe3b4186f6b6457e0600080a360018055600254161760025561188790816100c78239f35b600080fd5b634e487b7160e01b600052604160045260246000fdfe6040608081526004908136101561001557600080fd5b60009160e08335811c908163015bf26414610d7d578163150b7a0214610cf45781633290fa1e14610cd057816345932b9714610c7a5781634672911614610c3857816350f7920c14610c0e5781636749a06714610bb65781636e164e23146108fb578163715018a6146108b35781637a6b8ade146105b3575080637d6f643b1461041e57806383509080146103e35780638da5cb5b146103bb578063a24025261461037157838163b1a81295146102e157508063d1a8878714610292578063dde7ac40146101a15763f2fde38b146100ec57600080fd5b3461019d57602036600319011261019d57610105610eea565b9061010e611078565b6001600160a01b0391821692831561014b5750506000548260018060a01b031982161760005516600080516020611832833981519152600080a380f35b906020608492519162461bcd60e51b8352820152602660248201527f4f776e61626c653a206e6577206f776e657220697320746865207a65726f206160448201526564647265737360d01b6064820152fd5b8280fd5b5082903461028e576020908160031936011261019d57803583528082528383208054909290916001600160401b03831161027b575092908451906101ea858260051b0183610f89565b8082528482018094845285842084915b8383106102565750505050845193808501918186525180925285850193925b8281106102265785850386f35b835180516001600160a01b0316865280830151868401528701518786015260609094019392810192600101610219565b600388600192610269859b98999b6116bf565b815201920192019190969493966101fa565b634e487b7160e01b855260419052602484fd5b5080fd5b5082346102de57826003193601126102de5782906102ae610f05565b923581526003602052209060018060a01b0316600052602052806000206001815491015482519182526020820152f35b80fd5b9290503461036d576102f236611044565b93916102fc611078565b6001600160a01b039061031286831615156117d1565b16803b156103695761033d94868094865197889586948593632142170760e11b855230908501611147565b03925af190811561036057506103505750f35b61035990610f45565b6102de5780f35b513d84823e3d90fd5b8580fd5b5050fd5b50503461028e578060209261038536610fc7565b939183919352600586522060018060a01b038092166000528452826000209116600052825260ff81600020541690519015158152f35b50503461028e578160031936011261028e57905490516001600160a01b039091168152602090f35b83346102de5761041b6103f536611044565b90916103ff611078565b6001600160a01b039061041583831615156117d1565b1661166e565b80f35b50903461019d5761042e36610f1b565b9192909361043a6110f1565b6001600160a01b0394851694851561057757853b15610569578251632142170760e11b815287908181806104728930338a8501611147565b0381838c5af1801561056d57610555575b50859052816020528287209083519061049b82610f6e565b878252602082019186835285810193428552805490600160401b82101561054257906104cc91600182018155611012565b95909561053057505184546001600160a01b031916911617835551600183015551600290910155517f9495f3ce20866c4323db86ce9155214f3d29da387665a7eb35229e4cdc70c2389181906105269042903390846110d0565b0390a36001805580f35b634e487b7160e01b8b528a905260248afd5b634e487b7160e01b8c526041875260248cfd5b61055e90610f45565b610569578638610483565b8680fd5b85513d84823e3d90fd5b506020606492519162461bcd60e51b8352820152601660248201527524b73b30b634b21027232a1031b7b63632b1ba34b7b760511b6044820152fd5b9050346108af576105c336610ffc565b9390916105ce6110f1565b600254825163786420d160e01b81528581018590526001600160a01b0392918316906103c0908181602481865afa9182156108a557916101409161061e938c92610878575b505001511515611524565b81845180926310db0c2960e01b8252818061063c338b8d84016115e1565b03915afa918215610779579184916064938a9261084b575b505061066560c082015115156115fa565b0151036107f357828652602094600686528287208188528652828720338852865260ff83882054166107ba5783875284865282872054811015610783578387528486526106bd6106b782858a20611012565b506116bf565b908488526006875283882090885286528287203388528652828720600160ff1982541617905581815116948787830196875190803b1561019d5761071993838851809681958294632142170760e11b8452339030908501611147565b03925af1801561077957610754575b509060008051602061181283398151915292915116935194815195865242908601523394a46001805580f35b9661077060008051602061181283398151915294939298610f45565b96909192610728565b84513d8a823e3d90fd5b825162461bcd60e51b81528086018790526011602482015270092dcecc2d8d2c8409c8ca840d2dcc8caf607b1b6044820152606490fd5b825162461bcd60e51b8152808601879052601360248201527213919508185b1c9958591e4818db185a5b5959606a1b6044820152606490fd5b815162461bcd60e51b8152602081860152602c60248201527f4e4654732063616e206f6e6c7920626520636c61696d656420627920736f6c6560448201526b2062656e656669636961727960a01b6064820152608490fd5b61086a9250803d10610871575b6108628183610f89565b810190611567565b3880610654565b503d610858565b6108979250803d1061089e575b61088f8183610f89565b81019061138b565b3880610613565b503d610885565b86513d8c823e3d90fd5b8380fd5b84346102de57806003193601126102de576108cc611078565b80546001600160a01b03198116825581906001600160a01b03166000805160206118328339815191528280a380f35b849150833461019d578060031936011261019d578335610919610f05565b916109226110f1565b600254815163786420d160e01b81528781018490526001600160a01b0395918616906103c0908181602481865afa918215610bac579161014091610971938b92610b8f57505001511515611524565b82516310db0c2960e01b815290829082908180610991338a8f84016115e1565b03915afa918215610b85578792610b68575b50506109b460c082015115156115fa565b828652602094600586528287209416938487528552818620338752855260ff8287205416610b2c5782865260038552818620848752855281862054908115610af45760649183610a0692015190611645565b04938415610aa8578286526005815281862084875281528186203387528152818620805460ff19166001179055828652600381528186208487528152818620805486810391908211610a9557557ffa76a4010d9533e3e964f2930a65fb6042a12fa6ff5b08281837a10b0be7321e9190610a8186338761166e565b815195865242908601523394a46001805580f35b634e487b7160e01b885260118952602488fd5b8690608492519162461bcd60e51b8352820152602160248201527f4e6f20746f6b656e7320746f20636c61696d20666f72207468697320736861726044820152606560f81b6064820152fd5b825162461bcd60e51b815280890187905260126024820152714e6f20746f6b656e7320746f20636c61696d60701b6044820152606490fd5b815162461bcd60e51b81528088018690526016602482015275151bdad95b9cc8185b1c9958591e4818db185a5b595960521b6044820152606490fd5b610b7e9250803d10610871576108628183610f89565b87806109a3565b83513d89823e3d90fd5b610ba59250803d1061089e5761088f8183610f89565b8b80610613565b85513d8b823e3d90fd5b505091346102de57610bc736610ffc565b939082526020528181209081548410156102de5750606092610be891611012565b5060018060a01b0381541691600260018301549201549181519384526020840152820152f35b5050503461028e578160031936011261028e5760025490516001600160a01b039091168152602090f35b50503461019d578160031936011261019d576020928291610c57610f05565b90358252600385528282206001600160a01b039091168252845220549051908152f35b50503461019d57606036600319011261019d576044356001600160a01b03811691908290036108af5760209360ff9284923582526006865282822060243583528652828220908252855220541690519015158152f35b5050503461028e57602090610ced610ce736610fc7565b916116f0565b9051908152f35b505091346102de5760803660031901126102de57610d10610eea565b50610d19610f05565b50606435926001600160401b03841161028e573660238501121561028e57830135610d4381610fac565b93610d5084519586610f89565b818552366024838301011161019d57906020948160248794018483013701015251630a85bd0160e11b8152f35b5050903461019d57610d8e36610f1b565b919290610d996110f1565b6001600160a01b0316938415610eb0578215610e6e5781516323b872dd60e01b6020820152610de990610de381610dd587303360248501611147565b03601f198101835282610f89565b86611176565b8386526003602052818620858752602052818620805491848301809311610e5b5750917f1a86f2fec285b1cf50577b325c975209ebcfa748a48da509410f0143a28448d793916105269355848752600360205280872086885260205242600182892001555191829142903390846110d0565b634e487b7160e01b885260119052602487fd5b6020606492519162461bcd60e51b8352820152601d60248201527f416d6f756e74206d7573742062652067726561746572207468616e20300000006044820152fd5b6020606492519162461bcd60e51b83528201526015602482015274496e76616c696420746f6b656e206164647265737360581b6044820152fd5b600435906001600160a01b0382168203610f0057565b600080fd5b602435906001600160a01b0382168203610f0057565b6060906003190112610f0057600435906024356001600160a01b0381168103610f00579060443590565b6001600160401b038111610f5857604052565b634e487b7160e01b600052604160045260246000fd5b606081019081106001600160401b03821117610f5857604052565b601f909101601f19168101906001600160401b03821190821017610f5857604052565b6001600160401b038111610f5857601f01601f191660200190565b6060906003190112610f0057600435906001600160a01b03906024358281168103610f0057916044359081168103610f005790565b6040906003190112610f00576004359060243590565b805482101561102e576000526003602060002091020190600090565b634e487b7160e01b600052603260045260246000fd5b6060906003190112610f00576001600160a01b036004358181168103610f005791602435916044359081168103610f005790565b6000546001600160a01b0316330361108c57565b606460405162461bcd60e51b815260206004820152602060248201527f4f776e61626c653a2063616c6c6572206973206e6f7420746865206f776e65726044820152fd5b9081526001600160a01b039091166020820152604081019190915260600190565b600260015414611102576002600155565b60405162461bcd60e51b815260206004820152601f60248201527f5265656e7472616e637947756172643a207265656e7472616e742063616c6c006044820152606490fd5b6001600160a01b03918216815291166020820152604081019190915260600190565b51908115158203610f0057565b604080516001600160a01b03929092169291908101906001600160401b03821181831017610f585761120a916040526020938482527f5361666545524332303a206c6f772d6c6576656c2063616c6c206661696c6564858301526000808587829751910182855af13d1561129f573d916111ef83610fac565b926111fd6040519485610f89565b83523d868885013e6112a3565b9081519083821592831561127d575b5050509050156112265750565b6084906040519062461bcd60e51b82526004820152602a60248201527f5361666545524332303a204552433230206f7065726174696f6e20646964206e6044820152691bdd081cdd58d8d9595960b21b6064820152fd5b8480929394500103126102de5750816112969101611169565b80388381611219565b6060915b9192901561130557508151156112b7575090565b3b156112c05790565b60405162461bcd60e51b815260206004820152601d60248201527f416464726573733a2063616c6c20746f206e6f6e2d636f6e74726163740000006044820152606490fd5b8251909150156113185750805190602001fd5b6040519062461bcd60e51b82528160208060048301528251908160248401526000935b82851061135e575050604492506000838284010152601f80199101168101030190fd5b848101820151868601604401529381019385935061133b565b51906001600160a01b0382168203610f0057565b80916103c09283910312610f00576040519182016001600160401b03811183821017610f5857604052805182526113c460208201611377565b602083015260408101516040830152606081015160608301526080810151608083015260a081015160a083015260c081015160c083015260e081015160e0830152610100808201519083015261012061141e818301611169565b90830152610140611430818301611169565b90830152610160808201519083015261018080820151908301526101a080820151908301526101c0611463818301611169565b908301526101e0611475818301611377565b90830152610200808201519083015261022080820151908301526102408082015190830152610260808201519083015261028080820151908301526102a080820151908301526102c080820151908301526102e08082015190830152610300808201519083015261032080820151908301526103406114f5818301611169565b908301526103608082015190830152610380808201519083015261151d6103a0809201611377565b9082015290565b1561152b57565b60405162461bcd60e51b8152602060048201526014602482015273457374617465206e6f7420636c61696d61626c6560601b6044820152606490fd5b908160e0910312610f00576040519060e082016001600160401b03811183821017610f58576115d99160c091604052805184526115a660208201611377565b602085015260408101516040850152606081015160608501526080810151608085015260a081015160a085015201611169565b60c082015290565b9081526001600160a01b03909116602082015260400190565b1561160157565b60405162461bcd60e51b815260206004820152601c60248201527b135d5cdd0818db185a5b481a5b9a195c9a5d185b98d948199a5c9cdd60221b6044820152606490fd5b8181029291811591840414171561165857565b634e487b7160e01b600052601160045260246000fd5b60405163a9059cbb60e01b60208201526001600160a01b03909216602483015260448083019390935291815260808101916001600160401b03831182841017610f58576116bd92604052611176565b565b906040516116cc81610f6e565b82546001600160a01b03168152600183015460208201526002909201546040830152565b91909160009281845260056020526040918285209160018060a01b0380911692838752602052838620818616875260205260ff84872054166117c9576117519460e09160025416855180809881946310db0c29871b835287600484016115e1565b03915afa9384156117bf57859461179f575b5060c08401511561179857918481926117949594606497526003602052828220908252602052205491015190611645565b0490565b5050505090565b6117b891945060e03d8111610871576108628183610f89565b9238611763565b83513d87823e3d90fd5b505050505090565b156117d857565b60405162461bcd60e51b8152602060048201526011602482015270125b9d985b1a59081c9958da5c1a595b9d607a1b6044820152606490fdfed7164f1dd9a11183bc690c9df8edb503d8b08b4a49a885f0426f54690d42db0f8be0079c531659141344cd1fd0a4f28419497f9722a3daafe3b4186f6b6457e0a26469706673582212201309a72baa0def4cbb57934b21bdc2af844fb5b5ddfec91b1bbc095134aa48af64736f6c63430008130033",
  "linkReferences": {},
  "deployedLinkReferences": {}
}