{"contracts/DefAIEstateMinimal.sol":{"DefAIEstateMinimal":{"abi":[{"inputs":[],"stateMutability":"nonpayable","type":"constructor"},{"anonymous":false,"inputs":[{"indexed":true,"internalType":"address","name":"owner","type":"address"},{"indexed":true,"internalType":"address","name":"spender","type":"address"},{"indexed":false,"internalType":"uint256","name":"value","type":"uint256"}],"name":"Approval","type":"event"},{"anonymous":false,"inputs":[{"indexed":true,"internalType":"uint256","name":"estateId","type":"uint256"},{"indexed":true,"internalType":"address","name":"beneficiary","type":"address"},{"indexed":false,"internalType":"uint256","name":"share","type":"uint256"},{"indexed":false,"internalType":"string","name":"name","type":"string"},{"indexed":false,"internalType":"uint256","name":"timestamp","type":"uint256"}],"name":"BeneficiaryAdded","type":"event"},{"anonymous":false,"inputs":[{"indexed":true,"internalType":"uint256","name":"estateId","type":"uint256"},{"indexed":true,"internalType":"address","name":"owner","type":"address"},{"indexed":false,"internalType":"uint256","name":"timestamp","type":"uint256"}],"name":"EstateCheckedIn","type":"event"},{"anonymous":false,"inputs":[{"indexed":true,"internalType":"uint256","name":"estateId","type":"uint256"},{"indexed":true,"internalType":"address","name":"owner","type":"address"},{"indexed":false,"internalType":"uint256","name":"estateNumber","type":"uint256"},{"indexed":false,"internalType":"uint256","name":"inactivityPeriod","type":"uint256"},{"indexed":false,"internalType":"uint256","name":"gracePeriod","type":"uint256"},{"indexed":false,"internalType":"uint256","name":"timestamp","type":"uint256"}],"name":"EstateCreated","type":"event"},{"anonymous":false,"inputs":[{"indexed":true,"internalType":"uint256","name":"estateId","type":"uint256"},{"indexed":false,"internalType":"uint256","name":"timestamp","type":"uint256"}],"name":"EstateLocked","type":"event"},{"anonymous":false,"inputs":[{"indexed":true,"internalType":"uint256","name":"estateId","type":"uint256"},{"indexed":true,"internalType":"address","name":"beneficiary","type":"address"},{"indexed":false,"internalType":"uint256","name":"share","type":"uint256"},{"indexed":false,"internalType":"uint256","name":"solAmount","type":"uint256"},{"indexed":false,"internalType":"uint256","name":"estateTokenAmount","type":"uint256"},{"indexed":false,"internalType":"uint256","name":"timestamp","type":"uint256"}],"name":"InheritanceClaimed","type":"event"},{"anonymous":false,"inputs":[{"indexed":false,"internalType":"address","name":"account","type":"address"}],"name":"Paused","type":"event"},{"anonymous":false,"inputs":[{"indexed":true,"internalType":"uint256","name":"rwaId","type":"uint256"},{"indexed":true,"internalType":"uint256","name":"estateId","type":"uint256"},{"indexed":false,"internalType":"string","name":"assetType","type":"string"},{"indexed":false,"internalType":"uint256","name":"value","type":"uint256"},{"indexed":false,"internalType":"uint256","name":"timestamp","type":"uint256"}],"name":"RWAAdded","type":"event"},{"anonymous":false,"inputs":[{"indexed":true,"internalType":"uint256","name":"rwaId","type":"uint256"},{"indexed":true,"internalType":"uint256","name":"estateId","type":"uint256"},{"indexed":false,"internalType":"uint256","name":"timestamp","type":"uint256"}],"name":"RWADeleted","type":"event"},{"anonymous":false,"inputs":[{"indexed":true,"internalType":"bytes32","name":"role","type":"bytes32"},{"indexed":true,"internalType":"bytes32","name":"previousAdminRole","type":"bytes32"},{"indexed":true,"internalType":"bytes32","name":"newAdminRole","type":"bytes32"}],"name":"RoleAdminChanged","type":"event"},{"anonymous":false,"inputs":[{"indexed":true,"internalType":"bytes32","name":"role","type":"bytes32"},{"indexed":true,"internalType":"address","name":"account","type":"address"},{"indexed":true,"internalType":"address","name":"sender","type":"address"}],"name":"RoleGranted","type":"event"},{"anonymous":false,"inputs":[{"indexed":true,"internalType":"bytes32","name":"role","type":"bytes32"},{"indexed":true,"internalType":"address","name":"account","type":"address"},{"indexed":true,"internalType":"address","name":"sender","type":"address"}],"name":"RoleRevoked","type":"event"},{"anonymous":false,"inputs":[{"indexed":true,"internalType":"address","name":"from","type":"address"},{"indexed":true,"internalType":"address","name":"to","type":"address"},{"indexed":false,"internalType":"uint256","name":"value","type":"uint256"}],"name":"Transfer","type":"event"},{"anonymous":false,"inputs":[{"indexed":false,"internalType":"address","name":"account","type":"address"}],"name":"Unpaused","type":"event"},{"inputs":[],"name":"ADMIN_ROLE","outputs":[{"internalType":"bytes32","name":"","type":"bytes32"}],"stateMutability":"view","type":"function"},{"inputs":[],"name":"DEFAULT_ADMIN_ROLE","outputs":[{"internalType":"bytes32","name":"","type":"bytes32"}],"stateMutability":"view","type":"function"},{"inputs":[],"name":"ESTATE_FEE","outputs":[{"internalType":"uint256","name":"","type":"uint256"}],"stateMutability":"view","type":"function"},{"inputs":[],"name":"MAX_BENEFICIARIES","outputs":[{"internalType":"uint256","name":"","type":"uint256"}],"stateMutability":"view","type":"function"},{"inputs":[],"name":"MAX_GRACE_PERIOD","outputs":[{"internalType":"uint256","name":"","type":"uint256"}],"stateMutability":"view","type":"function"},{"inputs":[],"name":"MAX_INACTIVITY_PERIOD","outputs":[{"internalType":"uint256","name":"","type":"uint256"}],"stateMutability":"view","type":"function"},{"inputs":[],"name":"MIN_GRACE_PERIOD","outputs":[{"internalType":"uint256","name":"","type":"uint256"}],"stateMutability":"view","type":"function"},{"inputs":[],"name":"MIN_INACTIVITY_PERIOD","outputs":[{"internalType":"uint256","name":"","type":"uint256"}],"stateMutability":"view","type":"function"},{"inputs":[],"name":"RWA_FEE","outputs":[{"internalType":"uint256","name":"","type":"uint256"}],"stateMutability":"view","type":"function"},{"inputs":[{"internalType":"address","name":"owner","type":"address"},{"internalType":"address","name":"spender","type":"address"}],"name":"allowance","outputs":[{"internalType":"uint256","name":"","type":"uint256"}],"stateMutability":"view","type":"function"},{"inputs":[{"internalType":"address","name":"spender","type":"address"},{"internalType":"uint256","name":"amount","type":"uint256"}],"name":"approve","outputs":[{"internalType":"bool","name":"","type":"bool"}],"stateMutability":"nonpayable","type":"function"},{"inputs":[{"internalType":"address","name":"account","type":"address"}],"name":"balanceOf","outputs":[{"internalType":"uint256","name":"","type":"uint256"}],"stateMutability":"view","type":"function"},{"inputs":[{"internalType":"uint256","name":"estateId","type":"uint256"}],"name":"checkIn","outputs":[],"stateMutability":"nonpayable","type":"function"},{"inputs":[{"internalType":"uint256","name":"estateId","type":"uint256"},{"internalType":"uint256","name":"beneficiaryIndex","type":"uint256"}],"name":"claimInheritance","outputs":[],"stateMutability":"nonpayable","type":"function"},{"inputs":[{"internalType":"uint256","name":"","type":"uint256"},{"internalType":"address","name":"","type":"address"}],"name":"claimRecords","outputs":[{"internalType":"uint256","name":"estateId","type":"uint256"},{"internalType":"address","name":"beneficiary","type":"address"},{"internalType":"uint256","name":"sharePercentage","type":"uint256"},{"internalType":"uint256","name":"claimTime","type":"uint256"},{"internalType":"uint256","name":"solAmount","type":"uint256"},{"internalType":"uint256","name":"estateTokenAmount","type":"uint256"},{"internalType":"bool","name":"claimed","type":"bool"}],"stateMutability":"view","type":"function"},{"inputs":[{"internalType":"uint256","name":"inactivityPeriod","type":"uint256"},{"internalType":"uint256","name":"gracePeriod","type":"uint256"},{"internalType":"bytes32","name":"ownerEmailHash","type":"bytes32"}],"name":"createEstate","outputs":[{"internalType":"uint256","name":"","type":"uint256"}],"stateMutability":"payable","type":"function"},{"inputs":[{"internalType":"uint256","name":"estateId","type":"uint256"},{"internalType":"string","name":"assetType","type":"string"},{"internalType":"string","name":"description","type":"string"},{"internalType":"uint256","name":"value","type":"uint256"},{"internalType":"string","name":"documentHash","type":"string"}],"name":"createRWA","outputs":[{"internalType":"uint256","name":"","type":"uint256"}],"stateMutability":"payable","type":"function"},{"inputs":[],"name":"decimals","outputs":[{"internalType":"uint8","name":"","type":"uint8"}],"stateMutability":"view","type":"function"},{"inputs":[{"internalType":"address","name":"spender","type":"address"},{"internalType":"uint256","name":"subtractedValue","type":"uint256"}],"name":"decreaseAllowance","outputs":[{"internalType":"bool","name":"","type":"bool"}],"stateMutability":"nonpayable","type":"function"},{"inputs":[{"internalType":"uint256","name":"rwaId","type":"uint256"},{"internalType":"uint256","name":"estateId","type":"uint256"}],"name":"deleteRWA","outputs":[],"stateMutability":"nonpayable","type":"function"},{"inputs":[{"internalType":"uint256","name":"","type":"uint256"}],"name":"estates","outputs":[{"internalType":"uint256","name":"estateId","type":"uint256"},{"internalType":"address","name":"owner","type":"address"},{"internalType":"bytes32","name":"ownerEmailHash","type":"bytes32"},{"internalType":"uint256","name":"lastActive","type":"uint256"},{"internalType":"uint256","name":"inactivityPeriod","type":"uint256"},{"internalType":"uint256","name":"gracePeriod","type":"uint256"},{"internalType":"uint256","name":"totalBeneficiaries","type":"uint256"},{"internalType":"uint256","name":"creationTime","type":"uint256"},{"internalType":"uint256","name":"estateValue","type":"uint256"},{"internalType":"bool","name":"isLocked","type":"bool"},{"internalType":"bool","name":"isClaimable","type":"bool"},{"internalType":"uint256","name":"estateNumber","type":"uint256"},{"internalType":"uint256","name":"totalClaims","type":"uint256"}],"stateMutability":"view","type":"function"},{"inputs":[{"internalType":"uint256","name":"estateId","type":"uint256"},{"internalType":"address","name":"beneficiary","type":"address"}],"name":"getClaimRecord","outputs":[{"components":[{"internalType":"uint256","name":"estateId","type":"uint256"},{"internalType":"address","name":"beneficiary","type":"address"},{"internalType":"uint256","name":"sharePercentage","type":"uint256"},{"internalType":"uint256","name":"claimTime","type":"uint256"},{"internalType":"uint256","name":"solAmount","type":"uint256"},{"internalType":"uint256","name":"estateTokenAmount","type":"uint256"},{"internalType":"bool","name":"claimed","type":"bool"}],"internalType":"struct DefAIEstateMinimal.ClaimRecord","name":"","type":"tuple"}],"stateMutability":"view","type":"function"},{"inputs":[{"internalType":"uint256","name":"estateId","type":"uint256"}],"name":"getEstate","outputs":[{"components":[{"internalType":"uint256","name":"estateId","type":"uint256"},{"internalType":"address","name":"owner","type":"address"},{"internalType":"bytes32","name":"ownerEmailHash","type":"bytes32"},{"internalType":"uint256","name":"lastActive","type":"uint256"},{"internalType":"uint256","name":"inactivityPeriod","type":"uint256"},{"internalType":"uint256","name":"gracePeriod","type":"uint256"},{"components":[{"internalType":"address","name":"wallet","type":"address"},{"internalType":"uint256","name":"share","type":"uint256"},{"internalType":"string","name":"name","type":"string"},{"internalType":"string","name":"relationship","type":"string"},{"internalType":"bytes32","name":"emailHash","type":"bytes32"}],"internalType":"struct DefAIEstateMinimal.Beneficiary[]","name":"beneficiaries","type":"tuple[]"},{"internalType":"uint256","name":"totalBeneficiaries","type":"uint256"},{"internalType":"uint256","name":"creationTime","type":"uint256"},{"internalType":"uint256","name":"estateValue","type":"uint256"},{"internalType":"bool","name":"isLocked","type":"bool"},{"internalType":"bool","name":"isClaimable","type":"bool"},{"internalType":"uint256","name":"estateNumber","type":"uint256"},{"internalType":"uint256","name":"totalClaims","type":"uint256"}],"internalType":"struct DefAIEstateMinimal.Estate","name":"","type":"tuple"}],"stateMutability":"view","type":"function"},{"inputs":[{"internalType":"uint256","name":"rwaId","type":"uint256"}],"name":"getRWA","outputs":[{"components":[{"internalType":"uint256","name":"rwaId","type":"uint256"},{"internalType":"uint256","name":"estateId","type":"uint256"},{"internalType":"string","name":"assetType","type":"string"},{"internalType":"string","name":"description","type":"string"},{"internalType":"uint256","name":"value","type":"uint256"},{"internalType":"uint256","name":"createdAt","type":"uint256"},{"internalType":"bool","name":"isDeleted","type":"bool"},{"internalType":"address","name":"owner","type":"address"},{"internalType":"string","name":"documentHash","type":"string"}],"internalType":"struct DefAIEstateMinimal.RWA","name":"","type":"tuple"}],"stateMutability":"view","type":"function"},{"inputs":[{"internalType":"bytes32","name":"role","type":"bytes32"}],"name":"getRoleAdmin","outputs":[{"internalType":"bytes32","name":"","type":"bytes32"}],"stateMutability":"view","type":"function"},{"inputs":[{"internalType":"bytes32","name":"role","type":"bytes32"},{"internalType":"address","name":"account","type":"address"}],"name":"grantRole","outputs":[],"stateMutability":"nonpayable","type":"function"},{"inputs":[{"internalType":"bytes32","name":"role","type":"bytes32"},{"internalType":"address","name":"account","type":"address"}],"name":"hasRole","outputs":[{"internalType":"bool","name":"","type":"bool"}],"stateMutability":"view","type":"function"},{"inputs":[{"internalType":"address","name":"spender","type":"address"},{"internalType":"uint256","name":"addedValue","type":"uint256"}],"name":"increaseAllowance","outputs":[{"internalType":"bool","name":"","type":"bool"}],"stateMutability":"nonpayable","type":"function"},{"inputs":[],"name":"name","outputs":[{"internalType":"string","name":"","type":"string"}],"stateMutability":"view","type":"function"},{"inputs":[],"name":"paused","outputs":[{"internalType":"bool","name":"","type":"bool"}],"stateMutability":"view","type":"function"},{"inputs":[{"internalType":"bytes32","name":"role","type":"bytes32"},{"internalType":"address","name":"account","type":"address"}],"name":"renounceRole","outputs":[],"stateMutability":"nonpayable","type":"function"},{"inputs":[{"internalType":"bytes32","name":"role","type":"bytes32"},{"internalType":"address","name":"account","type":"address"}],"name":"revokeRole","outputs":[],"stateMutability":"nonpayable","type":"function"},{"inputs":[{"internalType":"uint256","name":"","type":"uint256"}],"name":"rwas","outputs":[{"internalType":"uint256","name":"rwaId","type":"uint256"},{"internalType":"uint256","name":"estateId","type":"uint256"},{"internalType":"string","name":"assetType","type":"string"},{"internalType":"string","name":"description","type":"string"},{"internalType":"uint256","name":"value","type":"uint256"},{"internalType":"uint256","name":"createdAt","type":"uint256"},{"internalType":"bool","name":"isDeleted","type":"bool"},{"internalType":"address","name":"owner","type":"address"},{"internalType":"string","name":"documentHash","type":"string"}],"stateMutability":"view","type":"function"},{"inputs":[{"internalType":"bytes4","name":"interfaceId","type":"bytes4"}],"name":"supportsInterface","outputs":[{"internalType":"bool","name":"","type":"bool"}],"stateMutability":"view","type":"function"},{"inputs":[],"name":"symbol","outputs":[{"internalType":"string","name":"","type":"string"}],"stateMutability":"view","type":"function"},{"inputs":[],"name":"totalSupply","outputs":[{"internalType":"uint256","name":"","type":"uint256"}],"stateMutability":"view","type":"function"},{"inputs":[{"internalType":"address","name":"to","type":"address"},{"internalType":"uint256","name":"amount","type":"uint256"}],"name":"transfer","outputs":[{"internalType":"bool","name":"","type":"bool"}],"stateMutability":"nonpayable","type":"function"},{"inputs":[{"internalType":"address","name":"from","type":"address"},{"internalType":"address","name":"to","type":"address"},{"internalType":"uint256","name":"amount","type":"uint256"}],"name":"transferFrom","outputs":[{"internalType":"bool","name":"","type":"bool"}],"stateMutability":"nonpayable","type":"function"},{"inputs":[{"internalType":"uint256","name":"estateId","type":"uint256"}],"name":"triggerInheritance","outputs":[],"stateMutability":"nonpayable","type":"function"},{"inputs":[{"internalType":"uint256","name":"estateId","type":"uint256"},{"components":[{"internalType":"address","name":"wallet","type":"address"},{"internalType":"uint256","name":"share","type":"uint256"},{"internalType":"string","name":"name","type":"string"},{"internalType":"string","name":"relationship","type":"string"},{"internalType":"bytes32","name":"emailHash","type":"bytes32"}],"internalType":"struct DefAIEstateMinimal.Beneficiary[]","name":"beneficiaries","type":"tuple[]"}],"name":"updateBeneficiaries","outputs":[],"stateMutability":"nonpayable","type":"function"}],"evm":{"bytecode":{"linkReferences":{},"object":"60803462000409576001600160401b0390604090808201838111828210176200030957825260128152602090712232b320a49022b9ba30ba32902a37b5b2b760711b828201528251938385018581108282111762000309578452600685526545535441544560d01b83860152815190808211620003095760038054926001948585811c95168015620003fe575b87861014620003e8578190601f9586811162000392575b5087908683116001146200032b576000926200031f575b505060001982841b1c191690851b1781555b8651918211620003095760049283548581811c91168015620002fe575b87821014620002e9578181116200029e575b5085908311600114620002325782939495969760009362000226575b505082851b92600019911b1c19161790555b8060065560ff1990816007541660075560008052600583528360002033600052835260ff84600020541615620001eb575b7fa49807205ce4d355092ef5a8a18f56e8913cf4a201fbe287825b095693c217759283600052600581528460002033600052815260ff85600020541615620001ac575b84516130df90816200040f8239f35b836000526005815284600020903360005252836000209182541617905533903390600080516020620034ee833981519152600080a4388080806200019d565b60008052600583528360002033600052835283600020818382541617905533336000600080516020620034ee8339815191528180a46200015a565b01519150388062000117565b90601f1983169184600052866000209260005b81811062000288575098848798999a979697106200026d575b50505050811b01905562000129565b01519060f884600019921b161c19169055388080806200025e565b8a83015185559387019391880191880162000245565b84600052866000208280860160051c820192898710620002df575b0160051c019086905b828110620002d2575050620000fb565b60008155018690620002c2565b92508192620002b9565b602285634e487b7160e01b6000525260246000fd5b90607f1690620000e9565b634e487b7160e01b600052604160045260246000fd5b015190503880620000ba565b90879350601f1983169185600052896000209260005b8b8282106200037b575050841162000362575b505050811b018155620000cc565b015160001983861b60f8161c1916905538808062000354565b8385015186558b9790950194938401930162000341565b90915083600052876000208680850160051c8201928a8610620003de575b918991869594930160051c01915b828110620003ce575050620000a3565b60008155859450899101620003be565b92508192620003b0565b634e487b7160e01b600052602260045260246000fd5b94607f16946200008c565b600080fdfe608080604052600436101561001357600080fd5b60003560e01c90816301ffc9a71461250d5750806306fdde0314612468578063095ea7b31461244257806310db0c291461233b578063167bb9d01461203b57806318160ddd1461201d5780631a7fdcd214611ffa5780632348dd1814611fde57806323b872dd14611f20578063248a9ca314611ef15780632da413fc14611a135780632f2ff15d14611960578063313ce5671461194457806336568abe146118b2578063374c8d27146118905780633899ad0b146116e15780633950935114611690578063466196491461167257806351ded3b514610ff95780635c975abb14610fd65780636cf7adac14610f0a57806370a0823114610edf57806375b238fc14610ea4578063786420d114610bd65780638493eb2514610bb6578063883a0038146108fe57806391d1485414610b6957806395d89b4114610a87578063a0ec0e08146109f7578063a217fddf146109db578063a457c2d714610934578063a9059cbb14610903578063b106d2d2146108fe578063c041cd13146107d4578063c906d2d014610579578063d547741f14610538578063d70f83c214610476578063dd62ed3e14610425578063ddca659b146102a75763e95a644f146101d757600080fd5b346102a2576020806003193601126102a25760043580600052600a80835261022c60018060a01b0361021481600160406000200154161515612e43565b83600052828552600160406000200154163314612e87565b8160005280835261024760ff82604060002001541615612ec6565b8160005280835261026560ff826040600020015460081c1615612f05565b816000528252426003604060002001557fb0022a0f98088ff564fe03fac14ad27ea389cb10868809d658387f2ce6f124e0604051924284523393a3005b600080fd5b346102a2576020806003193601126102a257604051906102c68261263c565b60008252808201600090526060918260408201528280820152608081016000905260a081016000905260c081016000905260e08101600090528261010080920152600435600052600b82526040600020604051936103238561263c565b81548552600182015484860190815261033e60028401612722565b604087019081529361035260038501612722565b948388019586526004850154946080890195865260058101549160a08a0192835260068201549260c08b019160ff85161515835260e08c0193600160a01b60019003809660081c1685526007016103a890612722565b96868d019788528b6040519d8e9d8e5251908d01525160408c01525161012080988c01526101408b016103da91612583565b9851601f19998a8c82030160808d01526103f391612583565b975160a08b01525160c08a015251151560e08901525116908601525192848303019084015261042191612583565b0390f35b346102a25760403660031901126102a25761043e6125a8565b6104466125be565b9060018060a01b038091166000526001602052604060002091166000526020526020604060002054604051908152f35b346102a25760203660031901126102a257600435600052600a6020526101a0604060002080549060018060a01b036001820154169060ff6002820154600383015460048401546005850154600786015490600887015492600988015494600a89015496600c600b8b01549a01549a6040519c8d5260208d015260408c015260608b015260808a015260a089015260c088015260e0870152610100860152818116151561012086015260081c161515610140840152610160830152610180820152f35b346102a25760403660031901126102a2576105776004356105576125be565b908060005260056020526105726001604060002001546127e6565b612af1565b005b60603660031901126102a2576004356024803567016345785d8a0000341061079657620151808084101580610787575b15610747578110158061073a575b156106ff57600854916001830160085582600052600a60205282600b6040600020828155600181013360018060a01b03198254161790556044356002820155426003820155866004820155846005820155426008820155015533156106bb5760025469d3c21bcecceda1000000918282018092116106a7575061069c60209585937f02938784278c3ccf94bcab2aad0bbf50a31c57832ecd6f3fa11442f5a2995d959360025533600052600088526040600020818154019055604051908152600060008051602061308a833981519152893393a3604051918291339642918785612e27565b0390a3604051908152f35b634e487b7160e01b60009081526011600452fd5b606490601f6040519162461bcd60e51b8352602060048401528201527f45524332303a206d696e7420746f20746865207a65726f2061646472657373006044820152fd5b60405162461bcd60e51b81526020600482015260148184015273125b9d985b1a590819dc9858d9481c195c9a5bd960621b6044820152606490fd5b506276a7008111156105b7565b60405162461bcd60e51b81526020600482015260198185015278125b9d985b1a59081a5b9858dd1a5d9a5d1e481c195c9a5bd9603a1b6044820152606490fd5b50640233e85a008411156105a9565b60405162461bcd60e51b81526020600482015260178184015276496e73756666696369656e74206573746174652066656560481b6044820152606490fd5b346102a2576020806003193601126102a2576004359081600052600a815261080d60018060a01b03600160406000200154161515612e43565b81600052600a81526040600020600a81019081549060ff8260081c166108c55761084f61083e600383015442612fe6565b916005600482015491015490612b82565b101561088c5761ff0019166101001790556040514281527fc9ccdc96894a59107b5d11a4ba1bec39459494af58ac9db7d991e410da347f6d9190a2005b60405162461bcd60e51b81526004810184905260116024820152704e6f742079657420636c61696d61626c6560781b6044820152606490fd5b60405162461bcd60e51b8152600481018590526011602482015270416c726561647920636c61696d61626c6560781b6044820152606490fd5b6127c8565b346102a25760403660031901126102a25761092961091f6125a8565b6024359033612b8f565b602060405160018152f35b346102a25760403660031901126102a25761094d6125a8565b60243590336000526001602052604060002060018060a01b038216600052602052604060002054918083106109885761092992039033612ceb565b60405162461bcd60e51b815260206004820152602560248201527f45524332303a2064656372656173656420616c6c6f77616e63652062656c6f77604482015264207a65726f60d81b6064820152608490fd5b346102a25760003660031901126102a257602060405160008152f35b346102a25760403660031901126102a25760e0610a126125be565b600435600052600c602052604060002060018060a01b038092166000526020526040600020805491600182015416906002810154600382015460048301549160ff600660058601549501541694604051968752602087015260408601526060850152608084015260a0830152151560c0820152f35b346102a25760003660031901126102a257604051600090600454610aaa816126e8565b808352600191808316908115610b415750600114610ae7575b61042183610ad381870382612658565b604051918291602083526020830190612583565b6004600090815260209450917f8a35acfbc15ff81a39ae7d344fd709f28e8600b4aa8c65c6b64bfe7fe36bd19b5b828410610b2e57505050810190910190610ad381610ac3565b8054858501870152928501928101610b15565b6104219550610ad393506020915091849260ff191682840152151560051b8201019350610ac3565b346102a25760403660031901126102a257610b826125be565b600435600052600560205260406000209060018060a01b0316600052602052602060ff604060002054166040519015158152f35b346102a25760003660031901126102a2576020604051640233e85a008152f35b346102a25760203660031901126102a25760006101a0604051610bf881612620565b8281528260208201528260408201528260608201528260808201528260a0820152606060c08201528260e082015282610100820152826101208201528261014082015282610160820152826101808201520152600435600052600a6020526040600020604051610c6781612620565b8154815260018201546001600160a01b03166020820152600282015460408201526003820154606082015260048201546080820152600582015460a0820152600682018054909290610cb8816126d1565b90610cc66040519283612658565b80825260208201946000526020600020946000905b828210610e865785600c868660c0840152600781015460e08401526008810154610100840152600981015461012084015260ff600a820154818116151561014086015260081c161515610160840152600b81015461018084015201546101a0820152604051602081528151602082015260018060a01b0360208301511660408201526040820151606082015260608201516080820152608082015160a082015260a082015160c082015260c08201516101c060e08301526101e082018151809152610200906020828501928260051b8601019301916000905b828210610e17578580866101a08a60e0810151610100850152610100810151610120850152610120810151610140850152610140810151151561016085015261016081015115156101808501526101808101518285015201516101c08301520390f35b909192936020806001926101ff19898203018552875190848060a01b0382511681528282015183820152608080610e72610e60604086015160a0604087015260a0860190612583565b60608601518582036060870152612583565b930151910152960192019201909291610db4565b60056020600192610e968a612ff3565b815201970191019095610cdb565b346102a25760003660031901126102a25760206040517fa49807205ce4d355092ef5a8a18f56e8913cf4a201fbe287825b095693c217758152f35b346102a25760203660031901126102a2576020610f02610efd6125a8565b612b67565b604051908152f35b346102a25760203660031901126102a257600435600052600b60205260406000208054610421600183015492610f4260028201612722565b610f4e60038301612722565b91600481015492610f9f600583015491610f91610f72600760068701549601612722565b956040519a8b9a8b5260208b01526101208060408c01528a0190612583565b9088820360608a0152612583565b608087019490945260a086015260ff8116151560c086015260081c6001600160a01b031660e0850152838203610100850152612583565b346102a25760003660031901126102a257602060ff600754166040519015158152f35b346102a25760403660031901126102a2576024356001600160401b0381116102a257366023820112156102a2578060040135611034816126d1565b916110426040519384612658565b8183526024602084019260051b820101903682116102a25760248101925b8284106115ba5784600435600052600a8060205261108f60018060a01b03600160406000200154161515612e43565b600435600052806020526110b460018060a01b03600160406000200154163314612e87565b600435600052806020526110d260ff82604060002001541615612ec6565b600435600052806020526110f360ff826040600020015460081c1615612f05565b8082511161157c576000805b83518210156111305761112461112a91602061111b8588612f56565b51015190612b82565b91612f47565b906110ff565b606491500361153d57600435600052602052604060002090600682015460006006840155806114c8575b50906000915b80518310156114be576111738382612f56565b51926006830154600160401b8110156113e05780600161119c9201600686015560068501612fca565b6114a857845181546001600160a01b0319166001600160a01b03919091161781556020850151600182015560408501518051906001600160401b0382116113e05781906111ec60028501546126e8565b601f8111611473575b50602090601f8311600114611401576000926113f6575b50508160011b916000199060031b1c19161760028201555b60608501518051906001600160401b0382116113e05761124760038401546126e8565b601f81116113a0575b50602090601f831160011461132657968260049360809361131498999a60009261131b575b50508160011b916000199060031b1c19161760038501555b01519101556001600160a01b036112a48285612f56565b51511660206112b38386612f56565b5101517fd7a243fbeddaab5a4bab82da5752dfe983503b54cab7b68274ed87f43ab8993061130060406112e68689612f56565b510151604051938452606060208501526060840190612583565b9142604082015280600435930390a3612f47565b9190611160565b015190508a80611275565b906003840160005260206000209160005b601f198516811061138857508360809361131498999a93600193600497601f1981161061136f575b505050811b01600385015561128d565b015160001960f88460031b161c191690558a808061135f565b91926020600181928685015181550194019201611337565b6113d090600385016000526020600020601f850160051c810191602086106113d6575b601f0160051c0190612f6a565b87611250565b90915081906113c3565b634e487b7160e01b600052604160045260246000fd5b01519050878061120c565b9250600284016000526020600020906000935b601f1984168510611458576001945083601f1981161061143f575b505050811b016002820155611224565b015160001960f88460031b161c1916905587808061142f565b81810151835560209485019460019093019290910190611414565b6114a290600286016000526020600020601f850160051c810191602086106113d657601f0160051c0190612f6a565b886111f5565b634e487b7160e01b600052600060045260246000fd5b5160079190910155005b8060050290600582040361152757600683016000526020600020908101905b8181106114f4575061115a565b806000600592556000600182015561150e60028201612f81565b61151a60038201612f81565b60006004820155016114e7565b634e487b7160e01b600052601160045260246000fd5b60405162461bcd60e51b8152602060048201526017602482015276536861726573206d7573742073756d20746f203130302560481b6044820152606490fd5b60405162461bcd60e51b8152602060048201526016602482015275546f6f206d616e792062656e6566696369617269657360501b6044820152606490fd5b83356001600160401b0381116102a257820160a060231982360301126102a257604051916115e783612605565b60248201356001600160a01b03811681036102a25783526044820135602084015260648201356001600160401b0381116102a25761162b906024369185010161267b565b60408401526084820135926001600160401b0384116102a25760a46020949361165b86956024369184010161267b565b606084015201356080820152815201930192611060565b346102a25760003660031901126102a25760206040516276a7008152f35b346102a25760403660031901126102a2576109296116ac6125a8565b336000526001602052604060002060018060a01b0382166000526020526116da602435604060002054612b82565b9033612ceb565b346102a2576116ef366125d4565b9081600052600a60209080825261173360018060a01b0361171b81600160406000200154161515612e43565b85600052828452600160406000200154163314612e87565b8360005280825261174e60ff82604060002001541615612ec6565b8360005280825261176c60ff826040600020015460081c1615612f05565b82600052600b825283600160406000200154036118575782600052600b825260ff6006604060002001541661181c57907fe10c368853368fe4f821442fc1f3413d6cba3799d460305812c953a6ee07d4c69183600052600b82526006604060002001600160ff198254161790558460005280825261180360096040600020015485600052600b845260046040600020015490612fe6565b90856000528252600960406000200155604051428152a3005b60405162461bcd60e51b81526004810183905260136024820152721495d048185b1c9958591e4819195b195d1959606a1b6044820152606490fd5b60405162461bcd60e51b8152600481018390526011602482015270525741206e6f7420696e2065737461746560781b6044820152606490fd5b346102a25760003660031901126102a2576020604051662386f26fc100008152f35b346102a25760403660031901126102a2576118cb6125be565b336001600160a01b038216036118e75761057790600435612af1565b60405162461bcd60e51b815260206004820152602f60248201527f416363657373436f6e74726f6c3a2063616e206f6e6c792072656e6f756e636560448201526e103937b632b9903337b91039b2b63360891b6064820152608490fd5b346102a25760003660031901126102a257602060405160128152f35b346102a25760403660031901126102a25760043561197c6125be565b8160005260056020526119966001604060002001546127e6565b81600052600560205260406000209060018060a01b0316908160005260205260ff60406000205416156119c557005b8160005260056020526040600020816000526020526040600020600160ff1982541617905533917f2f8788117e7eff1d82e926ec794901d17c78024a50270940304540a733656f0d600080a4005b60a03660031901126102a2576004356001600160401b036024358181116102a257611a4290369060040161267b565b916044358281116102a257611a5b90369060040161267b565b926084358381116102a257611a7490369060040161267b565b9082600052602094600a865260018060a01b0390611aba600192611aa2818560406000200154161515612e43565b86600052600a89528360406000200154163314612e87565b84600052600a8752611ad760ff600a604060002001541615612ec6565b84600052600a8752611af760ff600a6040600020015460081c1615612f05565b662386f26fc100003410611eb5576009549582870160095586600052600b8852604060002092878455868185015560028401928551938385116113e057611b3e81546126e8565b94601f958c878211611e86575b5050808c8d888311600114611e215750600091611e16575b50600019600383901b1c191690841b1790555b805160038601918482116113e0578190611b9084546126e8565b8d888211611de7575b50508c908d888411600114611d815750600092611d76575b5050600019600383901b1c191690831b1790555b60643560048501819055426005860155600685018054610100600160a81b0319163360081b610100600160a81b03161790558651909460070193909283116113e0578896611c1385546126e8565b8b838211611d3d575b50508a918411600114611cbe57928060008051602061306a8339815191529795938193611c9d9896600094611cb3575b50501b916000199060031b1c19161790555b85600052600a8852611c7881600960406000200154612b82565b86600052600a8952600960406000200155604051928392606084526060840190612583565b90888301524260408301520390a3604051908152f35b015192508d80611c4c565b90601f93929319831691856000528b6000209260005b8d828210611d2657505091611c9d979593918560008051602061306a8339815191529a98969410611d0d575b505050811b019055611c5e565b015160001960f88460031b161c191690558b8080611d00565b8484015186558d9b50948701949384019301611cd4565b611d66918760005284826000209181890160051c8301938910611d6d575b0160051c0190612f6a565b8b8b611c1c565b92508192611d5b565b015190508c80611bb1565b9190869450601f1984168660005283600020936000905b828210611dce5750508411611db5575b505050811b019055611bc5565b015160001960f88460031b161c191690558c8080611da8565b8484015186558997909501949384019390810190611d98565b611e0f918660005289826000209181870160051c8301938710611d6d570160051c0190612f6a565b8d8d611b99565b90508801518d611b63565b90869350601f1983168560005282600020926000905b8d838310611e6e575050508311611e55575b5050811b019055611b76565b8a015160001960f88460031b161c191690558d80611e49565b84015185558996909401939283019290810190611e37565b611eae918460005288826000209181860160051c8301938610611d6d570160051c0190612f6a565b8c8c611b4b565b60405162461bcd60e51b8152600481018890526014602482015273496e73756666696369656e74205257412066656560601b6044820152606490fd5b346102a25760203660031901126102a25760043560005260056020526020600160406000200154604051908152f35b346102a25760603660031901126102a257611f396125a8565b611f416125be565b6044359060018060a01b0383166000526001602052604060002033600052602052604060002054926000198403611f7d575b6109299350612b8f565b828410611f9957611f948361092995033383612ceb565b611f73565b60405162461bcd60e51b815260206004820152601d60248201527f45524332303a20696e73756666696369656e7420616c6c6f77616e63650000006044820152606490fd5b346102a25760003660031901126102a2576020604051600a8152f35b346102a25760003660031901126102a257602060405167016345785d8a00008152f35b346102a25760003660031901126102a2576020600254604051908152f35b346102a257612049366125d4565b9080600052602091600a835260018060a01b039061207282600160406000200154161515612e43565b6002600654146122f657600260065582600052600a845260406000209060ff600a83015460081c16156122ba5760068201805482101561227f576120bf916120b991612fca565b50612ff3565b9082825116330361223d5783600052600c85526040600020336000528552604060002094600686019081549360ff8516612206579285926001600c93600596015196606461210d8947612ded565b049a60646121298a6121248689019d8e5416612b67565b612ded565b0497818c8a935584810133868060a01b03198254161790558a60028201554260038201558d6004820155015560ff1916179055016121678154612f47565b905585801580156121d3575b5050817fb0af14f0a98cdde289bfb0cf3d5dbf47481b38e9af8e1fed9a5d52c0b179c76494816121be575b5050506121b46040519283923397429285612e27565b0390a36001600655005b6121cb9233915416612b8f565b85818161219e565b6000906121fd575b600080809381933390f1156121f1578587612173565b6040513d6000823e3d90fd5b506108fc6121db565b60405162461bcd60e51b815260048101839052600f60248201526e105b1c9958591e4818db185a5b5959608a1b6044820152606490fd5b60405162461bcd60e51b815260048101869052601a6024820152794e6f7420617574686f72697a65642062656e656669636961727960301b6044820152606490fd5b60405162461bcd60e51b8152600481018790526013602482015272496e76616c69642062656e656669636961727960681b6044820152606490fd5b60405162461bcd60e51b8152600481018690526014602482015273457374617465206e6f7420636c61696d61626c6560601b6044820152606490fd5b60405162461bcd60e51b815260048101859052601f60248201527f5265656e7472616e637947756172643a207265656e7472616e742063616c6c006044820152606490fd5b346102a25760403660031901126102a25760e06123566125be565b600060c0604051612366816125ea565b8281528260208201528260408201528260608201528260808201528260a08201520152600435600052600c602052604060002060018060a01b038092166000526020526040600020604051906123bb826125ea565b805492838352806001830154169060208401918252600283015460408501908152600384015491606086019283526004850154936080870194855260c060ff600660058901549860a08b01998a5201541697019615158752604051978852511660208701525160408601525160608501525160808401525160a083015251151560c0820152f35b346102a25760403660031901126102a25761092961245e6125a8565b6024359033612ceb565b346102a25760003660031901126102a25760405160009060035461248b816126e8565b808352600191808316908115610b4157506001146124b35761042183610ad381870382612658565b6003600090815260209450917fc2575a0e9e593c00f959f8c92f12db2869c3395a3b0502d05e2516446f71f85b5b8284106124fa57505050810190910190610ad381610ac3565b80548585018701529285019281016124e1565b346102a25760203660031901126102a2576004359063ffffffff60e01b82168092036102a257602091637965db0b60e01b811490811561254f575b5015158152f35b6301ffc9a760e01b14905083612548565b60005b8381106125735750506000910152565b8181015183820152602001612563565b9060209161259c81518092818552858086019101612560565b601f01601f1916010190565b600435906001600160a01b03821682036102a257565b602435906001600160a01b03821682036102a257565b60409060031901126102a2576004359060243590565b60e081019081106001600160401b038211176113e057604052565b60a081019081106001600160401b038211176113e057604052565b6101c081019081106001600160401b038211176113e057604052565b61012081019081106001600160401b038211176113e057604052565b601f909101601f19168101906001600160401b038211908210176113e057604052565b81601f820112156102a2578035906001600160401b0382116113e057604051926126af601f8401601f191660200185612658565b828452602083830101116102a257816000926020809301838601378301015290565b6001600160401b0381116113e05760051b60200190565b90600182811c92168015612718575b602083101461270257565b634e487b7160e01b600052602260045260246000fd5b91607f16916126f7565b9060405191826000825492612736846126e8565b9081845260019485811690816000146127a55750600114612762575b505061276092500383612658565b565b9093915060005260209081600020936000915b81831061278d57505061276093508201013880612752565b85548884018501529485019487945091830191612775565b91505061276094506020925060ff191682840152151560051b8201013880612752565b346102a25760003660031901126102a2576020604051620151808152f35b60009080825260209060058252604092838120338252835260ff8482205416156128105750505050565b8351916001600160401b0390336060850183811186821017612add578752602a85528585019187368437855115612ac95760308353855191600192831015612ab5576078602188015360295b838111612a4b5750612a1b5790875193608085019085821090821117612a07578852604284528684019460603687378451156129f3576030865384518210156129f35790607860218601536041915b8183116129855750505061295557612951938693612935936129266048946128fd9a519a8b9576020b1b1b2b9b9a1b7b73a3937b61d1030b1b1b7bab73a1604d1b8c8801525180926037880190612560565b8401917001034b99036b4b9b9b4b733903937b6329607d1b603784015251809386840190612560565b01036028810187520185612658565b5192839262461bcd60e51b845260048401526024830190612583565b0390fd5b60648587519062461bcd60e51b8252806004830152602482015260008051602061304a8339815191526044820152fd5b909192600f811660108110156129df576f181899199a1a9b1b9c1cb0b131b232b360811b901a6129b58588612e00565b5360041c9280156129cb576000190191906128ab565b634e487b7160e01b82526011600452602482fd5b634e487b7160e01b83526032600452602483fd5b634e487b7160e01b81526032600452602490fd5b634e487b7160e01b86526041600452602486fd5b60648789519062461bcd60e51b8252806004830152602482015260008051602061304a8339815191526044820152fd5b90600f81166010811015612aa1576f181899199a1a9b1b9c1cb0b131b232b360811b901a612a79838a612e00565b5360041c908015612a8d576000190161285c565b634e487b7160e01b87526011600452602487fd5b634e487b7160e01b88526032600452602488fd5b634e487b7160e01b86526032600452602486fd5b634e487b7160e01b85526032600452602485fd5b634e487b7160e01b85526041600452602485fd5b906000918083526005602052604083209160018060a01b03169182845260205260ff604084205416612b2257505050565b8083526005602052604083208284526020526040832060ff1981541690557ff6391f5c32d9c69d2a47ea670b442974b53935d1edc7fd64eb21e047a839171b339380a4565b6001600160a01b031660009081526020819052604090205490565b9190820180921161152757565b6001600160a01b03908116918215612c985716918215612c4757600082815280602052604081205491808310612bf3576040828260008051602061308a833981519152958760209652828652038282205586815220818154019055604051908152a3565b60405162461bcd60e51b815260206004820152602660248201527f45524332303a207472616e7366657220616d6f756e7420657863656564732062604482015265616c616e636560d01b6064820152608490fd5b60405162461bcd60e51b815260206004820152602360248201527f45524332303a207472616e7366657220746f20746865207a65726f206164647260448201526265737360e81b6064820152608490fd5b60405162461bcd60e51b815260206004820152602560248201527f45524332303a207472616e736665722066726f6d20746865207a65726f206164604482015264647265737360d81b6064820152608490fd5b6001600160a01b03908116918215612d9c5716918215612d4c5760207f8c5be1e5ebec7d5bd14f71427d1e84f3dd0314c0f7b2291e5b200ac8c7c3b925918360005260018252604060002085600052825280604060002055604051908152a3565b60405162461bcd60e51b815260206004820152602260248201527f45524332303a20617070726f766520746f20746865207a65726f206164647265604482015261737360f01b6064820152608490fd5b60405162461bcd60e51b8152602060048201526024808201527f45524332303a20617070726f76652066726f6d20746865207a65726f206164646044820152637265737360e01b6064820152608490fd5b8181029291811591840414171561152757565b908151811015612e11570160200190565b634e487b7160e01b600052603260045260246000fd5b9094939260609260808301968352602083015260408201520152565b15612e4a57565b60405162461bcd60e51b8152602060048201526015602482015274115cdd185d1948191bd95cc81b9bdd08195e1a5cdd605a1b6044820152606490fd5b15612e8e57565b60405162461bcd60e51b815260206004820152601060248201526f2737ba1032b9ba30ba329037bbb732b960811b6044820152606490fd5b15612ecd57565b60405162461bcd60e51b815260206004820152601060248201526f115cdd185d19481a5cc81b1bd8dad95960821b6044820152606490fd5b15612f0c57565b60405162461bcd60e51b815260206004820152601360248201527245737461746520697320636c61696d61626c6560681b6044820152606490fd5b60001981146115275760010190565b8051821015612e115760209160051b010190565b818110612f75575050565b60008155600101612f6a565b612f8b81546126e8565b9081612f95575050565b81601f60009311600114612fa7575055565b908083918252612fc6601f60208420940160051c840160018501612f6a565b5555565b8054821015612e11576000526005602060002091020190600090565b9190820391821161152757565b9060405161300081612605565b82546001600160a01b031681526001830154602082015291829060809060049061302c60028201612722565b604085015261303d60038201612722565b6060850152015491015256fe537472696e67733a20686578206c656e67746820696e73756666696369656e748b9849c4ecd9dbd48ef4c9fe9f6cf25ed6769e832eb22eb3c5a34c3460183c1cddf252ad1be2c89b69c2b068fc378daa952ba7f163c4a11628f55a4df523b3efa26469706673582212207f0cf62a5b2c9572cef2c4331e939f75e0d16928c198d02743d802f2dfa9c68864736f6c634300081300332f8788117e7eff1d82e926ec794901d17c78024a50270940304540a733656f0d","opcodes":"PUSH1 0x80 CALLVALUE PUSH3 0x409 JUMPI PUSH1 0x1 PUSH1 0x1 PUSH1 0x40 SHL SUB SWAP1 PUSH1 0x40 SWAP1 DUP1 DUP3 ADD DUP4 DUP2 GT DUP3 DUP3 LT OR PUSH3 0x309 JUMPI DUP3 MSTORE PUSH1 0x12 DUP2 MSTORE PUSH1 0x20 SWAP1 PUSH18 0x2232B320A49022B9BA30BA32902A37B5B2B7 PUSH1 0x71 SHL DUP3 DUP3 ADD MSTORE DUP3 MLOAD SWAP4 DUP4 DUP6 ADD DUP6 DUP2 LT DUP3 DUP3 GT OR PUSH3 0x309 JUMPI DUP5 MSTORE PUSH1 0x6 DUP6 MSTORE PUSH6 0x455354415445 PUSH1 0xD0 SHL DUP4 DUP7 ADD MSTORE DUP2 MLOAD SWAP1 DUP1 DUP3 GT PUSH3 0x309 JUMPI PUSH1 0x3 DUP1 SLOAD SWAP3 PUSH1 0x1 SWAP5 DUP6 DUP6 DUP2 SHR SWAP6 AND DUP1 ISZERO PUSH3 0x3FE JUMPI JUMPDEST DUP8 DUP7 LT EQ PUSH3 0x3E8 JUMPI DUP2 SWAP1 PUSH1 0x1F SWAP6 DUP7 DUP2 GT PUSH3 0x392 JUMPI JUMPDEST POP DUP8 SWAP1 DUP7 DUP4 GT PUSH1 0x1 EQ PUSH3 0x32B JUMPI PUSH1 0x0 SWAP3 PUSH3 0x31F JUMPI JUMPDEST POP POP PUSH1 0x0 NOT DUP3 DUP5 SHL SHR NOT AND SWAP1 DUP6 SHL OR DUP2 SSTORE JUMPDEST DUP7 MLOAD SWAP2 DUP3 GT PUSH3 0x309 JUMPI PUSH1 0x4 SWAP3 DUP4 SLOAD DUP6 DUP2 DUP2 SHR SWAP2 AND DUP1 ISZERO PUSH3 0x2FE JUMPI JUMPDEST DUP8 DUP3 LT EQ PUSH3 0x2E9 JUMPI DUP2 DUP2 GT PUSH3 0x29E JUMPI JUMPDEST POP DUP6 SWAP1 DUP4 GT PUSH1 0x1 EQ PUSH3 0x232 JUMPI DUP3 SWAP4 SWAP5 SWAP6 SWAP7 SWAP8 PUSH1 0x0 SWAP4 PUSH3 0x226 JUMPI JUMPDEST POP POP DUP3 DUP6 SHL SWAP3 PUSH1 0x0 NOT SWAP2 SHL SHR NOT AND OR SWAP1 SSTORE JUMPDEST DUP1 PUSH1 0x6 SSTORE PUSH1 0xFF NOT SWAP1 DUP2 PUSH1 0x7 SLOAD AND PUSH1 0x7 SSTORE PUSH1 0x0 DUP1 MSTORE PUSH1 0x5 DUP4 MSTORE DUP4 PUSH1 0x0 KECCAK256 CALLER PUSH1 0x0 MSTORE DUP4 MSTORE PUSH1 0xFF DUP5 PUSH1 0x0 KECCAK256 SLOAD AND ISZERO PUSH3 0x1EB JUMPI JUMPDEST PUSH32 0xA49807205CE4D355092EF5A8A18F56E8913CF4A201FBE287825B095693C21775 SWAP3 DUP4 PUSH1 0x0 MSTORE PUSH1 0x5 DUP2 MSTORE DUP5 PUSH1 0x0 KECCAK256 CALLER PUSH1 0x0 MSTORE DUP2 MSTORE PUSH1 0xFF DUP6 PUSH1 0x0 KECCAK256 SLOAD AND ISZERO PUSH3 0x1AC JUMPI JUMPDEST DUP5 MLOAD PUSH2 0x30DF SWAP1 DUP2 PUSH3 0x40F DUP3 CODECOPY RETURN JUMPDEST DUP4 PUSH1 0x0 MSTORE PUSH1 0x5 DUP2 MSTORE DUP5 PUSH1 0x0 KECCAK256 SWAP1 CALLER PUSH1 0x0 MSTORE MSTORE DUP4 PUSH1 0x0 KECCAK256 SWAP2 DUP3 SLOAD AND OR SWAP1 SSTORE CALLER SWAP1 CALLER SWAP1 PUSH1 0x0 DUP1 MLOAD PUSH1 0x20 PUSH3 0x34EE DUP4 CODECOPY DUP2 MLOAD SWAP2 MSTORE PUSH1 0x0 DUP1 LOG4 CODESIZE DUP1 DUP1 DUP1 PUSH3 0x19D JUMP JUMPDEST PUSH1 0x0 DUP1 MSTORE PUSH1 0x5 DUP4 MSTORE DUP4 PUSH1 0x0 KECCAK256 CALLER PUSH1 0x0 MSTORE DUP4 MSTORE DUP4 PUSH1 0x0 KECCAK256 DUP2 DUP4 DUP3 SLOAD AND OR SWAP1 SSTORE CALLER CALLER PUSH1 0x0 PUSH1 0x0 DUP1 MLOAD PUSH1 0x20 PUSH3 0x34EE DUP4 CODECOPY DUP2 MLOAD SWAP2 MSTORE DUP2 DUP1 LOG4 PUSH3 0x15A JUMP JUMPDEST ADD MLOAD SWAP2 POP CODESIZE DUP1 PUSH3 0x117 JUMP JUMPDEST SWAP1 PUSH1 0x1F NOT DUP4 AND SWAP2 DUP5 PUSH1 0x0 MSTORE DUP7 PUSH1 0x0 KECCAK256 SWAP3 PUSH1 0x0 JUMPDEST DUP2 DUP2 LT PUSH3 0x288 JUMPI POP SWAP9 DUP5 DUP8 SWAP9 SWAP10 SWAP11 SWAP8 SWAP7 SWAP8 LT PUSH3 0x26D JUMPI JUMPDEST POP POP POP POP DUP2 SHL ADD SWAP1 SSTORE PUSH3 0x129 JUMP JUMPDEST ADD MLOAD SWAP1 PUSH1 0xF8 DUP5 PUSH1 0x0 NOT SWAP3 SHL AND SHR NOT AND SWAP1 SSTORE CODESIZE DUP1 DUP1 DUP1 PUSH3 0x25E JUMP JUMPDEST DUP11 DUP4 ADD MLOAD DUP6 SSTORE SWAP4 DUP8 ADD SWAP4 SWAP2 DUP9 ADD SWAP2 DUP9 ADD PUSH3 0x245 JUMP JUMPDEST DUP5 PUSH1 0x0 MSTORE DUP7 PUSH1 0x0 KECCAK256 DUP3 DUP1 DUP7 ADD PUSH1 0x5 SHR DUP3 ADD SWAP3 DUP10 DUP8 LT PUSH3 0x2DF JUMPI JUMPDEST ADD PUSH1 0x5 SHR ADD SWAP1 DUP7 SWAP1 JUMPDEST DUP3 DUP2 LT PUSH3 0x2D2 JUMPI POP POP PUSH3 0xFB JUMP JUMPDEST PUSH1 0x0 DUP2 SSTORE ADD DUP7 SWAP1 PUSH3 0x2C2 JUMP JUMPDEST SWAP3 POP DUP2 SWAP3 PUSH3 0x2B9 JUMP JUMPDEST PUSH1 0x22 DUP6 PUSH4 0x4E487B71 PUSH1 0xE0 SHL PUSH1 0x0 MSTORE MSTORE PUSH1 0x24 PUSH1 0x0 REVERT JUMPDEST SWAP1 PUSH1 0x7F AND SWAP1 PUSH3 0xE9 JUMP JUMPDEST PUSH4 0x4E487B71 PUSH1 0xE0 SHL PUSH1 0x0 MSTORE PUSH1 0x41 PUSH1 0x4 MSTORE PUSH1 0x24 PUSH1 0x0 REVERT JUMPDEST ADD MLOAD SWAP1 POP CODESIZE DUP1 PUSH3 0xBA JUMP JUMPDEST SWAP1 DUP8 SWAP4 POP PUSH1 0x1F NOT DUP4 AND SWAP2 DUP6 PUSH1 0x0 MSTORE DUP10 PUSH1 0x0 KECCAK256 SWAP3 PUSH1 0x0 JUMPDEST DUP12 DUP3 DUP3 LT PUSH3 0x37B JUMPI POP POP DUP5 GT PUSH3 0x362 JUMPI JUMPDEST POP POP POP DUP2 SHL ADD DUP2 SSTORE PUSH3 0xCC JUMP JUMPDEST ADD MLOAD PUSH1 0x0 NOT DUP4 DUP7 SHL PUSH1 0xF8 AND SHR NOT AND SWAP1 SSTORE CODESIZE DUP1 DUP1 PUSH3 0x354 JUMP JUMPDEST DUP4 DUP6 ADD MLOAD DUP7 SSTORE DUP12 SWAP8 SWAP1 SWAP6 ADD SWAP5 SWAP4 DUP5 ADD SWAP4 ADD PUSH3 0x341 JUMP JUMPDEST SWAP1 SWAP2 POP DUP4 PUSH1 0x0 MSTORE DUP8 PUSH1 0x0 KECCAK256 DUP7 DUP1 DUP6 ADD PUSH1 0x5 SHR DUP3 ADD SWAP3 DUP11 DUP7 LT PUSH3 0x3DE JUMPI JUMPDEST SWAP2 DUP10 SWAP2 DUP7 SWAP6 SWAP5 SWAP4 ADD PUSH1 0x5 SHR ADD SWAP2 JUMPDEST DUP3 DUP2 LT PUSH3 0x3CE JUMPI POP POP PUSH3 0xA3 JUMP JUMPDEST PUSH1 0x0 DUP2 SSTORE DUP6 SWAP5 POP DUP10 SWAP2 ADD PUSH3 0x3BE JUMP JUMPDEST SWAP3 POP DUP2 SWAP3 PUSH3 0x3B0 JUMP JUMPDEST PUSH4 0x4E487B71 PUSH1 0xE0 SHL PUSH1 0x0 MSTORE PUSH1 0x22 PUSH1 0x4 MSTORE PUSH1 0x24 PUSH1 0x0 REVERT JUMPDEST SWAP5 PUSH1 0x7F AND SWAP5 PUSH3 0x8C JUMP JUMPDEST PUSH1 0x0 DUP1 REVERT INVALID PUSH1 0x80 DUP1 PUSH1 0x40 MSTORE PUSH1 0x4 CALLDATASIZE LT ISZERO PUSH2 0x13 JUMPI PUSH1 0x0 DUP1 REVERT JUMPDEST PUSH1 0x0 CALLDATALOAD PUSH1 0xE0 SHR SWAP1 DUP2 PUSH4 0x1FFC9A7 EQ PUSH2 0x250D JUMPI POP DUP1 PUSH4 0x6FDDE03 EQ PUSH2 0x2468 JUMPI DUP1 PUSH4 0x95EA7B3 EQ PUSH2 0x2442 JUMPI DUP1 PUSH4 0x10DB0C29 EQ PUSH2 0x233B JUMPI DUP1 PUSH4 0x167BB9D0 EQ PUSH2 0x203B JUMPI DUP1 PUSH4 0x18160DDD EQ PUSH2 0x201D JUMPI DUP1 PUSH4 0x1A7FDCD2 EQ PUSH2 0x1FFA JUMPI DUP1 PUSH4 0x2348DD18 EQ PUSH2 0x1FDE JUMPI DUP1 PUSH4 0x23B872DD EQ PUSH2 0x1F20 JUMPI DUP1 PUSH4 0x248A9CA3 EQ PUSH2 0x1EF1 JUMPI DUP1 PUSH4 0x2DA413FC EQ PUSH2 0x1A13 JUMPI DUP1 PUSH4 0x2F2FF15D EQ PUSH2 0x1960 JUMPI DUP1 PUSH4 0x313CE567 EQ PUSH2 0x1944 JUMPI DUP1 PUSH4 0x36568ABE EQ PUSH2 0x18B2 JUMPI DUP1 PUSH4 0x374C8D27 EQ PUSH2 0x1890 JUMPI DUP1 PUSH4 0x3899AD0B EQ PUSH2 0x16E1 JUMPI DUP1 PUSH4 0x39509351 EQ PUSH2 0x1690 JUMPI DUP1 PUSH4 0x46619649 EQ PUSH2 0x1672 JUMPI DUP1 PUSH4 0x51DED3B5 EQ PUSH2 0xFF9 JUMPI DUP1 PUSH4 0x5C975ABB EQ PUSH2 0xFD6 JUMPI DUP1 PUSH4 0x6CF7ADAC EQ PUSH2 0xF0A JUMPI DUP1 PUSH4 0x70A08231 EQ PUSH2 0xEDF JUMPI DUP1 PUSH4 0x75B238FC EQ PUSH2 0xEA4 JUMPI DUP1 PUSH4 0x786420D1 EQ PUSH2 0xBD6 JUMPI DUP1 PUSH4 0x8493EB25 EQ PUSH2 0xBB6 JUMPI DUP1 PUSH4 0x883A0038 EQ PUSH2 0x8FE JUMPI DUP1 PUSH4 0x91D14854 EQ PUSH2 0xB69 JUMPI DUP1 PUSH4 0x95D89B41 EQ PUSH2 0xA87 JUMPI DUP1 PUSH4 0xA0EC0E08 EQ PUSH2 0x9F7 JUMPI DUP1 PUSH4 0xA217FDDF EQ PUSH2 0x9DB JUMPI DUP1 PUSH4 0xA457C2D7 EQ PUSH2 0x934 JUMPI DUP1 PUSH4 0xA9059CBB EQ PUSH2 0x903 JUMPI DUP1 PUSH4 0xB106D2D2 EQ PUSH2 0x8FE JUMPI DUP1 PUSH4 0xC041CD13 EQ PUSH2 0x7D4 JUMPI DUP1 PUSH4 0xC906D2D0 EQ PUSH2 0x579 JUMPI DUP1 PUSH4 0xD547741F EQ PUSH2 0x538 JUMPI DUP1 PUSH4 0xD70F83C2 EQ PUSH2 0x476 JUMPI DUP1 PUSH4 0xDD62ED3E EQ PUSH2 0x425 JUMPI DUP1 PUSH4 0xDDCA659B EQ PUSH2 0x2A7 JUMPI PUSH4 0xE95A644F EQ PUSH2 0x1D7 JUMPI PUSH1 0x0 DUP1 REVERT JUMPDEST CALLVALUE PUSH2 0x2A2 JUMPI PUSH1 0x20 DUP1 PUSH1 0x3 NOT CALLDATASIZE ADD SLT PUSH2 0x2A2 JUMPI PUSH1 0x4 CALLDATALOAD DUP1 PUSH1 0x0 MSTORE PUSH1 0xA DUP1 DUP4 MSTORE PUSH2 0x22C PUSH1 0x1 DUP1 PUSH1 0xA0 SHL SUB PUSH2 0x214 DUP2 PUSH1 0x1 PUSH1 0x40 PUSH1 0x0 KECCAK256 ADD SLOAD AND ISZERO ISZERO PUSH2 0x2E43 JUMP JUMPDEST DUP4 PUSH1 0x0 MSTORE DUP3 DUP6 MSTORE PUSH1 0x1 PUSH1 0x40 PUSH1 0x0 KECCAK256 ADD SLOAD AND CALLER EQ PUSH2 0x2E87 JUMP JUMPDEST DUP2 PUSH1 0x0 MSTORE DUP1 DUP4 MSTORE PUSH2 0x247 PUSH1 0xFF DUP3 PUSH1 0x40 PUSH1 0x0 KECCAK256 ADD SLOAD AND ISZERO PUSH2 0x2EC6 JUMP JUMPDEST DUP2 PUSH1 0x0 MSTORE DUP1 DUP4 MSTORE PUSH2 0x265 PUSH1 0xFF DUP3 PUSH1 0x40 PUSH1 0x0 KECCAK256 ADD SLOAD PUSH1 0x8 SHR AND ISZERO PUSH2 0x2F05 JUMP JUMPDEST DUP2 PUSH1 0x0 MSTORE DUP3 MSTORE TIMESTAMP PUSH1 0x3 PUSH1 0x40 PUSH1 0x0 KECCAK256 ADD SSTORE PUSH32 0xB0022A0F98088FF564FE03FAC14AD27EA389CB10868809D658387F2CE6F124E0 PUSH1 0x40 MLOAD SWAP3 TIMESTAMP DUP5 MSTORE CALLER SWAP4 LOG3 STOP JUMPDEST PUSH1 0x0 DUP1 REVERT JUMPDEST CALLVALUE PUSH2 0x2A2 JUMPI PUSH1 0x20 DUP1 PUSH1 0x3 NOT CALLDATASIZE ADD SLT PUSH2 0x2A2 JUMPI PUSH1 0x40 MLOAD SWAP1 PUSH2 0x2C6 DUP3 PUSH2 0x263C JUMP JUMPDEST PUSH1 0x0 DUP3 MSTORE DUP1 DUP3 ADD PUSH1 0x0 SWAP1 MSTORE PUSH1 0x60 SWAP2 DUP3 PUSH1 0x40 DUP3 ADD MSTORE DUP3 DUP1 DUP3 ADD MSTORE PUSH1 0x80 DUP2 ADD PUSH1 0x0 SWAP1 MSTORE PUSH1 0xA0 DUP2 ADD PUSH1 0x0 SWAP1 MSTORE PUSH1 0xC0 DUP2 ADD PUSH1 0x0 SWAP1 MSTORE PUSH1 0xE0 DUP2 ADD PUSH1 0x0 SWAP1 MSTORE DUP3 PUSH2 0x100 DUP1 SWAP3 ADD MSTORE PUSH1 0x4 CALLDATALOAD PUSH1 0x0 MSTORE PUSH1 0xB DUP3 MSTORE PUSH1 0x40 PUSH1 0x0 KECCAK256 PUSH1 0x40 MLOAD SWAP4 PUSH2 0x323 DUP6 PUSH2 0x263C JUMP JUMPDEST DUP2 SLOAD DUP6 MSTORE PUSH1 0x1 DUP3 ADD SLOAD DUP5 DUP7 ADD SWAP1 DUP2 MSTORE PUSH2 0x33E PUSH1 0x2 DUP5 ADD PUSH2 0x2722 JUMP JUMPDEST PUSH1 0x40 DUP8 ADD SWAP1 DUP2 MSTORE SWAP4 PUSH2 0x352 PUSH1 0x3 DUP6 ADD PUSH2 0x2722 JUMP JUMPDEST SWAP5 DUP4 DUP9 ADD SWAP6 DUP7 MSTORE PUSH1 0x4 DUP6 ADD SLOAD SWAP5 PUSH1 0x80 DUP10 ADD SWAP6 DUP7 MSTORE PUSH1 0x5 DUP2 ADD SLOAD SWAP2 PUSH1 0xA0 DUP11 ADD SWAP3 DUP4 MSTORE PUSH1 0x6 DUP3 ADD SLOAD SWAP3 PUSH1 0xC0 DUP12 ADD SWAP2 PUSH1 0xFF DUP6 AND ISZERO ISZERO DUP4 MSTORE PUSH1 0xE0 DUP13 ADD SWAP4 PUSH1 0x1 PUSH1 0xA0 SHL PUSH1 0x1 SWAP1 SUB DUP1 SWAP7 PUSH1 0x8 SHR AND DUP6 MSTORE PUSH1 0x7 ADD PUSH2 0x3A8 SWAP1 PUSH2 0x2722 JUMP JUMPDEST SWAP7 DUP7 DUP14 ADD SWAP8 DUP9 MSTORE DUP12 PUSH1 0x40 MLOAD SWAP14 DUP15 SWAP14 DUP15 MSTORE MLOAD SWAP1 DUP14 ADD MSTORE MLOAD PUSH1 0x40 DUP13 ADD MSTORE MLOAD PUSH2 0x120 DUP1 SWAP9 DUP13 ADD MSTORE PUSH2 0x140 DUP12 ADD PUSH2 0x3DA SWAP2 PUSH2 0x2583 JUMP JUMPDEST SWAP9 MLOAD PUSH1 0x1F NOT SWAP10 DUP11 DUP13 DUP3 SUB ADD PUSH1 0x80 DUP14 ADD MSTORE PUSH2 0x3F3 SWAP2 PUSH2 0x2583 JUMP JUMPDEST SWAP8 MLOAD PUSH1 0xA0 DUP12 ADD MSTORE MLOAD PUSH1 0xC0 DUP11 ADD MSTORE MLOAD ISZERO ISZERO PUSH1 0xE0 DUP10 ADD MSTORE MLOAD AND SWAP1 DUP7 ADD MSTORE MLOAD SWAP3 DUP5 DUP4 SUB ADD SWAP1 DUP5 ADD MSTORE PUSH2 0x421 SWAP2 PUSH2 0x2583 JUMP JUMPDEST SUB SWAP1 RETURN JUMPDEST CALLVALUE PUSH2 0x2A2 JUMPI PUSH1 0x40 CALLDATASIZE PUSH1 0x3 NOT ADD SLT PUSH2 0x2A2 JUMPI PUSH2 0x43E PUSH2 0x25A8 JUMP JUMPDEST PUSH2 0x446 PUSH2 0x25BE JUMP JUMPDEST SWAP1 PUSH1 0x1 DUP1 PUSH1 0xA0 SHL SUB DUP1 SWAP2 AND PUSH1 0x0 MSTORE PUSH1 0x1 PUSH1 0x20 MSTORE PUSH1 0x40 PUSH1 0x0 KECCAK256 SWAP2 AND PUSH1 0x0 MSTORE PUSH1 0x20 MSTORE PUSH1 0x20 PUSH1 0x40 PUSH1 0x0 KECCAK256 SLOAD PUSH1 0x40 MLOAD SWAP1 DUP2 MSTORE RETURN JUMPDEST CALLVALUE PUSH2 0x2A2 JUMPI PUSH1 0x20 CALLDATASIZE PUSH1 0x3 NOT ADD SLT PUSH2 0x2A2 JUMPI PUSH1 0x4 CALLDATALOAD PUSH1 0x0 MSTORE PUSH1 0xA PUSH1 0x20 MSTORE PUSH2 0x1A0 PUSH1 0x40 PUSH1 0x0 KECCAK256 DUP1 SLOAD SWAP1 PUSH1 0x1 DUP1 PUSH1 0xA0 SHL SUB PUSH1 0x1 DUP3 ADD SLOAD AND SWAP1 PUSH1 0xFF PUSH1 0x2 DUP3 ADD SLOAD PUSH1 0x3 DUP4 ADD SLOAD PUSH1 0x4 DUP5 ADD SLOAD PUSH1 0x5 DUP6 ADD SLOAD PUSH1 0x7 DUP7 ADD SLOAD SWAP1 PUSH1 0x8 DUP8 ADD SLOAD SWAP3 PUSH1 0x9 DUP9 ADD SLOAD SWAP5 PUSH1 0xA DUP10 ADD SLOAD SWAP7 PUSH1 0xC PUSH1 0xB DUP12 ADD SLOAD SWAP11 ADD SLOAD SWAP11 PUSH1 0x40 MLOAD SWAP13 DUP14 MSTORE PUSH1 0x20 DUP14 ADD MSTORE PUSH1 0x40 DUP13 ADD MSTORE PUSH1 0x60 DUP12 ADD MSTORE PUSH1 0x80 DUP11 ADD MSTORE PUSH1 0xA0 DUP10 ADD MSTORE PUSH1 0xC0 DUP9 ADD MSTORE PUSH1 0xE0 DUP8 ADD MSTORE PUSH2 0x100 DUP7 ADD MSTORE DUP2 DUP2 AND ISZERO ISZERO PUSH2 0x120 DUP7 ADD MSTORE PUSH1 0x8 SHR AND ISZERO ISZERO PUSH2 0x140 DUP5 ADD MSTORE PUSH2 0x160 DUP4 ADD MSTORE PUSH2 0x180 DUP3 ADD MSTORE RETURN JUMPDEST CALLVALUE PUSH2 0x2A2 JUMPI PUSH1 0x40 CALLDATASIZE PUSH1 0x3 NOT ADD SLT PUSH2 0x2A2 JUMPI PUSH2 0x577 PUSH1 0x4 CALLDATALOAD PUSH2 0x557 PUSH2 0x25BE JUMP JUMPDEST SWAP1 DUP1 PUSH1 0x0 MSTORE PUSH1 0x5 PUSH1 0x20 MSTORE PUSH2 0x572 PUSH1 0x1 PUSH1 0x40 PUSH1 0x0 KECCAK256 ADD SLOAD PUSH2 0x27E6 JUMP JUMPDEST PUSH2 0x2AF1 JUMP JUMPDEST STOP JUMPDEST PUSH1 0x60 CALLDATASIZE PUSH1 0x3 NOT ADD SLT PUSH2 0x2A2 JUMPI PUSH1 0x4 CALLDATALOAD PUSH1 0x24 DUP1 CALLDATALOAD PUSH8 0x16345785D8A0000 CALLVALUE LT PUSH2 0x796 JUMPI PUSH3 0x15180 DUP1 DUP5 LT ISZERO DUP1 PUSH2 0x787 JUMPI JUMPDEST ISZERO PUSH2 0x747 JUMPI DUP2 LT ISZERO DUP1 PUSH2 0x73A JUMPI JUMPDEST ISZERO PUSH2 0x6FF JUMPI PUSH1 0x8 SLOAD SWAP2 PUSH1 0x1 DUP4 ADD PUSH1 0x8 SSTORE DUP3 PUSH1 0x0 MSTORE PUSH1 0xA PUSH1 0x20 MSTORE DUP3 PUSH1 0xB PUSH1 0x40 PUSH1 0x0 KECCAK256 DUP3 DUP2 SSTORE PUSH1 0x1 DUP2 ADD CALLER PUSH1 0x1 DUP1 PUSH1 0xA0 SHL SUB NOT DUP3 SLOAD AND OR SWAP1 SSTORE PUSH1 0x44 CALLDATALOAD PUSH1 0x2 DUP3 ADD SSTORE TIMESTAMP PUSH1 0x3 DUP3 ADD SSTORE DUP7 PUSH1 0x4 DUP3 ADD SSTORE DUP5 PUSH1 0x5 DUP3 ADD SSTORE TIMESTAMP PUSH1 0x8 DUP3 ADD SSTORE ADD SSTORE CALLER ISZERO PUSH2 0x6BB JUMPI PUSH1 0x2 SLOAD PUSH10 0xD3C21BCECCEDA1000000 SWAP2 DUP3 DUP3 ADD DUP1 SWAP3 GT PUSH2 0x6A7 JUMPI POP PUSH2 0x69C PUSH1 0x20 SWAP6 DUP6 SWAP4 PUSH32 0x2938784278C3CCF94BCAB2AAD0BBF50A31C57832ECD6F3FA11442F5A2995D95 SWAP4 PUSH1 0x2 SSTORE CALLER PUSH1 0x0 MSTORE PUSH1 0x0 DUP9 MSTORE PUSH1 0x40 PUSH1 0x0 KECCAK256 DUP2 DUP2 SLOAD ADD SWAP1 SSTORE PUSH1 0x40 MLOAD SWAP1 DUP2 MSTORE PUSH1 0x0 PUSH1 0x0 DUP1 MLOAD PUSH1 0x20 PUSH2 0x308A DUP4 CODECOPY DUP2 MLOAD SWAP2 MSTORE DUP10 CALLER SWAP4 LOG3 PUSH1 0x40 MLOAD SWAP2 DUP3 SWAP2 CALLER SWAP7 TIMESTAMP SWAP2 DUP8 DUP6 PUSH2 0x2E27 JUMP JUMPDEST SUB SWAP1 LOG3 PUSH1 0x40 MLOAD SWAP1 DUP2 MSTORE RETURN JUMPDEST PUSH4 0x4E487B71 PUSH1 0xE0 SHL PUSH1 0x0 SWAP1 DUP2 MSTORE PUSH1 0x11 PUSH1 0x4 MSTORE REVERT JUMPDEST PUSH1 0x64 SWAP1 PUSH1 0x1F PUSH1 0x40 MLOAD SWAP2 PUSH3 0x461BCD PUSH1 0xE5 SHL DUP4 MSTORE PUSH1 0x20 PUSH1 0x4 DUP5 ADD MSTORE DUP3 ADD MSTORE PUSH32 0x45524332303A206D696E7420746F20746865207A65726F206164647265737300 PUSH1 0x44 DUP3 ADD MSTORE REVERT JUMPDEST PUSH1 0x40 MLOAD PUSH3 0x461BCD PUSH1 0xE5 SHL DUP2 MSTORE PUSH1 0x20 PUSH1 0x4 DUP3 ADD MSTORE PUSH1 0x14 DUP2 DUP5 ADD MSTORE PUSH20 0x125B9D985B1A590819DC9858D9481C195C9A5BD9 PUSH1 0x62 SHL PUSH1 0x44 DUP3 ADD MSTORE PUSH1 0x64 SWAP1 REVERT JUMPDEST POP PUSH3 0x76A700 DUP2 GT ISZERO PUSH2 0x5B7 JUMP JUMPDEST PUSH1 0x40 MLOAD PUSH3 0x461BCD PUSH1 0xE5 SHL DUP2 MSTORE PUSH1 0x20 PUSH1 0x4 DUP3 ADD MSTORE PUSH1 0x19 DUP2 DUP6 ADD MSTORE PUSH25 0x125B9D985B1A59081A5B9858DD1A5D9A5D1E481C195C9A5BD9 PUSH1 0x3A SHL PUSH1 0x44 DUP3 ADD MSTORE PUSH1 0x64 SWAP1 REVERT JUMPDEST POP PUSH5 0x233E85A00 DUP5 GT ISZERO PUSH2 0x5A9 JUMP JUMPDEST PUSH1 0x40 MLOAD PUSH3 0x461BCD PUSH1 0xE5 SHL DUP2 MSTORE PUSH1 0x20 PUSH1 0x4 DUP3 ADD MSTORE PUSH1 0x17 DUP2 DUP5 ADD MSTORE PUSH23 0x496E73756666696369656E742065737461746520666565 PUSH1 0x48 SHL PUSH1 0x44 DUP3 ADD MSTORE PUSH1 0x64 SWAP1 REVERT JUMPDEST CALLVALUE PUSH2 0x2A2 JUMPI PUSH1 0x20 DUP1 PUSH1 0x3 NOT CALLDATASIZE ADD SLT PUSH2 0x2A2 JUMPI PUSH1 0x4 CALLDATALOAD SWAP1 DUP2 PUSH1 0x0 MSTORE PUSH1 0xA DUP2 MSTORE PUSH2 0x80D PUSH1 0x1 DUP1 PUSH1 0xA0 SHL SUB PUSH1 0x1 PUSH1 0x40 PUSH1 0x0 KECCAK256 ADD SLOAD AND ISZERO ISZERO PUSH2 0x2E43 JUMP JUMPDEST DUP2 PUSH1 0x0 MSTORE PUSH1 0xA DUP2 MSTORE PUSH1 0x40 PUSH1 0x0 KECCAK256 PUSH1 0xA DUP2 ADD SWAP1 DUP2 SLOAD SWAP1 PUSH1 0xFF DUP3 PUSH1 0x8 SHR AND PUSH2 0x8C5 JUMPI PUSH2 0x84F PUSH2 0x83E PUSH1 0x3 DUP4 ADD SLOAD TIMESTAMP PUSH2 0x2FE6 JUMP JUMPDEST SWAP2 PUSH1 0x5 PUSH1 0x4 DUP3 ADD SLOAD SWAP2 ADD SLOAD SWAP1 PUSH2 0x2B82 JUMP JUMPDEST LT ISZERO PUSH2 0x88C JUMPI PUSH2 0xFF00 NOT AND PUSH2 0x100 OR SWAP1 SSTORE PUSH1 0x40 MLOAD TIMESTAMP DUP2 MSTORE PUSH32 0xC9CCDC96894A59107B5D11A4BA1BEC39459494AF58AC9DB7D991E410DA347F6D SWAP2 SWAP1 LOG2 STOP JUMPDEST PUSH1 0x40 MLOAD PUSH3 0x461BCD PUSH1 0xE5 SHL DUP2 MSTORE PUSH1 0x4 DUP2 ADD DUP5 SWAP1 MSTORE PUSH1 0x11 PUSH1 0x24 DUP3 ADD MSTORE PUSH17 0x4E6F742079657420636C61696D61626C65 PUSH1 0x78 SHL PUSH1 0x44 DUP3 ADD MSTORE PUSH1 0x64 SWAP1 REVERT JUMPDEST PUSH1 0x40 MLOAD PUSH3 0x461BCD PUSH1 0xE5 SHL DUP2 MSTORE PUSH1 0x4 DUP2 ADD DUP6 SWAP1 MSTORE PUSH1 0x11 PUSH1 0x24 DUP3 ADD MSTORE PUSH17 0x416C726561647920636C61696D61626C65 PUSH1 0x78 SHL PUSH1 0x44 DUP3 ADD MSTORE PUSH1 0x64 SWAP1 REVERT JUMPDEST PUSH2 0x27C8 JUMP JUMPDEST CALLVALUE PUSH2 0x2A2 JUMPI PUSH1 0x40 CALLDATASIZE PUSH1 0x3 NOT ADD SLT PUSH2 0x2A2 JUMPI PUSH2 0x929 PUSH2 0x91F PUSH2 0x25A8 JUMP JUMPDEST PUSH1 0x24 CALLDATALOAD SWAP1 CALLER PUSH2 0x2B8F JUMP JUMPDEST PUSH1 0x20 PUSH1 0x40 MLOAD PUSH1 0x1 DUP2 MSTORE RETURN JUMPDEST CALLVALUE PUSH2 0x2A2 JUMPI PUSH1 0x40 CALLDATASIZE PUSH1 0x3 NOT ADD SLT PUSH2 0x2A2 JUMPI PUSH2 0x94D PUSH2 0x25A8 JUMP JUMPDEST PUSH1 0x24 CALLDATALOAD SWAP1 CALLER PUSH1 0x0 MSTORE PUSH1 0x1 PUSH1 0x20 MSTORE PUSH1 0x40 PUSH1 0x0 KECCAK256 PUSH1 0x1 DUP1 PUSH1 0xA0 SHL SUB DUP3 AND PUSH1 0x0 MSTORE PUSH1 0x20 MSTORE PUSH1 0x40 PUSH1 0x0 KECCAK256 SLOAD SWAP2 DUP1 DUP4 LT PUSH2 0x988 JUMPI PUSH2 0x929 SWAP3 SUB SWAP1 CALLER PUSH2 0x2CEB JUMP JUMPDEST PUSH1 0x40 MLOAD PUSH3 0x461BCD PUSH1 0xE5 SHL DUP2 MSTORE PUSH1 0x20 PUSH1 0x4 DUP3 ADD MSTORE PUSH1 0x25 PUSH1 0x24 DUP3 ADD MSTORE PUSH32 0x45524332303A2064656372656173656420616C6C6F77616E63652062656C6F77 PUSH1 0x44 DUP3 ADD MSTORE PUSH5 0x207A65726F PUSH1 0xD8 SHL PUSH1 0x64 DUP3 ADD MSTORE PUSH1 0x84 SWAP1 REVERT JUMPDEST CALLVALUE PUSH2 0x2A2 JUMPI PUSH1 0x0 CALLDATASIZE PUSH1 0x3 NOT ADD SLT PUSH2 0x2A2 JUMPI PUSH1 0x20 PUSH1 0x40 MLOAD PUSH1 0x0 DUP2 MSTORE RETURN JUMPDEST CALLVALUE PUSH2 0x2A2 JUMPI PUSH1 0x40 CALLDATASIZE PUSH1 0x3 NOT ADD SLT PUSH2 0x2A2 JUMPI PUSH1 0xE0 PUSH2 0xA12 PUSH2 0x25BE JUMP JUMPDEST PUSH1 0x4 CALLDATALOAD PUSH1 0x0 MSTORE PUSH1 0xC PUSH1 0x20 MSTORE PUSH1 0x40 PUSH1 0x0 KECCAK256 PUSH1 0x1 DUP1 PUSH1 0xA0 SHL SUB DUP1 SWAP3 AND PUSH1 0x0 MSTORE PUSH1 0x20 MSTORE PUSH1 0x40 PUSH1 0x0 KECCAK256 DUP1 SLOAD SWAP2 PUSH1 0x1 DUP3 ADD SLOAD AND SWAP1 PUSH1 0x2 DUP2 ADD SLOAD PUSH1 0x3 DUP3 ADD SLOAD PUSH1 0x4 DUP4 ADD SLOAD SWAP2 PUSH1 0xFF PUSH1 0x6 PUSH1 0x5 DUP7 ADD SLOAD SWAP6 ADD SLOAD AND SWAP5 PUSH1 0x40 MLOAD SWAP7 DUP8 MSTORE PUSH1 0x20 DUP8 ADD MSTORE PUSH1 0x40 DUP7 ADD MSTORE PUSH1 0x60 DUP6 ADD MSTORE PUSH1 0x80 DUP5 ADD MSTORE PUSH1 0xA0 DUP4 ADD MSTORE ISZERO ISZERO PUSH1 0xC0 DUP3 ADD MSTORE RETURN JUMPDEST CALLVALUE PUSH2 0x2A2 JUMPI PUSH1 0x0 CALLDATASIZE PUSH1 0x3 NOT ADD SLT PUSH2 0x2A2 JUMPI PUSH1 0x40 MLOAD PUSH1 0x0 SWAP1 PUSH1 0x4 SLOAD PUSH2 0xAAA DUP2 PUSH2 0x26E8 JUMP JUMPDEST DUP1 DUP4 MSTORE PUSH1 0x1 SWAP2 DUP1 DUP4 AND SWAP1 DUP2 ISZERO PUSH2 0xB41 JUMPI POP PUSH1 0x1 EQ PUSH2 0xAE7 JUMPI JUMPDEST PUSH2 0x421 DUP4 PUSH2 0xAD3 DUP2 DUP8 SUB DUP3 PUSH2 0x2658 JUMP JUMPDEST PUSH1 0x40 MLOAD SWAP2 DUP3 SWAP2 PUSH1 0x20 DUP4 MSTORE PUSH1 0x20 DUP4 ADD SWAP1 PUSH2 0x2583 JUMP JUMPDEST PUSH1 0x4 PUSH1 0x0 SWAP1 DUP2 MSTORE PUSH1 0x20 SWAP5 POP SWAP2 PUSH32 0x8A35ACFBC15FF81A39AE7D344FD709F28E8600B4AA8C65C6B64BFE7FE36BD19B JUMPDEST DUP3 DUP5 LT PUSH2 0xB2E JUMPI POP POP POP DUP2 ADD SWAP1 SWAP2 ADD SWAP1 PUSH2 0xAD3 DUP2 PUSH2 0xAC3 JUMP JUMPDEST DUP1 SLOAD DUP6 DUP6 ADD DUP8 ADD MSTORE SWAP3 DUP6 ADD SWAP3 DUP2 ADD PUSH2 0xB15 JUMP JUMPDEST PUSH2 0x421 SWAP6 POP PUSH2 0xAD3 SWAP4 POP PUSH1 0x20 SWAP2 POP SWAP2 DUP5 SWAP3 PUSH1 0xFF NOT AND DUP3 DUP5 ADD MSTORE ISZERO ISZERO PUSH1 0x5 SHL DUP3 ADD ADD SWAP4 POP PUSH2 0xAC3 JUMP JUMPDEST CALLVALUE PUSH2 0x2A2 JUMPI PUSH1 0x40 CALLDATASIZE PUSH1 0x3 NOT ADD SLT PUSH2 0x2A2 JUMPI PUSH2 0xB82 PUSH2 0x25BE JUMP JUMPDEST PUSH1 0x4 CALLDATALOAD PUSH1 0x0 MSTORE PUSH1 0x5 PUSH1 0x20 MSTORE PUSH1 0x40 PUSH1 0x0 KECCAK256 SWAP1 PUSH1 0x1 DUP1 PUSH1 0xA0 SHL SUB AND PUSH1 0x0 MSTORE PUSH1 0x20 MSTORE PUSH1 0x20 PUSH1 0xFF PUSH1 0x40 PUSH1 0x0 KECCAK256 SLOAD AND PUSH1 0x40 MLOAD SWAP1 ISZERO ISZERO DUP2 MSTORE RETURN JUMPDEST CALLVALUE PUSH2 0x2A2 JUMPI PUSH1 0x0 CALLDATASIZE PUSH1 0x3 NOT ADD SLT PUSH2 0x2A2 JUMPI PUSH1 0x20 PUSH1 0x40 MLOAD PUSH5 0x233E85A00 DUP2 MSTORE RETURN JUMPDEST CALLVALUE PUSH2 0x2A2 JUMPI PUSH1 0x20 CALLDATASIZE PUSH1 0x3 NOT ADD SLT PUSH2 0x2A2 JUMPI PUSH1 0x0 PUSH2 0x1A0 PUSH1 0x40 MLOAD PUSH2 0xBF8 DUP2 PUSH2 0x2620 JUMP JUMPDEST DUP3 DUP2 MSTORE DUP3 PUSH1 0x20 DUP3 ADD MSTORE DUP3 PUSH1 0x40 DUP3 ADD MSTORE DUP3 PUSH1 0x60 DUP3 ADD MSTORE DUP3 PUSH1 0x80 DUP3 ADD MSTORE DUP3 PUSH1 0xA0 DUP3 ADD MSTORE PUSH1 0x60 PUSH1 0xC0 DUP3 ADD MSTORE DUP3 PUSH1 0xE0 DUP3 ADD MSTORE DUP3 PUSH2 0x100 DUP3 ADD MSTORE DUP3 PUSH2 0x120 DUP3 ADD MSTORE DUP3 PUSH2 0x140 DUP3 ADD MSTORE DUP3 PUSH2 0x160 DUP3 ADD MSTORE DUP3 PUSH2 0x180 DUP3 ADD MSTORE ADD MSTORE PUSH1 0x4 CALLDATALOAD PUSH1 0x0 MSTORE PUSH1 0xA PUSH1 0x20 MSTORE PUSH1 0x40 PUSH1 0x0 KECCAK256 PUSH1 0x40 MLOAD PUSH2 0xC67 DUP2 PUSH2 0x2620 JUMP JUMPDEST DUP2 SLOAD DUP2 MSTORE PUSH1 0x1 DUP3 ADD SLOAD PUSH1 0x1 PUSH1 0x1 PUSH1 0xA0 SHL SUB AND PUSH1 0x20 DUP3 ADD MSTORE PUSH1 0x2 DUP3 ADD SLOAD PUSH1 0x40 DUP3 ADD MSTORE PUSH1 0x3 DUP3 ADD SLOAD PUSH1 0x60 DUP3 ADD MSTORE PUSH1 0x4 DUP3 ADD SLOAD PUSH1 0x80 DUP3 ADD MSTORE PUSH1 0x5 DUP3 ADD SLOAD PUSH1 0xA0 DUP3 ADD MSTORE PUSH1 0x6 DUP3 ADD DUP1 SLOAD SWAP1 SWAP3 SWAP1 PUSH2 0xCB8 DUP2 PUSH2 0x26D1 JUMP JUMPDEST SWAP1 PUSH2 0xCC6 PUSH1 0x40 MLOAD SWAP3 DUP4 PUSH2 0x2658 JUMP JUMPDEST DUP1 DUP3 MSTORE PUSH1 0x20 DUP3 ADD SWAP5 PUSH1 0x0 MSTORE PUSH1 0x20 PUSH1 0x0 KECCAK256 SWAP5 PUSH1 0x0 SWAP1 JUMPDEST DUP3 DUP3 LT PUSH2 0xE86 JUMPI DUP6 PUSH1 0xC DUP7 DUP7 PUSH1 0xC0 DUP5 ADD MSTORE PUSH1 0x7 DUP2 ADD SLOAD PUSH1 0xE0 DUP5 ADD MSTORE PUSH1 0x8 DUP2 ADD SLOAD PUSH2 0x100 DUP5 ADD MSTORE PUSH1 0x9 DUP2 ADD SLOAD PUSH2 0x120 DUP5 ADD MSTORE PUSH1 0xFF PUSH1 0xA DUP3 ADD SLOAD DUP2 DUP2 AND ISZERO ISZERO PUSH2 0x140 DUP7 ADD MSTORE PUSH1 0x8 SHR AND ISZERO ISZERO PUSH2 0x160 DUP5 ADD MSTORE PUSH1 0xB DUP2 ADD SLOAD PUSH2 0x180 DUP5 ADD MSTORE ADD SLOAD PUSH2 0x1A0 DUP3 ADD MSTORE PUSH1 0x40 MLOAD PUSH1 0x20 DUP2 MSTORE DUP2 MLOAD PUSH1 0x20 DUP3 ADD MSTORE PUSH1 0x1 DUP1 PUSH1 0xA0 SHL SUB PUSH1 0x20 DUP4 ADD MLOAD AND PUSH1 0x40 DUP3 ADD MSTORE PUSH1 0x40 DUP3 ADD MLOAD PUSH1 0x60 DUP3 ADD MSTORE PUSH1 0x60 DUP3 ADD MLOAD PUSH1 0x80 DUP3 ADD MSTORE PUSH1 0x80 DUP3 ADD MLOAD PUSH1 0xA0 DUP3 ADD MSTORE PUSH1 0xA0 DUP3 ADD MLOAD PUSH1 0xC0 DUP3 ADD MSTORE PUSH1 0xC0 DUP3 ADD MLOAD PUSH2 0x1C0 PUSH1 0xE0 DUP4 ADD MSTORE PUSH2 0x1E0 DUP3 ADD DUP2 MLOAD DUP1 SWAP2 MSTORE PUSH2 0x200 SWAP1 PUSH1 0x20 DUP3 DUP6 ADD SWAP3 DUP3 PUSH1 0x5 SHL DUP7 ADD ADD SWAP4 ADD SWAP2 PUSH1 0x0 SWAP1 JUMPDEST DUP3 DUP3 LT PUSH2 0xE17 JUMPI DUP6 DUP1 DUP7 PUSH2 0x1A0 DUP11 PUSH1 0xE0 DUP2 ADD MLOAD PUSH2 0x100 DUP6 ADD MSTORE PUSH2 0x100 DUP2 ADD MLOAD PUSH2 0x120 DUP6 ADD MSTORE PUSH2 0x120 DUP2 ADD MLOAD PUSH2 0x140 DUP6 ADD MSTORE PUSH2 0x140 DUP2 ADD MLOAD ISZERO ISZERO PUSH2 0x160 DUP6 ADD MSTORE PUSH2 0x160 DUP2 ADD MLOAD ISZERO ISZERO PUSH2 0x180 DUP6 ADD MSTORE PUSH2 0x180 DUP2 ADD MLOAD DUP3 DUP6 ADD MSTORE ADD MLOAD PUSH2 0x1C0 DUP4 ADD MSTORE SUB SWAP1 RETURN JUMPDEST SWAP1 SWAP2 SWAP3 SWAP4 PUSH1 0x20 DUP1 PUSH1 0x1 SWAP3 PUSH2 0x1FF NOT DUP10 DUP3 SUB ADD DUP6 MSTORE DUP8 MLOAD SWAP1 DUP5 DUP1 PUSH1 0xA0 SHL SUB DUP3 MLOAD AND DUP2 MSTORE DUP3 DUP3 ADD MLOAD DUP4 DUP3 ADD MSTORE PUSH1 0x80 DUP1 PUSH2 0xE72 PUSH2 0xE60 PUSH1 0x40 DUP7 ADD MLOAD PUSH1 0xA0 PUSH1 0x40 DUP8 ADD MSTORE PUSH1 0xA0 DUP7 ADD SWAP1 PUSH2 0x2583 JUMP JUMPDEST PUSH1 0x60 DUP7 ADD MLOAD DUP6 DUP3 SUB PUSH1 0x60 DUP8 ADD MSTORE PUSH2 0x2583 JUMP JUMPDEST SWAP4 ADD MLOAD SWAP2 ADD MSTORE SWAP7 ADD SWAP3 ADD SWAP3 ADD SWAP1 SWAP3 SWAP2 PUSH2 0xDB4 JUMP JUMPDEST PUSH1 0x5 PUSH1 0x20 PUSH1 0x1 SWAP3 PUSH2 0xE96 DUP11 PUSH2 0x2FF3 JUMP JUMPDEST DUP2 MSTORE ADD SWAP8 ADD SWAP2 ADD SWAP1 SWAP6 PUSH2 0xCDB JUMP JUMPDEST CALLVALUE PUSH2 0x2A2 JUMPI PUSH1 0x0 CALLDATASIZE PUSH1 0x3 NOT ADD SLT PUSH2 0x2A2 JUMPI PUSH1 0x20 PUSH1 0x40 MLOAD PUSH32 0xA49807205CE4D355092EF5A8A18F56E8913CF4A201FBE287825B095693C21775 DUP2 MSTORE RETURN JUMPDEST CALLVALUE PUSH2 0x2A2 JUMPI PUSH1 0x20 CALLDATASIZE PUSH1 0x3 NOT ADD SLT PUSH2 0x2A2 JUMPI PUSH1 0x20 PUSH2 0xF02 PUSH2 0xEFD PUSH2 0x25A8 JUMP JUMPDEST PUSH2 0x2B67 JUMP JUMPDEST PUSH1 0x40 MLOAD SWAP1 DUP2 MSTORE RETURN JUMPDEST CALLVALUE PUSH2 0x2A2 JUMPI PUSH1 0x20 CALLDATASIZE PUSH1 0x3 NOT ADD SLT PUSH2 0x2A2 JUMPI PUSH1 0x4 CALLDATALOAD PUSH1 0x0 MSTORE PUSH1 0xB PUSH1 0x20 MSTORE PUSH1 0x40 PUSH1 0x0 KECCAK256 DUP1 SLOAD PUSH2 0x421 PUSH1 0x1 DUP4 ADD SLOAD SWAP3 PUSH2 0xF42 PUSH1 0x2 DUP3 ADD PUSH2 0x2722 JUMP JUMPDEST PUSH2 0xF4E PUSH1 0x3 DUP4 ADD PUSH2 0x2722 JUMP JUMPDEST SWAP2 PUSH1 0x4 DUP2 ADD SLOAD SWAP3 PUSH2 0xF9F PUSH1 0x5 DUP4 ADD SLOAD SWAP2 PUSH2 0xF91 PUSH2 0xF72 PUSH1 0x7 PUSH1 0x6 DUP8 ADD SLOAD SWAP7 ADD PUSH2 0x2722 JUMP JUMPDEST SWAP6 PUSH1 0x40 MLOAD SWAP11 DUP12 SWAP11 DUP12 MSTORE PUSH1 0x20 DUP12 ADD MSTORE PUSH2 0x120 DUP1 PUSH1 0x40 DUP13 ADD MSTORE DUP11 ADD SWAP1 PUSH2 0x2583 JUMP JUMPDEST SWAP1 DUP9 DUP3 SUB PUSH1 0x60 DUP11 ADD MSTORE PUSH2 0x2583 JUMP JUMPDEST PUSH1 0x80 DUP8 ADD SWAP5 SWAP1 SWAP5 MSTORE PUSH1 0xA0 DUP7 ADD MSTORE PUSH1 0xFF DUP2 AND ISZERO ISZERO PUSH1 0xC0 DUP7 ADD MSTORE PUSH1 0x8 SHR PUSH1 0x1 PUSH1 0x1 PUSH1 0xA0 SHL SUB AND PUSH1 0xE0 DUP6 ADD MSTORE DUP4 DUP3 SUB PUSH2 0x100 DUP6 ADD MSTORE PUSH2 0x2583 JUMP JUMPDEST CALLVALUE PUSH2 0x2A2 JUMPI PUSH1 0x0 CALLDATASIZE PUSH1 0x3 NOT ADD SLT PUSH2 0x2A2 JUMPI PUSH1 0x20 PUSH1 0xFF PUSH1 0x7 SLOAD AND PUSH1 0x40 MLOAD SWAP1 ISZERO ISZERO DUP2 MSTORE RETURN JUMPDEST CALLVALUE PUSH2 0x2A2 JUMPI PUSH1 0x40 CALLDATASIZE PUSH1 0x3 NOT ADD SLT PUSH2 0x2A2 JUMPI PUSH1 0x24 CALLDATALOAD PUSH1 0x1 PUSH1 0x1 PUSH1 0x40 SHL SUB DUP2 GT PUSH2 0x2A2 JUMPI CALLDATASIZE PUSH1 0x23 DUP3 ADD SLT ISZERO PUSH2 0x2A2 JUMPI DUP1 PUSH1 0x4 ADD CALLDATALOAD PUSH2 0x1034 DUP2 PUSH2 0x26D1 JUMP JUMPDEST SWAP2 PUSH2 0x1042 PUSH1 0x40 MLOAD SWAP4 DUP5 PUSH2 0x2658 JUMP JUMPDEST DUP2 DUP4 MSTORE PUSH1 0x24 PUSH1 0x20 DUP5 ADD SWAP3 PUSH1 0x5 SHL DUP3 ADD ADD SWAP1 CALLDATASIZE DUP3 GT PUSH2 0x2A2 JUMPI PUSH1 0x24 DUP2 ADD SWAP3 JUMPDEST DUP3 DUP5 LT PUSH2 0x15BA JUMPI DUP5 PUSH1 0x4 CALLDATALOAD PUSH1 0x0 MSTORE PUSH1 0xA DUP1 PUSH1 0x20 MSTORE PUSH2 0x108F PUSH1 0x1 DUP1 PUSH1 0xA0 SHL SUB PUSH1 0x1 PUSH1 0x40 PUSH1 0x0 KECCAK256 ADD SLOAD AND ISZERO ISZERO PUSH2 0x2E43 JUMP JUMPDEST PUSH1 0x4 CALLDATALOAD PUSH1 0x0 MSTORE DUP1 PUSH1 0x20 MSTORE PUSH2 0x10B4 PUSH1 0x1 DUP1 PUSH1 0xA0 SHL SUB PUSH1 0x1 PUSH1 0x40 PUSH1 0x0 KECCAK256 ADD SLOAD AND CALLER EQ PUSH2 0x2E87 JUMP JUMPDEST PUSH1 0x4 CALLDATALOAD PUSH1 0x0 MSTORE DUP1 PUSH1 0x20 MSTORE PUSH2 0x10D2 PUSH1 0xFF DUP3 PUSH1 0x40 PUSH1 0x0 KECCAK256 ADD SLOAD AND ISZERO PUSH2 0x2EC6 JUMP JUMPDEST PUSH1 0x4 CALLDATALOAD PUSH1 0x0 MSTORE DUP1 PUSH1 0x20 MSTORE PUSH2 0x10F3 PUSH1 0xFF DUP3 PUSH1 0x40 PUSH1 0x0 KECCAK256 ADD SLOAD PUSH1 0x8 SHR AND ISZERO PUSH2 0x2F05 JUMP JUMPDEST DUP1 DUP3 MLOAD GT PUSH2 0x157C JUMPI PUSH1 0x0 DUP1 JUMPDEST DUP4 MLOAD DUP3 LT ISZERO PUSH2 0x1130 JUMPI PUSH2 0x1124 PUSH2 0x112A SWAP2 PUSH1 0x20 PUSH2 0x111B DUP6 DUP9 PUSH2 0x2F56 JUMP JUMPDEST MLOAD ADD MLOAD SWAP1 PUSH2 0x2B82 JUMP JUMPDEST SWAP2 PUSH2 0x2F47 JUMP JUMPDEST SWAP1 PUSH2 0x10FF JUMP JUMPDEST PUSH1 0x64 SWAP2 POP SUB PUSH2 0x153D JUMPI PUSH1 0x4 CALLDATALOAD PUSH1 0x0 MSTORE PUSH1 0x20 MSTORE PUSH1 0x40 PUSH1 0x0 KECCAK256 SWAP1 PUSH1 0x6 DUP3 ADD SLOAD PUSH1 0x0 PUSH1 0x6 DUP5 ADD SSTORE DUP1 PUSH2 0x14C8 JUMPI JUMPDEST POP SWAP1 PUSH1 0x0 SWAP2 JUMPDEST DUP1 MLOAD DUP4 LT ISZERO PUSH2 0x14BE JUMPI PUSH2 0x1173 DUP4 DUP3 PUSH2 0x2F56 JUMP JUMPDEST MLOAD SWAP3 PUSH1 0x6 DUP4 ADD SLOAD PUSH1 0x1 PUSH1 0x40 SHL DUP2 LT ISZERO PUSH2 0x13E0 JUMPI DUP1 PUSH1 0x1 PUSH2 0x119C SWAP3 ADD PUSH1 0x6 DUP7 ADD SSTORE PUSH1 0x6 DUP6 ADD PUSH2 0x2FCA JUMP JUMPDEST PUSH2 0x14A8 JUMPI DUP5 MLOAD DUP2 SLOAD PUSH1 0x1 PUSH1 0x1 PUSH1 0xA0 SHL SUB NOT AND PUSH1 0x1 PUSH1 0x1 PUSH1 0xA0 SHL SUB SWAP2 SWAP1 SWAP2 AND OR DUP2 SSTORE PUSH1 0x20 DUP6 ADD MLOAD PUSH1 0x1 DUP3 ADD SSTORE PUSH1 0x40 DUP6 ADD MLOAD DUP1 MLOAD SWAP1 PUSH1 0x1 PUSH1 0x1 PUSH1 0x40 SHL SUB DUP3 GT PUSH2 0x13E0 JUMPI DUP2 SWAP1 PUSH2 0x11EC PUSH1 0x2 DUP6 ADD SLOAD PUSH2 0x26E8 JUMP JUMPDEST PUSH1 0x1F DUP2 GT PUSH2 0x1473 JUMPI JUMPDEST POP PUSH1 0x20 SWAP1 PUSH1 0x1F DUP4 GT PUSH1 0x1 EQ PUSH2 0x1401 JUMPI PUSH1 0x0 SWAP3 PUSH2 0x13F6 JUMPI JUMPDEST POP POP DUP2 PUSH1 0x1 SHL SWAP2 PUSH1 0x0 NOT SWAP1 PUSH1 0x3 SHL SHR NOT AND OR PUSH1 0x2 DUP3 ADD SSTORE JUMPDEST PUSH1 0x60 DUP6 ADD MLOAD DUP1 MLOAD SWAP1 PUSH1 0x1 PUSH1 0x1 PUSH1 0x40 SHL SUB DUP3 GT PUSH2 0x13E0 JUMPI PUSH2 0x1247 PUSH1 0x3 DUP5 ADD SLOAD PUSH2 0x26E8 JUMP JUMPDEST PUSH1 0x1F DUP2 GT PUSH2 0x13A0 JUMPI JUMPDEST POP PUSH1 0x20 SWAP1 PUSH1 0x1F DUP4 GT PUSH1 0x1 EQ PUSH2 0x1326 JUMPI SWAP7 DUP3 PUSH1 0x4 SWAP4 PUSH1 0x80 SWAP4 PUSH2 0x1314 SWAP9 SWAP10 SWAP11 PUSH1 0x0 SWAP3 PUSH2 0x131B JUMPI JUMPDEST POP POP DUP2 PUSH1 0x1 SHL SWAP2 PUSH1 0x0 NOT SWAP1 PUSH1 0x3 SHL SHR NOT AND OR PUSH1 0x3 DUP6 ADD SSTORE JUMPDEST ADD MLOAD SWAP2 ADD SSTORE PUSH1 0x1 PUSH1 0x1 PUSH1 0xA0 SHL SUB PUSH2 0x12A4 DUP3 DUP6 PUSH2 0x2F56 JUMP JUMPDEST MLOAD MLOAD AND PUSH1 0x20 PUSH2 0x12B3 DUP4 DUP7 PUSH2 0x2F56 JUMP JUMPDEST MLOAD ADD MLOAD PUSH32 0xD7A243FBEDDAAB5A4BAB82DA5752DFE983503B54CAB7B68274ED87F43AB89930 PUSH2 0x1300 PUSH1 0x40 PUSH2 0x12E6 DUP7 DUP10 PUSH2 0x2F56 JUMP JUMPDEST MLOAD ADD MLOAD PUSH1 0x40 MLOAD SWAP4 DUP5 MSTORE PUSH1 0x60 PUSH1 0x20 DUP6 ADD MSTORE PUSH1 0x60 DUP5 ADD SWAP1 PUSH2 0x2583 JUMP JUMPDEST SWAP2 TIMESTAMP PUSH1 0x40 DUP3 ADD MSTORE DUP1 PUSH1 0x4 CALLDATALOAD SWAP4 SUB SWAP1 LOG3 PUSH2 0x2F47 JUMP JUMPDEST SWAP2 SWAP1 PUSH2 0x1160 JUMP JUMPDEST ADD MLOAD SWAP1 POP DUP11 DUP1 PUSH2 0x1275 JUMP JUMPDEST SWAP1 PUSH1 0x3 DUP5 ADD PUSH1 0x0 MSTORE PUSH1 0x20 PUSH1 0x0 KECCAK256 SWAP2 PUSH1 0x0 JUMPDEST PUSH1 0x1F NOT DUP6 AND DUP2 LT PUSH2 0x1388 JUMPI POP DUP4 PUSH1 0x80 SWAP4 PUSH2 0x1314 SWAP9 SWAP10 SWAP11 SWAP4 PUSH1 0x1 SWAP4 PUSH1 0x4 SWAP8 PUSH1 0x1F NOT DUP2 AND LT PUSH2 0x136F JUMPI JUMPDEST POP POP POP DUP2 SHL ADD PUSH1 0x3 DUP6 ADD SSTORE PUSH2 0x128D JUMP JUMPDEST ADD MLOAD PUSH1 0x0 NOT PUSH1 0xF8 DUP5 PUSH1 0x3 SHL AND SHR NOT AND SWAP1 SSTORE DUP11 DUP1 DUP1 PUSH2 0x135F JUMP JUMPDEST SWAP2 SWAP3 PUSH1 0x20 PUSH1 0x1 DUP2 SWAP3 DUP7 DUP6 ADD MLOAD DUP2 SSTORE ADD SWAP5 ADD SWAP3 ADD PUSH2 0x1337 JUMP JUMPDEST PUSH2 0x13D0 SWAP1 PUSH1 0x3 DUP6 ADD PUSH1 0x0 MSTORE PUSH1 0x20 PUSH1 0x0 KECCAK256 PUSH1 0x1F DUP6 ADD PUSH1 0x5 SHR DUP2 ADD SWAP2 PUSH1 0x20 DUP7 LT PUSH2 0x13D6 JUMPI JUMPDEST PUSH1 0x1F ADD PUSH1 0x5 SHR ADD SWAP1 PUSH2 0x2F6A JUMP JUMPDEST DUP8 PUSH2 0x1250 JUMP JUMPDEST SWAP1 SWAP2 POP DUP2 SWAP1 PUSH2 0x13C3 JUMP JUMPDEST PUSH4 0x4E487B71 PUSH1 0xE0 SHL PUSH1 0x0 MSTORE PUSH1 0x41 PUSH1 0x4 MSTORE PUSH1 0x24 PUSH1 0x0 REVERT JUMPDEST ADD MLOAD SWAP1 POP DUP8 DUP1 PUSH2 0x120C JUMP JUMPDEST SWAP3 POP PUSH1 0x2 DUP5 ADD PUSH1 0x0 MSTORE PUSH1 0x20 PUSH1 0x0 KECCAK256 SWAP1 PUSH1 0x0 SWAP4 JUMPDEST PUSH1 0x1F NOT DUP5 AND DUP6 LT PUSH2 0x1458 JUMPI PUSH1 0x1 SWAP5 POP DUP4 PUSH1 0x1F NOT DUP2 AND LT PUSH2 0x143F JUMPI JUMPDEST POP POP POP DUP2 SHL ADD PUSH1 0x2 DUP3 ADD SSTORE PUSH2 0x1224 JUMP JUMPDEST ADD MLOAD PUSH1 0x0 NOT PUSH1 0xF8 DUP5 PUSH1 0x3 SHL AND SHR NOT AND SWAP1 SSTORE DUP8 DUP1 DUP1 PUSH2 0x142F JUMP JUMPDEST DUP2 DUP2 ADD MLOAD DUP4 SSTORE PUSH1 0x20 SWAP5 DUP6 ADD SWAP5 PUSH1 0x1 SWAP1 SWAP4 ADD SWAP3 SWAP1 SWAP2 ADD SWAP1 PUSH2 0x1414 JUMP JUMPDEST PUSH2 0x14A2 SWAP1 PUSH1 0x2 DUP7 ADD PUSH1 0x0 MSTORE PUSH1 0x20 PUSH1 0x0 KECCAK256 PUSH1 0x1F DUP6 ADD PUSH1 0x5 SHR DUP2 ADD SWAP2 PUSH1 0x20 DUP7 LT PUSH2 0x13D6 JUMPI PUSH1 0x1F ADD PUSH1 0x5 SHR ADD SWAP1 PUSH2 0x2F6A JUMP JUMPDEST DUP9 PUSH2 0x11F5 JUMP JUMPDEST PUSH4 0x4E487B71 PUSH1 0xE0 SHL PUSH1 0x0 MSTORE PUSH1 0x0 PUSH1 0x4 MSTORE PUSH1 0x24 PUSH1 0x0 REVERT JUMPDEST MLOAD PUSH1 0x7 SWAP2 SWAP1 SWAP2 ADD SSTORE STOP JUMPDEST DUP1 PUSH1 0x5 MUL SWAP1 PUSH1 0x5 DUP3 DIV SUB PUSH2 0x1527 JUMPI PUSH1 0x6 DUP4 ADD PUSH1 0x0 MSTORE PUSH1 0x20 PUSH1 0x0 KECCAK256 SWAP1 DUP2 ADD SWAP1 JUMPDEST DUP2 DUP2 LT PUSH2 0x14F4 JUMPI POP PUSH2 0x115A JUMP JUMPDEST DUP1 PUSH1 0x0 PUSH1 0x5 SWAP3 SSTORE PUSH1 0x0 PUSH1 0x1 DUP3 ADD SSTORE PUSH2 0x150E PUSH1 0x2 DUP3 ADD PUSH2 0x2F81 JUMP JUMPDEST PUSH2 0x151A PUSH1 0x3 DUP3 ADD PUSH2 0x2F81 JUMP JUMPDEST PUSH1 0x0 PUSH1 0x4 DUP3 ADD SSTORE ADD PUSH2 0x14E7 JUMP JUMPDEST PUSH4 0x4E487B71 PUSH1 0xE0 SHL PUSH1 0x0 MSTORE PUSH1 0x11 PUSH1 0x4 MSTORE PUSH1 0x24 PUSH1 0x0 REVERT JUMPDEST PUSH1 0x40 MLOAD PUSH3 0x461BCD PUSH1 0xE5 SHL DUP2 MSTORE PUSH1 0x20 PUSH1 0x4 DUP3 ADD MSTORE PUSH1 0x17 PUSH1 0x24 DUP3 ADD MSTORE PUSH23 0x536861726573206D7573742073756D20746F2031303025 PUSH1 0x48 SHL PUSH1 0x44 DUP3 ADD MSTORE PUSH1 0x64 SWAP1 REVERT JUMPDEST PUSH1 0x40 MLOAD PUSH3 0x461BCD PUSH1 0xE5 SHL DUP2 MSTORE PUSH1 0x20 PUSH1 0x4 DUP3 ADD MSTORE PUSH1 0x16 PUSH1 0x24 DUP3 ADD MSTORE PUSH22 0x546F6F206D616E792062656E65666963696172696573 PUSH1 0x50 SHL PUSH1 0x44 DUP3 ADD MSTORE PUSH1 0x64 SWAP1 REVERT JUMPDEST DUP4 CALLDATALOAD PUSH1 0x1 PUSH1 0x1 PUSH1 0x40 SHL SUB DUP2 GT PUSH2 0x2A2 JUMPI DUP3 ADD PUSH1 0xA0 PUSH1 0x23 NOT DUP3 CALLDATASIZE SUB ADD SLT PUSH2 0x2A2 JUMPI PUSH1 0x40 MLOAD SWAP2 PUSH2 0x15E7 DUP4 PUSH2 0x2605 JUMP JUMPDEST PUSH1 0x24 DUP3 ADD CALLDATALOAD PUSH1 0x1 PUSH1 0x1 PUSH1 0xA0 SHL SUB DUP2 AND DUP2 SUB PUSH2 0x2A2 JUMPI DUP4 MSTORE PUSH1 0x44 DUP3 ADD CALLDATALOAD PUSH1 0x20 DUP5 ADD MSTORE PUSH1 0x64 DUP3 ADD CALLDATALOAD PUSH1 0x1 PUSH1 0x1 PUSH1 0x40 SHL SUB DUP2 GT PUSH2 0x2A2 JUMPI PUSH2 0x162B SWAP1 PUSH1 0x24 CALLDATASIZE SWAP2 DUP6 ADD ADD PUSH2 0x267B JUMP JUMPDEST PUSH1 0x40 DUP5 ADD MSTORE PUSH1 0x84 DUP3 ADD CALLDATALOAD SWAP3 PUSH1 0x1 PUSH1 0x1 PUSH1 0x40 SHL SUB DUP5 GT PUSH2 0x2A2 JUMPI PUSH1 0xA4 PUSH1 0x20 SWAP5 SWAP4 PUSH2 0x165B DUP7 SWAP6 PUSH1 0x24 CALLDATASIZE SWAP2 DUP5 ADD ADD PUSH2 0x267B JUMP JUMPDEST PUSH1 0x60 DUP5 ADD MSTORE ADD CALLDATALOAD PUSH1 0x80 DUP3 ADD MSTORE DUP2 MSTORE ADD SWAP4 ADD SWAP3 PUSH2 0x1060 JUMP JUMPDEST CALLVALUE PUSH2 0x2A2 JUMPI PUSH1 0x0 CALLDATASIZE PUSH1 0x3 NOT ADD SLT PUSH2 0x2A2 JUMPI PUSH1 0x20 PUSH1 0x40 MLOAD PUSH3 0x76A700 DUP2 MSTORE RETURN JUMPDEST CALLVALUE PUSH2 0x2A2 JUMPI PUSH1 0x40 CALLDATASIZE PUSH1 0x3 NOT ADD SLT PUSH2 0x2A2 JUMPI PUSH2 0x929 PUSH2 0x16AC PUSH2 0x25A8 JUMP JUMPDEST CALLER PUSH1 0x0 MSTORE PUSH1 0x1 PUSH1 0x20 MSTORE PUSH1 0x40 PUSH1 0x0 KECCAK256 PUSH1 0x1 DUP1 PUSH1 0xA0 SHL SUB DUP3 AND PUSH1 0x0 MSTORE PUSH1 0x20 MSTORE PUSH2 0x16DA PUSH1 0x24 CALLDATALOAD PUSH1 0x40 PUSH1 0x0 KECCAK256 SLOAD PUSH2 0x2B82 JUMP JUMPDEST SWAP1 CALLER PUSH2 0x2CEB JUMP JUMPDEST CALLVALUE PUSH2 0x2A2 JUMPI PUSH2 0x16EF CALLDATASIZE PUSH2 0x25D4 JUMP JUMPDEST SWAP1 DUP2 PUSH1 0x0 MSTORE PUSH1 0xA PUSH1 0x20 SWAP1 DUP1 DUP3 MSTORE PUSH2 0x1733 PUSH1 0x1 DUP1 PUSH1 0xA0 SHL SUB PUSH2 0x171B DUP2 PUSH1 0x1 PUSH1 0x40 PUSH1 0x0 KECCAK256 ADD SLOAD AND ISZERO ISZERO PUSH2 0x2E43 JUMP JUMPDEST DUP6 PUSH1 0x0 MSTORE DUP3 DUP5 MSTORE PUSH1 0x1 PUSH1 0x40 PUSH1 0x0 KECCAK256 ADD SLOAD AND CALLER EQ PUSH2 0x2E87 JUMP JUMPDEST DUP4 PUSH1 0x0 MSTORE DUP1 DUP3 MSTORE PUSH2 0x174E PUSH1 0xFF DUP3 PUSH1 0x40 PUSH1 0x0 KECCAK256 ADD SLOAD AND ISZERO PUSH2 0x2EC6 JUMP JUMPDEST DUP4 PUSH1 0x0 MSTORE DUP1 DUP3 MSTORE PUSH2 0x176C PUSH1 0xFF DUP3 PUSH1 0x40 PUSH1 0x0 KECCAK256 ADD SLOAD PUSH1 0x8 SHR AND ISZERO PUSH2 0x2F05 JUMP JUMPDEST DUP3 PUSH1 0x0 MSTORE PUSH1 0xB DUP3 MSTORE DUP4 PUSH1 0x1 PUSH1 0x40 PUSH1 0x0 KECCAK256 ADD SLOAD SUB PUSH2 0x1857 JUMPI DUP3 PUSH1 0x0 MSTORE PUSH1 0xB DUP3 MSTORE PUSH1 0xFF PUSH1 0x6 PUSH1 0x40 PUSH1 0x0 KECCAK256 ADD SLOAD AND PUSH2 0x181C JUMPI SWAP1 PUSH32 0xE10C368853368FE4F821442FC1F3413D6CBA3799D460305812C953A6EE07D4C6 SWAP2 DUP4 PUSH1 0x0 MSTORE PUSH1 0xB DUP3 MSTORE PUSH1 0x6 PUSH1 0x40 PUSH1 0x0 KECCAK256 ADD PUSH1 0x1 PUSH1 0xFF NOT DUP3 SLOAD AND OR SWAP1 SSTORE DUP5 PUSH1 0x0 MSTORE DUP1 DUP3 MSTORE PUSH2 0x1803 PUSH1 0x9 PUSH1 0x40 PUSH1 0x0 KECCAK256 ADD SLOAD DUP6 PUSH1 0x0 MSTORE PUSH1 0xB DUP5 MSTORE PUSH1 0x4 PUSH1 0x40 PUSH1 0x0 KECCAK256 ADD SLOAD SWAP1 PUSH2 0x2FE6 JUMP JUMPDEST SWAP1 DUP6 PUSH1 0x0 MSTORE DUP3 MSTORE PUSH1 0x9 PUSH1 0x40 PUSH1 0x0 KECCAK256 ADD SSTORE PUSH1 0x40 MLOAD TIMESTAMP DUP2 MSTORE LOG3 STOP JUMPDEST PUSH1 0x40 MLOAD PUSH3 0x461BCD PUSH1 0xE5 SHL DUP2 MSTORE PUSH1 0x4 DUP2 ADD DUP4 SWAP1 MSTORE PUSH1 0x13 PUSH1 0x24 DUP3 ADD MSTORE PUSH19 0x1495D048185B1C9958591E4819195B195D1959 PUSH1 0x6A SHL PUSH1 0x44 DUP3 ADD MSTORE PUSH1 0x64 SWAP1 REVERT JUMPDEST PUSH1 0x40 MLOAD PUSH3 0x461BCD PUSH1 0xE5 SHL DUP2 MSTORE PUSH1 0x4 DUP2 ADD DUP4 SWAP1 MSTORE PUSH1 0x11 PUSH1 0x24 DUP3 ADD MSTORE PUSH17 0x525741206E6F7420696E20657374617465 PUSH1 0x78 SHL PUSH1 0x44 DUP3 ADD MSTORE PUSH1 0x64 SWAP1 REVERT JUMPDEST CALLVALUE PUSH2 0x2A2 JUMPI PUSH1 0x0 CALLDATASIZE PUSH1 0x3 NOT ADD SLT PUSH2 0x2A2 JUMPI PUSH1 0x20 PUSH1 0x40 MLOAD PUSH7 0x2386F26FC10000 DUP2 MSTORE RETURN JUMPDEST CALLVALUE PUSH2 0x2A2 JUMPI PUSH1 0x40 CALLDATASIZE PUSH1 0x3 NOT ADD SLT PUSH2 0x2A2 JUMPI PUSH2 0x18CB PUSH2 0x25BE JUMP JUMPDEST CALLER PUSH1 0x1 PUSH1 0x1 PUSH1 0xA0 SHL SUB DUP3 AND SUB PUSH2 0x18E7 JUMPI PUSH2 0x577 SWAP1 PUSH1 0x4 CALLDATALOAD PUSH2 0x2AF1 JUMP JUMPDEST PUSH1 0x40 MLOAD PUSH3 0x461BCD PUSH1 0xE5 SHL DUP2 MSTORE PUSH1 0x20 PUSH1 0x4 DUP3 ADD MSTORE PUSH1 0x2F PUSH1 0x24 DUP3 ADD MSTORE PUSH32 0x416363657373436F6E74726F6C3A2063616E206F6E6C792072656E6F756E6365 PUSH1 0x44 DUP3 ADD MSTORE PUSH15 0x103937B632B9903337B91039B2B633 PUSH1 0x89 SHL PUSH1 0x64 DUP3 ADD MSTORE PUSH1 0x84 SWAP1 REVERT JUMPDEST CALLVALUE PUSH2 0x2A2 JUMPI PUSH1 0x0 CALLDATASIZE PUSH1 0x3 NOT ADD SLT PUSH2 0x2A2 JUMPI PUSH1 0x20 PUSH1 0x40 MLOAD PUSH1 0x12 DUP2 MSTORE RETURN JUMPDEST CALLVALUE PUSH2 0x2A2 JUMPI PUSH1 0x40 CALLDATASIZE PUSH1 0x3 NOT ADD SLT PUSH2 0x2A2 JUMPI PUSH1 0x4 CALLDATALOAD PUSH2 0x197C PUSH2 0x25BE JUMP JUMPDEST DUP2 PUSH1 0x0 MSTORE PUSH1 0x5 PUSH1 0x20 MSTORE PUSH2 0x1996 PUSH1 0x1 PUSH1 0x40 PUSH1 0x0 KECCAK256 ADD SLOAD PUSH2 0x27E6 JUMP JUMPDEST DUP2 PUSH1 0x0 MSTORE PUSH1 0x5 PUSH1 0x20 MSTORE PUSH1 0x40 PUSH1 0x0 KECCAK256 SWAP1 PUSH1 0x1 DUP1 PUSH1 0xA0 SHL SUB AND SWAP1 DUP2 PUSH1 0x0 MSTORE PUSH1 0x20 MSTORE PUSH1 0xFF PUSH1 0x40 PUSH1 0x0 KECCAK256 SLOAD AND ISZERO PUSH2 0x19C5 JUMPI STOP JUMPDEST DUP2 PUSH1 0x0 MSTORE PUSH1 0x5 PUSH1 0x20 MSTORE PUSH1 0x40 PUSH1 0x0 KECCAK256 DUP2 PUSH1 0x0 MSTORE PUSH1 0x20 MSTORE PUSH1 0x40 PUSH1 0x0 KECCAK256 PUSH1 0x1 PUSH1 0xFF NOT DUP3 SLOAD AND OR SWAP1 SSTORE CALLER SWAP2 PUSH32 0x2F8788117E7EFF1D82E926EC794901D17C78024A50270940304540A733656F0D PUSH1 0x0 DUP1 LOG4 STOP JUMPDEST PUSH1 0xA0 CALLDATASIZE PUSH1 0x3 NOT ADD SLT PUSH2 0x2A2 JUMPI PUSH1 0x4 CALLDATALOAD PUSH1 0x1 PUSH1 0x1 PUSH1 0x40 SHL SUB PUSH1 0x24 CALLDATALOAD DUP2 DUP2 GT PUSH2 0x2A2 JUMPI PUSH2 0x1A42 SWAP1 CALLDATASIZE SWAP1 PUSH1 0x4 ADD PUSH2 0x267B JUMP JUMPDEST SWAP2 PUSH1 0x44 CALLDATALOAD DUP3 DUP2 GT PUSH2 0x2A2 JUMPI PUSH2 0x1A5B SWAP1 CALLDATASIZE SWAP1 PUSH1 0x4 ADD PUSH2 0x267B JUMP JUMPDEST SWAP3 PUSH1 0x84 CALLDATALOAD DUP4 DUP2 GT PUSH2 0x2A2 JUMPI PUSH2 0x1A74 SWAP1 CALLDATASIZE SWAP1 PUSH1 0x4 ADD PUSH2 0x267B JUMP JUMPDEST SWAP1 DUP3 PUSH1 0x0 MSTORE PUSH1 0x20 SWAP5 PUSH1 0xA DUP7 MSTORE PUSH1 0x1 DUP1 PUSH1 0xA0 SHL SUB SWAP1 PUSH2 0x1ABA PUSH1 0x1 SWAP3 PUSH2 0x1AA2 DUP2 DUP6 PUSH1 0x40 PUSH1 0x0 KECCAK256 ADD SLOAD AND ISZERO ISZERO PUSH2 0x2E43 JUMP JUMPDEST DUP7 PUSH1 0x0 MSTORE PUSH1 0xA DUP10 MSTORE DUP4 PUSH1 0x40 PUSH1 0x0 KECCAK256 ADD SLOAD AND CALLER EQ PUSH2 0x2E87 JUMP JUMPDEST DUP5 PUSH1 0x0 MSTORE PUSH1 0xA DUP8 MSTORE PUSH2 0x1AD7 PUSH1 0xFF PUSH1 0xA PUSH1 0x40 PUSH1 0x0 KECCAK256 ADD SLOAD AND ISZERO PUSH2 0x2EC6 JUMP JUMPDEST DUP5 PUSH1 0x0 MSTORE PUSH1 0xA DUP8 MSTORE PUSH2 0x1AF7 PUSH1 0xFF PUSH1 0xA PUSH1 0x40 PUSH1 0x0 KECCAK256 ADD SLOAD PUSH1 0x8 SHR AND ISZERO PUSH2 0x2F05 JUMP JUMPDEST PUSH7 0x2386F26FC10000 CALLVALUE LT PUSH2 0x1EB5 JUMPI PUSH1 0x9 SLOAD SWAP6 DUP3 DUP8 ADD PUSH1 0x9 SSTORE DUP7 PUSH1 0x0 MSTORE PUSH1 0xB DUP9 MSTORE PUSH1 0x40 PUSH1 0x0 KECCAK256 SWAP3 DUP8 DUP5 SSTORE DUP7 DUP2 DUP6 ADD SSTORE PUSH1 0x2 DUP5 ADD SWAP3 DUP6 MLOAD SWAP4 DUP4 DUP6 GT PUSH2 0x13E0 JUMPI PUSH2 0x1B3E DUP2 SLOAD PUSH2 0x26E8 JUMP JUMPDEST SWAP5 PUSH1 0x1F SWAP6 DUP13 DUP8 DUP3 GT PUSH2 0x1E86 JUMPI JUMPDEST POP POP DUP1 DUP13 DUP14 DUP9 DUP4 GT PUSH1 0x1 EQ PUSH2 0x1E21 JUMPI POP PUSH1 0x0 SWAP2 PUSH2 0x1E16 JUMPI JUMPDEST POP PUSH1 0x0 NOT PUSH1 0x3 DUP4 SWAP1 SHL SHR NOT AND SWAP1 DUP5 SHL OR SWAP1 SSTORE JUMPDEST DUP1 MLOAD PUSH1 0x3 DUP7 ADD SWAP2 DUP5 DUP3 GT PUSH2 0x13E0 JUMPI DUP2 SWAP1 PUSH2 0x1B90 DUP5 SLOAD PUSH2 0x26E8 JUMP JUMPDEST DUP14 DUP9 DUP3 GT PUSH2 0x1DE7 JUMPI JUMPDEST POP POP DUP13 SWAP1 DUP14 DUP9 DUP5 GT PUSH1 0x1 EQ PUSH2 0x1D81 JUMPI POP PUSH1 0x0 SWAP3 PUSH2 0x1D76 JUMPI JUMPDEST POP POP PUSH1 0x0 NOT PUSH1 0x3 DUP4 SWAP1 SHL SHR NOT AND SWAP1 DUP4 SHL OR SWAP1 SSTORE JUMPDEST PUSH1 0x64 CALLDATALOAD PUSH1 0x4 DUP6 ADD DUP2 SWAP1 SSTORE TIMESTAMP PUSH1 0x5 DUP7 ADD SSTORE PUSH1 0x6 DUP6 ADD DUP1 SLOAD PUSH2 0x100 PUSH1 0x1 PUSH1 0xA8 SHL SUB NOT AND CALLER PUSH1 0x8 SHL PUSH2 0x100 PUSH1 0x1 PUSH1 0xA8 SHL SUB AND OR SWAP1 SSTORE DUP7 MLOAD SWAP1 SWAP5 PUSH1 0x7 ADD SWAP4 SWAP1 SWAP3 DUP4 GT PUSH2 0x13E0 JUMPI DUP9 SWAP7 PUSH2 0x1C13 DUP6 SLOAD PUSH2 0x26E8 JUMP JUMPDEST DUP12 DUP4 DUP3 GT PUSH2 0x1D3D JUMPI JUMPDEST POP POP DUP11 SWAP2 DUP5 GT PUSH1 0x1 EQ PUSH2 0x1CBE JUMPI SWAP3 DUP1 PUSH1 0x0 DUP1 MLOAD PUSH1 0x20 PUSH2 0x306A DUP4 CODECOPY DUP2 MLOAD SWAP2 MSTORE SWAP8 SWAP6 SWAP4 DUP2 SWAP4 PUSH2 0x1C9D SWAP9 SWAP7 PUSH1 0x0 SWAP5 PUSH2 0x1CB3 JUMPI JUMPDEST POP POP SHL SWAP2 PUSH1 0x0 NOT SWAP1 PUSH1 0x3 SHL SHR NOT AND OR SWAP1 SSTORE JUMPDEST DUP6 PUSH1 0x0 MSTORE PUSH1 0xA DUP9 MSTORE PUSH2 0x1C78 DUP2 PUSH1 0x9 PUSH1 0x40 PUSH1 0x0 KECCAK256 ADD SLOAD PUSH2 0x2B82 JUMP JUMPDEST DUP7 PUSH1 0x0 MSTORE PUSH1 0xA DUP10 MSTORE PUSH1 0x9 PUSH1 0x40 PUSH1 0x0 KECCAK256 ADD SSTORE PUSH1 0x40 MLOAD SWAP3 DUP4 SWAP3 PUSH1 0x60 DUP5 MSTORE PUSH1 0x60 DUP5 ADD SWAP1 PUSH2 0x2583 JUMP JUMPDEST SWAP1 DUP9 DUP4 ADD MSTORE TIMESTAMP PUSH1 0x40 DUP4 ADD MSTORE SUB SWAP1 LOG3 PUSH1 0x40 MLOAD SWAP1 DUP2 MSTORE RETURN JUMPDEST ADD MLOAD SWAP3 POP DUP14 DUP1 PUSH2 0x1C4C JUMP JUMPDEST SWAP1 PUSH1 0x1F SWAP4 SWAP3 SWAP4 NOT DUP4 AND SWAP2 DUP6 PUSH1 0x0 MSTORE DUP12 PUSH1 0x0 KECCAK256 SWAP3 PUSH1 0x0 JUMPDEST DUP14 DUP3 DUP3 LT PUSH2 0x1D26 JUMPI POP POP SWAP2 PUSH2 0x1C9D SWAP8 SWAP6 SWAP4 SWAP2 DUP6 PUSH1 0x0 DUP1 MLOAD PUSH1 0x20 PUSH2 0x306A DUP4 CODECOPY DUP2 MLOAD SWAP2 MSTORE SWAP11 SWAP9 SWAP7 SWAP5 LT PUSH2 0x1D0D JUMPI JUMPDEST POP POP POP DUP2 SHL ADD SWAP1 SSTORE PUSH2 0x1C5E JUMP JUMPDEST ADD MLOAD PUSH1 0x0 NOT PUSH1 0xF8 DUP5 PUSH1 0x3 SHL AND SHR NOT AND SWAP1 SSTORE DUP12 DUP1 DUP1 PUSH2 0x1D00 JUMP JUMPDEST DUP5 DUP5 ADD MLOAD DUP7 SSTORE DUP14 SWAP12 POP SWAP5 DUP8 ADD SWAP5 SWAP4 DUP5 ADD SWAP4 ADD PUSH2 0x1CD4 JUMP JUMPDEST PUSH2 0x1D66 SWAP2 DUP8 PUSH1 0x0 MSTORE DUP5 DUP3 PUSH1 0x0 KECCAK256 SWAP2 DUP2 DUP10 ADD PUSH1 0x5 SHR DUP4 ADD SWAP4 DUP10 LT PUSH2 0x1D6D JUMPI JUMPDEST ADD PUSH1 0x5 SHR ADD SWAP1 PUSH2 0x2F6A JUMP JUMPDEST DUP12 DUP12 PUSH2 0x1C1C JUMP JUMPDEST SWAP3 POP DUP2 SWAP3 PUSH2 0x1D5B JUMP JUMPDEST ADD MLOAD SWAP1 POP DUP13 DUP1 PUSH2 0x1BB1 JUMP JUMPDEST SWAP2 SWAP1 DUP7 SWAP5 POP PUSH1 0x1F NOT DUP5 AND DUP7 PUSH1 0x0 MSTORE DUP4 PUSH1 0x0 KECCAK256 SWAP4 PUSH1 0x0 SWAP1 JUMPDEST DUP3 DUP3 LT PUSH2 0x1DCE JUMPI POP POP DUP5 GT PUSH2 0x1DB5 JUMPI JUMPDEST POP POP POP DUP2 SHL ADD SWAP1 SSTORE PUSH2 0x1BC5 JUMP JUMPDEST ADD MLOAD PUSH1 0x0 NOT PUSH1 0xF8 DUP5 PUSH1 0x3 SHL AND SHR NOT AND SWAP1 SSTORE DUP13 DUP1 DUP1 PUSH2 0x1DA8 JUMP JUMPDEST DUP5 DUP5 ADD MLOAD DUP7 SSTORE DUP10 SWAP8 SWAP1 SWAP6 ADD SWAP5 SWAP4 DUP5 ADD SWAP4 SWAP1 DUP2 ADD SWAP1 PUSH2 0x1D98 JUMP JUMPDEST PUSH2 0x1E0F SWAP2 DUP7 PUSH1 0x0 MSTORE DUP10 DUP3 PUSH1 0x0 KECCAK256 SWAP2 DUP2 DUP8 ADD PUSH1 0x5 SHR DUP4 ADD SWAP4 DUP8 LT PUSH2 0x1D6D JUMPI ADD PUSH1 0x5 SHR ADD SWAP1 PUSH2 0x2F6A JUMP JUMPDEST DUP14 DUP14 PUSH2 0x1B99 JUMP JUMPDEST SWAP1 POP DUP9 ADD MLOAD DUP14 PUSH2 0x1B63 JUMP JUMPDEST SWAP1 DUP7 SWAP4 POP PUSH1 0x1F NOT DUP4 AND DUP6 PUSH1 0x0 MSTORE DUP3 PUSH1 0x0 KECCAK256 SWAP3 PUSH1 0x0 SWAP1 JUMPDEST DUP14 DUP4 DUP4 LT PUSH2 0x1E6E JUMPI POP POP POP DUP4 GT PUSH2 0x1E55 JUMPI JUMPDEST POP POP DUP2 SHL ADD SWAP1 SSTORE PUSH2 0x1B76 JUMP JUMPDEST DUP11 ADD MLOAD PUSH1 0x0 NOT PUSH1 0xF8 DUP5 PUSH1 0x3 SHL AND SHR NOT AND SWAP1 SSTORE DUP14 DUP1 PUSH2 0x1E49 JUMP JUMPDEST DUP5 ADD MLOAD DUP6 SSTORE DUP10 SWAP7 SWAP1 SWAP5 ADD SWAP4 SWAP3 DUP4 ADD SWAP3 SWAP1 DUP2 ADD SWAP1 PUSH2 0x1E37 JUMP JUMPDEST PUSH2 0x1EAE SWAP2 DUP5 PUSH1 0x0 MSTORE DUP9 DUP3 PUSH1 0x0 KECCAK256 SWAP2 DUP2 DUP7 ADD PUSH1 0x5 SHR DUP4 ADD SWAP4 DUP7 LT PUSH2 0x1D6D JUMPI ADD PUSH1 0x5 SHR ADD SWAP1 PUSH2 0x2F6A JUMP JUMPDEST DUP13 DUP13 PUSH2 0x1B4B JUMP JUMPDEST PUSH1 0x40 MLOAD PUSH3 0x461BCD PUSH1 0xE5 SHL DUP2 MSTORE PUSH1 0x4 DUP2 ADD DUP9 SWAP1 MSTORE PUSH1 0x14 PUSH1 0x24 DUP3 ADD MSTORE PUSH20 0x496E73756666696369656E742052574120666565 PUSH1 0x60 SHL PUSH1 0x44 DUP3 ADD MSTORE PUSH1 0x64 SWAP1 REVERT JUMPDEST CALLVALUE PUSH2 0x2A2 JUMPI PUSH1 0x20 CALLDATASIZE PUSH1 0x3 NOT ADD SLT PUSH2 0x2A2 JUMPI PUSH1 0x4 CALLDATALOAD PUSH1 0x0 MSTORE PUSH1 0x5 PUSH1 0x20 MSTORE PUSH1 0x20 PUSH1 0x1 PUSH1 0x40 PUSH1 0x0 KECCAK256 ADD SLOAD PUSH1 0x40 MLOAD SWAP1 DUP2 MSTORE RETURN JUMPDEST CALLVALUE PUSH2 0x2A2 JUMPI PUSH1 0x60 CALLDATASIZE PUSH1 0x3 NOT ADD SLT PUSH2 0x2A2 JUMPI PUSH2 0x1F39 PUSH2 0x25A8 JUMP JUMPDEST PUSH2 0x1F41 PUSH2 0x25BE JUMP JUMPDEST PUSH1 0x44 CALLDATALOAD SWAP1 PUSH1 0x1 DUP1 PUSH1 0xA0 SHL SUB DUP4 AND PUSH1 0x0 MSTORE PUSH1 0x1 PUSH1 0x20 MSTORE PUSH1 0x40 PUSH1 0x0 KECCAK256 CALLER PUSH1 0x0 MSTORE PUSH1 0x20 MSTORE PUSH1 0x40 PUSH1 0x0 KECCAK256 SLOAD SWAP3 PUSH1 0x0 NOT DUP5 SUB PUSH2 0x1F7D JUMPI JUMPDEST PUSH2 0x929 SWAP4 POP PUSH2 0x2B8F JUMP JUMPDEST DUP3 DUP5 LT PUSH2 0x1F99 JUMPI PUSH2 0x1F94 DUP4 PUSH2 0x929 SWAP6 SUB CALLER DUP4 PUSH2 0x2CEB JUMP JUMPDEST PUSH2 0x1F73 JUMP JUMPDEST PUSH1 0x40 MLOAD PUSH3 0x461BCD PUSH1 0xE5 SHL DUP2 MSTORE PUSH1 0x20 PUSH1 0x4 DUP3 ADD MSTORE PUSH1 0x1D PUSH1 0x24 DUP3 ADD MSTORE PUSH32 0x45524332303A20696E73756666696369656E7420616C6C6F77616E6365000000 PUSH1 0x44 DUP3 ADD MSTORE PUSH1 0x64 SWAP1 REVERT JUMPDEST CALLVALUE PUSH2 0x2A2 JUMPI PUSH1 0x0 CALLDATASIZE PUSH1 0x3 NOT ADD SLT PUSH2 0x2A2 JUMPI PUSH1 0x20 PUSH1 0x40 MLOAD PUSH1 0xA DUP2 MSTORE RETURN JUMPDEST CALLVALUE PUSH2 0x2A2 JUMPI PUSH1 0x0 CALLDATASIZE PUSH1 0x3 NOT ADD SLT PUSH2 0x2A2 JUMPI PUSH1 0x20 PUSH1 0x40 MLOAD PUSH8 0x16345785D8A0000 DUP2 MSTORE RETURN JUMPDEST CALLVALUE PUSH2 0x2A2 JUMPI PUSH1 0x0 CALLDATASIZE PUSH1 0x3 NOT ADD SLT PUSH2 0x2A2 JUMPI PUSH1 0x20 PUSH1 0x2 SLOAD PUSH1 0x40 MLOAD SWAP1 DUP2 MSTORE RETURN JUMPDEST CALLVALUE PUSH2 0x2A2 JUMPI PUSH2 0x2049 CALLDATASIZE PUSH2 0x25D4 JUMP JUMPDEST SWAP1 DUP1 PUSH1 0x0 MSTORE PUSH1 0x20 SWAP2 PUSH1 0xA DUP4 MSTORE PUSH1 0x1 DUP1 PUSH1 0xA0 SHL SUB SWAP1 PUSH2 0x2072 DUP3 PUSH1 0x1 PUSH1 0x40 PUSH1 0x0 KECCAK256 ADD SLOAD AND ISZERO ISZERO PUSH2 0x2E43 JUMP JUMPDEST PUSH1 0x2 PUSH1 0x6 SLOAD EQ PUSH2 0x22F6 JUMPI PUSH1 0x2 PUSH1 0x6 SSTORE DUP3 PUSH1 0x0 MSTORE PUSH1 0xA DUP5 MSTORE PUSH1 0x40 PUSH1 0x0 KECCAK256 SWAP1 PUSH1 0xFF PUSH1 0xA DUP4 ADD SLOAD PUSH1 0x8 SHR AND ISZERO PUSH2 0x22BA JUMPI PUSH1 0x6 DUP3 ADD DUP1 SLOAD DUP3 LT ISZERO PUSH2 0x227F JUMPI PUSH2 0x20BF SWAP2 PUSH2 0x20B9 SWAP2 PUSH2 0x2FCA JUMP JUMPDEST POP PUSH2 0x2FF3 JUMP JUMPDEST SWAP1 DUP3 DUP3 MLOAD AND CALLER SUB PUSH2 0x223D JUMPI DUP4 PUSH1 0x0 MSTORE PUSH1 0xC DUP6 MSTORE PUSH1 0x40 PUSH1 0x0 KECCAK256 CALLER PUSH1 0x0 MSTORE DUP6 MSTORE PUSH1 0x40 PUSH1 0x0 KECCAK256 SWAP5 PUSH1 0x6 DUP7 ADD SWAP1 DUP2 SLOAD SWAP4 PUSH1 0xFF DUP6 AND PUSH2 0x2206 JUMPI SWAP3 DUP6 SWAP3 PUSH1 0x1 PUSH1 0xC SWAP4 PUSH1 0x5 SWAP7 ADD MLOAD SWAP7 PUSH1 0x64 PUSH2 0x210D DUP10 SELFBALANCE PUSH2 0x2DED JUMP JUMPDEST DIV SWAP11 PUSH1 0x64 PUSH2 0x2129 DUP11 PUSH2 0x2124 DUP7 DUP10 ADD SWAP14 DUP15 SLOAD AND PUSH2 0x2B67 JUMP JUMPDEST PUSH2 0x2DED JUMP JUMPDEST DIV SWAP8 DUP2 DUP13 DUP11 SWAP4 SSTORE DUP5 DUP2 ADD CALLER DUP7 DUP1 PUSH1 0xA0 SHL SUB NOT DUP3 SLOAD AND OR SWAP1 SSTORE DUP11 PUSH1 0x2 DUP3 ADD SSTORE TIMESTAMP PUSH1 0x3 DUP3 ADD SSTORE DUP14 PUSH1 0x4 DUP3 ADD SSTORE ADD SSTORE PUSH1 0xFF NOT AND OR SWAP1 SSTORE ADD PUSH2 0x2167 DUP2 SLOAD PUSH2 0x2F47 JUMP JUMPDEST SWAP1 SSTORE DUP6 DUP1 ISZERO DUP1 ISZERO PUSH2 0x21D3 JUMPI JUMPDEST POP POP DUP2 PUSH32 0xB0AF14F0A98CDDE289BFB0CF3D5DBF47481B38E9AF8E1FED9A5D52C0B179C764 SWAP5 DUP2 PUSH2 0x21BE JUMPI JUMPDEST POP POP POP PUSH2 0x21B4 PUSH1 0x40 MLOAD SWAP3 DUP4 SWAP3 CALLER SWAP8 TIMESTAMP SWAP3 DUP6 PUSH2 0x2E27 JUMP JUMPDEST SUB SWAP1 LOG3 PUSH1 0x1 PUSH1 0x6 SSTORE STOP JUMPDEST PUSH2 0x21CB SWAP3 CALLER SWAP2 SLOAD AND PUSH2 0x2B8F JUMP JUMPDEST DUP6 DUP2 DUP2 PUSH2 0x219E JUMP JUMPDEST PUSH1 0x0 SWAP1 PUSH2 0x21FD JUMPI JUMPDEST PUSH1 0x0 DUP1 DUP1 SWAP4 DUP2 SWAP4 CALLER SWAP1 CALL ISZERO PUSH2 0x21F1 JUMPI DUP6 DUP8 PUSH2 0x2173 JUMP JUMPDEST PUSH1 0x40 MLOAD RETURNDATASIZE PUSH1 0x0 DUP3 RETURNDATACOPY RETURNDATASIZE SWAP1 REVERT JUMPDEST POP PUSH2 0x8FC PUSH2 0x21DB JUMP JUMPDEST PUSH1 0x40 MLOAD PUSH3 0x461BCD PUSH1 0xE5 SHL DUP2 MSTORE PUSH1 0x4 DUP2 ADD DUP4 SWAP1 MSTORE PUSH1 0xF PUSH1 0x24 DUP3 ADD MSTORE PUSH15 0x105B1C9958591E4818DB185A5B5959 PUSH1 0x8A SHL PUSH1 0x44 DUP3 ADD MSTORE PUSH1 0x64 SWAP1 REVERT JUMPDEST PUSH1 0x40 MLOAD PUSH3 0x461BCD PUSH1 0xE5 SHL DUP2 MSTORE PUSH1 0x4 DUP2 ADD DUP7 SWAP1 MSTORE PUSH1 0x1A PUSH1 0x24 DUP3 ADD MSTORE PUSH26 0x4E6F7420617574686F72697A65642062656E6566696369617279 PUSH1 0x30 SHL PUSH1 0x44 DUP3 ADD MSTORE PUSH1 0x64 SWAP1 REVERT JUMPDEST PUSH1 0x40 MLOAD PUSH3 0x461BCD PUSH1 0xE5 SHL DUP2 MSTORE PUSH1 0x4 DUP2 ADD DUP8 SWAP1 MSTORE PUSH1 0x13 PUSH1 0x24 DUP3 ADD MSTORE PUSH19 0x496E76616C69642062656E6566696369617279 PUSH1 0x68 SHL PUSH1 0x44 DUP3 ADD MSTORE PUSH1 0x64 SWAP1 REVERT JUMPDEST PUSH1 0x40 MLOAD PUSH3 0x461BCD PUSH1 0xE5 SHL DUP2 MSTORE PUSH1 0x4 DUP2 ADD DUP7 SWAP1 MSTORE PUSH1 0x14 PUSH1 0x24 DUP3 ADD MSTORE PUSH20 0x457374617465206E6F7420636C61696D61626C65 PUSH1 0x60 SHL PUSH1 0x44 DUP3 ADD MSTORE PUSH1 0x64 SWAP1 REVERT JUMPDEST PUSH1 0x40 MLOAD PUSH3 0x461BCD PUSH1 0xE5 SHL DUP2 MSTORE PUSH1 0x4 DUP2 ADD DUP6 SWAP1 MSTORE PUSH1 0x1F PUSH1 0x24 DUP3 ADD MSTORE PUSH32 0x5265656E7472616E637947756172643A207265656E7472616E742063616C6C00 PUSH1 0x44 DUP3 ADD MSTORE PUSH1 0x64 SWAP1 REVERT JUMPDEST CALLVALUE PUSH2 0x2A2 JUMPI PUSH1 0x40 CALLDATASIZE PUSH1 0x3 NOT ADD SLT PUSH2 0x2A2 JUMPI PUSH1 0xE0 PUSH2 0x2356 PUSH2 0x25BE JUMP JUMPDEST PUSH1 0x0 PUSH1 0xC0 PUSH1 0x40 MLOAD PUSH2 0x2366 DUP2 PUSH2 0x25EA JUMP JUMPDEST DUP3 DUP2 MSTORE DUP3 PUSH1 0x20 DUP3 ADD MSTORE DUP3 PUSH1 0x40 DUP3 ADD MSTORE DUP3 PUSH1 0x60 DUP3 ADD MSTORE DUP3 PUSH1 0x80 DUP3 ADD MSTORE DUP3 PUSH1 0xA0 DUP3 ADD MSTORE ADD MSTORE PUSH1 0x4 CALLDATALOAD PUSH1 0x0 MSTORE PUSH1 0xC PUSH1 0x20 MSTORE PUSH1 0x40 PUSH1 0x0 KECCAK256 PUSH1 0x1 DUP1 PUSH1 0xA0 SHL SUB DUP1 SWAP3 AND PUSH1 0x0 MSTORE PUSH1 0x20 MSTORE PUSH1 0x40 PUSH1 0x0 KECCAK256 PUSH1 0x40 MLOAD SWAP1 PUSH2 0x23BB DUP3 PUSH2 0x25EA JUMP JUMPDEST DUP1 SLOAD SWAP3 DUP4 DUP4 MSTORE DUP1 PUSH1 0x1 DUP4 ADD SLOAD AND SWAP1 PUSH1 0x20 DUP5 ADD SWAP2 DUP3 MSTORE PUSH1 0x2 DUP4 ADD SLOAD PUSH1 0x40 DUP6 ADD SWAP1 DUP2 MSTORE PUSH1 0x3 DUP5 ADD SLOAD SWAP2 PUSH1 0x60 DUP7 ADD SWAP3 DUP4 MSTORE PUSH1 0x4 DUP6 ADD SLOAD SWAP4 PUSH1 0x80 DUP8 ADD SWAP5 DUP6 MSTORE PUSH1 0xC0 PUSH1 0xFF PUSH1 0x6 PUSH1 0x5 DUP10 ADD SLOAD SWAP9 PUSH1 0xA0 DUP12 ADD SWAP10 DUP11 MSTORE ADD SLOAD AND SWAP8 ADD SWAP7 ISZERO ISZERO DUP8 MSTORE PUSH1 0x40 MLOAD SWAP8 DUP9 MSTORE MLOAD AND PUSH1 0x20 DUP8 ADD MSTORE MLOAD PUSH1 0x40 DUP7 ADD MSTORE MLOAD PUSH1 0x60 DUP6 ADD MSTORE MLOAD PUSH1 0x80 DUP5 ADD MSTORE MLOAD PUSH1 0xA0 DUP4 ADD MSTORE MLOAD ISZERO ISZERO PUSH1 0xC0 DUP3 ADD MSTORE RETURN JUMPDEST CALLVALUE PUSH2 0x2A2 JUMPI PUSH1 0x40 CALLDATASIZE PUSH1 0x3 NOT ADD SLT PUSH2 0x2A2 JUMPI PUSH2 0x929 PUSH2 0x245E PUSH2 0x25A8 JUMP JUMPDEST PUSH1 0x24 CALLDATALOAD SWAP1 CALLER PUSH2 0x2CEB JUMP JUMPDEST CALLVALUE PUSH2 0x2A2 JUMPI PUSH1 0x0 CALLDATASIZE PUSH1 0x3 NOT ADD SLT PUSH2 0x2A2 JUMPI PUSH1 0x40 MLOAD PUSH1 0x0 SWAP1 PUSH1 0x3 SLOAD PUSH2 0x248B DUP2 PUSH2 0x26E8 JUMP JUMPDEST DUP1 DUP4 MSTORE PUSH1 0x1 SWAP2 DUP1 DUP4 AND SWAP1 DUP2 ISZERO PUSH2 0xB41 JUMPI POP PUSH1 0x1 EQ PUSH2 0x24B3 JUMPI PUSH2 0x421 DUP4 PUSH2 0xAD3 DUP2 DUP8 SUB DUP3 PUSH2 0x2658 JUMP JUMPDEST PUSH1 0x3 PUSH1 0x0 SWAP1 DUP2 MSTORE PUSH1 0x20 SWAP5 POP SWAP2 PUSH32 0xC2575A0E9E593C00F959F8C92F12DB2869C3395A3B0502D05E2516446F71F85B JUMPDEST DUP3 DUP5 LT PUSH2 0x24FA JUMPI POP POP POP DUP2 ADD SWAP1 SWAP2 ADD SWAP1 PUSH2 0xAD3 DUP2 PUSH2 0xAC3 JUMP JUMPDEST DUP1 SLOAD DUP6 DUP6 ADD DUP8 ADD MSTORE SWAP3 DUP6 ADD SWAP3 DUP2 ADD PUSH2 0x24E1 JUMP JUMPDEST CALLVALUE PUSH2 0x2A2 JUMPI PUSH1 0x20 CALLDATASIZE PUSH1 0x3 NOT ADD SLT PUSH2 0x2A2 JUMPI PUSH1 0x4 CALLDATALOAD SWAP1 PUSH4 0xFFFFFFFF PUSH1 0xE0 SHL DUP3 AND DUP1 SWAP3 SUB PUSH2 0x2A2 JUMPI PUSH1 0x20 SWAP2 PUSH4 0x7965DB0B PUSH1 0xE0 SHL DUP2 EQ SWAP1 DUP2 ISZERO PUSH2 0x254F JUMPI JUMPDEST POP ISZERO ISZERO DUP2 MSTORE RETURN JUMPDEST PUSH4 0x1FFC9A7 PUSH1 0xE0 SHL EQ SWAP1 POP DUP4 PUSH2 0x2548 JUMP JUMPDEST PUSH1 0x0 JUMPDEST DUP4 DUP2 LT PUSH2 0x2573 JUMPI POP POP PUSH1 0x0 SWAP2 ADD MSTORE JUMP JUMPDEST DUP2 DUP2 ADD MLOAD DUP4 DUP3 ADD MSTORE PUSH1 0x20 ADD PUSH2 0x2563 JUMP JUMPDEST SWAP1 PUSH1 0x20 SWAP2 PUSH2 0x259C DUP2 MLOAD DUP1 SWAP3 DUP2 DUP6 MSTORE DUP6 DUP1 DUP7 ADD SWAP2 ADD PUSH2 0x2560 JUMP JUMPDEST PUSH1 0x1F ADD PUSH1 0x1F NOT AND ADD ADD SWAP1 JUMP JUMPDEST PUSH1 0x4 CALLDATALOAD SWAP1 PUSH1 0x1 PUSH1 0x1 PUSH1 0xA0 SHL SUB DUP3 AND DUP3 SUB PUSH2 0x2A2 JUMPI JUMP JUMPDEST PUSH1 0x24 CALLDATALOAD SWAP1 PUSH1 0x1 PUSH1 0x1 PUSH1 0xA0 SHL SUB DUP3 AND DUP3 SUB PUSH2 0x2A2 JUMPI JUMP JUMPDEST PUSH1 0x40 SWAP1 PUSH1 0x3 NOT ADD SLT PUSH2 0x2A2 JUMPI PUSH1 0x4 CALLDATALOAD SWAP1 PUSH1 0x24 CALLDATALOAD SWAP1 JUMP JUMPDEST PUSH1 0xE0 DUP2 ADD SWAP1 DUP2 LT PUSH1 0x1 PUSH1 0x1 PUSH1 0x40 SHL SUB DUP3 GT OR PUSH2 0x13E0 JUMPI PUSH1 0x40 MSTORE JUMP JUMPDEST PUSH1 0xA0 DUP2 ADD SWAP1 DUP2 LT PUSH1 0x1 PUSH1 0x1 PUSH1 0x40 SHL SUB DUP3 GT OR PUSH2 0x13E0 JUMPI PUSH1 0x40 MSTORE JUMP JUMPDEST PUSH2 0x1C0 DUP2 ADD SWAP1 DUP2 LT PUSH1 0x1 PUSH1 0x1 PUSH1 0x40 SHL SUB DUP3 GT OR PUSH2 0x13E0 JUMPI PUSH1 0x40 MSTORE JUMP JUMPDEST PUSH2 0x120 DUP2 ADD SWAP1 DUP2 LT PUSH1 0x1 PUSH1 0x1 PUSH1 0x40 SHL SUB DUP3 GT OR PUSH2 0x13E0 JUMPI PUSH1 0x40 MSTORE JUMP JUMPDEST PUSH1 0x1F SWAP1 SWAP2 ADD PUSH1 0x1F NOT AND DUP2 ADD SWAP1 PUSH1 0x1 PUSH1 0x1 PUSH1 0x40 SHL SUB DUP3 GT SWAP1 DUP3 LT OR PUSH2 0x13E0 JUMPI PUSH1 0x40 MSTORE JUMP JUMPDEST DUP2 PUSH1 0x1F DUP3 ADD SLT ISZERO PUSH2 0x2A2 JUMPI DUP1 CALLDATALOAD SWAP1 PUSH1 0x1 PUSH1 0x1 PUSH1 0x40 SHL SUB DUP3 GT PUSH2 0x13E0 JUMPI PUSH1 0x40 MLOAD SWAP3 PUSH2 0x26AF PUSH1 0x1F DUP5 ADD PUSH1 0x1F NOT AND PUSH1 0x20 ADD DUP6 PUSH2 0x2658 JUMP JUMPDEST DUP3 DUP5 MSTORE PUSH1 0x20 DUP4 DUP4 ADD ADD GT PUSH2 0x2A2 JUMPI DUP2 PUSH1 0x0 SWAP3 PUSH1 0x20 DUP1 SWAP4 ADD DUP4 DUP7 ADD CALLDATACOPY DUP4 ADD ADD MSTORE SWAP1 JUMP JUMPDEST PUSH1 0x1 PUSH1 0x1 PUSH1 0x40 SHL SUB DUP2 GT PUSH2 0x13E0 JUMPI PUSH1 0x5 SHL PUSH1 0x20 ADD SWAP1 JUMP JUMPDEST SWAP1 PUSH1 0x1 DUP3 DUP2 SHR SWAP3 AND DUP1 ISZERO PUSH2 0x2718 JUMPI JUMPDEST PUSH1 0x20 DUP4 LT EQ PUSH2 0x2702 JUMPI JUMP JUMPDEST PUSH4 0x4E487B71 PUSH1 0xE0 SHL PUSH1 0x0 MSTORE PUSH1 0x22 PUSH1 0x4 MSTORE PUSH1 0x24 PUSH1 0x0 REVERT JUMPDEST SWAP2 PUSH1 0x7F AND SWAP2 PUSH2 0x26F7 JUMP JUMPDEST SWAP1 PUSH1 0x40 MLOAD SWAP2 DUP3 PUSH1 0x0 DUP3 SLOAD SWAP3 PUSH2 0x2736 DUP5 PUSH2 0x26E8 JUMP JUMPDEST SWAP1 DUP2 DUP5 MSTORE PUSH1 0x1 SWAP5 DUP6 DUP2 AND SWAP1 DUP2 PUSH1 0x0 EQ PUSH2 0x27A5 JUMPI POP PUSH1 0x1 EQ PUSH2 0x2762 JUMPI JUMPDEST POP POP PUSH2 0x2760 SWAP3 POP SUB DUP4 PUSH2 0x2658 JUMP JUMPDEST JUMP JUMPDEST SWAP1 SWAP4 SWAP2 POP PUSH1 0x0 MSTORE PUSH1 0x20 SWAP1 DUP2 PUSH1 0x0 KECCAK256 SWAP4 PUSH1 0x0 SWAP2 JUMPDEST DUP2 DUP4 LT PUSH2 0x278D JUMPI POP POP PUSH2 0x2760 SWAP4 POP DUP3 ADD ADD CODESIZE DUP1 PUSH2 0x2752 JUMP JUMPDEST DUP6 SLOAD DUP9 DUP5 ADD DUP6 ADD MSTORE SWAP5 DUP6 ADD SWAP5 DUP8 SWAP5 POP SWAP2 DUP4 ADD SWAP2 PUSH2 0x2775 JUMP JUMPDEST SWAP2 POP POP PUSH2 0x2760 SWAP5 POP PUSH1 0x20 SWAP3 POP PUSH1 0xFF NOT AND DUP3 DUP5 ADD MSTORE ISZERO ISZERO PUSH1 0x5 SHL DUP3 ADD ADD CODESIZE DUP1 PUSH2 0x2752 JUMP JUMPDEST CALLVALUE PUSH2 0x2A2 JUMPI PUSH1 0x0 CALLDATASIZE PUSH1 0x3 NOT ADD SLT PUSH2 0x2A2 JUMPI PUSH1 0x20 PUSH1 0x40 MLOAD PUSH3 0x15180 DUP2 MSTORE RETURN JUMPDEST PUSH1 0x0 SWAP1 DUP1 DUP3 MSTORE PUSH1 0x20 SWAP1 PUSH1 0x5 DUP3 MSTORE PUSH1 0x40 SWAP3 DUP4 DUP2 KECCAK256 CALLER DUP3 MSTORE DUP4 MSTORE PUSH1 0xFF DUP5 DUP3 KECCAK256 SLOAD AND ISZERO PUSH2 0x2810 JUMPI POP POP POP POP JUMP JUMPDEST DUP4 MLOAD SWAP2 PUSH1 0x1 PUSH1 0x1 PUSH1 0x40 SHL SUB SWAP1 CALLER PUSH1 0x60 DUP6 ADD DUP4 DUP2 GT DUP7 DUP3 LT OR PUSH2 0x2ADD JUMPI DUP8 MSTORE PUSH1 0x2A DUP6 MSTORE DUP6 DUP6 ADD SWAP2 DUP8 CALLDATASIZE DUP5 CALLDATACOPY DUP6 MLOAD ISZERO PUSH2 0x2AC9 JUMPI PUSH1 0x30 DUP4 MSTORE8 DUP6 MLOAD SWAP2 PUSH1 0x1 SWAP3 DUP4 LT ISZERO PUSH2 0x2AB5 JUMPI PUSH1 0x78 PUSH1 0x21 DUP9 ADD MSTORE8 PUSH1 0x29 JUMPDEST DUP4 DUP2 GT PUSH2 0x2A4B JUMPI POP PUSH2 0x2A1B JUMPI SWAP1 DUP8 MLOAD SWAP4 PUSH1 0x80 DUP6 ADD SWAP1 DUP6 DUP3 LT SWAP1 DUP3 GT OR PUSH2 0x2A07 JUMPI DUP9 MSTORE PUSH1 0x42 DUP5 MSTORE DUP7 DUP5 ADD SWAP5 PUSH1 0x60 CALLDATASIZE DUP8 CALLDATACOPY DUP5 MLOAD ISZERO PUSH2 0x29F3 JUMPI PUSH1 0x30 DUP7 MSTORE8 DUP5 MLOAD DUP3 LT ISZERO PUSH2 0x29F3 JUMPI SWAP1 PUSH1 0x78 PUSH1 0x21 DUP7 ADD MSTORE8 PUSH1 0x41 SWAP2 JUMPDEST DUP2 DUP4 GT PUSH2 0x2985 JUMPI POP POP POP PUSH2 0x2955 JUMPI PUSH2 0x2951 SWAP4 DUP7 SWAP4 PUSH2 0x2935 SWAP4 PUSH2 0x2926 PUSH1 0x48 SWAP5 PUSH2 0x28FD SWAP11 MLOAD SWAP11 DUP12 SWAP6 PUSH23 0x20B1B1B2B9B9A1B7B73A3937B61D1030B1B1B7BAB73A1 PUSH1 0x4D SHL DUP13 DUP9 ADD MSTORE MLOAD DUP1 SWAP3 PUSH1 0x37 DUP9 ADD SWAP1 PUSH2 0x2560 JUMP JUMPDEST DUP5 ADD SWAP2 PUSH17 0x1034B99036B4B9B9B4B733903937B6329 PUSH1 0x7D SHL PUSH1 0x37 DUP5 ADD MSTORE MLOAD DUP1 SWAP4 DUP7 DUP5 ADD SWAP1 PUSH2 0x2560 JUMP JUMPDEST ADD SUB PUSH1 0x28 DUP2 ADD DUP8 MSTORE ADD DUP6 PUSH2 0x2658 JUMP JUMPDEST MLOAD SWAP3 DUP4 SWAP3 PUSH3 0x461BCD PUSH1 0xE5 SHL DUP5 MSTORE PUSH1 0x4 DUP5 ADD MSTORE PUSH1 0x24 DUP4 ADD SWAP1 PUSH2 0x2583 JUMP JUMPDEST SUB SWAP1 REVERT JUMPDEST PUSH1 0x64 DUP6 DUP8 MLOAD SWAP1 PUSH3 0x461BCD PUSH1 0xE5 SHL DUP3 MSTORE DUP1 PUSH1 0x4 DUP4 ADD MSTORE PUSH1 0x24 DUP3 ADD MSTORE PUSH1 0x0 DUP1 MLOAD PUSH1 0x20 PUSH2 0x304A DUP4 CODECOPY DUP2 MLOAD SWAP2 MSTORE PUSH1 0x44 DUP3 ADD MSTORE REVERT JUMPDEST SWAP1 SWAP2 SWAP3 PUSH1 0xF DUP2 AND PUSH1 0x10 DUP2 LT ISZERO PUSH2 0x29DF JUMPI PUSH16 0x181899199A1A9B1B9C1CB0B131B232B3 PUSH1 0x81 SHL SWAP1 BYTE PUSH2 0x29B5 DUP6 DUP9 PUSH2 0x2E00 JUMP JUMPDEST MSTORE8 PUSH1 0x4 SHR SWAP3 DUP1 ISZERO PUSH2 0x29CB JUMPI PUSH1 0x0 NOT ADD SWAP2 SWAP1 PUSH2 0x28AB JUMP JUMPDEST PUSH4 0x4E487B71 PUSH1 0xE0 SHL DUP3 MSTORE PUSH1 0x11 PUSH1 0x4 MSTORE PUSH1 0x24 DUP3 REVERT JUMPDEST PUSH4 0x4E487B71 PUSH1 0xE0 SHL DUP4 MSTORE PUSH1 0x32 PUSH1 0x4 MSTORE PUSH1 0x24 DUP4 REVERT JUMPDEST PUSH4 0x4E487B71 PUSH1 0xE0 SHL DUP2 MSTORE PUSH1 0x32 PUSH1 0x4 MSTORE PUSH1 0x24 SWAP1 REVERT JUMPDEST PUSH4 0x4E487B71 PUSH1 0xE0 SHL DUP7 MSTORE PUSH1 0x41 PUSH1 0x4 MSTORE PUSH1 0x24 DUP7 REVERT JUMPDEST PUSH1 0x64 DUP8 DUP10 MLOAD SWAP1 PUSH3 0x461BCD PUSH1 0xE5 SHL DUP3 MSTORE DUP1 PUSH1 0x4 DUP4 ADD MSTORE PUSH1 0x24 DUP3 ADD MSTORE PUSH1 0x0 DUP1 MLOAD PUSH1 0x20 PUSH2 0x304A DUP4 CODECOPY DUP2 MLOAD SWAP2 MSTORE PUSH1 0x44 DUP3 ADD MSTORE REVERT JUMPDEST SWAP1 PUSH1 0xF DUP2 AND PUSH1 0x10 DUP2 LT ISZERO PUSH2 0x2AA1 JUMPI PUSH16 0x181899199A1A9B1B9C1CB0B131B232B3 PUSH1 0x81 SHL SWAP1 BYTE PUSH2 0x2A79 DUP4 DUP11 PUSH2 0x2E00 JUMP JUMPDEST MSTORE8 PUSH1 0x4 SHR SWAP1 DUP1 ISZERO PUSH2 0x2A8D JUMPI PUSH1 0x0 NOT ADD PUSH2 0x285C JUMP JUMPDEST PUSH4 0x4E487B71 PUSH1 0xE0 SHL DUP8 MSTORE PUSH1 0x11 PUSH1 0x4 MSTORE PUSH1 0x24 DUP8 REVERT JUMPDEST PUSH4 0x4E487B71 PUSH1 0xE0 SHL DUP9 MSTORE PUSH1 0x32 PUSH1 0x4 MSTORE PUSH1 0x24 DUP9 REVERT JUMPDEST PUSH4 0x4E487B71 PUSH1 0xE0 SHL DUP7 MSTORE PUSH1 0x32 PUSH1 0x4 MSTORE PUSH1 0x24 DUP7 REVERT JUMPDEST PUSH4 0x4E487B71 PUSH1 0xE0 SHL DUP6 MSTORE PUSH1 0x32 PUSH1 0x4 MSTORE PUSH1 0x24 DUP6 REVERT JUMPDEST PUSH4 0x4E487B71 PUSH1 0xE0 SHL DUP6 MSTORE PUSH1 0x41 PUSH1 0x4 MSTORE PUSH1 0x24 DUP6 REVERT JUMPDEST SWAP1 PUSH1 0x0 SWAP2 DUP1 DUP4 MSTORE PUSH1 0x5 PUSH1 0x20 MSTORE PUSH1 0x40 DUP4 KECCAK256 SWAP2 PUSH1 0x1 DUP1 PUSH1 0xA0 SHL SUB AND SWAP2 DUP3 DUP5 MSTORE PUSH1 0x20 MSTORE PUSH1 0xFF PUSH1 0x40 DUP5 KECCAK256 SLOAD AND PUSH2 0x2B22 JUMPI POP POP POP JUMP JUMPDEST DUP1 DUP4 MSTORE PUSH1 0x5 PUSH1 0x20 MSTORE PUSH1 0x40 DUP4 KECCAK256 DUP3 DUP5 MSTORE PUSH1 0x20 MSTORE PUSH1 0x40 DUP4 KECCAK256 PUSH1 0xFF NOT DUP2 SLOAD AND SWAP1 SSTORE PUSH32 0xF6391F5C32D9C69D2A47EA670B442974B53935D1EDC7FD64EB21E047A839171B CALLER SWAP4 DUP1 LOG4 JUMP JUMPDEST PUSH1 0x1 PUSH1 0x1 PUSH1 0xA0 SHL SUB AND PUSH1 0x0 SWAP1 DUP2 MSTORE PUSH1 0x20 DUP2 SWAP1 MSTORE PUSH1 0x40 SWAP1 KECCAK256 SLOAD SWAP1 JUMP JUMPDEST SWAP2 SWAP1 DUP3 ADD DUP1 SWAP3 GT PUSH2 0x1527 JUMPI JUMP JUMPDEST PUSH1 0x1 PUSH1 0x1 PUSH1 0xA0 SHL SUB SWAP1 DUP2 AND SWAP2 DUP3 ISZERO PUSH2 0x2C98 JUMPI AND SWAP2 DUP3 ISZERO PUSH2 0x2C47 JUMPI PUSH1 0x0 DUP3 DUP2 MSTORE DUP1 PUSH1 0x20 MSTORE PUSH1 0x40 DUP2 KECCAK256 SLOAD SWAP2 DUP1 DUP4 LT PUSH2 0x2BF3 JUMPI PUSH1 0x40 DUP3 DUP3 PUSH1 0x0 DUP1 MLOAD PUSH1 0x20 PUSH2 0x308A DUP4 CODECOPY DUP2 MLOAD SWAP2 MSTORE SWAP6 DUP8 PUSH1 0x20 SWAP7 MSTORE DUP3 DUP7 MSTORE SUB DUP3 DUP3 KECCAK256 SSTORE DUP7 DUP2 MSTORE KECCAK256 DUP2 DUP2 SLOAD ADD SWAP1 SSTORE PUSH1 0x40 MLOAD SWAP1 DUP2 MSTORE LOG3 JUMP JUMPDEST PUSH1 0x40 MLOAD PUSH3 0x461BCD PUSH1 0xE5 SHL DUP2 MSTORE PUSH1 0x20 PUSH1 0x4 DUP3 ADD MSTORE PUSH1 0x26 PUSH1 0x24 DUP3 ADD MSTORE PUSH32 0x45524332303A207472616E7366657220616D6F756E7420657863656564732062 PUSH1 0x44 DUP3 ADD MSTORE PUSH6 0x616C616E6365 PUSH1 0xD0 SHL PUSH1 0x64 DUP3 ADD MSTORE PUSH1 0x84 SWAP1 REVERT JUMPDEST PUSH1 0x40 MLOAD PUSH3 0x461BCD PUSH1 0xE5 SHL DUP2 MSTORE PUSH1 0x20 PUSH1 0x4 DUP3 ADD MSTORE PUSH1 0x23 PUSH1 0x24 DUP3 ADD MSTORE PUSH32 0x45524332303A207472616E7366657220746F20746865207A65726F2061646472 PUSH1 0x44 DUP3 ADD MSTORE PUSH3 0x657373 PUSH1 0xE8 SHL PUSH1 0x64 DUP3 ADD MSTORE PUSH1 0x84 SWAP1 REVERT JUMPDEST PUSH1 0x40 MLOAD PUSH3 0x461BCD PUSH1 0xE5 SHL DUP2 MSTORE PUSH1 0x20 PUSH1 0x4 DUP3 ADD MSTORE PUSH1 0x25 PUSH1 0x24 DUP3 ADD MSTORE PUSH32 0x45524332303A207472616E736665722066726F6D20746865207A65726F206164 PUSH1 0x44 DUP3 ADD MSTORE PUSH5 0x6472657373 PUSH1 0xD8 SHL PUSH1 0x64 DUP3 ADD MSTORE PUSH1 0x84 SWAP1 REVERT JUMPDEST PUSH1 0x1 PUSH1 0x1 PUSH1 0xA0 SHL SUB SWAP1 DUP2 AND SWAP2 DUP3 ISZERO PUSH2 0x2D9C JUMPI AND SWAP2 DUP3 ISZERO PUSH2 0x2D4C JUMPI PUSH1 0x20 PUSH32 0x8C5BE1E5EBEC7D5BD14F71427D1E84F3DD0314C0F7B2291E5B200AC8C7C3B925 SWAP2 DUP4 PUSH1 0x0 MSTORE PUSH1 0x1 DUP3 MSTORE PUSH1 0x40 PUSH1 0x0 KECCAK256 DUP6 PUSH1 0x0 MSTORE DUP3 MSTORE DUP1 PUSH1 0x40 PUSH1 0x0 KECCAK256 SSTORE PUSH1 0x40 MLOAD SWAP1 DUP2 MSTORE LOG3 JUMP JUMPDEST PUSH1 0x40 MLOAD PUSH3 0x461BCD PUSH1 0xE5 SHL DUP2 MSTORE PUSH1 0x20 PUSH1 0x4 DUP3 ADD MSTORE PUSH1 0x22 PUSH1 0x24 DUP3 ADD MSTORE PUSH32 0x45524332303A20617070726F766520746F20746865207A65726F206164647265 PUSH1 0x44 DUP3 ADD MSTORE PUSH2 0x7373 PUSH1 0xF0 SHL PUSH1 0x64 DUP3 ADD MSTORE PUSH1 0x84 SWAP1 REVERT JUMPDEST PUSH1 0x40 MLOAD PUSH3 0x461BCD PUSH1 0xE5 SHL DUP2 MSTORE PUSH1 0x20 PUSH1 0x4 DUP3 ADD MSTORE PUSH1 0x24 DUP1 DUP3 ADD MSTORE PUSH32 0x45524332303A20617070726F76652066726F6D20746865207A65726F20616464 PUSH1 0x44 DUP3 ADD MSTORE PUSH4 0x72657373 PUSH1 0xE0 SHL PUSH1 0x64 DUP3 ADD MSTORE PUSH1 0x84 SWAP1 REVERT JUMPDEST DUP2 DUP2 MUL SWAP3 SWAP2 DUP2 ISZERO SWAP2 DUP5 DIV EQ OR ISZERO PUSH2 0x1527 JUMPI JUMP JUMPDEST SWAP1 DUP2 MLOAD DUP2 LT ISZERO PUSH2 0x2E11 JUMPI ADD PUSH1 0x20 ADD SWAP1 JUMP JUMPDEST PUSH4 0x4E487B71 PUSH1 0xE0 SHL PUSH1 0x0 MSTORE PUSH1 0x32 PUSH1 0x4 MSTORE PUSH1 0x24 PUSH1 0x0 REVERT JUMPDEST SWAP1 SWAP5 SWAP4 SWAP3 PUSH1 0x60 SWAP3 PUSH1 0x80 DUP4 ADD SWAP7 DUP4 MSTORE PUSH1 0x20 DUP4 ADD MSTORE PUSH1 0x40 DUP3 ADD MSTORE ADD MSTORE JUMP JUMPDEST ISZERO PUSH2 0x2E4A JUMPI JUMP JUMPDEST PUSH1 0x40 MLOAD PUSH3 0x461BCD PUSH1 0xE5 SHL DUP2 MSTORE PUSH1 0x20 PUSH1 0x4 DUP3 ADD MSTORE PUSH1 0x15 PUSH1 0x24 DUP3 ADD MSTORE PUSH21 0x115CDD185D1948191BD95CC81B9BDD08195E1A5CDD PUSH1 0x5A SHL PUSH1 0x44 DUP3 ADD MSTORE PUSH1 0x64 SWAP1 REVERT JUMPDEST ISZERO PUSH2 0x2E8E JUMPI JUMP JUMPDEST PUSH1 0x40 MLOAD PUSH3 0x461BCD PUSH1 0xE5 SHL DUP2 MSTORE PUSH1 0x20 PUSH1 0x4 DUP3 ADD MSTORE PUSH1 0x10 PUSH1 0x24 DUP3 ADD MSTORE PUSH16 0x2737BA1032B9BA30BA329037BBB732B9 PUSH1 0x81 SHL PUSH1 0x44 DUP3 ADD MSTORE PUSH1 0x64 SWAP1 REVERT JUMPDEST ISZERO PUSH2 0x2ECD JUMPI JUMP JUMPDEST PUSH1 0x40 MLOAD PUSH3 0x461BCD PUSH1 0xE5 SHL DUP2 MSTORE PUSH1 0x20 PUSH1 0x4 DUP3 ADD MSTORE PUSH1 0x10 PUSH1 0x24 DUP3 ADD MSTORE PUSH16 0x115CDD185D19481A5CC81B1BD8DAD959 PUSH1 0x82 SHL PUSH1 0x44 DUP3 ADD MSTORE PUSH1 0x64 SWAP1 REVERT JUMPDEST ISZERO PUSH2 0x2F0C JUMPI JUMP JUMPDEST PUSH1 0x40 MLOAD PUSH3 0x461BCD PUSH1 0xE5 SHL DUP2 MSTORE PUSH1 0x20 PUSH1 0x4 DUP3 ADD MSTORE PUSH1 0x13 PUSH1 0x24 DUP3 ADD MSTORE PUSH19 0x45737461746520697320636C61696D61626C65 PUSH1 0x68 SHL PUSH1 0x44 DUP3 ADD MSTORE PUSH1 0x64 SWAP1 REVERT JUMPDEST PUSH1 0x0 NOT DUP2 EQ PUSH2 0x1527 JUMPI PUSH1 0x1 ADD SWAP1 JUMP JUMPDEST DUP1 MLOAD DUP3 LT ISZERO PUSH2 0x2E11 JUMPI PUSH1 0x20 SWAP2 PUSH1 0x5 SHL ADD ADD SWAP1 JUMP JUMPDEST DUP2 DUP2 LT PUSH2 0x2F75 JUMPI POP POP JUMP JUMPDEST PUSH1 0x0 DUP2 SSTORE PUSH1 0x1 ADD PUSH2 0x2F6A JUMP JUMPDEST PUSH2 0x2F8B DUP2 SLOAD PUSH2 0x26E8 JUMP JUMPDEST SWAP1 DUP2 PUSH2 0x2F95 JUMPI POP POP JUMP JUMPDEST DUP2 PUSH1 0x1F PUSH1 0x0 SWAP4 GT PUSH1 0x1 EQ PUSH2 0x2FA7 JUMPI POP SSTORE JUMP JUMPDEST SWAP1 DUP1 DUP4 SWAP2 DUP3 MSTORE PUSH2 0x2FC6 PUSH1 0x1F PUSH1 0x20 DUP5 KECCAK256 SWAP5 ADD PUSH1 0x5 SHR DUP5 ADD PUSH1 0x1 DUP6 ADD PUSH2 0x2F6A JUMP JUMPDEST SSTORE SSTORE JUMP JUMPDEST DUP1 SLOAD DUP3 LT ISZERO PUSH2 0x2E11 JUMPI PUSH1 0x0 MSTORE PUSH1 0x5 PUSH1 0x20 PUSH1 0x0 KECCAK256 SWAP2 MUL ADD SWAP1 PUSH1 0x0 SWAP1 JUMP JUMPDEST SWAP2 SWAP1 DUP3 SUB SWAP2 DUP3 GT PUSH2 0x1527 JUMPI JUMP JUMPDEST SWAP1 PUSH1 0x40 MLOAD PUSH2 0x3000 DUP2 PUSH2 0x2605 JUMP JUMPDEST DUP3 SLOAD PUSH1 0x1 PUSH1 0x1 PUSH1 0xA0 SHL SUB AND DUP2 MSTORE PUSH1 0x1 DUP4 ADD SLOAD PUSH1 0x20 DUP3 ADD MSTORE SWAP2 DUP3 SWAP1 PUSH1 0x80 SWAP1 PUSH1 0x4 SWAP1 PUSH2 0x302C PUSH1 0x2 DUP3 ADD PUSH2 0x2722 JUMP JUMPDEST PUSH1 0x40 DUP6 ADD MSTORE PUSH2 0x303D PUSH1 0x3 DUP3 ADD PUSH2 0x2722 JUMP JUMPDEST PUSH1 0x60 DUP6 ADD MSTORE ADD SLOAD SWAP2 ADD MSTORE JUMP INVALID MSTORE8 PUSH21 0x72696E67733A20686578206C656E67746820696E73 PUSH22 0x6666696369656E748B9849C4ECD9DBD48EF4C9FE9F6C CALLCODE 0x5E 0xD6 PUSH23 0x9E832EB22EB3C5A34C3460183C1CDDF252AD1BE2C89B69 0xC2 0xB0 PUSH9 0xFC378DAA952BA7F163 0xC4 LOG1 AND 0x28 CREATE2 GAS 0x4D CREATE2 0x23 0xB3 0xEF LOG2 PUSH5 0x6970667358 0x22 SLT KECCAK256 PUSH32 0xCF62A5B2C9572CEF2C4331E939F75E0D16928C198D02743D802F2DFA9C68864 PUSH20 0x6F6C634300081300332F8788117E7EFF1D82E926 0xEC PUSH26 0x4901D17C78024A50270940304540A733656F0D00000000000000 "},"methodIdentifiers":{"ADMIN_ROLE()":"75b238fc","DEFAULT_ADMIN_ROLE()":"a217fddf","ESTATE_FEE()":"1a7fdcd2","MAX_BENEFICIARIES()":"2348dd18","MAX_GRACE_PERIOD()":"46619649","MAX_INACTIVITY_PERIOD()":"8493eb25","MIN_GRACE_PERIOD()":"883a0038","MIN_INACTIVITY_PERIOD()":"b106d2d2","RWA_FEE()":"374c8d27","allowance(address,address)":"dd62ed3e","approve(address,uint256)":"095ea7b3","balanceOf(address)":"70a08231","checkIn(uint256)":"e95a644f","claimInheritance(uint256,uint256)":"167bb9d0","claimRecords(uint256,address)":"a0ec0e08","createEstate(uint256,uint256,bytes32)":"c906d2d0","createRWA(uint256,string,string,uint256,string)":"2da413fc","decimals()":"313ce567","decreaseAllowance(address,uint256)":"a457c2d7","deleteRWA(uint256,uint256)":"3899ad0b","estates(uint256)":"d70f83c2","getClaimRecord(uint256,address)":"10db0c29","getEstate(uint256)":"786420d1","getRWA(uint256)":"ddca659b","getRoleAdmin(bytes32)":"248a9ca3","grantRole(bytes32,address)":"2f2ff15d","hasRole(bytes32,address)":"91d14854","increaseAllowance(address,uint256)":"39509351","name()":"06fdde03","paused()":"5c975abb","renounceRole(bytes32,address)":"36568abe","revokeRole(bytes32,address)":"d547741f","rwas(uint256)":"6cf7adac","supportsInterface(bytes4)":"01ffc9a7","symbol()":"95d89b41","totalSupply()":"18160ddd","transfer(address,uint256)":"a9059cbb","transferFrom(address,address,uint256)":"23b872dd","triggerInheritance(uint256)":"c041cd13","updateBeneficiaries(uint256,(address,uint256,string,string,bytes32)[])":"51ded3b5"}},"storageLayout":{"storage":[{"astId":577,"contract":"contracts/DefAIEstateMinimal.sol:DefAIEstateMinimal","label":"_balances","offset":0,"slot":"0","type":"t_mapping(t_address,t_uint256)"},{"astId":583,"contract":"contracts/DefAIEstateMinimal.sol:DefAIEstateMinimal","label":"_allowances","offset":0,"slot":"1","type":"t_mapping(t_address,t_mapping(t_address,t_uint256))"},{"astId":585,"contract":"contracts/DefAIEstateMinimal.sol:DefAIEstateMinimal","label":"_totalSupply","offset":0,"slot":"2","type":"t_uint256"},{"astId":587,"contract":"contracts/DefAIEstateMinimal.sol:DefAIEstateMinimal","label":"_name","offset":0,"slot":"3","type":"t_string_storage"},{"astId":589,"contract":"contracts/DefAIEstateMinimal.sol:DefAIEstateMinimal","label":"_symbol","offset":0,"slot":"4","type":"t_string_storage"},{"astId":24,"contract":"contracts/DefAIEstateMinimal.sol:DefAIEstateMinimal","label":"_roles","offset":0,"slot":"5","type":"t_mapping(t_bytes32,t_struct(RoleData)19_storage)"},{"astId":507,"contract":"contracts/DefAIEstateMinimal.sol:DefAIEstateMinimal","label":"_status","offset":0,"slot":"6","type":"t_uint256"},{"astId":406,"contract":"contracts/DefAIEstateMinimal.sol:DefAIEstateMinimal","label":"_paused","offset":0,"slot":"7","type":"t_bool"},{"astId":2717,"contract":"contracts/DefAIEstateMinimal.sol:DefAIEstateMinimal","label":"_estateIdCounter","offset":0,"slot":"8","type":"t_struct(Counter)1287_storage"},{"astId":2720,"contract":"contracts/DefAIEstateMinimal.sol:DefAIEstateMinimal","label":"_rwaIdCounter","offset":0,"slot":"9","type":"t_struct(Counter)1287_storage"},{"astId":2725,"contract":"contracts/DefAIEstateMinimal.sol:DefAIEstateMinimal","label":"estates","offset":0,"slot":"10","type":"t_mapping(t_uint256,t_struct(Estate)2680_storage)"},{"astId":2730,"contract":"contracts/DefAIEstateMinimal.sol:DefAIEstateMinimal","label":"rwas","offset":0,"slot":"11","type":"t_mapping(t_uint256,t_struct(RWA)2699_storage)"},{"astId":2737,"contract":"contracts/DefAIEstateMinimal.sol:DefAIEstateMinimal","label":"claimRecords","offset":0,"slot":"12","type":"t_mapping(t_uint256,t_mapping(t_address,t_struct(ClaimRecord)2714_storage))"}],"types":{"t_address":{"encoding":"inplace","label":"address","numberOfBytes":"20"},"t_array(t_struct(Beneficiary)2649_storage)dyn_storage":{"base":"t_struct(Beneficiary)2649_storage","encoding":"dynamic_array","label":"struct DefAIEstateMinimal.Beneficiary[]","numberOfBytes":"32"},"t_bool":{"encoding":"inplace","label":"bool","numberOfBytes":"1"},"t_bytes32":{"encoding":"inplace","label":"bytes32","numberOfBytes":"32"},"t_mapping(t_address,t_bool)":{"encoding":"mapping","key":"t_address","label":"mapping(address => bool)","numberOfBytes":"32","value":"t_bool"},"t_mapping(t_address,t_mapping(t_address,t_uint256))":{"encoding":"mapping","key":"t_address","label":"mapping(address => mapping(address => uint256))","numberOfBytes":"32","value":"t_mapping(t_address,t_uint256)"},"t_mapping(t_address,t_struct(ClaimRecord)2714_storage)":{"encoding":"mapping","key":"t_address","label":"mapping(address => struct DefAIEstateMinimal.ClaimRecord)","numberOfBytes":"32","value":"t_struct(ClaimRecord)2714_storage"},"t_mapping(t_address,t_uint256)":{"encoding":"mapping","key":"t_address","label":"mapping(address => uint256)","numberOfBytes":"32","value":"t_uint256"},"t_mapping(t_bytes32,t_struct(RoleData)19_storage)":{"encoding":"mapping","key":"t_bytes32","label":"mapping(bytes32 => struct AccessControl.RoleData)","numberOfBytes":"32","value":"t_struct(RoleData)19_storage"},"t_mapping(t_uint256,t_mapping(t_address,t_struct(ClaimRecord)2714_storage))":{"encoding":"mapping","key":"t_uint256","label":"mapping(uint256 => mapping(address => struct DefAIEstateMinimal.ClaimRecord))","numberOfBytes":"32","value":"t_mapping(t_address,t_struct(ClaimRecord)2714_storage)"},"t_mapping(t_uint256,t_struct(Estate)2680_storage)":{"encoding":"mapping","key":"t_uint256","label":"mapping(uint256 => struct DefAIEstateMinimal.Estate)","numberOfBytes":"32","value":"t_struct(Estate)2680_storage"},"t_mapping(t_uint256,t_struct(RWA)2699_storage)":{"encoding":"mapping","key":"t_uint256","label":"mapping(uint256 => struct DefAIEstateMinimal.RWA)","numberOfBytes":"32","value":"t_struct(RWA)2699_storage"},"t_string_storage":{"encoding":"bytes","label":"string","numberOfBytes":"32"},"t_struct(Beneficiary)2649_storage":{"encoding":"inplace","label":"struct DefAIEstateMinimal.Beneficiary","members":[{"astId":2640,"contract":"contracts/DefAIEstateMinimal.sol:DefAIEstateMinimal","label":"wallet","offset":0,"slot":"0","type":"t_address"},{"astId":2642,"contract":"contracts/DefAIEstateMinimal.sol:DefAIEstateMinimal","label":"share","offset":0,"slot":"1","type":"t_uint256"},{"astId":2644,"contract":"contracts/DefAIEstateMinimal.sol:DefAIEstateMinimal","label":"name","offset":0,"slot":"2","type":"t_string_storage"},{"astId":2646,"contract":"contracts/DefAIEstateMinimal.sol:DefAIEstateMinimal","label":"relationship","offset":0,"slot":"3","type":"t_string_storage"},{"astId":2648,"contract":"contracts/DefAIEstateMinimal.sol:DefAIEstateMinimal","label":"emailHash","offset":0,"slot":"4","type":"t_bytes32"}],"numberOfBytes":"160"},"t_struct(ClaimRecord)2714_storage":{"encoding":"inplace","label":"struct DefAIEstateMinimal.ClaimRecord","members":[{"astId":2701,"contract":"contracts/DefAIEstateMinimal.sol:DefAIEstateMinimal","label":"estateId","offset":0,"slot":"0","type":"t_uint256"},{"astId":2703,"contract":"contracts/DefAIEstateMinimal.sol:DefAIEstateMinimal","label":"beneficiary","offset":0,"slot":"1","type":"t_address"},{"astId":2705,"contract":"contracts/DefAIEstateMinimal.sol:DefAIEstateMinimal","label":"sharePercentage","offset":0,"slot":"2","type":"t_uint256"},{"astId":2707,"contract":"contracts/DefAIEstateMinimal.sol:DefAIEstateMinimal","label":"claimTime","offset":0,"slot":"3","type":"t_uint256"},{"astId":2709,"contract":"contracts/DefAIEstateMinimal.sol:DefAIEstateMinimal","label":"solAmount","offset":0,"slot":"4","type":"t_uint256"},{"astId":2711,"contract":"contracts/DefAIEstateMinimal.sol:DefAIEstateMinimal","label":"estateTokenAmount","offset":0,"slot":"5","type":"t_uint256"},{"astId":2713,"contract":"contracts/DefAIEstateMinimal.sol:DefAIEstateMinimal","label":"claimed","offset":0,"slot":"6","type":"t_bool"}],"numberOfBytes":"224"},"t_struct(Counter)1287_storage":{"encoding":"inplace","label":"struct Counters.Counter","members":[{"astId":1286,"contract":"contracts/DefAIEstateMinimal.sol:DefAIEstateMinimal","label":"_value","offset":0,"slot":"0","type":"t_uint256"}],"numberOfBytes":"32"},"t_struct(Estate)2680_storage":{"encoding":"inplace","label":"struct DefAIEstateMinimal.Estate","members":[{"astId":2651,"contract":"contracts/DefAIEstateMinimal.sol:DefAIEstateMinimal","label":"estateId","offset":0,"slot":"0","type":"t_uint256"},{"astId":2653,"contract":"contracts/DefAIEstateMinimal.sol:DefAIEstateMinimal","label":"owner","offset":0,"slot":"1","type":"t_address"},{"astId":2655,"contract":"contracts/DefAIEstateMinimal.sol:DefAIEstateMinimal","label":"ownerEmailHash","offset":0,"slot":"2","type":"t_bytes32"},{"astId":2657,"contract":"contracts/DefAIEstateMinimal.sol:DefAIEstateMinimal","label":"lastActive","offset":0,"slot":"3","type":"t_uint256"},{"astId":2659,"contract":"contracts/DefAIEstateMinimal.sol:DefAIEstateMinimal","label":"inactivityPeriod","offset":0,"slot":"4","type":"t_uint256"},{"astId":2661,"contract":"contracts/DefAIEstateMinimal.sol:DefAIEstateMinimal","label":"gracePeriod","offset":0,"slot":"5","type":"t_uint256"},{"astId":2665,"contract":"contracts/DefAIEstateMinimal.sol:DefAIEstateMinimal","label":"beneficiaries","offset":0,"slot":"6","type":"t_array(t_struct(Beneficiary)2649_storage)dyn_storage"},{"astId":2667,"contract":"contracts/DefAIEstateMinimal.sol:DefAIEstateMinimal","label":"totalBeneficiaries","offset":0,"slot":"7","type":"t_uint256"},{"astId":2669,"contract":"contracts/DefAIEstateMinimal.sol:DefAIEstateMinimal","label":"creationTime","offset":0,"slot":"8","type":"t_uint256"},{"astId":2671,"contract":"contracts/DefAIEstateMinimal.sol:DefAIEstateMinimal","label":"estateValue","offset":0,"slot":"9","type":"t_uint256"},{"astId":2673,"contract":"contracts/DefAIEstateMinimal.sol:DefAIEstateMinimal","label":"isLocked","offset":0,"slot":"10","type":"t_bool"},{"astId":2675,"contract":"contracts/DefAIEstateMinimal.sol:DefAIEstateMinimal","label":"isClaimable","offset":1,"slot":"10","type":"t_bool"},{"astId":2677,"contract":"contracts/DefAIEstateMinimal.sol:DefAIEstateMinimal","label":"estateNumber","offset":0,"slot":"11","type":"t_uint256"},{"astId":2679,"contract":"contracts/DefAIEstateMinimal.sol:DefAIEstateMinimal","label":"totalClaims","offset":0,"slot":"12","type":"t_uint256"}],"numberOfBytes":"416"},"t_struct(RWA)2699_storage":{"encoding":"inplace","label":"struct DefAIEstateMinimal.RWA","members":[{"astId":2682,"contract":"contracts/DefAIEstateMinimal.sol:DefAIEstateMinimal","label":"rwaId","offset":0,"slot":"0","type":"t_uint256"},{"astId":2684,"contract":"contracts/DefAIEstateMinimal.sol:DefAIEstateMinimal","label":"estateId","offset":0,"slot":"1","type":"t_uint256"},{"astId":2686,"contract":"contracts/DefAIEstateMinimal.sol:DefAIEstateMinimal","label":"assetType","offset":0,"slot":"2","type":"t_string_storage"},{"astId":2688,"contract":"contracts/DefAIEstateMinimal.sol:DefAIEstateMinimal","label":"description","offset":0,"slot":"3","type":"t_string_storage"},{"astId":2690,"contract":"contracts/DefAIEstateMinimal.sol:DefAIEstateMinimal","label":"value","offset":0,"slot":"4","type":"t_uint256"},{"astId":2692,"contract":"contracts/DefAIEstateMinimal.sol:DefAIEstateMinimal","label":"createdAt","offset":0,"slot":"5","type":"t_uint256"},{"astId":2694,"contract":"contracts/DefAIEstateMinimal.sol:DefAIEstateMinimal","label":"isDeleted","offset":0,"slot":"6","type":"t_bool"},{"astId":2696,"contract":"contracts/DefAIEstateMinimal.sol:DefAIEstateMinimal","label":"owner","offset":1,"slot":"6","type":"t_address"},{"astId":2698,"contract":"contracts/DefAIEstateMinimal.sol:DefAIEstateMinimal","label":"documentHash","offset":0,"slot":"7","type":"t_string_storage"}],"numberOfBytes":"256"},"t_struct(RoleData)19_storage":{"encoding":"inplace","label":"struct AccessControl.RoleData","members":[{"astId":16,"contract":"contracts/DefAIEstateMinimal.sol:DefAIEstateMinimal","label":"members","offset":0,"slot":"0","type":"t_mapping(t_address,t_bool)"},{"astId":18,"contract":"contracts/DefAIEstateMinimal.sol:DefAIEstateMinimal","label":"adminRole","offset":0,"slot":"1","type":"t_bytes32"}],"numberOfBytes":"64"},"t_uint256":{"encoding":"inplace","label":"uint256","numberOfBytes":"32"}}}}}}