{"contracts/EmergencyManager.sol":{"EmergencyManager":{"abi":[{"inputs":[{"internalType":"address","name":"_defaiEstate","type":"address"}],"stateMutability":"nonpayable","type":"constructor"},{"anonymous":false,"inputs":[{"indexed":true,"internalType":"uint256","name":"estateId","type":"uint256"},{"indexed":true,"internalType":"address","name":"executor","type":"address"},{"indexed":true,"internalType":"address","name":"multisig","type":"address"},{"indexed":false,"internalType":"uint256","name":"timestamp","type":"uint256"}],"name":"EmergencyForceUnlock","type":"event"},{"anonymous":false,"inputs":[{"indexed":true,"internalType":"uint256","name":"estateId","type":"uint256"},{"indexed":false,"internalType":"enum EmergencyManager.LockType","name":"lockType","type":"uint8"},{"indexed":false,"internalType":"string","name":"reason","type":"string"},{"indexed":true,"internalType":"address","name":"initiator","type":"address"},{"indexed":false,"internalType":"uint256","name":"timestamp","type":"uint256"}],"name":"EmergencyLockInitiated","type":"event"},{"anonymous":false,"inputs":[{"indexed":true,"internalType":"uint256","name":"estateId","type":"uint256"},{"indexed":true,"internalType":"address","name":"attempter","type":"address"},{"indexed":false,"internalType":"string","name":"reason","type":"string"},{"indexed":false,"internalType":"uint256","name":"timestamp","type":"uint256"}],"name":"EmergencyUnlockFailed","type":"event"},{"anonymous":false,"inputs":[{"indexed":true,"internalType":"uint256","name":"estateId","type":"uint256"},{"indexed":true,"internalType":"address","name":"executor","type":"address"},{"indexed":false,"internalType":"uint256","name":"attempts","type":"uint256"},{"indexed":false,"internalType":"uint256","name":"timestamp","type":"uint256"}],"name":"EmergencyUnlockSuccessful","type":"event"},{"anonymous":false,"inputs":[{"indexed":true,"internalType":"uint256","name":"estateId","type":"uint256"},{"indexed":true,"internalType":"address","name":"guardian","type":"address"},{"indexed":false,"internalType":"uint256","name":"timestamp","type":"uint256"}],"name":"GuardianAdded","type":"event"},{"anonymous":false,"inputs":[{"indexed":true,"internalType":"uint256","name":"estateId","type":"uint256"},{"indexed":true,"internalType":"address","name":"guardian","type":"address"},{"indexed":false,"internalType":"bool","name":"approved","type":"bool"},{"indexed":false,"internalType":"uint256","name":"timestamp","type":"uint256"}],"name":"GuardianApproval","type":"event"},{"anonymous":false,"inputs":[{"indexed":true,"internalType":"uint256","name":"estateId","type":"uint256"},{"indexed":true,"internalType":"address","name":"guardian","type":"address"},{"indexed":false,"internalType":"uint256","name":"timestamp","type":"uint256"}],"name":"GuardianRemoved","type":"event"},{"anonymous":false,"inputs":[{"indexed":false,"internalType":"address","name":"account","type":"address"}],"name":"Paused","type":"event"},{"anonymous":false,"inputs":[{"indexed":true,"internalType":"bytes32","name":"role","type":"bytes32"},{"indexed":true,"internalType":"bytes32","name":"previousAdminRole","type":"bytes32"},{"indexed":true,"internalType":"bytes32","name":"newAdminRole","type":"bytes32"}],"name":"RoleAdminChanged","type":"event"},{"anonymous":false,"inputs":[{"indexed":true,"internalType":"bytes32","name":"role","type":"bytes32"},{"indexed":true,"internalType":"address","name":"account","type":"address"},{"indexed":true,"internalType":"address","name":"sender","type":"address"}],"name":"RoleGranted","type":"event"},{"anonymous":false,"inputs":[{"indexed":true,"internalType":"bytes32","name":"role","type":"bytes32"},{"indexed":true,"internalType":"address","name":"account","type":"address"},{"indexed":true,"internalType":"address","name":"sender","type":"address"}],"name":"RoleRevoked","type":"event"},{"anonymous":false,"inputs":[{"indexed":false,"internalType":"address","name":"account","type":"address"}],"name":"Unpaused","type":"event"},{"inputs":[],"name":"DEFAULT_ADMIN_ROLE","outputs":[{"internalType":"bytes32","name":"","type":"bytes32"}],"stateMutability":"view","type":"function"},{"inputs":[],"name":"GUARDIAN_ROLE","outputs":[{"internalType":"bytes32","name":"","type":"bytes32"}],"stateMutability":"view","type":"function"},{"inputs":[],"name":"OPERATOR_ROLE","outputs":[{"internalType":"bytes32","name":"","type":"bytes32"}],"stateMutability":"view","type":"function"},{"inputs":[{"internalType":"uint256","name":"estateId","type":"uint256"},{"internalType":"address","name":"guardian","type":"address"}],"name":"addGuardian","outputs":[],"stateMutability":"nonpayable","type":"function"},{"inputs":[{"internalType":"uint256","name":"estateId","type":"uint256"}],"name":"approveUnlock","outputs":[],"stateMutability":"nonpayable","type":"function"},{"inputs":[{"internalType":"uint256","name":"estateId","type":"uint256"},{"internalType":"string","name":"","type":"string"}],"name":"attemptEmergencyUnlock","outputs":[],"stateMutability":"nonpayable","type":"function"},{"inputs":[{"internalType":"uint256","name":"estateId","type":"uint256"}],"name":"canUnlock","outputs":[{"internalType":"bool","name":"","type":"bool"}],"stateMutability":"view","type":"function"},{"inputs":[],"name":"config","outputs":[{"internalType":"uint256","name":"maxUnlockAttempts","type":"uint256"},{"internalType":"uint256","name":"unlockCooldown","type":"uint256"},{"internalType":"uint256","name":"emergencyPauseDuration","type":"uint256"},{"internalType":"bool","name":"requireMultisigForUnlock","type":"bool"},{"internalType":"uint256","name":"minGuardiansForAction","type":"uint256"}],"stateMutability":"view","type":"function"},{"inputs":[],"name":"defaiEstate","outputs":[{"internalType":"contract IDefAIEstate","name":"","type":"address"}],"stateMutability":"view","type":"function"},{"inputs":[{"internalType":"uint256","name":"","type":"uint256"}],"name":"emergencyLocks","outputs":[{"internalType":"uint256","name":"estateId","type":"uint256"},{"internalType":"enum EmergencyManager.LockType","name":"lockType","type":"uint8"},{"internalType":"string","name":"reason","type":"string"},{"internalType":"uint256","name":"lockedAt","type":"uint256"},{"internalType":"address","name":"lockedBy","type":"address"},{"internalType":"bool","name":"isActive","type":"bool"},{"internalType":"uint256","name":"unlockAttempts","type":"uint256"},{"internalType":"uint256","name":"lastUnlockAttempt","type":"uint256"}],"stateMutability":"view","type":"function"},{"inputs":[{"internalType":"uint256","name":"","type":"uint256"},{"internalType":"uint256","name":"","type":"uint256"}],"name":"estateGuardians","outputs":[{"internalType":"address","name":"","type":"address"}],"stateMutability":"view","type":"function"},{"inputs":[{"internalType":"uint256","name":"estateId","type":"uint256"}],"name":"forceUnlockByMultisig","outputs":[],"stateMutability":"nonpayable","type":"function"},{"inputs":[{"internalType":"uint256","name":"estateId","type":"uint256"}],"name":"getEmergencyLock","outputs":[{"components":[{"internalType":"uint256","name":"estateId","type":"uint256"},{"internalType":"enum EmergencyManager.LockType","name":"lockType","type":"uint8"},{"internalType":"string","name":"reason","type":"string"},{"internalType":"uint256","name":"lockedAt","type":"uint256"},{"internalType":"address","name":"lockedBy","type":"address"},{"internalType":"bool","name":"isActive","type":"bool"},{"internalType":"uint256","name":"unlockAttempts","type":"uint256"},{"internalType":"uint256","name":"lastUnlockAttempt","type":"uint256"}],"internalType":"struct EmergencyManager.EmergencyLock","name":"","type":"tuple"}],"stateMutability":"view","type":"function"},{"inputs":[{"internalType":"uint256","name":"estateId","type":"uint256"}],"name":"getEstateGuardians","outputs":[{"internalType":"address[]","name":"","type":"address[]"}],"stateMutability":"view","type":"function"},{"inputs":[{"internalType":"uint256","name":"estateId","type":"uint256"}],"name":"getGuardianApprovalCount","outputs":[{"internalType":"uint256","name":"","type":"uint256"}],"stateMutability":"view","type":"function"},{"inputs":[{"internalType":"bytes32","name":"role","type":"bytes32"}],"name":"getRoleAdmin","outputs":[{"internalType":"bytes32","name":"","type":"bytes32"}],"stateMutability":"view","type":"function"},{"inputs":[{"internalType":"bytes32","name":"role","type":"bytes32"},{"internalType":"address","name":"account","type":"address"}],"name":"grantRole","outputs":[],"stateMutability":"nonpayable","type":"function"},{"inputs":[{"internalType":"uint256","name":"","type":"uint256"},{"internalType":"address","name":"","type":"address"}],"name":"guardianApprovals","outputs":[{"internalType":"bool","name":"","type":"bool"}],"stateMutability":"view","type":"function"},{"inputs":[{"internalType":"bytes32","name":"role","type":"bytes32"},{"internalType":"address","name":"account","type":"address"}],"name":"hasRole","outputs":[{"internalType":"bool","name":"","type":"bool"}],"stateMutability":"view","type":"function"},{"inputs":[{"internalType":"uint256","name":"estateId","type":"uint256"},{"internalType":"enum EmergencyManager.LockType","name":"lockType","type":"uint8"},{"internalType":"string","name":"reason","type":"string"}],"name":"initiateEmergencyLock","outputs":[],"stateMutability":"nonpayable","type":"function"},{"inputs":[{"internalType":"uint256","name":"estateId","type":"uint256"}],"name":"isLocked","outputs":[{"internalType":"bool","name":"","type":"bool"}],"stateMutability":"view","type":"function"},{"inputs":[],"name":"pauseAllOperations","outputs":[],"stateMutability":"nonpayable","type":"function"},{"inputs":[],"name":"paused","outputs":[{"internalType":"bool","name":"","type":"bool"}],"stateMutability":"view","type":"function"},{"inputs":[{"internalType":"uint256","name":"estateId","type":"uint256"},{"internalType":"address","name":"guardian","type":"address"}],"name":"removeGuardian","outputs":[],"stateMutability":"nonpayable","type":"function"},{"inputs":[{"internalType":"bytes32","name":"role","type":"bytes32"},{"internalType":"address","name":"account","type":"address"}],"name":"renounceRole","outputs":[],"stateMutability":"nonpayable","type":"function"},{"inputs":[{"internalType":"uint256","name":"estateId","type":"uint256"}],"name":"revokeApproval","outputs":[],"stateMutability":"nonpayable","type":"function"},{"inputs":[{"internalType":"bytes32","name":"role","type":"bytes32"},{"internalType":"address","name":"account","type":"address"}],"name":"revokeRole","outputs":[],"stateMutability":"nonpayable","type":"function"},{"inputs":[{"internalType":"bytes4","name":"interfaceId","type":"bytes4"}],"name":"supportsInterface","outputs":[{"internalType":"bool","name":"","type":"bool"}],"stateMutability":"view","type":"function"},{"inputs":[],"name":"unpauseAllOperations","outputs":[],"stateMutability":"nonpayable","type":"function"},{"inputs":[{"internalType":"uint256","name":"maxUnlockAttempts","type":"uint256"},{"internalType":"uint256","name":"unlockCooldown","type":"uint256"},{"internalType":"uint256","name":"emergencyPauseDuration","type":"uint256"},{"internalType":"bool","name":"requireMultisigForUnlock","type":"bool"},{"internalType":"uint256","name":"minGuardiansForAction","type":"uint256"}],"name":"updateConfig","outputs":[],"stateMutability":"nonpayable","type":"function"}],"evm":{"bytecode":{"linkReferences":{},"object":"608034620001c657601f620027d938819003918201601f1916830192916001600160401b03919082851184861017620001cb5780849260409687528339602093849181010312620001c65751916001600160a01b0383168303620001c657600180546001600160a81b03191660089490941b610100600160a81b0316939093178355600080805280825284812033825282528481205490929060ff16156200018f575b7f55435dd261a4b9b3364963f7738a7a662ad9c84396d64be3365284bb7f0a5041808452838352858420338552835260ff86852054161562000156575b5084519260a0840191821184831017620001425750845260038252620151808091830152600260806203f4809384878201528560608201520152600360055560065560075560ff1960085416176008556002600955516125d79081620001e28239f35b634e487b7160e01b81526041600452602490fd5b80845283835285842033855283528584208560ff1982541617905533903390600080516020620027b98339815191528680a438620000df565b82805282825284832033845282528483208460ff19825416179055333384600080516020620027b98339815191528180a4620000a2565b600080fd5b634e487b7160e01b600052604160045260246000fdfe608080604052600436101561001357600080fd5b60003560e01c90816301ffc9a7146116c6575080631cd2eb19146115985780631cf38851146114c757806322a250821461140e578063248a9ca3146113df57806324ea54f4146113b65780632ea715eb146111d85780632f2ff15d1461113757806332df90e01461111157806336568abe1461107f57806337f2c86f14610e715780634a44a85814610ddd57806350f7920c14610db05780635c1ff52b14610d0a5780635c975abb14610ce757806367f3353014610bac5780636e0457ea14610b5a57806379502c5514610b1557806391d1485414610ac8578063a217fddf14610aac578063b1e130fc14610a10578063b20d413414610629578063c6e9ef7914610571578063caeb53d3146104f2578063d22b0e7d14610296578063d547741f14610255578063d94a7af51461022d578063f4aab522146101e0578063f5b541a6146101a55763f6aacfb11461016957600080fd5b346101a05760203660031901126101a0576004356000526002602052602060ff60046040600020015460a01c166040519015158152f35b600080fd5b346101a05760003660031901126101a05760206040517f97667070c54ef182b0f5858b034beac1b6f3089aa2d3188bb1e8929f4fa9b9298152f35b346101a05760403660031901126101a0576101f96117c9565b600435600052600460205260406000209060018060a01b0316600052602052602060ff604060002054166040519015158152f35b346101a05760203660031901126101a057602061024b6004356121eb565b6040519015158152f35b346101a05760403660031901126101a0576102946004356102746117c9565b9080600052600060205261028f600160406000200154611adb565b611bd9565b005b346101a05760003660031901126101a0573360009081527f8a40f0b47fdc2a0ce293b772acfc7508c8315a4d462786c1adc3a56f92ca2d0560209081526040909120546000805160206125828339815191529060ff161561036a57506001549060ff82166103335760017f62e78cea01bee320cd4e420270b5ea74000d11b0c9f74754ebdbfc544b05a2589260ff191617600155604051338152a1005b6064906040519062461bcd60e51b82526004820152601060248201526f14185d5cd8589b194e881c185d5cd95960821b6044820152fd5b9061037433611c6b565b9160405161038181611735565b604281528281019160603684378151156104dc576030835381516001908110156104dc57607860218401536041905b8082116104825750506104515761041d9361042c92604892604051968793600080516020612562833981519152888601526103f4815180928a6037890191016118cc565b8401917001034b99036b4b9b9b4b733903937b6329607d1b6037840152518093868401906118cc565b01036028810185520183611750565b61044d60405192839262461bcd60e51b8452600484015260248301906118ef565b0390fd5b6064836040519062461bcd60e51b825280600483015260248201526000805160206125228339815191526044820152fd5b9091600f811660108110156104dc576f181899199a1a9b1b9c1cb0b131b232b360811b901a6104b18486611c5a565b5360041c9180156104c65760001901906103b0565b634e487b7160e01b600052601160045260246000fd5b634e487b7160e01b600052603260045260246000fd5b346101a05760a03660031901126101a0576064358015158091036101a05761051861192c565b60405160a081016001600160401b03811191111761055b5760043560055560243560065560443560075560ff801960085416911617600855608435600955600080f35b634e487b7160e01b600052604160045260246000fd5b346101a0576020806003193601126101a05760043560005260038152604060002060405190818382549182815201908192600052846000209060005b8682821061060c5786866105c382880383611750565b604051928392818401908285525180915260408401929160005b8281106105ec57505050500390f35b83516001600160a01b0316855286955093810193928101926001016105dd565b83546001600160a01b0316855290930192600192830192016105ad565b346101a05760603660031901126101a057600560243510156101a0576044356001600160401b0381116101a057610664903690600401611773565b60015460405163786420d160e01b815260048035908201526103c09182908290602490829060081c6001600160a01b03165afa908115610a04576106c0926000926109d7575b5050602001516001600160a01b03163314611f21565b600435600052600260205260ff60046040600020015460a01c166109975780516005811015908161098b575b501561094e576040516106fe81611719565b600435815261071260243560208301611f60565b816040820152426060820152336080820152600160a0820152600060c0820152600060e082015260043560005260026020526040600020908051825560018201602082015160058110156109385760ff80198354169116179055604081015180519060018060401b03821161055b5761078e60028501546117df565b601f81116108f1575b50602090601f831160011461087c5791806006949260e094600092610871575b50508160011b916000199060031b1c19161760028501555b606081015160038501556004840160018060a01b0360808301511681549060ff60a01b60a0850151151560a01b169160018060a81b0319161717905560c08101516005850155015191015561083e6040519161082d836024356118bf565b6060602084015260608301906118ef565b4260408301527f41bd0ad99110f3fac92b268abcbcbe501cf674b50b295bb98ebf698ae1758371339280600435930390a3005b0151905087806107b7565b906002850160005260206000209160005b601f19851681106108d95750926006949260019260e09583601f198116106108c0575b505050811b0160028501556107cf565b015160001960f88460031b161c191690558780806108b0565b9192602060018192868501518155019401920161088d565b600285016000526020600020601f840160051c810160208510610931575b601f830160051c82018110610925575050610797565b6000815560010161090f565b508061090f565b634e487b7160e01b600052602160045260246000fd5b60405162461bcd60e51b8152602060048201526015602482015274092dcecc2d8d2c840e4cac2e6dedc40d8cadccee8d605b1b6044820152606490fd5b60c891501115826106ec565b60405162461bcd60e51b8152602060048201526018602482015277456d657267656e6379206c6f636b2069732061637469766560401b6044820152606490fd5b6109f69250803d106109fd575b6109ee8183611750565b810190611d88565b83806106aa565b503d6109e4565b6040513d6000823e3d90fd5b346101a0576020806003193601126101a057600435600080516020612582833981519152600052600082526040600020336000528252610a5760ff60406000205416612163565b610a69610a6433836122e8565b6121a0565b80600052600482526040600020336000528252604060002060ff1981541690556040519160008352429083015260008051602061254283398151915260403393a3005b346101a05760003660031901126101a057602060405160008152f35b346101a05760403660031901126101a057610ae16117c9565b600435600052600060205260406000209060018060a01b0316600052602052602060ff604060002054166040519015158152f35b346101a05760003660031901126101a05760a060055460065460075460ff60085416906009549260405194855260208501526040840152151560608301526080820152f35b346101a05760403660031901126101a0576024356004356000526003602052604060002080548210156101a057602091610b9391611914565b905460405160039290921b1c6001600160a01b03168152f35b346101a0576020806003193601126101a057600060e0604051610bce81611719565b8281528284820152606060408201528260608201528260808201528260a08201528260c0820152015260043560005260028152604060002060405190610c1382611719565b8054825260ff600182015416610c2c8484019182611f60565b610c3860028301611819565b9060408401918252600383015492606085019384526004810154608086019360018060a01b0390818316865260ff60a089019360a01c1615158352610ca8600660058601549560c08b0196875201549560e08a019687526040519a8b9a818c5251908b01525160408a01906118bf565b5194610cc2610100968760608b01526101208a01906118ef565b96516080890152511660a087015251151560c08601525160e085015251908301520390f35b346101a05760003660031901126101a057602060ff600154166040519015158152f35b346101a05760203660031901126101a05760043560005260026020526040600020805460ff60018301541691610d4260028201611819565b60038201549160ff6004820154610d836006600585015494015494610d72604051998a998a5260208a01906118bf565b6101008060408a01528801906118ef565b94606087015260018060a01b038116608087015260a01c16151560a085015260c084015260e08301520390f35b346101a05760003660031901126101a05760015460405160089190911c6001600160a01b03168152602090f35b346101a05760003660031901126101a057610df661192c565b60015460ff811615610e355760ff19166001557f5db9ee0a495bf2e6ff9c91a7834c1ba4fdd244a5e8aa4e537bd38aeae4b073aa6020604051338152a1005b60405162461bcd60e51b815260206004820152601460248201527314185d5cd8589b194e881b9bdd081c185d5cd95960621b6044820152606490fd5b346101a05760403660031901126101a057600435610e8d6117c9565b60015460405163786420d160e01b8152600481018490526103c09392916001600160a01b03919085908290602490829060081c86165afa948515610a0457600095611060575b5050610ee781602080960151163314611f21565b811692831561102157610efa82846122e8565b610fe8576000838152600382526040902080549092600160401b82101561055b57610f4f827f328cfb31557826bd0ee2af22d41990313383e5254b4a543c6eeb1dbc72e8a42e956001610f6e95018155611914565b90919082549060031b9160018060a01b03809116831b921b1916179055565b6000805160206125828339815191528060005260008252604060002085600052825260ff6040600020541615610fa9575b50604051428152a3005b806000526000825260406000208560005282526040600020600160ff19825416179055843391600080516020612502833981519152600080a484610f9f565b6064906040519062461bcd60e51b82526004820152601260248201527120b63932b0b23c90309033bab0b93234b0b760711b6044820152fd5b6064906040519062461bcd60e51b825260048201526018602482015277496e76616c696420677561726469616e206164647265737360401b6044820152fd5b611077929550803d106109fd576109ee8183611750565b928480610ed3565b346101a05760403660031901126101a0576110986117c9565b336001600160a01b038216036110b45761029490600435611bd9565b60405162461bcd60e51b815260206004820152602f60248201527f416363657373436f6e74726f6c3a2063616e206f6e6c792072656e6f756e636560448201526e103937b632b9903337b91039b2b63360891b6064820152608490fd5b346101a05760203660031901126101a057602061112f60043561238a565b604051908152f35b346101a05760403660031901126101a0576004356111536117c9565b81600052600060205261116d600160406000200154611adb565b81600052600060205260406000209060018060a01b0316908160005260205260ff604060002054161561119c57005b8160005260006020526040600020816000526020526040600020600160ff198254161790553391600080516020612502833981519152600080a4005b346101a05760403660031901126101a0576004356111f46117c9565b6001805460405163786420d160e01b8152600481018590529193916001600160a01b03916024916103c091829082908590829060081c88165afa918215610a0457611258928592602092600092611399575b50500151879693949291163314611f21565b61126a61126583866122e8565b612163565b83600052600392836020526040600020928260009116975b6112d7575b8786806000526004602052604060002082600052602052604060002060ff1981541690557f690def215684b8f198111c31d1ff34bebcca5ca00ed2cc1202bb3c9f14f0dadb6020604051428152a3005b8354808210156113935788846112ed8488611914565b905490891b1c1614611309575061130390611fb7565b86611282565b9293949596506000199283810190811161137e5790610f4f8561132f61133d9489611914565b9054908a1b1c169187611914565b835490811561136a575001926113538484611914565b81939154921b1b1916905555808380808080611287565b634e487b7160e01b60009081526031600452fd5b82634e487b7160e01b60005260116004526000fd5b50611287565b6113af9250803d106109fd576109ee8183611750565b8980611246565b346101a05760003660031901126101a05760206040516000805160206125828339815191528152f35b346101a05760203660031901126101a05760043560005260006020526020600160406000200154604051908152f35b346101a0576020806003193601126101a057600435806000526002825261144260ff60046040600020015460a01c16611f6c565b60008051602061258283398151915260005260008252604060002033600052825261147460ff60406000205416612163565b611481610a6433836122e8565b806000526004825260406000203360005282526040600020600160ff198254161790556040519160018352429083015260008051602061254283398151915260403393a3005b346101a05760403660031901126101a0576004356024356001600160401b0381116101a0576114fa903690600401611773565b5060015460405163786420d160e01b8152600481018390526103c092916001600160a01b039084908390602490829060081c85165afa938415610a0457610294946115569360209260009261157b575b50500151163314611f21565b80600052600260205261157660ff60046040600020015460a01c16611f6c565b611fc6565b6115919250803d106109fd576109ee8183611750565b868061154a565b346101a05760203660031901126101a05760043560018060a01b038060015460081c16604051809163786420d160e01b82528460048301528160246103c09485935afa908115610a04576103a0926000926116a9575b5050015116330361166e5780600052600260205261161960ff60046040600020015460a01c16611f6c565b6000818152600260205260409020600401805460ff60a01b1916905561163e81612453565b60405142815233917fe7884c519cf08248780098c2ef938ed6518d8888a9fea4a432e8357db6290d0e60203393a4005b60405162461bcd60e51b81526020600482015260136024820152724e6f7420657374617465206d756c746973696760681b6044820152606490fd5b6116bf9250803d106109fd576109ee8183611750565b84806115ee565b346101a05760203660031901126101a0576004359063ffffffff60e01b82168092036101a057602091637965db0b60e01b8114908115611708575b5015158152f35b6301ffc9a760e01b14905083611701565b61010081019081106001600160401b0382111761055b57604052565b608081019081106001600160401b0382111761055b57604052565b601f909101601f19168101906001600160401b0382119082101761055b57604052565b81601f820112156101a0578035906001600160401b03821161055b57604051926117a7601f8401601f191660200185611750565b828452602083830101116101a057816000926020809301838601378301015290565b602435906001600160a01b03821682036101a057565b90600182811c9216801561180f575b60208310146117f957565b634e487b7160e01b600052602260045260246000fd5b91607f16916117ee565b906040519182600082549261182d846117df565b90818452600194858116908160001461189c5750600114611859575b505061185792500383611750565b565b9093915060005260209081600020936000915b81831061188457505061185793508201013880611849565b8554888401850152948501948794509183019161186c565b91505061185794506020925060ff191682840152151560051b8201013880611849565b9060058210156109385752565b60005b8381106118df5750506000910152565b81810151838201526020016118cf565b90602091611908815180928185528580860191016118cc565b601f01601f1916010190565b80548210156104dc5760005260206000200190600090565b3360009081527fad3228b676f7d3cd4284a5443f17f1962b36e491b30a40b2405849e597ba5fb5602090815260408083205490929060ff161561196e57505050565b61197733611c6b565b908084519061198582611735565b60428252848201926060368537825115611ac75760308453825190600191821015611ac75790607860218501536041915b818311611a5957505050611a2957604861044d938693611a0d936119fe98519889936000805160206125628339815191528a8601526103f4815180928c6037890191016118cc565b01036028810187520185611750565b5192839262461bcd60e51b8452600484015260248301906118ef565b60648486519062461bcd60e51b825280600483015260248201526000805160206125228339815191526044820152fd5b909192600f81166010811015611ab3576f181899199a1a9b1b9c1cb0b131b232b360811b901a611a898587611c5a565b5360041c928015611a9f576000190191906119b6565b634e487b7160e01b82526011600452602482fd5b634e487b7160e01b83526032600452602483fd5b634e487b7160e01b81526032600452602490fd5b600090808252602090828252604092838120338252835260ff848220541615611b045750505050565b611b0d33611c6b565b91845190611b1a82611735565b60428252848201926060368537825115611ac75760308453825190600191821015611ac75790607860218501536041915b818311611b9357505050611a2957604861044d938693611a0d936119fe98519889936000805160206125628339815191528a8601526103f4815180928c6037890191016118cc565b909192600f81166010811015611ab3576f181899199a1a9b1b9c1cb0b131b232b360811b901a611bc38587611c5a565b5360041c928015611a9f57600019019190611b4b565b9060009180835282602052604083209160018060a01b03169182845260205260ff604084205416611c0957505050565b80835282602052604083208284526020526040832060ff1981541690557ff6391f5c32d9c69d2a47ea670b442974b53935d1edc7fd64eb21e047a839171b339380a4565b919082018092116104c657565b9081518110156104dc570160200190565b60405190606082016001600160401b0381118382101761055b57604052602a82526020820160403682378251156104dc576030905381516001908110156104dc57607860218401536029905b808211611cf9575050611cc75790565b606460405162461bcd60e51b815260206004820152602060248201526000805160206125228339815191526044820152fd5b9091600f81166010811015611d52576f181899199a1a9b1b9c1cb0b131b232b360811b901a611d288486611c5a565b5360041c918015611d3d576000190190611cb7565b60246000634e487b7160e01b81526011600452fd5b60246000634e487b7160e01b81526032600452fd5b51906001600160a01b03821682036101a057565b519081151582036101a057565b80916103c092839103126101a0576040519182016001600160401b0381118382101761055b5760405280518252611dc160208201611d67565b602083015260408101516040830152606081015160608301526080810151608083015260a081015160a083015260c081015160c083015260e081015160e08301526101008082015190830152610120611e1b818301611d7b565b90830152610140611e2d818301611d7b565b90830152610160808201519083015261018080820151908301526101a080820151908301526101c0611e60818301611d7b565b908301526101e0611e72818301611d67565b90830152610200808201519083015261022080820151908301526102408082015190830152610260808201519083015261028080820151908301526102a080820151908301526102c080820151908301526102e0808201519083015261030080820151908301526103208082015190830152610340611ef2818301611d7b565b9083015261036080820151908301526103808082015190830152611f1a6103a0809201611d67565b9082015290565b15611f2857565b60405162461bcd60e51b815260206004820152601060248201526f2737ba1032b9ba30ba329037bbb732b960811b6044820152606490fd5b60058210156109385752565b15611f7357565b60405162461bcd60e51b815260206004820152601c60248201527b456d657267656e6379206c6f636b206973206e6f742061637469766560201b6044820152606490fd5b60001981146104c65760010190565b8060005260026020526040908160002060058101805480612109575b6005548110156120c657611ff590611fb7565b815542600683015560ff60085416612053575b60047fd9aa9f69368d3a93c3607757fd0d8cc29edd3fab0c153b7dfbf9b623e51523a1920160ff60a01b19815416905561204183612453565b549280519384524260208501523393a3565b61205c8361238a565b6009541115612008575050601f8251928084528301527f496e73756666696369656e7420677561726469616e20617070726f76616c730060608301524260208301527fba8550bb2727971e047c6a3f2189c01472fb5306be939ed9a5d30b4ec41764ec60803393a3565b845162461bcd60e51b815260206004820152601c60248201527b13585e081d5b9b1bd8dac8185d1d195b5c1d1cc8195e18d95959195960221b6044820152606490fd5b61211a600684015460065490611c4d565b421015611fe257845162461bcd60e51b815260206004820152601b60248201527a10dbdbdb191bdddb881c195c9a5bd9081b9bdd08195b185c1cd959602a1b6044820152606490fd5b1561216a57565b60405162461bcd60e51b815260206004820152600e60248201526d2737ba10309033bab0b93234b0b760911b6044820152606490fd5b156121a757565b60405162461bcd60e51b815260206004820152601c60248201527b4e6f7420677561726469616e20666f7220746869732065737461746560201b6044820152606490fd5b600090808252600260205260e06040832060405161220881611719565b8154815261222060ff60018401541660208301611f60565b61222c60028301611819565b60408201526003820154606082015260ff600483015460018060a01b038116608084015260a01c161590811560a082015260066005840154938460c0840152015493849101526122ce576005548110156122ce576122b2575b5060ff60085416612298575b5050600190565b6122a19061238a565b600954116122af5780612291565b90565b6006546122be91611c4d565b42106122ca5738612285565b5090565b50505090565b80518210156104dc5760209160051b010190565b90600091825260206003815260408320906040518092839183825491828152019187528387209387905b8282106123675750505061232892500382611750565b825b81518110156122ce576001600160a01b038061234683856122d4565b51169084161461235e5761235990611fb7565b61232a565b50505050600190565b85546001600160a01b031684526001958601958795509381019390910190612312565b9060009180835260209260038452604093848220908551808383829554938481520190865283862092865b85828210612434575050506123cc92500383611750565b8293835b835181101561242a57818552600483528785206001600160a01b036123f583876122d4565b51168652835260ff8886205416612415575b61241090611fb7565b6123d0565b9461242261241091611fb7565b959050612407565b5093955050505050565b85546001600160a01b03168452600195860195889550930192016123b5565b600081815260209060038252604091828220908351808383829554938481520190865283862092865b858282106124e25750505061249392500383611750565b825b82518110156124da57858452600482528484206124d591906001600160a01b036124bf83876122d4565b511686528352858520805460ff19169055611fb7565b612495565b505050505050565b85546001600160a01b031684526001958601958895509301920161247c56fe2f8788117e7eff1d82e926ec794901d17c78024a50270940304540a733656f0d537472696e67733a20686578206c656e67746820696e73756666696369656e74c07b782a6f11ab80f8d853ed1c5788869623d7d858a363f9356161cc2b480131416363657373436f6e74726f6c3a206163636f756e742000000000000000000055435dd261a4b9b3364963f7738a7a662ad9c84396d64be3365284bb7f0a5041a2646970667358221220369e1b200a0c88e6a97a9f082e4debab2f35e8373c185840d3812d331486afcd64736f6c634300081300332f8788117e7eff1d82e926ec794901d17c78024a50270940304540a733656f0d","opcodes":"PUSH1 0x80 CALLVALUE PUSH3 0x1C6 JUMPI PUSH1 0x1F PUSH3 0x27D9 CODESIZE DUP2 SWAP1 SUB SWAP2 DUP3 ADD PUSH1 0x1F NOT AND DUP4 ADD SWAP3 SWAP2 PUSH1 0x1 PUSH1 0x1 PUSH1 0x40 SHL SUB SWAP2 SWAP1 DUP3 DUP6 GT DUP5 DUP7 LT OR PUSH3 0x1CB JUMPI DUP1 DUP5 SWAP3 PUSH1 0x40 SWAP7 DUP8 MSTORE DUP4 CODECOPY PUSH1 0x20 SWAP4 DUP5 SWAP2 DUP2 ADD SUB SLT PUSH3 0x1C6 JUMPI MLOAD SWAP2 PUSH1 0x1 PUSH1 0x1 PUSH1 0xA0 SHL SUB DUP4 AND DUP4 SUB PUSH3 0x1C6 JUMPI PUSH1 0x1 DUP1 SLOAD PUSH1 0x1 PUSH1 0x1 PUSH1 0xA8 SHL SUB NOT AND PUSH1 0x8 SWAP5 SWAP1 SWAP5 SHL PUSH2 0x100 PUSH1 0x1 PUSH1 0xA8 SHL SUB AND SWAP4 SWAP1 SWAP4 OR DUP4 SSTORE PUSH1 0x0 DUP1 DUP1 MSTORE DUP1 DUP3 MSTORE DUP5 DUP2 KECCAK256 CALLER DUP3 MSTORE DUP3 MSTORE DUP5 DUP2 KECCAK256 SLOAD SWAP1 SWAP3 SWAP1 PUSH1 0xFF AND ISZERO PUSH3 0x18F JUMPI JUMPDEST PUSH32 0x55435DD261A4B9B3364963F7738A7A662AD9C84396D64BE3365284BB7F0A5041 DUP1 DUP5 MSTORE DUP4 DUP4 MSTORE DUP6 DUP5 KECCAK256 CALLER DUP6 MSTORE DUP4 MSTORE PUSH1 0xFF DUP7 DUP6 KECCAK256 SLOAD AND ISZERO PUSH3 0x156 JUMPI JUMPDEST POP DUP5 MLOAD SWAP3 PUSH1 0xA0 DUP5 ADD SWAP2 DUP3 GT DUP5 DUP4 LT OR PUSH3 0x142 JUMPI POP DUP5 MSTORE PUSH1 0x3 DUP3 MSTORE PUSH3 0x15180 DUP1 SWAP2 DUP4 ADD MSTORE PUSH1 0x2 PUSH1 0x80 PUSH3 0x3F480 SWAP4 DUP5 DUP8 DUP3 ADD MSTORE DUP6 PUSH1 0x60 DUP3 ADD MSTORE ADD MSTORE PUSH1 0x3 PUSH1 0x5 SSTORE PUSH1 0x6 SSTORE PUSH1 0x7 SSTORE PUSH1 0xFF NOT PUSH1 0x8 SLOAD AND OR PUSH1 0x8 SSTORE PUSH1 0x2 PUSH1 0x9 SSTORE MLOAD PUSH2 0x25D7 SWAP1 DUP2 PUSH3 0x1E2 DUP3 CODECOPY RETURN JUMPDEST PUSH4 0x4E487B71 PUSH1 0xE0 SHL DUP2 MSTORE PUSH1 0x41 PUSH1 0x4 MSTORE PUSH1 0x24 SWAP1 REVERT JUMPDEST DUP1 DUP5 MSTORE DUP4 DUP4 MSTORE DUP6 DUP5 KECCAK256 CALLER DUP6 MSTORE DUP4 MSTORE DUP6 DUP5 KECCAK256 DUP6 PUSH1 0xFF NOT DUP3 SLOAD AND OR SWAP1 SSTORE CALLER SWAP1 CALLER SWAP1 PUSH1 0x0 DUP1 MLOAD PUSH1 0x20 PUSH3 0x27B9 DUP4 CODECOPY DUP2 MLOAD SWAP2 MSTORE DUP7 DUP1 LOG4 CODESIZE PUSH3 0xDF JUMP JUMPDEST DUP3 DUP1 MSTORE DUP3 DUP3 MSTORE DUP5 DUP4 KECCAK256 CALLER DUP5 MSTORE DUP3 MSTORE DUP5 DUP4 KECCAK256 DUP5 PUSH1 0xFF NOT DUP3 SLOAD AND OR SWAP1 SSTORE CALLER CALLER DUP5 PUSH1 0x0 DUP1 MLOAD PUSH1 0x20 PUSH3 0x27B9 DUP4 CODECOPY DUP2 MLOAD SWAP2 MSTORE DUP2 DUP1 LOG4 PUSH3 0xA2 JUMP JUMPDEST PUSH1 0x0 DUP1 REVERT JUMPDEST PUSH4 0x4E487B71 PUSH1 0xE0 SHL PUSH1 0x0 MSTORE PUSH1 0x41 PUSH1 0x4 MSTORE PUSH1 0x24 PUSH1 0x0 REVERT INVALID PUSH1 0x80 DUP1 PUSH1 0x40 MSTORE PUSH1 0x4 CALLDATASIZE LT ISZERO PUSH2 0x13 JUMPI PUSH1 0x0 DUP1 REVERT JUMPDEST PUSH1 0x0 CALLDATALOAD PUSH1 0xE0 SHR SWAP1 DUP2 PUSH4 0x1FFC9A7 EQ PUSH2 0x16C6 JUMPI POP DUP1 PUSH4 0x1CD2EB19 EQ PUSH2 0x1598 JUMPI DUP1 PUSH4 0x1CF38851 EQ PUSH2 0x14C7 JUMPI DUP1 PUSH4 0x22A25082 EQ PUSH2 0x140E JUMPI DUP1 PUSH4 0x248A9CA3 EQ PUSH2 0x13DF JUMPI DUP1 PUSH4 0x24EA54F4 EQ PUSH2 0x13B6 JUMPI DUP1 PUSH4 0x2EA715EB EQ PUSH2 0x11D8 JUMPI DUP1 PUSH4 0x2F2FF15D EQ PUSH2 0x1137 JUMPI DUP1 PUSH4 0x32DF90E0 EQ PUSH2 0x1111 JUMPI DUP1 PUSH4 0x36568ABE EQ PUSH2 0x107F JUMPI DUP1 PUSH4 0x37F2C86F EQ PUSH2 0xE71 JUMPI DUP1 PUSH4 0x4A44A858 EQ PUSH2 0xDDD JUMPI DUP1 PUSH4 0x50F7920C EQ PUSH2 0xDB0 JUMPI DUP1 PUSH4 0x5C1FF52B EQ PUSH2 0xD0A JUMPI DUP1 PUSH4 0x5C975ABB EQ PUSH2 0xCE7 JUMPI DUP1 PUSH4 0x67F33530 EQ PUSH2 0xBAC JUMPI DUP1 PUSH4 0x6E0457EA EQ PUSH2 0xB5A JUMPI DUP1 PUSH4 0x79502C55 EQ PUSH2 0xB15 JUMPI DUP1 PUSH4 0x91D14854 EQ PUSH2 0xAC8 JUMPI DUP1 PUSH4 0xA217FDDF EQ PUSH2 0xAAC JUMPI DUP1 PUSH4 0xB1E130FC EQ PUSH2 0xA10 JUMPI DUP1 PUSH4 0xB20D4134 EQ PUSH2 0x629 JUMPI DUP1 PUSH4 0xC6E9EF79 EQ PUSH2 0x571 JUMPI DUP1 PUSH4 0xCAEB53D3 EQ PUSH2 0x4F2 JUMPI DUP1 PUSH4 0xD22B0E7D EQ PUSH2 0x296 JUMPI DUP1 PUSH4 0xD547741F EQ PUSH2 0x255 JUMPI DUP1 PUSH4 0xD94A7AF5 EQ PUSH2 0x22D JUMPI DUP1 PUSH4 0xF4AAB522 EQ PUSH2 0x1E0 JUMPI DUP1 PUSH4 0xF5B541A6 EQ PUSH2 0x1A5 JUMPI PUSH4 0xF6AACFB1 EQ PUSH2 0x169 JUMPI PUSH1 0x0 DUP1 REVERT JUMPDEST CALLVALUE PUSH2 0x1A0 JUMPI PUSH1 0x20 CALLDATASIZE PUSH1 0x3 NOT ADD SLT PUSH2 0x1A0 JUMPI PUSH1 0x4 CALLDATALOAD PUSH1 0x0 MSTORE PUSH1 0x2 PUSH1 0x20 MSTORE PUSH1 0x20 PUSH1 0xFF PUSH1 0x4 PUSH1 0x40 PUSH1 0x0 KECCAK256 ADD SLOAD PUSH1 0xA0 SHR AND PUSH1 0x40 MLOAD SWAP1 ISZERO ISZERO DUP2 MSTORE RETURN JUMPDEST PUSH1 0x0 DUP1 REVERT JUMPDEST CALLVALUE PUSH2 0x1A0 JUMPI PUSH1 0x0 CALLDATASIZE PUSH1 0x3 NOT ADD SLT PUSH2 0x1A0 JUMPI PUSH1 0x20 PUSH1 0x40 MLOAD PUSH32 0x97667070C54EF182B0F5858B034BEAC1B6F3089AA2D3188BB1E8929F4FA9B929 DUP2 MSTORE RETURN JUMPDEST CALLVALUE PUSH2 0x1A0 JUMPI PUSH1 0x40 CALLDATASIZE PUSH1 0x3 NOT ADD SLT PUSH2 0x1A0 JUMPI PUSH2 0x1F9 PUSH2 0x17C9 JUMP JUMPDEST PUSH1 0x4 CALLDATALOAD PUSH1 0x0 MSTORE PUSH1 0x4 PUSH1 0x20 MSTORE PUSH1 0x40 PUSH1 0x0 KECCAK256 SWAP1 PUSH1 0x1 DUP1 PUSH1 0xA0 SHL SUB AND PUSH1 0x0 MSTORE PUSH1 0x20 MSTORE PUSH1 0x20 PUSH1 0xFF PUSH1 0x40 PUSH1 0x0 KECCAK256 SLOAD AND PUSH1 0x40 MLOAD SWAP1 ISZERO ISZERO DUP2 MSTORE RETURN JUMPDEST CALLVALUE PUSH2 0x1A0 JUMPI PUSH1 0x20 CALLDATASIZE PUSH1 0x3 NOT ADD SLT PUSH2 0x1A0 JUMPI PUSH1 0x20 PUSH2 0x24B PUSH1 0x4 CALLDATALOAD PUSH2 0x21EB JUMP JUMPDEST PUSH1 0x40 MLOAD SWAP1 ISZERO ISZERO DUP2 MSTORE RETURN JUMPDEST CALLVALUE PUSH2 0x1A0 JUMPI PUSH1 0x40 CALLDATASIZE PUSH1 0x3 NOT ADD SLT PUSH2 0x1A0 JUMPI PUSH2 0x294 PUSH1 0x4 CALLDATALOAD PUSH2 0x274 PUSH2 0x17C9 JUMP JUMPDEST SWAP1 DUP1 PUSH1 0x0 MSTORE PUSH1 0x0 PUSH1 0x20 MSTORE PUSH2 0x28F PUSH1 0x1 PUSH1 0x40 PUSH1 0x0 KECCAK256 ADD SLOAD PUSH2 0x1ADB JUMP JUMPDEST PUSH2 0x1BD9 JUMP JUMPDEST STOP JUMPDEST CALLVALUE PUSH2 0x1A0 JUMPI PUSH1 0x0 CALLDATASIZE PUSH1 0x3 NOT ADD SLT PUSH2 0x1A0 JUMPI CALLER PUSH1 0x0 SWAP1 DUP2 MSTORE PUSH32 0x8A40F0B47FDC2A0CE293B772ACFC7508C8315A4D462786C1ADC3A56F92CA2D05 PUSH1 0x20 SWAP1 DUP2 MSTORE PUSH1 0x40 SWAP1 SWAP2 KECCAK256 SLOAD PUSH1 0x0 DUP1 MLOAD PUSH1 0x20 PUSH2 0x2582 DUP4 CODECOPY DUP2 MLOAD SWAP2 MSTORE SWAP1 PUSH1 0xFF AND ISZERO PUSH2 0x36A JUMPI POP PUSH1 0x1 SLOAD SWAP1 PUSH1 0xFF DUP3 AND PUSH2 0x333 JUMPI PUSH1 0x1 PUSH32 0x62E78CEA01BEE320CD4E420270B5EA74000D11B0C9F74754EBDBFC544B05A258 SWAP3 PUSH1 0xFF NOT AND OR PUSH1 0x1 SSTORE PUSH1 0x40 MLOAD CALLER DUP2 MSTORE LOG1 STOP JUMPDEST PUSH1 0x64 SWAP1 PUSH1 0x40 MLOAD SWAP1 PUSH3 0x461BCD PUSH1 0xE5 SHL DUP3 MSTORE PUSH1 0x4 DUP3 ADD MSTORE PUSH1 0x10 PUSH1 0x24 DUP3 ADD MSTORE PUSH16 0x14185D5CD8589B194E881C185D5CD959 PUSH1 0x82 SHL PUSH1 0x44 DUP3 ADD MSTORE REVERT JUMPDEST SWAP1 PUSH2 0x374 CALLER PUSH2 0x1C6B JUMP JUMPDEST SWAP2 PUSH1 0x40 MLOAD PUSH2 0x381 DUP2 PUSH2 0x1735 JUMP JUMPDEST PUSH1 0x42 DUP2 MSTORE DUP3 DUP2 ADD SWAP2 PUSH1 0x60 CALLDATASIZE DUP5 CALLDATACOPY DUP2 MLOAD ISZERO PUSH2 0x4DC JUMPI PUSH1 0x30 DUP4 MSTORE8 DUP2 MLOAD PUSH1 0x1 SWAP1 DUP2 LT ISZERO PUSH2 0x4DC JUMPI PUSH1 0x78 PUSH1 0x21 DUP5 ADD MSTORE8 PUSH1 0x41 SWAP1 JUMPDEST DUP1 DUP3 GT PUSH2 0x482 JUMPI POP POP PUSH2 0x451 JUMPI PUSH2 0x41D SWAP4 PUSH2 0x42C SWAP3 PUSH1 0x48 SWAP3 PUSH1 0x40 MLOAD SWAP7 DUP8 SWAP4 PUSH1 0x0 DUP1 MLOAD PUSH1 0x20 PUSH2 0x2562 DUP4 CODECOPY DUP2 MLOAD SWAP2 MSTORE DUP9 DUP7 ADD MSTORE PUSH2 0x3F4 DUP2 MLOAD DUP1 SWAP3 DUP11 PUSH1 0x37 DUP10 ADD SWAP2 ADD PUSH2 0x18CC JUMP JUMPDEST DUP5 ADD SWAP2 PUSH17 0x1034B99036B4B9B9B4B733903937B6329 PUSH1 0x7D SHL PUSH1 0x37 DUP5 ADD MSTORE MLOAD DUP1 SWAP4 DUP7 DUP5 ADD SWAP1 PUSH2 0x18CC JUMP JUMPDEST ADD SUB PUSH1 0x28 DUP2 ADD DUP6 MSTORE ADD DUP4 PUSH2 0x1750 JUMP JUMPDEST PUSH2 0x44D PUSH1 0x40 MLOAD SWAP3 DUP4 SWAP3 PUSH3 0x461BCD PUSH1 0xE5 SHL DUP5 MSTORE PUSH1 0x4 DUP5 ADD MSTORE PUSH1 0x24 DUP4 ADD SWAP1 PUSH2 0x18EF JUMP JUMPDEST SUB SWAP1 REVERT JUMPDEST PUSH1 0x64 DUP4 PUSH1 0x40 MLOAD SWAP1 PUSH3 0x461BCD PUSH1 0xE5 SHL DUP3 MSTORE DUP1 PUSH1 0x4 DUP4 ADD MSTORE PUSH1 0x24 DUP3 ADD MSTORE PUSH1 0x0 DUP1 MLOAD PUSH1 0x20 PUSH2 0x2522 DUP4 CODECOPY DUP2 MLOAD SWAP2 MSTORE PUSH1 0x44 DUP3 ADD MSTORE REVERT JUMPDEST SWAP1 SWAP2 PUSH1 0xF DUP2 AND PUSH1 0x10 DUP2 LT ISZERO PUSH2 0x4DC JUMPI PUSH16 0x181899199A1A9B1B9C1CB0B131B232B3 PUSH1 0x81 SHL SWAP1 BYTE PUSH2 0x4B1 DUP5 DUP7 PUSH2 0x1C5A JUMP JUMPDEST MSTORE8 PUSH1 0x4 SHR SWAP2 DUP1 ISZERO PUSH2 0x4C6 JUMPI PUSH1 0x0 NOT ADD SWAP1 PUSH2 0x3B0 JUMP JUMPDEST PUSH4 0x4E487B71 PUSH1 0xE0 SHL PUSH1 0x0 MSTORE PUSH1 0x11 PUSH1 0x4 MSTORE PUSH1 0x24 PUSH1 0x0 REVERT JUMPDEST PUSH4 0x4E487B71 PUSH1 0xE0 SHL PUSH1 0x0 MSTORE PUSH1 0x32 PUSH1 0x4 MSTORE PUSH1 0x24 PUSH1 0x0 REVERT JUMPDEST CALLVALUE PUSH2 0x1A0 JUMPI PUSH1 0xA0 CALLDATASIZE PUSH1 0x3 NOT ADD SLT PUSH2 0x1A0 JUMPI PUSH1 0x64 CALLDATALOAD DUP1 ISZERO ISZERO DUP1 SWAP2 SUB PUSH2 0x1A0 JUMPI PUSH2 0x518 PUSH2 0x192C JUMP JUMPDEST PUSH1 0x40 MLOAD PUSH1 0xA0 DUP2 ADD PUSH1 0x1 PUSH1 0x1 PUSH1 0x40 SHL SUB DUP2 GT SWAP2 GT OR PUSH2 0x55B JUMPI PUSH1 0x4 CALLDATALOAD PUSH1 0x5 SSTORE PUSH1 0x24 CALLDATALOAD PUSH1 0x6 SSTORE PUSH1 0x44 CALLDATALOAD PUSH1 0x7 SSTORE PUSH1 0xFF DUP1 NOT PUSH1 0x8 SLOAD AND SWAP2 AND OR PUSH1 0x8 SSTORE PUSH1 0x84 CALLDATALOAD PUSH1 0x9 SSTORE PUSH1 0x0 DUP1 RETURN JUMPDEST PUSH4 0x4E487B71 PUSH1 0xE0 SHL PUSH1 0x0 MSTORE PUSH1 0x41 PUSH1 0x4 MSTORE PUSH1 0x24 PUSH1 0x0 REVERT JUMPDEST CALLVALUE PUSH2 0x1A0 JUMPI PUSH1 0x20 DUP1 PUSH1 0x3 NOT CALLDATASIZE ADD SLT PUSH2 0x1A0 JUMPI PUSH1 0x4 CALLDATALOAD PUSH1 0x0 MSTORE PUSH1 0x3 DUP2 MSTORE PUSH1 0x40 PUSH1 0x0 KECCAK256 PUSH1 0x40 MLOAD SWAP1 DUP2 DUP4 DUP3 SLOAD SWAP2 DUP3 DUP2 MSTORE ADD SWAP1 DUP2 SWAP3 PUSH1 0x0 MSTORE DUP5 PUSH1 0x0 KECCAK256 SWAP1 PUSH1 0x0 JUMPDEST DUP7 DUP3 DUP3 LT PUSH2 0x60C JUMPI DUP7 DUP7 PUSH2 0x5C3 DUP3 DUP9 SUB DUP4 PUSH2 0x1750 JUMP JUMPDEST PUSH1 0x40 MLOAD SWAP3 DUP4 SWAP3 DUP2 DUP5 ADD SWAP1 DUP3 DUP6 MSTORE MLOAD DUP1 SWAP2 MSTORE PUSH1 0x40 DUP5 ADD SWAP3 SWAP2 PUSH1 0x0 JUMPDEST DUP3 DUP2 LT PUSH2 0x5EC JUMPI POP POP POP POP SUB SWAP1 RETURN JUMPDEST DUP4 MLOAD PUSH1 0x1 PUSH1 0x1 PUSH1 0xA0 SHL SUB AND DUP6 MSTORE DUP7 SWAP6 POP SWAP4 DUP2 ADD SWAP4 SWAP3 DUP2 ADD SWAP3 PUSH1 0x1 ADD PUSH2 0x5DD JUMP JUMPDEST DUP4 SLOAD PUSH1 0x1 PUSH1 0x1 PUSH1 0xA0 SHL SUB AND DUP6 MSTORE SWAP1 SWAP4 ADD SWAP3 PUSH1 0x1 SWAP3 DUP4 ADD SWAP3 ADD PUSH2 0x5AD JUMP JUMPDEST CALLVALUE PUSH2 0x1A0 JUMPI PUSH1 0x60 CALLDATASIZE PUSH1 0x3 NOT ADD SLT PUSH2 0x1A0 JUMPI PUSH1 0x5 PUSH1 0x24 CALLDATALOAD LT ISZERO PUSH2 0x1A0 JUMPI PUSH1 0x44 CALLDATALOAD PUSH1 0x1 PUSH1 0x1 PUSH1 0x40 SHL SUB DUP2 GT PUSH2 0x1A0 JUMPI PUSH2 0x664 SWAP1 CALLDATASIZE SWAP1 PUSH1 0x4 ADD PUSH2 0x1773 JUMP JUMPDEST PUSH1 0x1 SLOAD PUSH1 0x40 MLOAD PUSH4 0x786420D1 PUSH1 0xE0 SHL DUP2 MSTORE PUSH1 0x4 DUP1 CALLDATALOAD SWAP1 DUP3 ADD MSTORE PUSH2 0x3C0 SWAP2 DUP3 SWAP1 DUP3 SWAP1 PUSH1 0x24 SWAP1 DUP3 SWAP1 PUSH1 0x8 SHR PUSH1 0x1 PUSH1 0x1 PUSH1 0xA0 SHL SUB AND GAS STATICCALL SWAP1 DUP2 ISZERO PUSH2 0xA04 JUMPI PUSH2 0x6C0 SWAP3 PUSH1 0x0 SWAP3 PUSH2 0x9D7 JUMPI JUMPDEST POP POP PUSH1 0x20 ADD MLOAD PUSH1 0x1 PUSH1 0x1 PUSH1 0xA0 SHL SUB AND CALLER EQ PUSH2 0x1F21 JUMP JUMPDEST PUSH1 0x4 CALLDATALOAD PUSH1 0x0 MSTORE PUSH1 0x2 PUSH1 0x20 MSTORE PUSH1 0xFF PUSH1 0x4 PUSH1 0x40 PUSH1 0x0 KECCAK256 ADD SLOAD PUSH1 0xA0 SHR AND PUSH2 0x997 JUMPI DUP1 MLOAD PUSH1 0x5 DUP2 LT ISZERO SWAP1 DUP2 PUSH2 0x98B JUMPI JUMPDEST POP ISZERO PUSH2 0x94E JUMPI PUSH1 0x40 MLOAD PUSH2 0x6FE DUP2 PUSH2 0x1719 JUMP JUMPDEST PUSH1 0x4 CALLDATALOAD DUP2 MSTORE PUSH2 0x712 PUSH1 0x24 CALLDATALOAD PUSH1 0x20 DUP4 ADD PUSH2 0x1F60 JUMP JUMPDEST DUP2 PUSH1 0x40 DUP3 ADD MSTORE TIMESTAMP PUSH1 0x60 DUP3 ADD MSTORE CALLER PUSH1 0x80 DUP3 ADD MSTORE PUSH1 0x1 PUSH1 0xA0 DUP3 ADD MSTORE PUSH1 0x0 PUSH1 0xC0 DUP3 ADD MSTORE PUSH1 0x0 PUSH1 0xE0 DUP3 ADD MSTORE PUSH1 0x4 CALLDATALOAD PUSH1 0x0 MSTORE PUSH1 0x2 PUSH1 0x20 MSTORE PUSH1 0x40 PUSH1 0x0 KECCAK256 SWAP1 DUP1 MLOAD DUP3 SSTORE PUSH1 0x1 DUP3 ADD PUSH1 0x20 DUP3 ADD MLOAD PUSH1 0x5 DUP2 LT ISZERO PUSH2 0x938 JUMPI PUSH1 0xFF DUP1 NOT DUP4 SLOAD AND SWAP2 AND OR SWAP1 SSTORE PUSH1 0x40 DUP2 ADD MLOAD DUP1 MLOAD SWAP1 PUSH1 0x1 DUP1 PUSH1 0x40 SHL SUB DUP3 GT PUSH2 0x55B JUMPI PUSH2 0x78E PUSH1 0x2 DUP6 ADD SLOAD PUSH2 0x17DF JUMP JUMPDEST PUSH1 0x1F DUP2 GT PUSH2 0x8F1 JUMPI JUMPDEST POP PUSH1 0x20 SWAP1 PUSH1 0x1F DUP4 GT PUSH1 0x1 EQ PUSH2 0x87C JUMPI SWAP2 DUP1 PUSH1 0x6 SWAP5 SWAP3 PUSH1 0xE0 SWAP5 PUSH1 0x0 SWAP3 PUSH2 0x871 JUMPI JUMPDEST POP POP DUP2 PUSH1 0x1 SHL SWAP2 PUSH1 0x0 NOT SWAP1 PUSH1 0x3 SHL SHR NOT AND OR PUSH1 0x2 DUP6 ADD SSTORE JUMPDEST PUSH1 0x60 DUP2 ADD MLOAD PUSH1 0x3 DUP6 ADD SSTORE PUSH1 0x4 DUP5 ADD PUSH1 0x1 DUP1 PUSH1 0xA0 SHL SUB PUSH1 0x80 DUP4 ADD MLOAD AND DUP2 SLOAD SWAP1 PUSH1 0xFF PUSH1 0xA0 SHL PUSH1 0xA0 DUP6 ADD MLOAD ISZERO ISZERO PUSH1 0xA0 SHL AND SWAP2 PUSH1 0x1 DUP1 PUSH1 0xA8 SHL SUB NOT AND OR OR SWAP1 SSTORE PUSH1 0xC0 DUP2 ADD MLOAD PUSH1 0x5 DUP6 ADD SSTORE ADD MLOAD SWAP2 ADD SSTORE PUSH2 0x83E PUSH1 0x40 MLOAD SWAP2 PUSH2 0x82D DUP4 PUSH1 0x24 CALLDATALOAD PUSH2 0x18BF JUMP JUMPDEST PUSH1 0x60 PUSH1 0x20 DUP5 ADD MSTORE PUSH1 0x60 DUP4 ADD SWAP1 PUSH2 0x18EF JUMP JUMPDEST TIMESTAMP PUSH1 0x40 DUP4 ADD MSTORE PUSH32 0x41BD0AD99110F3FAC92B268ABCBCBE501CF674B50B295BB98EBF698AE1758371 CALLER SWAP3 DUP1 PUSH1 0x4 CALLDATALOAD SWAP4 SUB SWAP1 LOG3 STOP JUMPDEST ADD MLOAD SWAP1 POP DUP8 DUP1 PUSH2 0x7B7 JUMP JUMPDEST SWAP1 PUSH1 0x2 DUP6 ADD PUSH1 0x0 MSTORE PUSH1 0x20 PUSH1 0x0 KECCAK256 SWAP2 PUSH1 0x0 JUMPDEST PUSH1 0x1F NOT DUP6 AND DUP2 LT PUSH2 0x8D9 JUMPI POP SWAP3 PUSH1 0x6 SWAP5 SWAP3 PUSH1 0x1 SWAP3 PUSH1 0xE0 SWAP6 DUP4 PUSH1 0x1F NOT DUP2 AND LT PUSH2 0x8C0 JUMPI JUMPDEST POP POP POP DUP2 SHL ADD PUSH1 0x2 DUP6 ADD SSTORE PUSH2 0x7CF JUMP JUMPDEST ADD MLOAD PUSH1 0x0 NOT PUSH1 0xF8 DUP5 PUSH1 0x3 SHL AND SHR NOT AND SWAP1 SSTORE DUP8 DUP1 DUP1 PUSH2 0x8B0 JUMP JUMPDEST SWAP2 SWAP3 PUSH1 0x20 PUSH1 0x1 DUP2 SWAP3 DUP7 DUP6 ADD MLOAD DUP2 SSTORE ADD SWAP5 ADD SWAP3 ADD PUSH2 0x88D JUMP JUMPDEST PUSH1 0x2 DUP6 ADD PUSH1 0x0 MSTORE PUSH1 0x20 PUSH1 0x0 KECCAK256 PUSH1 0x1F DUP5 ADD PUSH1 0x5 SHR DUP2 ADD PUSH1 0x20 DUP6 LT PUSH2 0x931 JUMPI JUMPDEST PUSH1 0x1F DUP4 ADD PUSH1 0x5 SHR DUP3 ADD DUP2 LT PUSH2 0x925 JUMPI POP POP PUSH2 0x797 JUMP JUMPDEST PUSH1 0x0 DUP2 SSTORE PUSH1 0x1 ADD PUSH2 0x90F JUMP JUMPDEST POP DUP1 PUSH2 0x90F JUMP JUMPDEST PUSH4 0x4E487B71 PUSH1 0xE0 SHL PUSH1 0x0 MSTORE PUSH1 0x21 PUSH1 0x4 MSTORE PUSH1 0x24 PUSH1 0x0 REVERT JUMPDEST PUSH1 0x40 MLOAD PUSH3 0x461BCD PUSH1 0xE5 SHL DUP2 MSTORE PUSH1 0x20 PUSH1 0x4 DUP3 ADD MSTORE PUSH1 0x15 PUSH1 0x24 DUP3 ADD MSTORE PUSH21 0x92DCECC2D8D2C840E4CAC2E6DEDC40D8CADCCEE8D PUSH1 0x5B SHL PUSH1 0x44 DUP3 ADD MSTORE PUSH1 0x64 SWAP1 REVERT JUMPDEST PUSH1 0xC8 SWAP2 POP GT ISZERO DUP3 PUSH2 0x6EC JUMP JUMPDEST PUSH1 0x40 MLOAD PUSH3 0x461BCD PUSH1 0xE5 SHL DUP2 MSTORE PUSH1 0x20 PUSH1 0x4 DUP3 ADD MSTORE PUSH1 0x18 PUSH1 0x24 DUP3 ADD MSTORE PUSH24 0x456D657267656E6379206C6F636B20697320616374697665 PUSH1 0x40 SHL PUSH1 0x44 DUP3 ADD MSTORE PUSH1 0x64 SWAP1 REVERT JUMPDEST PUSH2 0x9F6 SWAP3 POP DUP1 RETURNDATASIZE LT PUSH2 0x9FD JUMPI JUMPDEST PUSH2 0x9EE DUP2 DUP4 PUSH2 0x1750 JUMP JUMPDEST DUP2 ADD SWAP1 PUSH2 0x1D88 JUMP JUMPDEST DUP4 DUP1 PUSH2 0x6AA JUMP JUMPDEST POP RETURNDATASIZE PUSH2 0x9E4 JUMP JUMPDEST PUSH1 0x40 MLOAD RETURNDATASIZE PUSH1 0x0 DUP3 RETURNDATACOPY RETURNDATASIZE SWAP1 REVERT JUMPDEST CALLVALUE PUSH2 0x1A0 JUMPI PUSH1 0x20 DUP1 PUSH1 0x3 NOT CALLDATASIZE ADD SLT PUSH2 0x1A0 JUMPI PUSH1 0x4 CALLDATALOAD PUSH1 0x0 DUP1 MLOAD PUSH1 0x20 PUSH2 0x2582 DUP4 CODECOPY DUP2 MLOAD SWAP2 MSTORE PUSH1 0x0 MSTORE PUSH1 0x0 DUP3 MSTORE PUSH1 0x40 PUSH1 0x0 KECCAK256 CALLER PUSH1 0x0 MSTORE DUP3 MSTORE PUSH2 0xA57 PUSH1 0xFF PUSH1 0x40 PUSH1 0x0 KECCAK256 SLOAD AND PUSH2 0x2163 JUMP JUMPDEST PUSH2 0xA69 PUSH2 0xA64 CALLER DUP4 PUSH2 0x22E8 JUMP JUMPDEST PUSH2 0x21A0 JUMP JUMPDEST DUP1 PUSH1 0x0 MSTORE PUSH1 0x4 DUP3 MSTORE PUSH1 0x40 PUSH1 0x0 KECCAK256 CALLER PUSH1 0x0 MSTORE DUP3 MSTORE PUSH1 0x40 PUSH1 0x0 KECCAK256 PUSH1 0xFF NOT DUP2 SLOAD AND SWAP1 SSTORE PUSH1 0x40 MLOAD SWAP2 PUSH1 0x0 DUP4 MSTORE TIMESTAMP SWAP1 DUP4 ADD MSTORE PUSH1 0x0 DUP1 MLOAD PUSH1 0x20 PUSH2 0x2542 DUP4 CODECOPY DUP2 MLOAD SWAP2 MSTORE PUSH1 0x40 CALLER SWAP4 LOG3 STOP JUMPDEST CALLVALUE PUSH2 0x1A0 JUMPI PUSH1 0x0 CALLDATASIZE PUSH1 0x3 NOT ADD SLT PUSH2 0x1A0 JUMPI PUSH1 0x20 PUSH1 0x40 MLOAD PUSH1 0x0 DUP2 MSTORE RETURN JUMPDEST CALLVALUE PUSH2 0x1A0 JUMPI PUSH1 0x40 CALLDATASIZE PUSH1 0x3 NOT ADD SLT PUSH2 0x1A0 JUMPI PUSH2 0xAE1 PUSH2 0x17C9 JUMP JUMPDEST PUSH1 0x4 CALLDATALOAD PUSH1 0x0 MSTORE PUSH1 0x0 PUSH1 0x20 MSTORE PUSH1 0x40 PUSH1 0x0 KECCAK256 SWAP1 PUSH1 0x1 DUP1 PUSH1 0xA0 SHL SUB AND PUSH1 0x0 MSTORE PUSH1 0x20 MSTORE PUSH1 0x20 PUSH1 0xFF PUSH1 0x40 PUSH1 0x0 KECCAK256 SLOAD AND PUSH1 0x40 MLOAD SWAP1 ISZERO ISZERO DUP2 MSTORE RETURN JUMPDEST CALLVALUE PUSH2 0x1A0 JUMPI PUSH1 0x0 CALLDATASIZE PUSH1 0x3 NOT ADD SLT PUSH2 0x1A0 JUMPI PUSH1 0xA0 PUSH1 0x5 SLOAD PUSH1 0x6 SLOAD PUSH1 0x7 SLOAD PUSH1 0xFF PUSH1 0x8 SLOAD AND SWAP1 PUSH1 0x9 SLOAD SWAP3 PUSH1 0x40 MLOAD SWAP5 DUP6 MSTORE PUSH1 0x20 DUP6 ADD MSTORE PUSH1 0x40 DUP5 ADD MSTORE ISZERO ISZERO PUSH1 0x60 DUP4 ADD MSTORE PUSH1 0x80 DUP3 ADD MSTORE RETURN JUMPDEST CALLVALUE PUSH2 0x1A0 JUMPI PUSH1 0x40 CALLDATASIZE PUSH1 0x3 NOT ADD SLT PUSH2 0x1A0 JUMPI PUSH1 0x24 CALLDATALOAD PUSH1 0x4 CALLDATALOAD PUSH1 0x0 MSTORE PUSH1 0x3 PUSH1 0x20 MSTORE PUSH1 0x40 PUSH1 0x0 KECCAK256 DUP1 SLOAD DUP3 LT ISZERO PUSH2 0x1A0 JUMPI PUSH1 0x20 SWAP2 PUSH2 0xB93 SWAP2 PUSH2 0x1914 JUMP JUMPDEST SWAP1 SLOAD PUSH1 0x40 MLOAD PUSH1 0x3 SWAP3 SWAP1 SWAP3 SHL SHR PUSH1 0x1 PUSH1 0x1 PUSH1 0xA0 SHL SUB AND DUP2 MSTORE RETURN JUMPDEST CALLVALUE PUSH2 0x1A0 JUMPI PUSH1 0x20 DUP1 PUSH1 0x3 NOT CALLDATASIZE ADD SLT PUSH2 0x1A0 JUMPI PUSH1 0x0 PUSH1 0xE0 PUSH1 0x40 MLOAD PUSH2 0xBCE DUP2 PUSH2 0x1719 JUMP JUMPDEST DUP3 DUP2 MSTORE DUP3 DUP5 DUP3 ADD MSTORE PUSH1 0x60 PUSH1 0x40 DUP3 ADD MSTORE DUP3 PUSH1 0x60 DUP3 ADD MSTORE DUP3 PUSH1 0x80 DUP3 ADD MSTORE DUP3 PUSH1 0xA0 DUP3 ADD MSTORE DUP3 PUSH1 0xC0 DUP3 ADD MSTORE ADD MSTORE PUSH1 0x4 CALLDATALOAD PUSH1 0x0 MSTORE PUSH1 0x2 DUP2 MSTORE PUSH1 0x40 PUSH1 0x0 KECCAK256 PUSH1 0x40 MLOAD SWAP1 PUSH2 0xC13 DUP3 PUSH2 0x1719 JUMP JUMPDEST DUP1 SLOAD DUP3 MSTORE PUSH1 0xFF PUSH1 0x1 DUP3 ADD SLOAD AND PUSH2 0xC2C DUP5 DUP5 ADD SWAP2 DUP3 PUSH2 0x1F60 JUMP JUMPDEST PUSH2 0xC38 PUSH1 0x2 DUP4 ADD PUSH2 0x1819 JUMP JUMPDEST SWAP1 PUSH1 0x40 DUP5 ADD SWAP2 DUP3 MSTORE PUSH1 0x3 DUP4 ADD SLOAD SWAP3 PUSH1 0x60 DUP6 ADD SWAP4 DUP5 MSTORE PUSH1 0x4 DUP2 ADD SLOAD PUSH1 0x80 DUP7 ADD SWAP4 PUSH1 0x1 DUP1 PUSH1 0xA0 SHL SUB SWAP1 DUP2 DUP4 AND DUP7 MSTORE PUSH1 0xFF PUSH1 0xA0 DUP10 ADD SWAP4 PUSH1 0xA0 SHR AND ISZERO ISZERO DUP4 MSTORE PUSH2 0xCA8 PUSH1 0x6 PUSH1 0x5 DUP7 ADD SLOAD SWAP6 PUSH1 0xC0 DUP12 ADD SWAP7 DUP8 MSTORE ADD SLOAD SWAP6 PUSH1 0xE0 DUP11 ADD SWAP7 DUP8 MSTORE PUSH1 0x40 MLOAD SWAP11 DUP12 SWAP11 DUP2 DUP13 MSTORE MLOAD SWAP1 DUP12 ADD MSTORE MLOAD PUSH1 0x40 DUP11 ADD SWAP1 PUSH2 0x18BF JUMP JUMPDEST MLOAD SWAP5 PUSH2 0xCC2 PUSH2 0x100 SWAP7 DUP8 PUSH1 0x60 DUP12 ADD MSTORE PUSH2 0x120 DUP11 ADD SWAP1 PUSH2 0x18EF JUMP JUMPDEST SWAP7 MLOAD PUSH1 0x80 DUP10 ADD MSTORE MLOAD AND PUSH1 0xA0 DUP8 ADD MSTORE MLOAD ISZERO ISZERO PUSH1 0xC0 DUP7 ADD MSTORE MLOAD PUSH1 0xE0 DUP6 ADD MSTORE MLOAD SWAP1 DUP4 ADD MSTORE SUB SWAP1 RETURN JUMPDEST CALLVALUE PUSH2 0x1A0 JUMPI PUSH1 0x0 CALLDATASIZE PUSH1 0x3 NOT ADD SLT PUSH2 0x1A0 JUMPI PUSH1 0x20 PUSH1 0xFF PUSH1 0x1 SLOAD AND PUSH1 0x40 MLOAD SWAP1 ISZERO ISZERO DUP2 MSTORE RETURN JUMPDEST CALLVALUE PUSH2 0x1A0 JUMPI PUSH1 0x20 CALLDATASIZE PUSH1 0x3 NOT ADD SLT PUSH2 0x1A0 JUMPI PUSH1 0x4 CALLDATALOAD PUSH1 0x0 MSTORE PUSH1 0x2 PUSH1 0x20 MSTORE PUSH1 0x40 PUSH1 0x0 KECCAK256 DUP1 SLOAD PUSH1 0xFF PUSH1 0x1 DUP4 ADD SLOAD AND SWAP2 PUSH2 0xD42 PUSH1 0x2 DUP3 ADD PUSH2 0x1819 JUMP JUMPDEST PUSH1 0x3 DUP3 ADD SLOAD SWAP2 PUSH1 0xFF PUSH1 0x4 DUP3 ADD SLOAD PUSH2 0xD83 PUSH1 0x6 PUSH1 0x5 DUP6 ADD SLOAD SWAP5 ADD SLOAD SWAP5 PUSH2 0xD72 PUSH1 0x40 MLOAD SWAP10 DUP11 SWAP10 DUP11 MSTORE PUSH1 0x20 DUP11 ADD SWAP1 PUSH2 0x18BF JUMP JUMPDEST PUSH2 0x100 DUP1 PUSH1 0x40 DUP11 ADD MSTORE DUP9 ADD SWAP1 PUSH2 0x18EF JUMP JUMPDEST SWAP5 PUSH1 0x60 DUP8 ADD MSTORE PUSH1 0x1 DUP1 PUSH1 0xA0 SHL SUB DUP2 AND PUSH1 0x80 DUP8 ADD MSTORE PUSH1 0xA0 SHR AND ISZERO ISZERO PUSH1 0xA0 DUP6 ADD MSTORE PUSH1 0xC0 DUP5 ADD MSTORE PUSH1 0xE0 DUP4 ADD MSTORE SUB SWAP1 RETURN JUMPDEST CALLVALUE PUSH2 0x1A0 JUMPI PUSH1 0x0 CALLDATASIZE PUSH1 0x3 NOT ADD SLT PUSH2 0x1A0 JUMPI PUSH1 0x1 SLOAD PUSH1 0x40 MLOAD PUSH1 0x8 SWAP2 SWAP1 SWAP2 SHR PUSH1 0x1 PUSH1 0x1 PUSH1 0xA0 SHL SUB AND DUP2 MSTORE PUSH1 0x20 SWAP1 RETURN JUMPDEST CALLVALUE PUSH2 0x1A0 JUMPI PUSH1 0x0 CALLDATASIZE PUSH1 0x3 NOT ADD SLT PUSH2 0x1A0 JUMPI PUSH2 0xDF6 PUSH2 0x192C JUMP JUMPDEST PUSH1 0x1 SLOAD PUSH1 0xFF DUP2 AND ISZERO PUSH2 0xE35 JUMPI PUSH1 0xFF NOT AND PUSH1 0x1 SSTORE PUSH32 0x5DB9EE0A495BF2E6FF9C91A7834C1BA4FDD244A5E8AA4E537BD38AEAE4B073AA PUSH1 0x20 PUSH1 0x40 MLOAD CALLER DUP2 MSTORE LOG1 STOP JUMPDEST PUSH1 0x40 MLOAD PUSH3 0x461BCD PUSH1 0xE5 SHL DUP2 MSTORE PUSH1 0x20 PUSH1 0x4 DUP3 ADD MSTORE PUSH1 0x14 PUSH1 0x24 DUP3 ADD MSTORE PUSH20 0x14185D5CD8589B194E881B9BDD081C185D5CD959 PUSH1 0x62 SHL PUSH1 0x44 DUP3 ADD MSTORE PUSH1 0x64 SWAP1 REVERT JUMPDEST CALLVALUE PUSH2 0x1A0 JUMPI PUSH1 0x40 CALLDATASIZE PUSH1 0x3 NOT ADD SLT PUSH2 0x1A0 JUMPI PUSH1 0x4 CALLDATALOAD PUSH2 0xE8D PUSH2 0x17C9 JUMP JUMPDEST PUSH1 0x1 SLOAD PUSH1 0x40 MLOAD PUSH4 0x786420D1 PUSH1 0xE0 SHL DUP2 MSTORE PUSH1 0x4 DUP2 ADD DUP5 SWAP1 MSTORE PUSH2 0x3C0 SWAP4 SWAP3 SWAP2 PUSH1 0x1 PUSH1 0x1 PUSH1 0xA0 SHL SUB SWAP2 SWAP1 DUP6 SWAP1 DUP3 SWAP1 PUSH1 0x24 SWAP1 DUP3 SWAP1 PUSH1 0x8 SHR DUP7 AND GAS STATICCALL SWAP5 DUP6 ISZERO PUSH2 0xA04 JUMPI PUSH1 0x0 SWAP6 PUSH2 0x1060 JUMPI JUMPDEST POP POP PUSH2 0xEE7 DUP2 PUSH1 0x20 DUP1 SWAP7 ADD MLOAD AND CALLER EQ PUSH2 0x1F21 JUMP JUMPDEST DUP2 AND SWAP3 DUP4 ISZERO PUSH2 0x1021 JUMPI PUSH2 0xEFA DUP3 DUP5 PUSH2 0x22E8 JUMP JUMPDEST PUSH2 0xFE8 JUMPI PUSH1 0x0 DUP4 DUP2 MSTORE PUSH1 0x3 DUP3 MSTORE PUSH1 0x40 SWAP1 KECCAK256 DUP1 SLOAD SWAP1 SWAP3 PUSH1 0x1 PUSH1 0x40 SHL DUP3 LT ISZERO PUSH2 0x55B JUMPI PUSH2 0xF4F DUP3 PUSH32 0x328CFB31557826BD0EE2AF22D41990313383E5254B4A543C6EEB1DBC72E8A42E SWAP6 PUSH1 0x1 PUSH2 0xF6E SWAP6 ADD DUP2 SSTORE PUSH2 0x1914 JUMP JUMPDEST SWAP1 SWAP2 SWAP1 DUP3 SLOAD SWAP1 PUSH1 0x3 SHL SWAP2 PUSH1 0x1 DUP1 PUSH1 0xA0 SHL SUB DUP1 SWAP2 AND DUP4 SHL SWAP3 SHL NOT AND OR SWAP1 SSTORE JUMP JUMPDEST PUSH1 0x0 DUP1 MLOAD PUSH1 0x20 PUSH2 0x2582 DUP4 CODECOPY DUP2 MLOAD SWAP2 MSTORE DUP1 PUSH1 0x0 MSTORE PUSH1 0x0 DUP3 MSTORE PUSH1 0x40 PUSH1 0x0 KECCAK256 DUP6 PUSH1 0x0 MSTORE DUP3 MSTORE PUSH1 0xFF PUSH1 0x40 PUSH1 0x0 KECCAK256 SLOAD AND ISZERO PUSH2 0xFA9 JUMPI JUMPDEST POP PUSH1 0x40 MLOAD TIMESTAMP DUP2 MSTORE LOG3 STOP JUMPDEST DUP1 PUSH1 0x0 MSTORE PUSH1 0x0 DUP3 MSTORE PUSH1 0x40 PUSH1 0x0 KECCAK256 DUP6 PUSH1 0x0 MSTORE DUP3 MSTORE PUSH1 0x40 PUSH1 0x0 KECCAK256 PUSH1 0x1 PUSH1 0xFF NOT DUP3 SLOAD AND OR SWAP1 SSTORE DUP5 CALLER SWAP2 PUSH1 0x0 DUP1 MLOAD PUSH1 0x20 PUSH2 0x2502 DUP4 CODECOPY DUP2 MLOAD SWAP2 MSTORE PUSH1 0x0 DUP1 LOG4 DUP5 PUSH2 0xF9F JUMP JUMPDEST PUSH1 0x64 SWAP1 PUSH1 0x40 MLOAD SWAP1 PUSH3 0x461BCD PUSH1 0xE5 SHL DUP3 MSTORE PUSH1 0x4 DUP3 ADD MSTORE PUSH1 0x12 PUSH1 0x24 DUP3 ADD MSTORE PUSH18 0x20B63932B0B23C90309033BAB0B93234B0B7 PUSH1 0x71 SHL PUSH1 0x44 DUP3 ADD MSTORE REVERT JUMPDEST PUSH1 0x64 SWAP1 PUSH1 0x40 MLOAD SWAP1 PUSH3 0x461BCD PUSH1 0xE5 SHL DUP3 MSTORE PUSH1 0x4 DUP3 ADD MSTORE PUSH1 0x18 PUSH1 0x24 DUP3 ADD MSTORE PUSH24 0x496E76616C696420677561726469616E2061646472657373 PUSH1 0x40 SHL PUSH1 0x44 DUP3 ADD MSTORE REVERT JUMPDEST PUSH2 0x1077 SWAP3 SWAP6 POP DUP1 RETURNDATASIZE LT PUSH2 0x9FD JUMPI PUSH2 0x9EE DUP2 DUP4 PUSH2 0x1750 JUMP JUMPDEST SWAP3 DUP5 DUP1 PUSH2 0xED3 JUMP JUMPDEST CALLVALUE PUSH2 0x1A0 JUMPI PUSH1 0x40 CALLDATASIZE PUSH1 0x3 NOT ADD SLT PUSH2 0x1A0 JUMPI PUSH2 0x1098 PUSH2 0x17C9 JUMP JUMPDEST CALLER PUSH1 0x1 PUSH1 0x1 PUSH1 0xA0 SHL SUB DUP3 AND SUB PUSH2 0x10B4 JUMPI PUSH2 0x294 SWAP1 PUSH1 0x4 CALLDATALOAD PUSH2 0x1BD9 JUMP JUMPDEST PUSH1 0x40 MLOAD PUSH3 0x461BCD PUSH1 0xE5 SHL DUP2 MSTORE PUSH1 0x20 PUSH1 0x4 DUP3 ADD MSTORE PUSH1 0x2F PUSH1 0x24 DUP3 ADD MSTORE PUSH32 0x416363657373436F6E74726F6C3A2063616E206F6E6C792072656E6F756E6365 PUSH1 0x44 DUP3 ADD MSTORE PUSH15 0x103937B632B9903337B91039B2B633 PUSH1 0x89 SHL PUSH1 0x64 DUP3 ADD MSTORE PUSH1 0x84 SWAP1 REVERT JUMPDEST CALLVALUE PUSH2 0x1A0 JUMPI PUSH1 0x20 CALLDATASIZE PUSH1 0x3 NOT ADD SLT PUSH2 0x1A0 JUMPI PUSH1 0x20 PUSH2 0x112F PUSH1 0x4 CALLDATALOAD PUSH2 0x238A JUMP JUMPDEST PUSH1 0x40 MLOAD SWAP1 DUP2 MSTORE RETURN JUMPDEST CALLVALUE PUSH2 0x1A0 JUMPI PUSH1 0x40 CALLDATASIZE PUSH1 0x3 NOT ADD SLT PUSH2 0x1A0 JUMPI PUSH1 0x4 CALLDATALOAD PUSH2 0x1153 PUSH2 0x17C9 JUMP JUMPDEST DUP2 PUSH1 0x0 MSTORE PUSH1 0x0 PUSH1 0x20 MSTORE PUSH2 0x116D PUSH1 0x1 PUSH1 0x40 PUSH1 0x0 KECCAK256 ADD SLOAD PUSH2 0x1ADB JUMP JUMPDEST DUP2 PUSH1 0x0 MSTORE PUSH1 0x0 PUSH1 0x20 MSTORE PUSH1 0x40 PUSH1 0x0 KECCAK256 SWAP1 PUSH1 0x1 DUP1 PUSH1 0xA0 SHL SUB AND SWAP1 DUP2 PUSH1 0x0 MSTORE PUSH1 0x20 MSTORE PUSH1 0xFF PUSH1 0x40 PUSH1 0x0 KECCAK256 SLOAD AND ISZERO PUSH2 0x119C JUMPI STOP JUMPDEST DUP2 PUSH1 0x0 MSTORE PUSH1 0x0 PUSH1 0x20 MSTORE PUSH1 0x40 PUSH1 0x0 KECCAK256 DUP2 PUSH1 0x0 MSTORE PUSH1 0x20 MSTORE PUSH1 0x40 PUSH1 0x0 KECCAK256 PUSH1 0x1 PUSH1 0xFF NOT DUP3 SLOAD AND OR SWAP1 SSTORE CALLER SWAP2 PUSH1 0x0 DUP1 MLOAD PUSH1 0x20 PUSH2 0x2502 DUP4 CODECOPY DUP2 MLOAD SWAP2 MSTORE PUSH1 0x0 DUP1 LOG4 STOP JUMPDEST CALLVALUE PUSH2 0x1A0 JUMPI PUSH1 0x40 CALLDATASIZE PUSH1 0x3 NOT ADD SLT PUSH2 0x1A0 JUMPI PUSH1 0x4 CALLDATALOAD PUSH2 0x11F4 PUSH2 0x17C9 JUMP JUMPDEST PUSH1 0x1 DUP1 SLOAD PUSH1 0x40 MLOAD PUSH4 0x786420D1 PUSH1 0xE0 SHL DUP2 MSTORE PUSH1 0x4 DUP2 ADD DUP6 SWAP1 MSTORE SWAP2 SWAP4 SWAP2 PUSH1 0x1 PUSH1 0x1 PUSH1 0xA0 SHL SUB SWAP2 PUSH1 0x24 SWAP2 PUSH2 0x3C0 SWAP2 DUP3 SWAP1 DUP3 SWAP1 DUP6 SWAP1 DUP3 SWAP1 PUSH1 0x8 SHR DUP9 AND GAS STATICCALL SWAP2 DUP3 ISZERO PUSH2 0xA04 JUMPI PUSH2 0x1258 SWAP3 DUP6 SWAP3 PUSH1 0x20 SWAP3 PUSH1 0x0 SWAP3 PUSH2 0x1399 JUMPI JUMPDEST POP POP ADD MLOAD DUP8 SWAP7 SWAP4 SWAP5 SWAP3 SWAP2 AND CALLER EQ PUSH2 0x1F21 JUMP JUMPDEST PUSH2 0x126A PUSH2 0x1265 DUP4 DUP7 PUSH2 0x22E8 JUMP JUMPDEST PUSH2 0x2163 JUMP JUMPDEST DUP4 PUSH1 0x0 MSTORE PUSH1 0x3 SWAP3 DUP4 PUSH1 0x20 MSTORE PUSH1 0x40 PUSH1 0x0 KECCAK256 SWAP3 DUP3 PUSH1 0x0 SWAP2 AND SWAP8 JUMPDEST PUSH2 0x12D7 JUMPI JUMPDEST DUP8 DUP7 DUP1 PUSH1 0x0 MSTORE PUSH1 0x4 PUSH1 0x20 MSTORE PUSH1 0x40 PUSH1 0x0 KECCAK256 DUP3 PUSH1 0x0 MSTORE PUSH1 0x20 MSTORE PUSH1 0x40 PUSH1 0x0 KECCAK256 PUSH1 0xFF NOT DUP2 SLOAD AND SWAP1 SSTORE PUSH32 0x690DEF215684B8F198111C31D1FF34BEBCCA5CA00ED2CC1202BB3C9F14F0DADB PUSH1 0x20 PUSH1 0x40 MLOAD TIMESTAMP DUP2 MSTORE LOG3 STOP JUMPDEST DUP4 SLOAD DUP1 DUP3 LT ISZERO PUSH2 0x1393 JUMPI DUP9 DUP5 PUSH2 0x12ED DUP5 DUP9 PUSH2 0x1914 JUMP JUMPDEST SWAP1 SLOAD SWAP1 DUP10 SHL SHR AND EQ PUSH2 0x1309 JUMPI POP PUSH2 0x1303 SWAP1 PUSH2 0x1FB7 JUMP JUMPDEST DUP7 PUSH2 0x1282 JUMP JUMPDEST SWAP3 SWAP4 SWAP5 SWAP6 SWAP7 POP PUSH1 0x0 NOT SWAP3 DUP4 DUP2 ADD SWAP1 DUP2 GT PUSH2 0x137E JUMPI SWAP1 PUSH2 0xF4F DUP6 PUSH2 0x132F PUSH2 0x133D SWAP5 DUP10 PUSH2 0x1914 JUMP JUMPDEST SWAP1 SLOAD SWAP1 DUP11 SHL SHR AND SWAP2 DUP8 PUSH2 0x1914 JUMP JUMPDEST DUP4 SLOAD SWAP1 DUP2 ISZERO PUSH2 0x136A JUMPI POP ADD SWAP3 PUSH2 0x1353 DUP5 DUP5 PUSH2 0x1914 JUMP JUMPDEST DUP2 SWAP4 SWAP2 SLOAD SWAP3 SHL SHL NOT AND SWAP1 SSTORE SSTORE DUP1 DUP4 DUP1 DUP1 DUP1 DUP1 PUSH2 0x1287 JUMP JUMPDEST PUSH4 0x4E487B71 PUSH1 0xE0 SHL PUSH1 0x0 SWAP1 DUP2 MSTORE PUSH1 0x31 PUSH1 0x4 MSTORE REVERT JUMPDEST DUP3 PUSH4 0x4E487B71 PUSH1 0xE0 SHL PUSH1 0x0 MSTORE PUSH1 0x11 PUSH1 0x4 MSTORE PUSH1 0x0 REVERT JUMPDEST POP PUSH2 0x1287 JUMP JUMPDEST PUSH2 0x13AF SWAP3 POP DUP1 RETURNDATASIZE LT PUSH2 0x9FD JUMPI PUSH2 0x9EE DUP2 DUP4 PUSH2 0x1750 JUMP JUMPDEST DUP10 DUP1 PUSH2 0x1246 JUMP JUMPDEST CALLVALUE PUSH2 0x1A0 JUMPI PUSH1 0x0 CALLDATASIZE PUSH1 0x3 NOT ADD SLT PUSH2 0x1A0 JUMPI PUSH1 0x20 PUSH1 0x40 MLOAD PUSH1 0x0 DUP1 MLOAD PUSH1 0x20 PUSH2 0x2582 DUP4 CODECOPY DUP2 MLOAD SWAP2 MSTORE DUP2 MSTORE RETURN JUMPDEST CALLVALUE PUSH2 0x1A0 JUMPI PUSH1 0x20 CALLDATASIZE PUSH1 0x3 NOT ADD SLT PUSH2 0x1A0 JUMPI PUSH1 0x4 CALLDATALOAD PUSH1 0x0 MSTORE PUSH1 0x0 PUSH1 0x20 MSTORE PUSH1 0x20 PUSH1 0x1 PUSH1 0x40 PUSH1 0x0 KECCAK256 ADD SLOAD PUSH1 0x40 MLOAD SWAP1 DUP2 MSTORE RETURN JUMPDEST CALLVALUE PUSH2 0x1A0 JUMPI PUSH1 0x20 DUP1 PUSH1 0x3 NOT CALLDATASIZE ADD SLT PUSH2 0x1A0 JUMPI PUSH1 0x4 CALLDATALOAD DUP1 PUSH1 0x0 MSTORE PUSH1 0x2 DUP3 MSTORE PUSH2 0x1442 PUSH1 0xFF PUSH1 0x4 PUSH1 0x40 PUSH1 0x0 KECCAK256 ADD SLOAD PUSH1 0xA0 SHR AND PUSH2 0x1F6C JUMP JUMPDEST PUSH1 0x0 DUP1 MLOAD PUSH1 0x20 PUSH2 0x2582 DUP4 CODECOPY DUP2 MLOAD SWAP2 MSTORE PUSH1 0x0 MSTORE PUSH1 0x0 DUP3 MSTORE PUSH1 0x40 PUSH1 0x0 KECCAK256 CALLER PUSH1 0x0 MSTORE DUP3 MSTORE PUSH2 0x1474 PUSH1 0xFF PUSH1 0x40 PUSH1 0x0 KECCAK256 SLOAD AND PUSH2 0x2163 JUMP JUMPDEST PUSH2 0x1481 PUSH2 0xA64 CALLER DUP4 PUSH2 0x22E8 JUMP JUMPDEST DUP1 PUSH1 0x0 MSTORE PUSH1 0x4 DUP3 MSTORE PUSH1 0x40 PUSH1 0x0 KECCAK256 CALLER PUSH1 0x0 MSTORE DUP3 MSTORE PUSH1 0x40 PUSH1 0x0 KECCAK256 PUSH1 0x1 PUSH1 0xFF NOT DUP3 SLOAD AND OR SWAP1 SSTORE PUSH1 0x40 MLOAD SWAP2 PUSH1 0x1 DUP4 MSTORE TIMESTAMP SWAP1 DUP4 ADD MSTORE PUSH1 0x0 DUP1 MLOAD PUSH1 0x20 PUSH2 0x2542 DUP4 CODECOPY DUP2 MLOAD SWAP2 MSTORE PUSH1 0x40 CALLER SWAP4 LOG3 STOP JUMPDEST CALLVALUE PUSH2 0x1A0 JUMPI PUSH1 0x40 CALLDATASIZE PUSH1 0x3 NOT ADD SLT PUSH2 0x1A0 JUMPI PUSH1 0x4 CALLDATALOAD PUSH1 0x24 CALLDATALOAD PUSH1 0x1 PUSH1 0x1 PUSH1 0x40 SHL SUB DUP2 GT PUSH2 0x1A0 JUMPI PUSH2 0x14FA SWAP1 CALLDATASIZE SWAP1 PUSH1 0x4 ADD PUSH2 0x1773 JUMP JUMPDEST POP PUSH1 0x1 SLOAD PUSH1 0x40 MLOAD PUSH4 0x786420D1 PUSH1 0xE0 SHL DUP2 MSTORE PUSH1 0x4 DUP2 ADD DUP4 SWAP1 MSTORE PUSH2 0x3C0 SWAP3 SWAP2 PUSH1 0x1 PUSH1 0x1 PUSH1 0xA0 SHL SUB SWAP1 DUP5 SWAP1 DUP4 SWAP1 PUSH1 0x24 SWAP1 DUP3 SWAP1 PUSH1 0x8 SHR DUP6 AND GAS STATICCALL SWAP4 DUP5 ISZERO PUSH2 0xA04 JUMPI PUSH2 0x294 SWAP5 PUSH2 0x1556 SWAP4 PUSH1 0x20 SWAP3 PUSH1 0x0 SWAP3 PUSH2 0x157B JUMPI JUMPDEST POP POP ADD MLOAD AND CALLER EQ PUSH2 0x1F21 JUMP JUMPDEST DUP1 PUSH1 0x0 MSTORE PUSH1 0x2 PUSH1 0x20 MSTORE PUSH2 0x1576 PUSH1 0xFF PUSH1 0x4 PUSH1 0x40 PUSH1 0x0 KECCAK256 ADD SLOAD PUSH1 0xA0 SHR AND PUSH2 0x1F6C JUMP JUMPDEST PUSH2 0x1FC6 JUMP JUMPDEST PUSH2 0x1591 SWAP3 POP DUP1 RETURNDATASIZE LT PUSH2 0x9FD JUMPI PUSH2 0x9EE DUP2 DUP4 PUSH2 0x1750 JUMP JUMPDEST DUP7 DUP1 PUSH2 0x154A JUMP JUMPDEST CALLVALUE PUSH2 0x1A0 JUMPI PUSH1 0x20 CALLDATASIZE PUSH1 0x3 NOT ADD SLT PUSH2 0x1A0 JUMPI PUSH1 0x4 CALLDATALOAD PUSH1 0x1 DUP1 PUSH1 0xA0 SHL SUB DUP1 PUSH1 0x1 SLOAD PUSH1 0x8 SHR AND PUSH1 0x40 MLOAD DUP1 SWAP2 PUSH4 0x786420D1 PUSH1 0xE0 SHL DUP3 MSTORE DUP5 PUSH1 0x4 DUP4 ADD MSTORE DUP2 PUSH1 0x24 PUSH2 0x3C0 SWAP5 DUP6 SWAP4 GAS STATICCALL SWAP1 DUP2 ISZERO PUSH2 0xA04 JUMPI PUSH2 0x3A0 SWAP3 PUSH1 0x0 SWAP3 PUSH2 0x16A9 JUMPI JUMPDEST POP POP ADD MLOAD AND CALLER SUB PUSH2 0x166E JUMPI DUP1 PUSH1 0x0 MSTORE PUSH1 0x2 PUSH1 0x20 MSTORE PUSH2 0x1619 PUSH1 0xFF PUSH1 0x4 PUSH1 0x40 PUSH1 0x0 KECCAK256 ADD SLOAD PUSH1 0xA0 SHR AND PUSH2 0x1F6C JUMP JUMPDEST PUSH1 0x0 DUP2 DUP2 MSTORE PUSH1 0x2 PUSH1 0x20 MSTORE PUSH1 0x40 SWAP1 KECCAK256 PUSH1 0x4 ADD DUP1 SLOAD PUSH1 0xFF PUSH1 0xA0 SHL NOT AND SWAP1 SSTORE PUSH2 0x163E DUP2 PUSH2 0x2453 JUMP JUMPDEST PUSH1 0x40 MLOAD TIMESTAMP DUP2 MSTORE CALLER SWAP2 PUSH32 0xE7884C519CF08248780098C2EF938ED6518D8888A9FEA4A432E8357DB6290D0E PUSH1 0x20 CALLER SWAP4 LOG4 STOP JUMPDEST PUSH1 0x40 MLOAD PUSH3 0x461BCD PUSH1 0xE5 SHL DUP2 MSTORE PUSH1 0x20 PUSH1 0x4 DUP3 ADD MSTORE PUSH1 0x13 PUSH1 0x24 DUP3 ADD MSTORE PUSH19 0x4E6F7420657374617465206D756C7469736967 PUSH1 0x68 SHL PUSH1 0x44 DUP3 ADD MSTORE PUSH1 0x64 SWAP1 REVERT JUMPDEST PUSH2 0x16BF SWAP3 POP DUP1 RETURNDATASIZE LT PUSH2 0x9FD JUMPI PUSH2 0x9EE DUP2 DUP4 PUSH2 0x1750 JUMP JUMPDEST DUP5 DUP1 PUSH2 0x15EE JUMP JUMPDEST CALLVALUE PUSH2 0x1A0 JUMPI PUSH1 0x20 CALLDATASIZE PUSH1 0x3 NOT ADD SLT PUSH2 0x1A0 JUMPI PUSH1 0x4 CALLDATALOAD SWAP1 PUSH4 0xFFFFFFFF PUSH1 0xE0 SHL DUP3 AND DUP1 SWAP3 SUB PUSH2 0x1A0 JUMPI PUSH1 0x20 SWAP2 PUSH4 0x7965DB0B PUSH1 0xE0 SHL DUP2 EQ SWAP1 DUP2 ISZERO PUSH2 0x1708 JUMPI JUMPDEST POP ISZERO ISZERO DUP2 MSTORE RETURN JUMPDEST PUSH4 0x1FFC9A7 PUSH1 0xE0 SHL EQ SWAP1 POP DUP4 PUSH2 0x1701 JUMP JUMPDEST PUSH2 0x100 DUP2 ADD SWAP1 DUP2 LT PUSH1 0x1 PUSH1 0x1 PUSH1 0x40 SHL SUB DUP3 GT OR PUSH2 0x55B JUMPI PUSH1 0x40 MSTORE JUMP JUMPDEST PUSH1 0x80 DUP2 ADD SWAP1 DUP2 LT PUSH1 0x1 PUSH1 0x1 PUSH1 0x40 SHL SUB DUP3 GT OR PUSH2 0x55B JUMPI PUSH1 0x40 MSTORE JUMP JUMPDEST PUSH1 0x1F SWAP1 SWAP2 ADD PUSH1 0x1F NOT AND DUP2 ADD SWAP1 PUSH1 0x1 PUSH1 0x1 PUSH1 0x40 SHL SUB DUP3 GT SWAP1 DUP3 LT OR PUSH2 0x55B JUMPI PUSH1 0x40 MSTORE JUMP JUMPDEST DUP2 PUSH1 0x1F DUP3 ADD SLT ISZERO PUSH2 0x1A0 JUMPI DUP1 CALLDATALOAD SWAP1 PUSH1 0x1 PUSH1 0x1 PUSH1 0x40 SHL SUB DUP3 GT PUSH2 0x55B JUMPI PUSH1 0x40 MLOAD SWAP3 PUSH2 0x17A7 PUSH1 0x1F DUP5 ADD PUSH1 0x1F NOT AND PUSH1 0x20 ADD DUP6 PUSH2 0x1750 JUMP JUMPDEST DUP3 DUP5 MSTORE PUSH1 0x20 DUP4 DUP4 ADD ADD GT PUSH2 0x1A0 JUMPI DUP2 PUSH1 0x0 SWAP3 PUSH1 0x20 DUP1 SWAP4 ADD DUP4 DUP7 ADD CALLDATACOPY DUP4 ADD ADD MSTORE SWAP1 JUMP JUMPDEST PUSH1 0x24 CALLDATALOAD SWAP1 PUSH1 0x1 PUSH1 0x1 PUSH1 0xA0 SHL SUB DUP3 AND DUP3 SUB PUSH2 0x1A0 JUMPI JUMP JUMPDEST SWAP1 PUSH1 0x1 DUP3 DUP2 SHR SWAP3 AND DUP1 ISZERO PUSH2 0x180F JUMPI JUMPDEST PUSH1 0x20 DUP4 LT EQ PUSH2 0x17F9 JUMPI JUMP JUMPDEST PUSH4 0x4E487B71 PUSH1 0xE0 SHL PUSH1 0x0 MSTORE PUSH1 0x22 PUSH1 0x4 MSTORE PUSH1 0x24 PUSH1 0x0 REVERT JUMPDEST SWAP2 PUSH1 0x7F AND SWAP2 PUSH2 0x17EE JUMP JUMPDEST SWAP1 PUSH1 0x40 MLOAD SWAP2 DUP3 PUSH1 0x0 DUP3 SLOAD SWAP3 PUSH2 0x182D DUP5 PUSH2 0x17DF JUMP JUMPDEST SWAP1 DUP2 DUP5 MSTORE PUSH1 0x1 SWAP5 DUP6 DUP2 AND SWAP1 DUP2 PUSH1 0x0 EQ PUSH2 0x189C JUMPI POP PUSH1 0x1 EQ PUSH2 0x1859 JUMPI JUMPDEST POP POP PUSH2 0x1857 SWAP3 POP SUB DUP4 PUSH2 0x1750 JUMP JUMPDEST JUMP JUMPDEST SWAP1 SWAP4 SWAP2 POP PUSH1 0x0 MSTORE PUSH1 0x20 SWAP1 DUP2 PUSH1 0x0 KECCAK256 SWAP4 PUSH1 0x0 SWAP2 JUMPDEST DUP2 DUP4 LT PUSH2 0x1884 JUMPI POP POP PUSH2 0x1857 SWAP4 POP DUP3 ADD ADD CODESIZE DUP1 PUSH2 0x1849 JUMP JUMPDEST DUP6 SLOAD DUP9 DUP5 ADD DUP6 ADD MSTORE SWAP5 DUP6 ADD SWAP5 DUP8 SWAP5 POP SWAP2 DUP4 ADD SWAP2 PUSH2 0x186C JUMP JUMPDEST SWAP2 POP POP PUSH2 0x1857 SWAP5 POP PUSH1 0x20 SWAP3 POP PUSH1 0xFF NOT AND DUP3 DUP5 ADD MSTORE ISZERO ISZERO PUSH1 0x5 SHL DUP3 ADD ADD CODESIZE DUP1 PUSH2 0x1849 JUMP JUMPDEST SWAP1 PUSH1 0x5 DUP3 LT ISZERO PUSH2 0x938 JUMPI MSTORE JUMP JUMPDEST PUSH1 0x0 JUMPDEST DUP4 DUP2 LT PUSH2 0x18DF JUMPI POP POP PUSH1 0x0 SWAP2 ADD MSTORE JUMP JUMPDEST DUP2 DUP2 ADD MLOAD DUP4 DUP3 ADD MSTORE PUSH1 0x20 ADD PUSH2 0x18CF JUMP JUMPDEST SWAP1 PUSH1 0x20 SWAP2 PUSH2 0x1908 DUP2 MLOAD DUP1 SWAP3 DUP2 DUP6 MSTORE DUP6 DUP1 DUP7 ADD SWAP2 ADD PUSH2 0x18CC JUMP JUMPDEST PUSH1 0x1F ADD PUSH1 0x1F NOT AND ADD ADD SWAP1 JUMP JUMPDEST DUP1 SLOAD DUP3 LT ISZERO PUSH2 0x4DC JUMPI PUSH1 0x0 MSTORE PUSH1 0x20 PUSH1 0x0 KECCAK256 ADD SWAP1 PUSH1 0x0 SWAP1 JUMP JUMPDEST CALLER PUSH1 0x0 SWAP1 DUP2 MSTORE PUSH32 0xAD3228B676F7D3CD4284A5443F17F1962B36E491B30A40B2405849E597BA5FB5 PUSH1 0x20 SWAP1 DUP2 MSTORE PUSH1 0x40 DUP1 DUP4 KECCAK256 SLOAD SWAP1 SWAP3 SWAP1 PUSH1 0xFF AND ISZERO PUSH2 0x196E JUMPI POP POP POP JUMP JUMPDEST PUSH2 0x1977 CALLER PUSH2 0x1C6B JUMP JUMPDEST SWAP1 DUP1 DUP5 MLOAD SWAP1 PUSH2 0x1985 DUP3 PUSH2 0x1735 JUMP JUMPDEST PUSH1 0x42 DUP3 MSTORE DUP5 DUP3 ADD SWAP3 PUSH1 0x60 CALLDATASIZE DUP6 CALLDATACOPY DUP3 MLOAD ISZERO PUSH2 0x1AC7 JUMPI PUSH1 0x30 DUP5 MSTORE8 DUP3 MLOAD SWAP1 PUSH1 0x1 SWAP2 DUP3 LT ISZERO PUSH2 0x1AC7 JUMPI SWAP1 PUSH1 0x78 PUSH1 0x21 DUP6 ADD MSTORE8 PUSH1 0x41 SWAP2 JUMPDEST DUP2 DUP4 GT PUSH2 0x1A59 JUMPI POP POP POP PUSH2 0x1A29 JUMPI PUSH1 0x48 PUSH2 0x44D SWAP4 DUP7 SWAP4 PUSH2 0x1A0D SWAP4 PUSH2 0x19FE SWAP9 MLOAD SWAP9 DUP10 SWAP4 PUSH1 0x0 DUP1 MLOAD PUSH1 0x20 PUSH2 0x2562 DUP4 CODECOPY DUP2 MLOAD SWAP2 MSTORE DUP11 DUP7 ADD MSTORE PUSH2 0x3F4 DUP2 MLOAD DUP1 SWAP3 DUP13 PUSH1 0x37 DUP10 ADD SWAP2 ADD PUSH2 0x18CC JUMP JUMPDEST ADD SUB PUSH1 0x28 DUP2 ADD DUP8 MSTORE ADD DUP6 PUSH2 0x1750 JUMP JUMPDEST MLOAD SWAP3 DUP4 SWAP3 PUSH3 0x461BCD PUSH1 0xE5 SHL DUP5 MSTORE PUSH1 0x4 DUP5 ADD MSTORE PUSH1 0x24 DUP4 ADD SWAP1 PUSH2 0x18EF JUMP JUMPDEST PUSH1 0x64 DUP5 DUP7 MLOAD SWAP1 PUSH3 0x461BCD PUSH1 0xE5 SHL DUP3 MSTORE DUP1 PUSH1 0x4 DUP4 ADD MSTORE PUSH1 0x24 DUP3 ADD MSTORE PUSH1 0x0 DUP1 MLOAD PUSH1 0x20 PUSH2 0x2522 DUP4 CODECOPY DUP2 MLOAD SWAP2 MSTORE PUSH1 0x44 DUP3 ADD MSTORE REVERT JUMPDEST SWAP1 SWAP2 SWAP3 PUSH1 0xF DUP2 AND PUSH1 0x10 DUP2 LT ISZERO PUSH2 0x1AB3 JUMPI PUSH16 0x181899199A1A9B1B9C1CB0B131B232B3 PUSH1 0x81 SHL SWAP1 BYTE PUSH2 0x1A89 DUP6 DUP8 PUSH2 0x1C5A JUMP JUMPDEST MSTORE8 PUSH1 0x4 SHR SWAP3 DUP1 ISZERO PUSH2 0x1A9F JUMPI PUSH1 0x0 NOT ADD SWAP2 SWAP1 PUSH2 0x19B6 JUMP JUMPDEST PUSH4 0x4E487B71 PUSH1 0xE0 SHL DUP3 MSTORE PUSH1 0x11 PUSH1 0x4 MSTORE PUSH1 0x24 DUP3 REVERT JUMPDEST PUSH4 0x4E487B71 PUSH1 0xE0 SHL DUP4 MSTORE PUSH1 0x32 PUSH1 0x4 MSTORE PUSH1 0x24 DUP4 REVERT JUMPDEST PUSH4 0x4E487B71 PUSH1 0xE0 SHL DUP2 MSTORE PUSH1 0x32 PUSH1 0x4 MSTORE PUSH1 0x24 SWAP1 REVERT JUMPDEST PUSH1 0x0 SWAP1 DUP1 DUP3 MSTORE PUSH1 0x20 SWAP1 DUP3 DUP3 MSTORE PUSH1 0x40 SWAP3 DUP4 DUP2 KECCAK256 CALLER DUP3 MSTORE DUP4 MSTORE PUSH1 0xFF DUP5 DUP3 KECCAK256 SLOAD AND ISZERO PUSH2 0x1B04 JUMPI POP POP POP POP JUMP JUMPDEST PUSH2 0x1B0D CALLER PUSH2 0x1C6B JUMP JUMPDEST SWAP2 DUP5 MLOAD SWAP1 PUSH2 0x1B1A DUP3 PUSH2 0x1735 JUMP JUMPDEST PUSH1 0x42 DUP3 MSTORE DUP5 DUP3 ADD SWAP3 PUSH1 0x60 CALLDATASIZE DUP6 CALLDATACOPY DUP3 MLOAD ISZERO PUSH2 0x1AC7 JUMPI PUSH1 0x30 DUP5 MSTORE8 DUP3 MLOAD SWAP1 PUSH1 0x1 SWAP2 DUP3 LT ISZERO PUSH2 0x1AC7 JUMPI SWAP1 PUSH1 0x78 PUSH1 0x21 DUP6 ADD MSTORE8 PUSH1 0x41 SWAP2 JUMPDEST DUP2 DUP4 GT PUSH2 0x1B93 JUMPI POP POP POP PUSH2 0x1A29 JUMPI PUSH1 0x48 PUSH2 0x44D SWAP4 DUP7 SWAP4 PUSH2 0x1A0D SWAP4 PUSH2 0x19FE SWAP9 MLOAD SWAP9 DUP10 SWAP4 PUSH1 0x0 DUP1 MLOAD PUSH1 0x20 PUSH2 0x2562 DUP4 CODECOPY DUP2 MLOAD SWAP2 MSTORE DUP11 DUP7 ADD MSTORE PUSH2 0x3F4 DUP2 MLOAD DUP1 SWAP3 DUP13 PUSH1 0x37 DUP10 ADD SWAP2 ADD PUSH2 0x18CC JUMP JUMPDEST SWAP1 SWAP2 SWAP3 PUSH1 0xF DUP2 AND PUSH1 0x10 DUP2 LT ISZERO PUSH2 0x1AB3 JUMPI PUSH16 0x181899199A1A9B1B9C1CB0B131B232B3 PUSH1 0x81 SHL SWAP1 BYTE PUSH2 0x1BC3 DUP6 DUP8 PUSH2 0x1C5A JUMP JUMPDEST MSTORE8 PUSH1 0x4 SHR SWAP3 DUP1 ISZERO PUSH2 0x1A9F JUMPI PUSH1 0x0 NOT ADD SWAP2 SWAP1 PUSH2 0x1B4B JUMP JUMPDEST SWAP1 PUSH1 0x0 SWAP2 DUP1 DUP4 MSTORE DUP3 PUSH1 0x20 MSTORE PUSH1 0x40 DUP4 KECCAK256 SWAP2 PUSH1 0x1 DUP1 PUSH1 0xA0 SHL SUB AND SWAP2 DUP3 DUP5 MSTORE PUSH1 0x20 MSTORE PUSH1 0xFF PUSH1 0x40 DUP5 KECCAK256 SLOAD AND PUSH2 0x1C09 JUMPI POP POP POP JUMP JUMPDEST DUP1 DUP4 MSTORE DUP3 PUSH1 0x20 MSTORE PUSH1 0x40 DUP4 KECCAK256 DUP3 DUP5 MSTORE PUSH1 0x20 MSTORE PUSH1 0x40 DUP4 KECCAK256 PUSH1 0xFF NOT DUP2 SLOAD AND SWAP1 SSTORE PUSH32 0xF6391F5C32D9C69D2A47EA670B442974B53935D1EDC7FD64EB21E047A839171B CALLER SWAP4 DUP1 LOG4 JUMP JUMPDEST SWAP2 SWAP1 DUP3 ADD DUP1 SWAP3 GT PUSH2 0x4C6 JUMPI JUMP JUMPDEST SWAP1 DUP2 MLOAD DUP2 LT ISZERO PUSH2 0x4DC JUMPI ADD PUSH1 0x20 ADD SWAP1 JUMP JUMPDEST PUSH1 0x40 MLOAD SWAP1 PUSH1 0x60 DUP3 ADD PUSH1 0x1 PUSH1 0x1 PUSH1 0x40 SHL SUB DUP2 GT DUP4 DUP3 LT OR PUSH2 0x55B JUMPI PUSH1 0x40 MSTORE PUSH1 0x2A DUP3 MSTORE PUSH1 0x20 DUP3 ADD PUSH1 0x40 CALLDATASIZE DUP3 CALLDATACOPY DUP3 MLOAD ISZERO PUSH2 0x4DC JUMPI PUSH1 0x30 SWAP1 MSTORE8 DUP2 MLOAD PUSH1 0x1 SWAP1 DUP2 LT ISZERO PUSH2 0x4DC JUMPI PUSH1 0x78 PUSH1 0x21 DUP5 ADD MSTORE8 PUSH1 0x29 SWAP1 JUMPDEST DUP1 DUP3 GT PUSH2 0x1CF9 JUMPI POP POP PUSH2 0x1CC7 JUMPI SWAP1 JUMP JUMPDEST PUSH1 0x64 PUSH1 0x40 MLOAD PUSH3 0x461BCD PUSH1 0xE5 SHL DUP2 MSTORE PUSH1 0x20 PUSH1 0x4 DUP3 ADD MSTORE PUSH1 0x20 PUSH1 0x24 DUP3 ADD MSTORE PUSH1 0x0 DUP1 MLOAD PUSH1 0x20 PUSH2 0x2522 DUP4 CODECOPY DUP2 MLOAD SWAP2 MSTORE PUSH1 0x44 DUP3 ADD MSTORE REVERT JUMPDEST SWAP1 SWAP2 PUSH1 0xF DUP2 AND PUSH1 0x10 DUP2 LT ISZERO PUSH2 0x1D52 JUMPI PUSH16 0x181899199A1A9B1B9C1CB0B131B232B3 PUSH1 0x81 SHL SWAP1 BYTE PUSH2 0x1D28 DUP5 DUP7 PUSH2 0x1C5A JUMP JUMPDEST MSTORE8 PUSH1 0x4 SHR SWAP2 DUP1 ISZERO PUSH2 0x1D3D JUMPI PUSH1 0x0 NOT ADD SWAP1 PUSH2 0x1CB7 JUMP JUMPDEST PUSH1 0x24 PUSH1 0x0 PUSH4 0x4E487B71 PUSH1 0xE0 SHL DUP2 MSTORE PUSH1 0x11 PUSH1 0x4 MSTORE REVERT JUMPDEST PUSH1 0x24 PUSH1 0x0 PUSH4 0x4E487B71 PUSH1 0xE0 SHL DUP2 MSTORE PUSH1 0x32 PUSH1 0x4 MSTORE REVERT JUMPDEST MLOAD SWAP1 PUSH1 0x1 PUSH1 0x1 PUSH1 0xA0 SHL SUB DUP3 AND DUP3 SUB PUSH2 0x1A0 JUMPI JUMP JUMPDEST MLOAD SWAP1 DUP2 ISZERO ISZERO DUP3 SUB PUSH2 0x1A0 JUMPI JUMP JUMPDEST DUP1 SWAP2 PUSH2 0x3C0 SWAP3 DUP4 SWAP2 SUB SLT PUSH2 0x1A0 JUMPI PUSH1 0x40 MLOAD SWAP2 DUP3 ADD PUSH1 0x1 PUSH1 0x1 PUSH1 0x40 SHL SUB DUP2 GT DUP4 DUP3 LT OR PUSH2 0x55B JUMPI PUSH1 0x40 MSTORE DUP1 MLOAD DUP3 MSTORE PUSH2 0x1DC1 PUSH1 0x20 DUP3 ADD PUSH2 0x1D67 JUMP JUMPDEST PUSH1 0x20 DUP4 ADD MSTORE PUSH1 0x40 DUP2 ADD MLOAD PUSH1 0x40 DUP4 ADD MSTORE PUSH1 0x60 DUP2 ADD MLOAD PUSH1 0x60 DUP4 ADD MSTORE PUSH1 0x80 DUP2 ADD MLOAD PUSH1 0x80 DUP4 ADD MSTORE PUSH1 0xA0 DUP2 ADD MLOAD PUSH1 0xA0 DUP4 ADD MSTORE PUSH1 0xC0 DUP2 ADD MLOAD PUSH1 0xC0 DUP4 ADD MSTORE PUSH1 0xE0 DUP2 ADD MLOAD PUSH1 0xE0 DUP4 ADD MSTORE PUSH2 0x100 DUP1 DUP3 ADD MLOAD SWAP1 DUP4 ADD MSTORE PUSH2 0x120 PUSH2 0x1E1B DUP2 DUP4 ADD PUSH2 0x1D7B JUMP JUMPDEST SWAP1 DUP4 ADD MSTORE PUSH2 0x140 PUSH2 0x1E2D DUP2 DUP4 ADD PUSH2 0x1D7B JUMP JUMPDEST SWAP1 DUP4 ADD MSTORE PUSH2 0x160 DUP1 DUP3 ADD MLOAD SWAP1 DUP4 ADD MSTORE PUSH2 0x180 DUP1 DUP3 ADD MLOAD SWAP1 DUP4 ADD MSTORE PUSH2 0x1A0 DUP1 DUP3 ADD MLOAD SWAP1 DUP4 ADD MSTORE PUSH2 0x1C0 PUSH2 0x1E60 DUP2 DUP4 ADD PUSH2 0x1D7B JUMP JUMPDEST SWAP1 DUP4 ADD MSTORE PUSH2 0x1E0 PUSH2 0x1E72 DUP2 DUP4 ADD PUSH2 0x1D67 JUMP JUMPDEST SWAP1 DUP4 ADD MSTORE PUSH2 0x200 DUP1 DUP3 ADD MLOAD SWAP1 DUP4 ADD MSTORE PUSH2 0x220 DUP1 DUP3 ADD MLOAD SWAP1 DUP4 ADD MSTORE PUSH2 0x240 DUP1 DUP3 ADD MLOAD SWAP1 DUP4 ADD MSTORE PUSH2 0x260 DUP1 DUP3 ADD MLOAD SWAP1 DUP4 ADD MSTORE PUSH2 0x280 DUP1 DUP3 ADD MLOAD SWAP1 DUP4 ADD MSTORE PUSH2 0x2A0 DUP1 DUP3 ADD MLOAD SWAP1 DUP4 ADD MSTORE PUSH2 0x2C0 DUP1 DUP3 ADD MLOAD SWAP1 DUP4 ADD MSTORE PUSH2 0x2E0 DUP1 DUP3 ADD MLOAD SWAP1 DUP4 ADD MSTORE PUSH2 0x300 DUP1 DUP3 ADD MLOAD SWAP1 DUP4 ADD MSTORE PUSH2 0x320 DUP1 DUP3 ADD MLOAD SWAP1 DUP4 ADD MSTORE PUSH2 0x340 PUSH2 0x1EF2 DUP2 DUP4 ADD PUSH2 0x1D7B JUMP JUMPDEST SWAP1 DUP4 ADD MSTORE PUSH2 0x360 DUP1 DUP3 ADD MLOAD SWAP1 DUP4 ADD MSTORE PUSH2 0x380 DUP1 DUP3 ADD MLOAD SWAP1 DUP4 ADD MSTORE PUSH2 0x1F1A PUSH2 0x3A0 DUP1 SWAP3 ADD PUSH2 0x1D67 JUMP JUMPDEST SWAP1 DUP3 ADD MSTORE SWAP1 JUMP JUMPDEST ISZERO PUSH2 0x1F28 JUMPI JUMP JUMPDEST PUSH1 0x40 MLOAD PUSH3 0x461BCD PUSH1 0xE5 SHL DUP2 MSTORE PUSH1 0x20 PUSH1 0x4 DUP3 ADD MSTORE PUSH1 0x10 PUSH1 0x24 DUP3 ADD MSTORE PUSH16 0x2737BA1032B9BA30BA329037BBB732B9 PUSH1 0x81 SHL PUSH1 0x44 DUP3 ADD MSTORE PUSH1 0x64 SWAP1 REVERT JUMPDEST PUSH1 0x5 DUP3 LT ISZERO PUSH2 0x938 JUMPI MSTORE JUMP JUMPDEST ISZERO PUSH2 0x1F73 JUMPI JUMP JUMPDEST PUSH1 0x40 MLOAD PUSH3 0x461BCD PUSH1 0xE5 SHL DUP2 MSTORE PUSH1 0x20 PUSH1 0x4 DUP3 ADD MSTORE PUSH1 0x1C PUSH1 0x24 DUP3 ADD MSTORE PUSH28 0x456D657267656E6379206C6F636B206973206E6F7420616374697665 PUSH1 0x20 SHL PUSH1 0x44 DUP3 ADD MSTORE PUSH1 0x64 SWAP1 REVERT JUMPDEST PUSH1 0x0 NOT DUP2 EQ PUSH2 0x4C6 JUMPI PUSH1 0x1 ADD SWAP1 JUMP JUMPDEST DUP1 PUSH1 0x0 MSTORE PUSH1 0x2 PUSH1 0x20 MSTORE PUSH1 0x40 SWAP1 DUP2 PUSH1 0x0 KECCAK256 PUSH1 0x5 DUP2 ADD DUP1 SLOAD DUP1 PUSH2 0x2109 JUMPI JUMPDEST PUSH1 0x5 SLOAD DUP2 LT ISZERO PUSH2 0x20C6 JUMPI PUSH2 0x1FF5 SWAP1 PUSH2 0x1FB7 JUMP JUMPDEST DUP2 SSTORE TIMESTAMP PUSH1 0x6 DUP4 ADD SSTORE PUSH1 0xFF PUSH1 0x8 SLOAD AND PUSH2 0x2053 JUMPI JUMPDEST PUSH1 0x4 PUSH32 0xD9AA9F69368D3A93C3607757FD0D8CC29EDD3FAB0C153B7DFBF9B623E51523A1 SWAP3 ADD PUSH1 0xFF PUSH1 0xA0 SHL NOT DUP2 SLOAD AND SWAP1 SSTORE PUSH2 0x2041 DUP4 PUSH2 0x2453 JUMP JUMPDEST SLOAD SWAP3 DUP1 MLOAD SWAP4 DUP5 MSTORE TIMESTAMP PUSH1 0x20 DUP6 ADD MSTORE CALLER SWAP4 LOG3 JUMP JUMPDEST PUSH2 0x205C DUP4 PUSH2 0x238A JUMP JUMPDEST PUSH1 0x9 SLOAD GT ISZERO PUSH2 0x2008 JUMPI POP POP PUSH1 0x1F DUP3 MLOAD SWAP3 DUP1 DUP5 MSTORE DUP4 ADD MSTORE PUSH32 0x496E73756666696369656E7420677561726469616E20617070726F76616C7300 PUSH1 0x60 DUP4 ADD MSTORE TIMESTAMP PUSH1 0x20 DUP4 ADD MSTORE PUSH32 0xBA8550BB2727971E047C6A3F2189C01472FB5306BE939ED9A5D30B4EC41764EC PUSH1 0x80 CALLER SWAP4 LOG3 JUMP JUMPDEST DUP5 MLOAD PUSH3 0x461BCD PUSH1 0xE5 SHL DUP2 MSTORE PUSH1 0x20 PUSH1 0x4 DUP3 ADD MSTORE PUSH1 0x1C PUSH1 0x24 DUP3 ADD MSTORE PUSH28 0x13585E081D5B9B1BD8DAC8185D1D195B5C1D1CC8195E18D959591959 PUSH1 0x22 SHL PUSH1 0x44 DUP3 ADD MSTORE PUSH1 0x64 SWAP1 REVERT JUMPDEST PUSH2 0x211A PUSH1 0x6 DUP5 ADD SLOAD PUSH1 0x6 SLOAD SWAP1 PUSH2 0x1C4D JUMP JUMPDEST TIMESTAMP LT ISZERO PUSH2 0x1FE2 JUMPI DUP5 MLOAD PUSH3 0x461BCD PUSH1 0xE5 SHL DUP2 MSTORE PUSH1 0x20 PUSH1 0x4 DUP3 ADD MSTORE PUSH1 0x1B PUSH1 0x24 DUP3 ADD MSTORE PUSH27 0x10DBDBDB191BDDDB881C195C9A5BD9081B9BDD08195B185C1CD959 PUSH1 0x2A SHL PUSH1 0x44 DUP3 ADD MSTORE PUSH1 0x64 SWAP1 REVERT JUMPDEST ISZERO PUSH2 0x216A JUMPI JUMP JUMPDEST PUSH1 0x40 MLOAD PUSH3 0x461BCD PUSH1 0xE5 SHL DUP2 MSTORE PUSH1 0x20 PUSH1 0x4 DUP3 ADD MSTORE PUSH1 0xE PUSH1 0x24 DUP3 ADD MSTORE PUSH14 0x2737BA10309033BAB0B93234B0B7 PUSH1 0x91 SHL PUSH1 0x44 DUP3 ADD MSTORE PUSH1 0x64 SWAP1 REVERT JUMPDEST ISZERO PUSH2 0x21A7 JUMPI JUMP JUMPDEST PUSH1 0x40 MLOAD PUSH3 0x461BCD PUSH1 0xE5 SHL DUP2 MSTORE PUSH1 0x20 PUSH1 0x4 DUP3 ADD MSTORE PUSH1 0x1C PUSH1 0x24 DUP3 ADD MSTORE PUSH28 0x4E6F7420677561726469616E20666F72207468697320657374617465 PUSH1 0x20 SHL PUSH1 0x44 DUP3 ADD MSTORE PUSH1 0x64 SWAP1 REVERT JUMPDEST PUSH1 0x0 SWAP1 DUP1 DUP3 MSTORE PUSH1 0x2 PUSH1 0x20 MSTORE PUSH1 0xE0 PUSH1 0x40 DUP4 KECCAK256 PUSH1 0x40 MLOAD PUSH2 0x2208 DUP2 PUSH2 0x1719 JUMP JUMPDEST DUP2 SLOAD DUP2 MSTORE PUSH2 0x2220 PUSH1 0xFF PUSH1 0x1 DUP5 ADD SLOAD AND PUSH1 0x20 DUP4 ADD PUSH2 0x1F60 JUMP JUMPDEST PUSH2 0x222C PUSH1 0x2 DUP4 ADD PUSH2 0x1819 JUMP JUMPDEST PUSH1 0x40 DUP3 ADD MSTORE PUSH1 0x3 DUP3 ADD SLOAD PUSH1 0x60 DUP3 ADD MSTORE PUSH1 0xFF PUSH1 0x4 DUP4 ADD SLOAD PUSH1 0x1 DUP1 PUSH1 0xA0 SHL SUB DUP2 AND PUSH1 0x80 DUP5 ADD MSTORE PUSH1 0xA0 SHR AND ISZERO SWAP1 DUP2 ISZERO PUSH1 0xA0 DUP3 ADD MSTORE PUSH1 0x6 PUSH1 0x5 DUP5 ADD SLOAD SWAP4 DUP5 PUSH1 0xC0 DUP5 ADD MSTORE ADD SLOAD SWAP4 DUP5 SWAP2 ADD MSTORE PUSH2 0x22CE JUMPI PUSH1 0x5 SLOAD DUP2 LT ISZERO PUSH2 0x22CE JUMPI PUSH2 0x22B2 JUMPI JUMPDEST POP PUSH1 0xFF PUSH1 0x8 SLOAD AND PUSH2 0x2298 JUMPI JUMPDEST POP POP PUSH1 0x1 SWAP1 JUMP JUMPDEST PUSH2 0x22A1 SWAP1 PUSH2 0x238A JUMP JUMPDEST PUSH1 0x9 SLOAD GT PUSH2 0x22AF JUMPI DUP1 PUSH2 0x2291 JUMP JUMPDEST SWAP1 JUMP JUMPDEST PUSH1 0x6 SLOAD PUSH2 0x22BE SWAP2 PUSH2 0x1C4D JUMP JUMPDEST TIMESTAMP LT PUSH2 0x22CA JUMPI CODESIZE PUSH2 0x2285 JUMP JUMPDEST POP SWAP1 JUMP JUMPDEST POP POP POP SWAP1 JUMP JUMPDEST DUP1 MLOAD DUP3 LT ISZERO PUSH2 0x4DC JUMPI PUSH1 0x20 SWAP2 PUSH1 0x5 SHL ADD ADD SWAP1 JUMP JUMPDEST SWAP1 PUSH1 0x0 SWAP2 DUP3 MSTORE PUSH1 0x20 PUSH1 0x3 DUP2 MSTORE PUSH1 0x40 DUP4 KECCAK256 SWAP1 PUSH1 0x40 MLOAD DUP1 SWAP3 DUP4 SWAP2 DUP4 DUP3 SLOAD SWAP2 DUP3 DUP2 MSTORE ADD SWAP2 DUP8 MSTORE DUP4 DUP8 KECCAK256 SWAP4 DUP8 SWAP1 JUMPDEST DUP3 DUP3 LT PUSH2 0x2367 JUMPI POP POP POP PUSH2 0x2328 SWAP3 POP SUB DUP3 PUSH2 0x1750 JUMP JUMPDEST DUP3 JUMPDEST DUP2 MLOAD DUP2 LT ISZERO PUSH2 0x22CE JUMPI PUSH1 0x1 PUSH1 0x1 PUSH1 0xA0 SHL SUB DUP1 PUSH2 0x2346 DUP4 DUP6 PUSH2 0x22D4 JUMP JUMPDEST MLOAD AND SWAP1 DUP5 AND EQ PUSH2 0x235E JUMPI PUSH2 0x2359 SWAP1 PUSH2 0x1FB7 JUMP JUMPDEST PUSH2 0x232A JUMP JUMPDEST POP POP POP POP PUSH1 0x1 SWAP1 JUMP JUMPDEST DUP6 SLOAD PUSH1 0x1 PUSH1 0x1 PUSH1 0xA0 SHL SUB AND DUP5 MSTORE PUSH1 0x1 SWAP6 DUP7 ADD SWAP6 DUP8 SWAP6 POP SWAP4 DUP2 ADD SWAP4 SWAP1 SWAP2 ADD SWAP1 PUSH2 0x2312 JUMP JUMPDEST SWAP1 PUSH1 0x0 SWAP2 DUP1 DUP4 MSTORE PUSH1 0x20 SWAP3 PUSH1 0x3 DUP5 MSTORE PUSH1 0x40 SWAP4 DUP5 DUP3 KECCAK256 SWAP1 DUP6 MLOAD DUP1 DUP4 DUP4 DUP3 SWAP6 SLOAD SWAP4 DUP5 DUP2 MSTORE ADD SWAP1 DUP7 MSTORE DUP4 DUP7 KECCAK256 SWAP3 DUP7 JUMPDEST DUP6 DUP3 DUP3 LT PUSH2 0x2434 JUMPI POP POP POP PUSH2 0x23CC SWAP3 POP SUB DUP4 PUSH2 0x1750 JUMP JUMPDEST DUP3 SWAP4 DUP4 JUMPDEST DUP4 MLOAD DUP2 LT ISZERO PUSH2 0x242A JUMPI DUP2 DUP6 MSTORE PUSH1 0x4 DUP4 MSTORE DUP8 DUP6 KECCAK256 PUSH1 0x1 PUSH1 0x1 PUSH1 0xA0 SHL SUB PUSH2 0x23F5 DUP4 DUP8 PUSH2 0x22D4 JUMP JUMPDEST MLOAD AND DUP7 MSTORE DUP4 MSTORE PUSH1 0xFF DUP9 DUP7 KECCAK256 SLOAD AND PUSH2 0x2415 JUMPI JUMPDEST PUSH2 0x2410 SWAP1 PUSH2 0x1FB7 JUMP JUMPDEST PUSH2 0x23D0 JUMP JUMPDEST SWAP5 PUSH2 0x2422 PUSH2 0x2410 SWAP2 PUSH2 0x1FB7 JUMP JUMPDEST SWAP6 SWAP1 POP PUSH2 0x2407 JUMP JUMPDEST POP SWAP4 SWAP6 POP POP POP POP POP JUMP JUMPDEST DUP6 SLOAD PUSH1 0x1 PUSH1 0x1 PUSH1 0xA0 SHL SUB AND DUP5 MSTORE PUSH1 0x1 SWAP6 DUP7 ADD SWAP6 DUP9 SWAP6 POP SWAP4 ADD SWAP3 ADD PUSH2 0x23B5 JUMP JUMPDEST PUSH1 0x0 DUP2 DUP2 MSTORE PUSH1 0x20 SWAP1 PUSH1 0x3 DUP3 MSTORE PUSH1 0x40 SWAP2 DUP3 DUP3 KECCAK256 SWAP1 DUP4 MLOAD DUP1 DUP4 DUP4 DUP3 SWAP6 SLOAD SWAP4 DUP5 DUP2 MSTORE ADD SWAP1 DUP7 MSTORE DUP4 DUP7 KECCAK256 SWAP3 DUP7 JUMPDEST DUP6 DUP3 DUP3 LT PUSH2 0x24E2 JUMPI POP POP POP PUSH2 0x2493 SWAP3 POP SUB DUP4 PUSH2 0x1750 JUMP JUMPDEST DUP3 JUMPDEST DUP3 MLOAD DUP2 LT ISZERO PUSH2 0x24DA JUMPI DUP6 DUP5 MSTORE PUSH1 0x4 DUP3 MSTORE DUP5 DUP5 KECCAK256 PUSH2 0x24D5 SWAP2 SWAP1 PUSH1 0x1 PUSH1 0x1 PUSH1 0xA0 SHL SUB PUSH2 0x24BF DUP4 DUP8 PUSH2 0x22D4 JUMP JUMPDEST MLOAD AND DUP7 MSTORE DUP4 MSTORE DUP6 DUP6 KECCAK256 DUP1 SLOAD PUSH1 0xFF NOT AND SWAP1 SSTORE PUSH2 0x1FB7 JUMP JUMPDEST PUSH2 0x2495 JUMP JUMPDEST POP POP POP POP POP POP JUMP JUMPDEST DUP6 SLOAD PUSH1 0x1 PUSH1 0x1 PUSH1 0xA0 SHL SUB AND DUP5 MSTORE PUSH1 0x1 SWAP6 DUP7 ADD SWAP6 DUP9 SWAP6 POP SWAP4 ADD SWAP3 ADD PUSH2 0x247C JUMP INVALID 0x2F DUP8 DUP9 GT PUSH31 0x7EFF1D82E926EC794901D17C78024A50270940304540A733656F0D53747269 PUSH15 0x67733A20686578206C656E67746820 PUSH10 0x6E73756666696369656E PUSH21 0xC07B782A6F11AB80F8D853ED1C5788869623D7D858 LOG3 PUSH4 0xF9356161 0xCC 0x2B BASEFEE ADD BALANCE COINBASE PUSH4 0x63657373 NUMBER PUSH16 0x6E74726F6C3A206163636F756E742000 STOP STOP STOP STOP STOP STOP STOP STOP SSTORE NUMBER 0x5D 0xD2 PUSH2 0xA4B9 0xB3 CALLDATASIZE 0x49 PUSH4 0xF7738A7A PUSH7 0x2AD9C84396D64B 0xE3 CALLDATASIZE MSTORE DUP5 0xBB PUSH32 0xA5041A2646970667358221220369E1B200A0C88E6A97A9F082E4DEBAB2F35E8 CALLDATACOPY EXTCODECOPY XOR PC BLOCKHASH 0xD3 DUP2 0x2D CALLER EQ DUP7 0xAF 0xCD PUSH5 0x736F6C6343 STOP ADDMOD SGT STOP CALLER 0x2F DUP8 DUP9 GT PUSH31 0x7EFF1D82E926EC794901D17C78024A50270940304540A733656F0D00000000 "},"methodIdentifiers":{"DEFAULT_ADMIN_ROLE()":"a217fddf","GUARDIAN_ROLE()":"24ea54f4","OPERATOR_ROLE()":"f5b541a6","addGuardian(uint256,address)":"37f2c86f","approveUnlock(uint256)":"22a25082","attemptEmergencyUnlock(uint256,string)":"1cf38851","canUnlock(uint256)":"d94a7af5","config()":"79502c55","defaiEstate()":"50f7920c","emergencyLocks(uint256)":"5c1ff52b","estateGuardians(uint256,uint256)":"6e0457ea","forceUnlockByMultisig(uint256)":"1cd2eb19","getEmergencyLock(uint256)":"67f33530","getEstateGuardians(uint256)":"c6e9ef79","getGuardianApprovalCount(uint256)":"32df90e0","getRoleAdmin(bytes32)":"248a9ca3","grantRole(bytes32,address)":"2f2ff15d","guardianApprovals(uint256,address)":"f4aab522","hasRole(bytes32,address)":"91d14854","initiateEmergencyLock(uint256,uint8,string)":"b20d4134","isLocked(uint256)":"f6aacfb1","pauseAllOperations()":"d22b0e7d","paused()":"5c975abb","removeGuardian(uint256,address)":"2ea715eb","renounceRole(bytes32,address)":"36568abe","revokeApproval(uint256)":"b1e130fc","revokeRole(bytes32,address)":"d547741f","supportsInterface(bytes4)":"01ffc9a7","unpauseAllOperations()":"4a44a858","updateConfig(uint256,uint256,uint256,bool,uint256)":"caeb53d3"}},"storageLayout":{"storage":[{"astId":24,"contract":"contracts/EmergencyManager.sol:EmergencyManager","label":"_roles","offset":0,"slot":"0","type":"t_mapping(t_bytes32,t_struct(RoleData)19_storage)"},{"astId":519,"contract":"contracts/EmergencyManager.sol:EmergencyManager","label":"_paused","offset":0,"slot":"1","type":"t_bool"},{"astId":7234,"contract":"contracts/EmergencyManager.sol:EmergencyManager","label":"defaiEstate","offset":1,"slot":"1","type":"t_contract(IDefAIEstate)7217"},{"astId":7274,"contract":"contracts/EmergencyManager.sol:EmergencyManager","label":"emergencyLocks","offset":0,"slot":"2","type":"t_mapping(t_uint256,t_struct(EmergencyLock)7258_storage)"},{"astId":7279,"contract":"contracts/EmergencyManager.sol:EmergencyManager","label":"estateGuardians","offset":0,"slot":"3","type":"t_mapping(t_uint256,t_array(t_address)dyn_storage)"},{"astId":7285,"contract":"contracts/EmergencyManager.sol:EmergencyManager","label":"guardianApprovals","offset":0,"slot":"4","type":"t_mapping(t_uint256,t_mapping(t_address,t_bool))"},{"astId":7288,"contract":"contracts/EmergencyManager.sol:EmergencyManager","label":"config","offset":0,"slot":"5","type":"t_struct(EmergencyConfig)7269_storage"}],"types":{"t_address":{"encoding":"inplace","label":"address","numberOfBytes":"20"},"t_array(t_address)dyn_storage":{"base":"t_address","encoding":"dynamic_array","label":"address[]","numberOfBytes":"32"},"t_bool":{"encoding":"inplace","label":"bool","numberOfBytes":"1"},"t_bytes32":{"encoding":"inplace","label":"bytes32","numberOfBytes":"32"},"t_contract(IDefAIEstate)7217":{"encoding":"inplace","label":"contract IDefAIEstate","numberOfBytes":"20"},"t_enum(LockType)7240":{"encoding":"inplace","label":"enum EmergencyManager.LockType","numberOfBytes":"1"},"t_mapping(t_address,t_bool)":{"encoding":"mapping","key":"t_address","label":"mapping(address => bool)","numberOfBytes":"32","value":"t_bool"},"t_mapping(t_bytes32,t_struct(RoleData)19_storage)":{"encoding":"mapping","key":"t_bytes32","label":"mapping(bytes32 => struct AccessControl.RoleData)","numberOfBytes":"32","value":"t_struct(RoleData)19_storage"},"t_mapping(t_uint256,t_array(t_address)dyn_storage)":{"encoding":"mapping","key":"t_uint256","label":"mapping(uint256 => address[])","numberOfBytes":"32","value":"t_array(t_address)dyn_storage"},"t_mapping(t_uint256,t_mapping(t_address,t_bool))":{"encoding":"mapping","key":"t_uint256","label":"mapping(uint256 => mapping(address => bool))","numberOfBytes":"32","value":"t_mapping(t_address,t_bool)"},"t_mapping(t_uint256,t_struct(EmergencyLock)7258_storage)":{"encoding":"mapping","key":"t_uint256","label":"mapping(uint256 => struct EmergencyManager.EmergencyLock)","numberOfBytes":"32","value":"t_struct(EmergencyLock)7258_storage"},"t_string_storage":{"encoding":"bytes","label":"string","numberOfBytes":"32"},"t_struct(EmergencyConfig)7269_storage":{"encoding":"inplace","label":"struct EmergencyManager.EmergencyConfig","members":[{"astId":7260,"contract":"contracts/EmergencyManager.sol:EmergencyManager","label":"maxUnlockAttempts","offset":0,"slot":"0","type":"t_uint256"},{"astId":7262,"contract":"contracts/EmergencyManager.sol:EmergencyManager","label":"unlockCooldown","offset":0,"slot":"1","type":"t_uint256"},{"astId":7264,"contract":"contracts/EmergencyManager.sol:EmergencyManager","label":"emergencyPauseDuration","offset":0,"slot":"2","type":"t_uint256"},{"astId":7266,"contract":"contracts/EmergencyManager.sol:EmergencyManager","label":"requireMultisigForUnlock","offset":0,"slot":"3","type":"t_bool"},{"astId":7268,"contract":"contracts/EmergencyManager.sol:EmergencyManager","label":"minGuardiansForAction","offset":0,"slot":"4","type":"t_uint256"}],"numberOfBytes":"160"},"t_struct(EmergencyLock)7258_storage":{"encoding":"inplace","label":"struct EmergencyManager.EmergencyLock","members":[{"astId":7242,"contract":"contracts/EmergencyManager.sol:EmergencyManager","label":"estateId","offset":0,"slot":"0","type":"t_uint256"},{"astId":7245,"contract":"contracts/EmergencyManager.sol:EmergencyManager","label":"lockType","offset":0,"slot":"1","type":"t_enum(LockType)7240"},{"astId":7247,"contract":"contracts/EmergencyManager.sol:EmergencyManager","label":"reason","offset":0,"slot":"2","type":"t_string_storage"},{"astId":7249,"contract":"contracts/EmergencyManager.sol:EmergencyManager","label":"lockedAt","offset":0,"slot":"3","type":"t_uint256"},{"astId":7251,"contract":"contracts/EmergencyManager.sol:EmergencyManager","label":"lockedBy","offset":0,"slot":"4","type":"t_address"},{"astId":7253,"contract":"contracts/EmergencyManager.sol:EmergencyManager","label":"isActive","offset":20,"slot":"4","type":"t_bool"},{"astId":7255,"contract":"contracts/EmergencyManager.sol:EmergencyManager","label":"unlockAttempts","offset":0,"slot":"5","type":"t_uint256"},{"astId":7257,"contract":"contracts/EmergencyManager.sol:EmergencyManager","label":"lastUnlockAttempt","offset":0,"slot":"6","type":"t_uint256"}],"numberOfBytes":"224"},"t_struct(RoleData)19_storage":{"encoding":"inplace","label":"struct AccessControl.RoleData","members":[{"astId":16,"contract":"contracts/EmergencyManager.sol:EmergencyManager","label":"members","offset":0,"slot":"0","type":"t_mapping(t_address,t_bool)"},{"astId":18,"contract":"contracts/EmergencyManager.sol:EmergencyManager","label":"adminRole","offset":0,"slot":"1","type":"t_bytes32"}],"numberOfBytes":"64"},"t_uint256":{"encoding":"inplace","label":"uint256","numberOfBytes":"32"}}}}}}