{"contracts/TokenVault.sol":{"TokenVault":{"abi":[{"inputs":[{"internalType":"address","name":"_defaiEstate","type":"address"}],"stateMutability":"nonpayable","type":"constructor"},{"anonymous":false,"inputs":[{"indexed":true,"internalType":"uint256","name":"estateId","type":"uint256"},{"indexed":true,"internalType":"address","name":"collection","type":"address"},{"indexed":false,"internalType":"uint256","name":"tokenId","type":"uint256"},{"indexed":true,"internalType":"address","name":"beneficiary","type":"address"},{"indexed":false,"internalType":"uint256","name":"timestamp","type":"uint256"}],"name":"NFTClaimed","type":"event"},{"anonymous":false,"inputs":[{"indexed":true,"internalType":"uint256","name":"estateId","type":"uint256"},{"indexed":true,"internalType":"address","name":"collection","type":"address"},{"indexed":false,"internalType":"uint256","name":"tokenId","type":"uint256"},{"indexed":false,"internalType":"address","name":"depositor","type":"address"},{"indexed":false,"internalType":"uint256","name":"timestamp","type":"uint256"}],"name":"NFTDeposited","type":"event"},{"anonymous":false,"inputs":[{"indexed":true,"internalType":"address","name":"previousOwner","type":"address"},{"indexed":true,"internalType":"address","name":"newOwner","type":"address"}],"name":"OwnershipTransferred","type":"event"},{"anonymous":false,"inputs":[{"indexed":true,"internalType":"uint256","name":"estateId","type":"uint256"},{"indexed":true,"internalType":"address","name":"token","type":"address"},{"indexed":true,"internalType":"address","name":"beneficiary","type":"address"},{"indexed":false,"internalType":"uint256","name":"amount","type":"uint256"},{"indexed":false,"internalType":"uint256","name":"timestamp","type":"uint256"}],"name":"TokensClaimed","type":"event"},{"anonymous":false,"inputs":[{"indexed":true,"internalType":"uint256","name":"estateId","type":"uint256"},{"indexed":true,"internalType":"address","name":"token","type":"address"},{"indexed":false,"internalType":"uint256","name":"amount","type":"uint256"},{"indexed":false,"internalType":"address","name":"depositor","type":"address"},{"indexed":false,"internalType":"uint256","name":"timestamp","type":"uint256"}],"name":"TokensDeposited","type":"event"},{"inputs":[{"internalType":"uint256","name":"estateId","type":"uint256"},{"internalType":"uint256","name":"nftIndex","type":"uint256"}],"name":"claimNFT","outputs":[],"stateMutability":"nonpayable","type":"function"},{"inputs":[{"internalType":"uint256","name":"estateId","type":"uint256"},{"internalType":"address","name":"token","type":"address"}],"name":"claimTokens","outputs":[],"stateMutability":"nonpayable","type":"function"},{"inputs":[],"name":"defaiEstate","outputs":[{"internalType":"contract IDefAIEstate","name":"","type":"address"}],"stateMutability":"view","type":"function"},{"inputs":[{"internalType":"uint256","name":"estateId","type":"uint256"},{"internalType":"address","name":"collection","type":"address"},{"internalType":"uint256","name":"tokenId","type":"uint256"}],"name":"depositNFT","outputs":[],"stateMutability":"nonpayable","type":"function"},{"inputs":[{"internalType":"uint256","name":"estateId","type":"uint256"},{"internalType":"address","name":"token","type":"address"},{"internalType":"uint256","name":"amount","type":"uint256"}],"name":"depositTokens","outputs":[],"stateMutability":"nonpayable","type":"function"},{"inputs":[{"internalType":"address","name":"collection","type":"address"},{"internalType":"uint256","name":"tokenId","type":"uint256"},{"internalType":"address","name":"to","type":"address"}],"name":"emergencyWithdrawNFT","outputs":[],"stateMutability":"nonpayable","type":"function"},{"inputs":[{"internalType":"address","name":"token","type":"address"},{"internalType":"uint256","name":"amount","type":"uint256"},{"internalType":"address","name":"to","type":"address"}],"name":"emergencyWithdrawToken","outputs":[],"stateMutability":"nonpayable","type":"function"},{"inputs":[{"internalType":"uint256","name":"","type":"uint256"},{"internalType":"uint256","name":"","type":"uint256"}],"name":"estateNFTs","outputs":[{"internalType":"address","name":"collection","type":"address"},{"internalType":"uint256","name":"tokenId","type":"uint256"},{"internalType":"uint256","name":"depositTime","type":"uint256"}],"stateMutability":"view","type":"function"},{"inputs":[{"internalType":"uint256","name":"","type":"uint256"},{"internalType":"address","name":"","type":"address"}],"name":"estateTokenBalances","outputs":[{"internalType":"uint256","name":"amount","type":"uint256"},{"internalType":"uint256","name":"lastUpdated","type":"uint256"}],"stateMutability":"view","type":"function"},{"inputs":[{"internalType":"uint256","name":"estateId","type":"uint256"},{"internalType":"address","name":"token","type":"address"},{"internalType":"address","name":"beneficiary","type":"address"}],"name":"getClaimableTokenAmount","outputs":[{"internalType":"uint256","name":"","type":"uint256"}],"stateMutability":"view","type":"function"},{"inputs":[{"internalType":"uint256","name":"estateId","type":"uint256"}],"name":"getEstateNFTs","outputs":[{"components":[{"internalType":"address","name":"collection","type":"address"},{"internalType":"uint256","name":"tokenId","type":"uint256"},{"internalType":"uint256","name":"depositTime","type":"uint256"}],"internalType":"struct TokenVault.NFTDeposit[]","name":"","type":"tuple[]"}],"stateMutability":"view","type":"function"},{"inputs":[{"internalType":"uint256","name":"estateId","type":"uint256"},{"internalType":"address","name":"token","type":"address"}],"name":"getEstateTokenBalance","outputs":[{"internalType":"uint256","name":"","type":"uint256"}],"stateMutability":"view","type":"function"},{"inputs":[{"internalType":"uint256","name":"","type":"uint256"},{"internalType":"uint256","name":"","type":"uint256"},{"internalType":"address","name":"","type":"address"}],"name":"nftClaims","outputs":[{"internalType":"bool","name":"","type":"bool"}],"stateMutability":"view","type":"function"},{"inputs":[{"internalType":"address","name":"","type":"address"},{"internalType":"address","name":"","type":"address"},{"internalType":"uint256","name":"","type":"uint256"},{"internalType":"bytes","name":"","type":"bytes"}],"name":"onERC721Received","outputs":[{"internalType":"bytes4","name":"","type":"bytes4"}],"stateMutability":"nonpayable","type":"function"},{"inputs":[],"name":"owner","outputs":[{"internalType":"address","name":"","type":"address"}],"stateMutability":"view","type":"function"},{"inputs":[],"name":"renounceOwnership","outputs":[],"stateMutability":"nonpayable","type":"function"},{"inputs":[{"internalType":"uint256","name":"","type":"uint256"},{"internalType":"address","name":"","type":"address"},{"internalType":"address","name":"","type":"address"}],"name":"tokenClaims","outputs":[{"internalType":"bool","name":"","type":"bool"}],"stateMutability":"view","type":"function"},{"inputs":[{"internalType":"address","name":"newOwner","type":"address"}],"name":"transferOwnership","outputs":[],"stateMutability":"nonpayable","type":"function"}],"evm":{"bytecode":{"linkReferences":{},"object":"6080346100ab57601f61194e38819003918201601f19168301916001600160401b038311848410176100b0578084926020946040528339810103126100ab57516001600160a01b0390818116908190036100ab5760005460018060a01b0319903382821617600055604051933391167f8be0079c531659141344cd1fd0a4f28419497f9722a3daafe3b4186f6b6457e0600080a360018055600254161760025561188790816100c78239f35b600080fd5b634e487b7160e01b600052604160045260246000fdfe6040608081526004908136101561001557600080fd5b60009160e08335811c908163015bf26414610d7d578163150b7a0214610cf45781633290fa1e14610cd057816345932b9714610c7a5781634672911614610c3857816350f7920c14610c0e5781636749a06714610bb65781636e164e23146108fb578163715018a6146108b35781637a6b8ade146105b3575080637d6f643b1461041e57806383509080146103e35780638da5cb5b146103bb578063a24025261461037157838163b1a81295146102e157508063d1a8878714610292578063dde7ac40146101a15763f2fde38b146100ec57600080fd5b3461019d57602036600319011261019d57610105610eea565b9061010e611078565b6001600160a01b0391821692831561014b5750506000548260018060a01b031982161760005516600080516020611832833981519152600080a380f35b906020608492519162461bcd60e51b8352820152602660248201527f4f776e61626c653a206e6577206f776e657220697320746865207a65726f206160448201526564647265737360d01b6064820152fd5b8280fd5b5082903461028e576020908160031936011261019d57803583528082528383208054909290916001600160401b03831161027b575092908451906101ea858260051b0183610f89565b8082528482018094845285842084915b8383106102565750505050845193808501918186525180925285850193925b8281106102265785850386f35b835180516001600160a01b0316865280830151868401528701518786015260609094019392810192600101610219565b600388600192610269859b98999b6116bf565b815201920192019190969493966101fa565b634e487b7160e01b855260419052602484fd5b5080fd5b5082346102de57826003193601126102de5782906102ae610f05565b923581526003602052209060018060a01b0316600052602052806000206001815491015482519182526020820152f35b80fd5b9290503461036d576102f236611044565b93916102fc611078565b6001600160a01b039061031286831615156117d1565b16803b156103695761033d94868094865197889586948593632142170760e11b855230908501611147565b03925af190811561036057506103505750f35b61035990610f45565b6102de5780f35b513d84823e3d90fd5b8580fd5b5050fd5b50503461028e578060209261038536610fc7565b939183919352600586522060018060a01b038092166000528452826000209116600052825260ff81600020541690519015158152f35b50503461028e578160031936011261028e57905490516001600160a01b039091168152602090f35b83346102de5761041b6103f536611044565b90916103ff611078565b6001600160a01b039061041583831615156117d1565b1661166e565b80f35b50903461019d5761042e36610f1b565b9192909361043a6110f1565b6001600160a01b0394851694851561057757853b15610569578251632142170760e11b815287908181806104728930338a8501611147565b0381838c5af1801561056d57610555575b50859052816020528287209083519061049b82610f6e565b878252602082019186835285810193428552805490600160401b82101561054257906104cc91600182018155611012565b95909561053057505184546001600160a01b031916911617835551600183015551600290910155517f9495f3ce20866c4323db86ce9155214f3d29da387665a7eb35229e4cdc70c2389181906105269042903390846110d0565b0390a36001805580f35b634e487b7160e01b8b528a905260248afd5b634e487b7160e01b8c526041875260248cfd5b61055e90610f45565b610569578638610483565b8680fd5b85513d84823e3d90fd5b506020606492519162461bcd60e51b8352820152601660248201527524b73b30b634b21027232a1031b7b63632b1ba34b7b760511b6044820152fd5b9050346108af576105c336610ffc565b9390916105ce6110f1565b600254825163786420d160e01b81528581018590526001600160a01b0392918316906103c0908181602481865afa9182156108a557916101409161061e938c92610878575b505001511515611524565b81845180926310db0c2960e01b8252818061063c338b8d84016115e1565b03915afa918215610779579184916064938a9261084b575b505061066560c082015115156115fa565b0151036107f357828652602094600686528287208188528652828720338852865260ff83882054166107ba5783875284865282872054811015610783578387528486526106bd6106b782858a20611012565b506116bf565b908488526006875283882090885286528287203388528652828720600160ff1982541617905581815116948787830196875190803b1561019d5761071993838851809681958294632142170760e11b8452339030908501611147565b03925af1801561077957610754575b509060008051602061181283398151915292915116935194815195865242908601523394a46001805580f35b9661077060008051602061181283398151915294939298610f45565b96909192610728565b84513d8a823e3d90fd5b825162461bcd60e51b81528086018790526011602482015270092dcecc2d8d2c8409c8ca840d2dcc8caf607b1b6044820152606490fd5b825162461bcd60e51b8152808601879052601360248201527213919508185b1c9958591e4818db185a5b5959606a1b6044820152606490fd5b815162461bcd60e51b8152602081860152602c60248201527f4e4654732063616e206f6e6c7920626520636c61696d656420627920736f6c6560448201526b2062656e656669636961727960a01b6064820152608490fd5b61086a9250803d10610871575b6108628183610f89565b810190611567565b3880610654565b503d610858565b6108979250803d1061089e575b61088f8183610f89565b81019061138b565b3880610613565b503d610885565b86513d8c823e3d90fd5b8380fd5b84346102de57806003193601126102de576108cc611078565b80546001600160a01b03198116825581906001600160a01b03166000805160206118328339815191528280a380f35b849150833461019d578060031936011261019d578335610919610f05565b916109226110f1565b600254815163786420d160e01b81528781018490526001600160a01b0395918616906103c0908181602481865afa918215610bac579161014091610971938b92610b8f57505001511515611524565b82516310db0c2960e01b815290829082908180610991338a8f84016115e1565b03915afa918215610b85578792610b68575b50506109b460c082015115156115fa565b828652602094600586528287209416938487528552818620338752855260ff8287205416610b2c5782865260038552818620848752855281862054908115610af45760649183610a0692015190611645565b04938415610aa8578286526005815281862084875281528186203387528152818620805460ff19166001179055828652600381528186208487528152818620805486810391908211610a9557557ffa76a4010d9533e3e964f2930a65fb6042a12fa6ff5b08281837a10b0be7321e9190610a8186338761166e565b815195865242908601523394a46001805580f35b634e487b7160e01b885260118952602488fd5b8690608492519162461bcd60e51b8352820152602160248201527f4e6f20746f6b656e7320746f20636c61696d20666f72207468697320736861726044820152606560f81b6064820152fd5b825162461bcd60e51b815280890187905260126024820152714e6f20746f6b656e7320746f20636c61696d60701b6044820152606490fd5b815162461bcd60e51b81528088018690526016602482015275151bdad95b9cc8185b1c9958591e4818db185a5b595960521b6044820152606490fd5b610b7e9250803d10610871576108628183610f89565b87806109a3565b83513d89823e3d90fd5b610ba59250803d1061089e5761088f8183610f89565b8b80610613565b85513d8b823e3d90fd5b505091346102de57610bc736610ffc565b939082526020528181209081548410156102de5750606092610be891611012565b5060018060a01b0381541691600260018301549201549181519384526020840152820152f35b5050503461028e578160031936011261028e5760025490516001600160a01b039091168152602090f35b50503461019d578160031936011261019d576020928291610c57610f05565b90358252600385528282206001600160a01b039091168252845220549051908152f35b50503461019d57606036600319011261019d576044356001600160a01b03811691908290036108af5760209360ff9284923582526006865282822060243583528652828220908252855220541690519015158152f35b5050503461028e57602090610ced610ce736610fc7565b916116f0565b9051908152f35b505091346102de5760803660031901126102de57610d10610eea565b50610d19610f05565b50606435926001600160401b03841161028e573660238501121561028e57830135610d4381610fac565b93610d5084519586610f89565b818552366024838301011161019d57906020948160248794018483013701015251630a85bd0160e11b8152f35b5050903461019d57610d8e36610f1b565b919290610d996110f1565b6001600160a01b0316938415610eb0578215610e6e5781516323b872dd60e01b6020820152610de990610de381610dd587303360248501611147565b03601f198101835282610f89565b86611176565b8386526003602052818620858752602052818620805491848301809311610e5b5750917f1a86f2fec285b1cf50577b325c975209ebcfa748a48da509410f0143a28448d793916105269355848752600360205280872086885260205242600182892001555191829142903390846110d0565b634e487b7160e01b885260119052602487fd5b6020606492519162461bcd60e51b8352820152601d60248201527f416d6f756e74206d7573742062652067726561746572207468616e20300000006044820152fd5b6020606492519162461bcd60e51b83528201526015602482015274496e76616c696420746f6b656e206164647265737360581b6044820152fd5b600435906001600160a01b0382168203610f0057565b600080fd5b602435906001600160a01b0382168203610f0057565b6060906003190112610f0057600435906024356001600160a01b0381168103610f00579060443590565b6001600160401b038111610f5857604052565b634e487b7160e01b600052604160045260246000fd5b606081019081106001600160401b03821117610f5857604052565b601f909101601f19168101906001600160401b03821190821017610f5857604052565b6001600160401b038111610f5857601f01601f191660200190565b6060906003190112610f0057600435906001600160a01b03906024358281168103610f0057916044359081168103610f005790565b6040906003190112610f00576004359060243590565b805482101561102e576000526003602060002091020190600090565b634e487b7160e01b600052603260045260246000fd5b6060906003190112610f00576001600160a01b036004358181168103610f005791602435916044359081168103610f005790565b6000546001600160a01b0316330361108c57565b606460405162461bcd60e51b815260206004820152602060248201527f4f776e61626c653a2063616c6c6572206973206e6f7420746865206f776e65726044820152fd5b9081526001600160a01b039091166020820152604081019190915260600190565b600260015414611102576002600155565b60405162461bcd60e51b815260206004820152601f60248201527f5265656e7472616e637947756172643a207265656e7472616e742063616c6c006044820152606490fd5b6001600160a01b03918216815291166020820152604081019190915260600190565b51908115158203610f0057565b604080516001600160a01b03929092169291908101906001600160401b03821181831017610f585761120a916040526020938482527f5361666545524332303a206c6f772d6c6576656c2063616c6c206661696c6564858301526000808587829751910182855af13d1561129f573d916111ef83610fac565b926111fd6040519485610f89565b83523d868885013e6112a3565b9081519083821592831561127d575b5050509050156112265750565b6084906040519062461bcd60e51b82526004820152602a60248201527f5361666545524332303a204552433230206f7065726174696f6e20646964206e6044820152691bdd081cdd58d8d9595960b21b6064820152fd5b8480929394500103126102de5750816112969101611169565b80388381611219565b6060915b9192901561130557508151156112b7575090565b3b156112c05790565b60405162461bcd60e51b815260206004820152601d60248201527f416464726573733a2063616c6c20746f206e6f6e2d636f6e74726163740000006044820152606490fd5b8251909150156113185750805190602001fd5b6040519062461bcd60e51b82528160208060048301528251908160248401526000935b82851061135e575050604492506000838284010152601f80199101168101030190fd5b848101820151868601604401529381019385935061133b565b51906001600160a01b0382168203610f0057565b80916103c09283910312610f00576040519182016001600160401b03811183821017610f5857604052805182526113c460208201611377565b602083015260408101516040830152606081015160608301526080810151608083015260a081015160a083015260c081015160c083015260e081015160e0830152610100808201519083015261012061141e818301611169565b90830152610140611430818301611169565b90830152610160808201519083015261018080820151908301526101a080820151908301526101c0611463818301611169565b908301526101e0611475818301611377565b90830152610200808201519083015261022080820151908301526102408082015190830152610260808201519083015261028080820151908301526102a080820151908301526102c080820151908301526102e08082015190830152610300808201519083015261032080820151908301526103406114f5818301611169565b908301526103608082015190830152610380808201519083015261151d6103a0809201611377565b9082015290565b1561152b57565b60405162461bcd60e51b8152602060048201526014602482015273457374617465206e6f7420636c61696d61626c6560601b6044820152606490fd5b908160e0910312610f00576040519060e082016001600160401b03811183821017610f58576115d99160c091604052805184526115a660208201611377565b602085015260408101516040850152606081015160608501526080810151608085015260a081015160a085015201611169565b60c082015290565b9081526001600160a01b03909116602082015260400190565b1561160157565b60405162461bcd60e51b815260206004820152601c60248201527b135d5cdd0818db185a5b481a5b9a195c9a5d185b98d948199a5c9cdd60221b6044820152606490fd5b8181029291811591840414171561165857565b634e487b7160e01b600052601160045260246000fd5b60405163a9059cbb60e01b60208201526001600160a01b03909216602483015260448083019390935291815260808101916001600160401b03831182841017610f58576116bd92604052611176565b565b906040516116cc81610f6e565b82546001600160a01b03168152600183015460208201526002909201546040830152565b91909160009281845260056020526040918285209160018060a01b0380911692838752602052838620818616875260205260ff84872054166117c9576117519460e09160025416855180809881946310db0c29871b835287600484016115e1565b03915afa9384156117bf57859461179f575b5060c08401511561179857918481926117949594606497526003602052828220908252602052205491015190611645565b0490565b5050505090565b6117b891945060e03d8111610871576108628183610f89565b9238611763565b83513d87823e3d90fd5b505050505090565b156117d857565b60405162461bcd60e51b8152602060048201526011602482015270125b9d985b1a59081c9958da5c1a595b9d607a1b6044820152606490fdfed7164f1dd9a11183bc690c9df8edb503d8b08b4a49a885f0426f54690d42db0f8be0079c531659141344cd1fd0a4f28419497f9722a3daafe3b4186f6b6457e0a26469706673582212201309a72baa0def4cbb57934b21bdc2af844fb5b5ddfec91b1bbc095134aa48af64736f6c63430008130033","opcodes":"PUSH1 0x80 CALLVALUE PUSH2 0xAB JUMPI PUSH1 0x1F PUSH2 0x194E CODESIZE DUP2 SWAP1 SUB SWAP2 DUP3 ADD PUSH1 0x1F NOT AND DUP4 ADD SWAP2 PUSH1 0x1 PUSH1 0x1 PUSH1 0x40 SHL SUB DUP4 GT DUP5 DUP5 LT OR PUSH2 0xB0 JUMPI DUP1 DUP5 SWAP3 PUSH1 0x20 SWAP5 PUSH1 0x40 MSTORE DUP4 CODECOPY DUP2 ADD SUB SLT PUSH2 0xAB JUMPI MLOAD PUSH1 0x1 PUSH1 0x1 PUSH1 0xA0 SHL SUB SWAP1 DUP2 DUP2 AND SWAP1 DUP2 SWAP1 SUB PUSH2 0xAB JUMPI PUSH1 0x0 SLOAD PUSH1 0x1 DUP1 PUSH1 0xA0 SHL SUB NOT SWAP1 CALLER DUP3 DUP3 AND OR PUSH1 0x0 SSTORE PUSH1 0x40 MLOAD SWAP4 CALLER SWAP2 AND PUSH32 0x8BE0079C531659141344CD1FD0A4F28419497F9722A3DAAFE3B4186F6B6457E0 PUSH1 0x0 DUP1 LOG3 PUSH1 0x1 DUP1 SSTORE PUSH1 0x2 SLOAD AND OR PUSH1 0x2 SSTORE PUSH2 0x1887 SWAP1 DUP2 PUSH2 0xC7 DUP3 CODECOPY RETURN JUMPDEST PUSH1 0x0 DUP1 REVERT JUMPDEST PUSH4 0x4E487B71 PUSH1 0xE0 SHL PUSH1 0x0 MSTORE PUSH1 0x41 PUSH1 0x4 MSTORE PUSH1 0x24 PUSH1 0x0 REVERT INVALID PUSH1 0x40 PUSH1 0x80 DUP2 MSTORE PUSH1 0x4 SWAP1 DUP2 CALLDATASIZE LT ISZERO PUSH2 0x15 JUMPI PUSH1 0x0 DUP1 REVERT JUMPDEST PUSH1 0x0 SWAP2 PUSH1 0xE0 DUP4 CALLDATALOAD DUP2 SHR SWAP1 DUP2 PUSH4 0x15BF264 EQ PUSH2 0xD7D JUMPI DUP2 PUSH4 0x150B7A02 EQ PUSH2 0xCF4 JUMPI DUP2 PUSH4 0x3290FA1E EQ PUSH2 0xCD0 JUMPI DUP2 PUSH4 0x45932B97 EQ PUSH2 0xC7A JUMPI DUP2 PUSH4 0x46729116 EQ PUSH2 0xC38 JUMPI DUP2 PUSH4 0x50F7920C EQ PUSH2 0xC0E JUMPI DUP2 PUSH4 0x6749A067 EQ PUSH2 0xBB6 JUMPI DUP2 PUSH4 0x6E164E23 EQ PUSH2 0x8FB JUMPI DUP2 PUSH4 0x715018A6 EQ PUSH2 0x8B3 JUMPI DUP2 PUSH4 0x7A6B8ADE EQ PUSH2 0x5B3 JUMPI POP DUP1 PUSH4 0x7D6F643B EQ PUSH2 0x41E JUMPI DUP1 PUSH4 0x83509080 EQ PUSH2 0x3E3 JUMPI DUP1 PUSH4 0x8DA5CB5B EQ PUSH2 0x3BB JUMPI DUP1 PUSH4 0xA2402526 EQ PUSH2 0x371 JUMPI DUP4 DUP2 PUSH4 0xB1A81295 EQ PUSH2 0x2E1 JUMPI POP DUP1 PUSH4 0xD1A88787 EQ PUSH2 0x292 JUMPI DUP1 PUSH4 0xDDE7AC40 EQ PUSH2 0x1A1 JUMPI PUSH4 0xF2FDE38B EQ PUSH2 0xEC JUMPI PUSH1 0x0 DUP1 REVERT JUMPDEST CALLVALUE PUSH2 0x19D JUMPI PUSH1 0x20 CALLDATASIZE PUSH1 0x3 NOT ADD SLT PUSH2 0x19D JUMPI PUSH2 0x105 PUSH2 0xEEA JUMP JUMPDEST SWAP1 PUSH2 0x10E PUSH2 0x1078 JUMP JUMPDEST PUSH1 0x1 PUSH1 0x1 PUSH1 0xA0 SHL SUB SWAP2 DUP3 AND SWAP3 DUP4 ISZERO PUSH2 0x14B JUMPI POP POP PUSH1 0x0 SLOAD DUP3 PUSH1 0x1 DUP1 PUSH1 0xA0 SHL SUB NOT DUP3 AND OR PUSH1 0x0 SSTORE AND PUSH1 0x0 DUP1 MLOAD PUSH1 0x20 PUSH2 0x1832 DUP4 CODECOPY DUP2 MLOAD SWAP2 MSTORE PUSH1 0x0 DUP1 LOG3 DUP1 RETURN JUMPDEST SWAP1 PUSH1 0x20 PUSH1 0x84 SWAP3 MLOAD SWAP2 PUSH3 0x461BCD PUSH1 0xE5 SHL DUP4 MSTORE DUP3 ADD MSTORE PUSH1 0x26 PUSH1 0x24 DUP3 ADD MSTORE PUSH32 0x4F776E61626C653A206E6577206F776E657220697320746865207A65726F2061 PUSH1 0x44 DUP3 ADD MSTORE PUSH6 0x646472657373 PUSH1 0xD0 SHL PUSH1 0x64 DUP3 ADD MSTORE REVERT JUMPDEST DUP3 DUP1 REVERT JUMPDEST POP DUP3 SWAP1 CALLVALUE PUSH2 0x28E JUMPI PUSH1 0x20 SWAP1 DUP2 PUSH1 0x3 NOT CALLDATASIZE ADD SLT PUSH2 0x19D JUMPI DUP1 CALLDATALOAD DUP4 MSTORE DUP1 DUP3 MSTORE DUP4 DUP4 KECCAK256 DUP1 SLOAD SWAP1 SWAP3 SWAP1 SWAP2 PUSH1 0x1 PUSH1 0x1 PUSH1 0x40 SHL SUB DUP4 GT PUSH2 0x27B JUMPI POP SWAP3 SWAP1 DUP5 MLOAD SWAP1 PUSH2 0x1EA DUP6 DUP3 PUSH1 0x5 SHL ADD DUP4 PUSH2 0xF89 JUMP JUMPDEST DUP1 DUP3 MSTORE DUP5 DUP3 ADD DUP1 SWAP5 DUP5 MSTORE DUP6 DUP5 KECCAK256 DUP5 SWAP2 JUMPDEST DUP4 DUP4 LT PUSH2 0x256 JUMPI POP POP POP POP DUP5 MLOAD SWAP4 DUP1 DUP6 ADD SWAP2 DUP2 DUP7 MSTORE MLOAD DUP1 SWAP3 MSTORE DUP6 DUP6 ADD SWAP4 SWAP3 JUMPDEST DUP3 DUP2 LT PUSH2 0x226 JUMPI DUP6 DUP6 SUB DUP7 RETURN JUMPDEST DUP4 MLOAD DUP1 MLOAD PUSH1 0x1 PUSH1 0x1 PUSH1 0xA0 SHL SUB AND DUP7 MSTORE DUP1 DUP4 ADD MLOAD DUP7 DUP5 ADD MSTORE DUP8 ADD MLOAD DUP8 DUP7 ADD MSTORE PUSH1 0x60 SWAP1 SWAP5 ADD SWAP4 SWAP3 DUP2 ADD SWAP3 PUSH1 0x1 ADD PUSH2 0x219 JUMP JUMPDEST PUSH1 0x3 DUP9 PUSH1 0x1 SWAP3 PUSH2 0x269 DUP6 SWAP12 SWAP9 SWAP10 SWAP12 PUSH2 0x16BF JUMP JUMPDEST DUP2 MSTORE ADD SWAP3 ADD SWAP3 ADD SWAP2 SWAP1 SWAP7 SWAP5 SWAP4 SWAP7 PUSH2 0x1FA JUMP JUMPDEST PUSH4 0x4E487B71 PUSH1 0xE0 SHL DUP6 MSTORE PUSH1 0x41 SWAP1 MSTORE PUSH1 0x24 DUP5 REVERT JUMPDEST POP DUP1 REVERT JUMPDEST POP DUP3 CALLVALUE PUSH2 0x2DE JUMPI DUP3 PUSH1 0x3 NOT CALLDATASIZE ADD SLT PUSH2 0x2DE JUMPI DUP3 SWAP1 PUSH2 0x2AE PUSH2 0xF05 JUMP JUMPDEST SWAP3 CALLDATALOAD DUP2 MSTORE PUSH1 0x3 PUSH1 0x20 MSTORE KECCAK256 SWAP1 PUSH1 0x1 DUP1 PUSH1 0xA0 SHL SUB AND PUSH1 0x0 MSTORE PUSH1 0x20 MSTORE DUP1 PUSH1 0x0 KECCAK256 PUSH1 0x1 DUP2 SLOAD SWAP2 ADD SLOAD DUP3 MLOAD SWAP2 DUP3 MSTORE PUSH1 0x20 DUP3 ADD MSTORE RETURN JUMPDEST DUP1 REVERT JUMPDEST SWAP3 SWAP1 POP CALLVALUE PUSH2 0x36D JUMPI PUSH2 0x2F2 CALLDATASIZE PUSH2 0x1044 JUMP JUMPDEST SWAP4 SWAP2 PUSH2 0x2FC PUSH2 0x1078 JUMP JUMPDEST PUSH1 0x1 PUSH1 0x1 PUSH1 0xA0 SHL SUB SWAP1 PUSH2 0x312 DUP7 DUP4 AND ISZERO ISZERO PUSH2 0x17D1 JUMP JUMPDEST AND DUP1 EXTCODESIZE ISZERO PUSH2 0x369 JUMPI PUSH2 0x33D SWAP5 DUP7 DUP1 SWAP5 DUP7 MLOAD SWAP8 DUP9 SWAP6 DUP7 SWAP5 DUP6 SWAP4 PUSH4 0x21421707 PUSH1 0xE1 SHL DUP6 MSTORE ADDRESS SWAP1 DUP6 ADD PUSH2 0x1147 JUMP JUMPDEST SUB SWAP3 GAS CALL SWAP1 DUP2 ISZERO PUSH2 0x360 JUMPI POP PUSH2 0x350 JUMPI POP RETURN JUMPDEST PUSH2 0x359 SWAP1 PUSH2 0xF45 JUMP JUMPDEST PUSH2 0x2DE JUMPI DUP1 RETURN JUMPDEST MLOAD RETURNDATASIZE DUP5 DUP3 RETURNDATACOPY RETURNDATASIZE SWAP1 REVERT JUMPDEST DUP6 DUP1 REVERT JUMPDEST POP POP REVERT JUMPDEST POP POP CALLVALUE PUSH2 0x28E JUMPI DUP1 PUSH1 0x20 SWAP3 PUSH2 0x385 CALLDATASIZE PUSH2 0xFC7 JUMP JUMPDEST SWAP4 SWAP2 DUP4 SWAP2 SWAP4 MSTORE PUSH1 0x5 DUP7 MSTORE KECCAK256 PUSH1 0x1 DUP1 PUSH1 0xA0 SHL SUB DUP1 SWAP3 AND PUSH1 0x0 MSTORE DUP5 MSTORE DUP3 PUSH1 0x0 KECCAK256 SWAP2 AND PUSH1 0x0 MSTORE DUP3 MSTORE PUSH1 0xFF DUP2 PUSH1 0x0 KECCAK256 SLOAD AND SWAP1 MLOAD SWAP1 ISZERO ISZERO DUP2 MSTORE RETURN JUMPDEST POP POP CALLVALUE PUSH2 0x28E JUMPI DUP2 PUSH1 0x3 NOT CALLDATASIZE ADD SLT PUSH2 0x28E JUMPI SWAP1 SLOAD SWAP1 MLOAD PUSH1 0x1 PUSH1 0x1 PUSH1 0xA0 SHL SUB SWAP1 SWAP2 AND DUP2 MSTORE PUSH1 0x20 SWAP1 RETURN JUMPDEST DUP4 CALLVALUE PUSH2 0x2DE JUMPI PUSH2 0x41B PUSH2 0x3F5 CALLDATASIZE PUSH2 0x1044 JUMP JUMPDEST SWAP1 SWAP2 PUSH2 0x3FF PUSH2 0x1078 JUMP JUMPDEST PUSH1 0x1 PUSH1 0x1 PUSH1 0xA0 SHL SUB SWAP1 PUSH2 0x415 DUP4 DUP4 AND ISZERO ISZERO PUSH2 0x17D1 JUMP JUMPDEST AND PUSH2 0x166E JUMP JUMPDEST DUP1 RETURN JUMPDEST POP SWAP1 CALLVALUE PUSH2 0x19D JUMPI PUSH2 0x42E CALLDATASIZE PUSH2 0xF1B JUMP JUMPDEST SWAP2 SWAP3 SWAP1 SWAP4 PUSH2 0x43A PUSH2 0x10F1 JUMP JUMPDEST PUSH1 0x1 PUSH1 0x1 PUSH1 0xA0 SHL SUB SWAP5 DUP6 AND SWAP5 DUP6 ISZERO PUSH2 0x577 JUMPI DUP6 EXTCODESIZE ISZERO PUSH2 0x569 JUMPI DUP3 MLOAD PUSH4 0x21421707 PUSH1 0xE1 SHL DUP2 MSTORE DUP8 SWAP1 DUP2 DUP2 DUP1 PUSH2 0x472 DUP10 ADDRESS CALLER DUP11 DUP6 ADD PUSH2 0x1147 JUMP JUMPDEST SUB DUP2 DUP4 DUP13 GAS CALL DUP1 ISZERO PUSH2 0x56D JUMPI PUSH2 0x555 JUMPI JUMPDEST POP DUP6 SWAP1 MSTORE DUP2 PUSH1 0x20 MSTORE DUP3 DUP8 KECCAK256 SWAP1 DUP4 MLOAD SWAP1 PUSH2 0x49B DUP3 PUSH2 0xF6E JUMP JUMPDEST DUP8 DUP3 MSTORE PUSH1 0x20 DUP3 ADD SWAP2 DUP7 DUP4 MSTORE DUP6 DUP2 ADD SWAP4 TIMESTAMP DUP6 MSTORE DUP1 SLOAD SWAP1 PUSH1 0x1 PUSH1 0x40 SHL DUP3 LT ISZERO PUSH2 0x542 JUMPI SWAP1 PUSH2 0x4CC SWAP2 PUSH1 0x1 DUP3 ADD DUP2 SSTORE PUSH2 0x1012 JUMP JUMPDEST SWAP6 SWAP1 SWAP6 PUSH2 0x530 JUMPI POP MLOAD DUP5 SLOAD PUSH1 0x1 PUSH1 0x1 PUSH1 0xA0 SHL SUB NOT AND SWAP2 AND OR DUP4 SSTORE MLOAD PUSH1 0x1 DUP4 ADD SSTORE MLOAD PUSH1 0x2 SWAP1 SWAP2 ADD SSTORE MLOAD PUSH32 0x9495F3CE20866C4323DB86CE9155214F3D29DA387665A7EB35229E4CDC70C238 SWAP2 DUP2 SWAP1 PUSH2 0x526 SWAP1 TIMESTAMP SWAP1 CALLER SWAP1 DUP5 PUSH2 0x10D0 JUMP JUMPDEST SUB SWAP1 LOG3 PUSH1 0x1 DUP1 SSTORE DUP1 RETURN JUMPDEST PUSH4 0x4E487B71 PUSH1 0xE0 SHL DUP12 MSTORE DUP11 SWAP1 MSTORE PUSH1 0x24 DUP11 REVERT JUMPDEST PUSH4 0x4E487B71 PUSH1 0xE0 SHL DUP13 MSTORE PUSH1 0x41 DUP8 MSTORE PUSH1 0x24 DUP13 REVERT JUMPDEST PUSH2 0x55E SWAP1 PUSH2 0xF45 JUMP JUMPDEST PUSH2 0x569 JUMPI DUP7 CODESIZE PUSH2 0x483 JUMP JUMPDEST DUP7 DUP1 REVERT JUMPDEST DUP6 MLOAD RETURNDATASIZE DUP5 DUP3 RETURNDATACOPY RETURNDATASIZE SWAP1 REVERT JUMPDEST POP PUSH1 0x20 PUSH1 0x64 SWAP3 MLOAD SWAP2 PUSH3 0x461BCD PUSH1 0xE5 SHL DUP4 MSTORE DUP3 ADD MSTORE PUSH1 0x16 PUSH1 0x24 DUP3 ADD MSTORE PUSH22 0x24B73B30B634B21027232A1031B7B63632B1BA34B7B7 PUSH1 0x51 SHL PUSH1 0x44 DUP3 ADD MSTORE REVERT JUMPDEST SWAP1 POP CALLVALUE PUSH2 0x8AF JUMPI PUSH2 0x5C3 CALLDATASIZE PUSH2 0xFFC JUMP JUMPDEST SWAP4 SWAP1 SWAP2 PUSH2 0x5CE PUSH2 0x10F1 JUMP JUMPDEST PUSH1 0x2 SLOAD DUP3 MLOAD PUSH4 0x786420D1 PUSH1 0xE0 SHL DUP2 MSTORE DUP6 DUP2 ADD DUP6 SWAP1 MSTORE PUSH1 0x1 PUSH1 0x1 PUSH1 0xA0 SHL SUB SWAP3 SWAP2 DUP4 AND SWAP1 PUSH2 0x3C0 SWAP1 DUP2 DUP2 PUSH1 0x24 DUP2 DUP7 GAS STATICCALL SWAP2 DUP3 ISZERO PUSH2 0x8A5 JUMPI SWAP2 PUSH2 0x140 SWAP2 PUSH2 0x61E SWAP4 DUP13 SWAP3 PUSH2 0x878 JUMPI JUMPDEST POP POP ADD MLOAD ISZERO ISZERO PUSH2 0x1524 JUMP JUMPDEST DUP2 DUP5 MLOAD DUP1 SWAP3 PUSH4 0x10DB0C29 PUSH1 0xE0 SHL DUP3 MSTORE DUP2 DUP1 PUSH2 0x63C CALLER DUP12 DUP14 DUP5 ADD PUSH2 0x15E1 JUMP JUMPDEST SUB SWAP2 GAS STATICCALL SWAP2 DUP3 ISZERO PUSH2 0x779 JUMPI SWAP2 DUP5 SWAP2 PUSH1 0x64 SWAP4 DUP11 SWAP3 PUSH2 0x84B JUMPI JUMPDEST POP POP PUSH2 0x665 PUSH1 0xC0 DUP3 ADD MLOAD ISZERO ISZERO PUSH2 0x15FA JUMP JUMPDEST ADD MLOAD SUB PUSH2 0x7F3 JUMPI DUP3 DUP7 MSTORE PUSH1 0x20 SWAP5 PUSH1 0x6 DUP7 MSTORE DUP3 DUP8 KECCAK256 DUP2 DUP9 MSTORE DUP7 MSTORE DUP3 DUP8 KECCAK256 CALLER DUP9 MSTORE DUP7 MSTORE PUSH1 0xFF DUP4 DUP9 KECCAK256 SLOAD AND PUSH2 0x7BA JUMPI DUP4 DUP8 MSTORE DUP5 DUP7 MSTORE DUP3 DUP8 KECCAK256 SLOAD DUP2 LT ISZERO PUSH2 0x783 JUMPI DUP4 DUP8 MSTORE DUP5 DUP7 MSTORE PUSH2 0x6BD PUSH2 0x6B7 DUP3 DUP6 DUP11 KECCAK256 PUSH2 0x1012 JUMP JUMPDEST POP PUSH2 0x16BF JUMP JUMPDEST SWAP1 DUP5 DUP9 MSTORE PUSH1 0x6 DUP8 MSTORE DUP4 DUP9 KECCAK256 SWAP1 DUP9 MSTORE DUP7 MSTORE DUP3 DUP8 KECCAK256 CALLER DUP9 MSTORE DUP7 MSTORE DUP3 DUP8 KECCAK256 PUSH1 0x1 PUSH1 0xFF NOT DUP3 SLOAD AND OR SWAP1 SSTORE DUP2 DUP2 MLOAD AND SWAP5 DUP8 DUP8 DUP4 ADD SWAP7 DUP8 MLOAD SWAP1 DUP1 EXTCODESIZE ISZERO PUSH2 0x19D JUMPI PUSH2 0x719 SWAP4 DUP4 DUP9 MLOAD DUP1 SWAP7 DUP2 SWAP6 DUP3 SWAP5 PUSH4 0x21421707 PUSH1 0xE1 SHL DUP5 MSTORE CALLER SWAP1 ADDRESS SWAP1 DUP6 ADD PUSH2 0x1147 JUMP JUMPDEST SUB SWAP3 GAS CALL DUP1 ISZERO PUSH2 0x779 JUMPI PUSH2 0x754 JUMPI JUMPDEST POP SWAP1 PUSH1 0x0 DUP1 MLOAD PUSH1 0x20 PUSH2 0x1812 DUP4 CODECOPY DUP2 MLOAD SWAP2 MSTORE SWAP3 SWAP2 MLOAD AND SWAP4 MLOAD SWAP5 DUP2 MLOAD SWAP6 DUP7 MSTORE TIMESTAMP SWAP1 DUP7 ADD MSTORE CALLER SWAP5 LOG4 PUSH1 0x1 DUP1 SSTORE DUP1 RETURN JUMPDEST SWAP7 PUSH2 0x770 PUSH1 0x0 DUP1 MLOAD PUSH1 0x20 PUSH2 0x1812 DUP4 CODECOPY DUP2 MLOAD SWAP2 MSTORE SWAP5 SWAP4 SWAP3 SWAP9 PUSH2 0xF45 JUMP JUMPDEST SWAP7 SWAP1 SWAP2 SWAP3 PUSH2 0x728 JUMP JUMPDEST DUP5 MLOAD RETURNDATASIZE DUP11 DUP3 RETURNDATACOPY RETURNDATASIZE SWAP1 REVERT JUMPDEST DUP3 MLOAD PUSH3 0x461BCD PUSH1 0xE5 SHL DUP2 MSTORE DUP1 DUP7 ADD DUP8 SWAP1 MSTORE PUSH1 0x11 PUSH1 0x24 DUP3 ADD MSTORE PUSH17 0x92DCECC2D8D2C8409C8CA840D2DCC8CAF PUSH1 0x7B SHL PUSH1 0x44 DUP3 ADD MSTORE PUSH1 0x64 SWAP1 REVERT JUMPDEST DUP3 MLOAD PUSH3 0x461BCD PUSH1 0xE5 SHL DUP2 MSTORE DUP1 DUP7 ADD DUP8 SWAP1 MSTORE PUSH1 0x13 PUSH1 0x24 DUP3 ADD MSTORE PUSH19 0x13919508185B1C9958591E4818DB185A5B5959 PUSH1 0x6A SHL PUSH1 0x44 DUP3 ADD MSTORE PUSH1 0x64 SWAP1 REVERT JUMPDEST DUP2 MLOAD PUSH3 0x461BCD PUSH1 0xE5 SHL DUP2 MSTORE PUSH1 0x20 DUP2 DUP7 ADD MSTORE PUSH1 0x2C PUSH1 0x24 DUP3 ADD MSTORE PUSH32 0x4E4654732063616E206F6E6C7920626520636C61696D656420627920736F6C65 PUSH1 0x44 DUP3 ADD MSTORE PUSH12 0x2062656E6566696369617279 PUSH1 0xA0 SHL PUSH1 0x64 DUP3 ADD MSTORE PUSH1 0x84 SWAP1 REVERT JUMPDEST PUSH2 0x86A SWAP3 POP DUP1 RETURNDATASIZE LT PUSH2 0x871 JUMPI JUMPDEST PUSH2 0x862 DUP2 DUP4 PUSH2 0xF89 JUMP JUMPDEST DUP2 ADD SWAP1 PUSH2 0x1567 JUMP JUMPDEST CODESIZE DUP1 PUSH2 0x654 JUMP JUMPDEST POP RETURNDATASIZE PUSH2 0x858 JUMP JUMPDEST PUSH2 0x897 SWAP3 POP DUP1 RETURNDATASIZE LT PUSH2 0x89E JUMPI JUMPDEST PUSH2 0x88F DUP2 DUP4 PUSH2 0xF89 JUMP JUMPDEST DUP2 ADD SWAP1 PUSH2 0x138B JUMP JUMPDEST CODESIZE DUP1 PUSH2 0x613 JUMP JUMPDEST POP RETURNDATASIZE PUSH2 0x885 JUMP JUMPDEST DUP7 MLOAD RETURNDATASIZE DUP13 DUP3 RETURNDATACOPY RETURNDATASIZE SWAP1 REVERT JUMPDEST DUP4 DUP1 REVERT JUMPDEST DUP5 CALLVALUE PUSH2 0x2DE JUMPI DUP1 PUSH1 0x3 NOT CALLDATASIZE ADD SLT PUSH2 0x2DE JUMPI PUSH2 0x8CC PUSH2 0x1078 JUMP JUMPDEST DUP1 SLOAD PUSH1 0x1 PUSH1 0x1 PUSH1 0xA0 SHL SUB NOT DUP2 AND DUP3 SSTORE DUP2 SWAP1 PUSH1 0x1 PUSH1 0x1 PUSH1 0xA0 SHL SUB AND PUSH1 0x0 DUP1 MLOAD PUSH1 0x20 PUSH2 0x1832 DUP4 CODECOPY DUP2 MLOAD SWAP2 MSTORE DUP3 DUP1 LOG3 DUP1 RETURN JUMPDEST DUP5 SWAP2 POP DUP4 CALLVALUE PUSH2 0x19D JUMPI DUP1 PUSH1 0x3 NOT CALLDATASIZE ADD SLT PUSH2 0x19D JUMPI DUP4 CALLDATALOAD PUSH2 0x919 PUSH2 0xF05 JUMP JUMPDEST SWAP2 PUSH2 0x922 PUSH2 0x10F1 JUMP JUMPDEST PUSH1 0x2 SLOAD DUP2 MLOAD PUSH4 0x786420D1 PUSH1 0xE0 SHL DUP2 MSTORE DUP8 DUP2 ADD DUP5 SWAP1 MSTORE PUSH1 0x1 PUSH1 0x1 PUSH1 0xA0 SHL SUB SWAP6 SWAP2 DUP7 AND SWAP1 PUSH2 0x3C0 SWAP1 DUP2 DUP2 PUSH1 0x24 DUP2 DUP7 GAS STATICCALL SWAP2 DUP3 ISZERO PUSH2 0xBAC JUMPI SWAP2 PUSH2 0x140 SWAP2 PUSH2 0x971 SWAP4 DUP12 SWAP3 PUSH2 0xB8F JUMPI POP POP ADD MLOAD ISZERO ISZERO PUSH2 0x1524 JUMP JUMPDEST DUP3 MLOAD PUSH4 0x10DB0C29 PUSH1 0xE0 SHL DUP2 MSTORE SWAP1 DUP3 SWAP1 DUP3 SWAP1 DUP2 DUP1 PUSH2 0x991 CALLER DUP11 DUP16 DUP5 ADD PUSH2 0x15E1 JUMP JUMPDEST SUB SWAP2 GAS STATICCALL SWAP2 DUP3 ISZERO PUSH2 0xB85 JUMPI DUP8 SWAP3 PUSH2 0xB68 JUMPI JUMPDEST POP POP PUSH2 0x9B4 PUSH1 0xC0 DUP3 ADD MLOAD ISZERO ISZERO PUSH2 0x15FA JUMP JUMPDEST DUP3 DUP7 MSTORE PUSH1 0x20 SWAP5 PUSH1 0x5 DUP7 MSTORE DUP3 DUP8 KECCAK256 SWAP5 AND SWAP4 DUP5 DUP8 MSTORE DUP6 MSTORE DUP2 DUP7 KECCAK256 CALLER DUP8 MSTORE DUP6 MSTORE PUSH1 0xFF DUP3 DUP8 KECCAK256 SLOAD AND PUSH2 0xB2C JUMPI DUP3 DUP7 MSTORE PUSH1 0x3 DUP6 MSTORE DUP2 DUP7 KECCAK256 DUP5 DUP8 MSTORE DUP6 MSTORE DUP2 DUP7 KECCAK256 SLOAD SWAP1 DUP2 ISZERO PUSH2 0xAF4 JUMPI PUSH1 0x64 SWAP2 DUP4 PUSH2 0xA06 SWAP3 ADD MLOAD SWAP1 PUSH2 0x1645 JUMP JUMPDEST DIV SWAP4 DUP5 ISZERO PUSH2 0xAA8 JUMPI DUP3 DUP7 MSTORE PUSH1 0x5 DUP2 MSTORE DUP2 DUP7 KECCAK256 DUP5 DUP8 MSTORE DUP2 MSTORE DUP2 DUP7 KECCAK256 CALLER DUP8 MSTORE DUP2 MSTORE DUP2 DUP7 KECCAK256 DUP1 SLOAD PUSH1 0xFF NOT AND PUSH1 0x1 OR SWAP1 SSTORE DUP3 DUP7 MSTORE PUSH1 0x3 DUP2 MSTORE DUP2 DUP7 KECCAK256 DUP5 DUP8 MSTORE DUP2 MSTORE DUP2 DUP7 KECCAK256 DUP1 SLOAD DUP7 DUP2 SUB SWAP2 SWAP1 DUP3 GT PUSH2 0xA95 JUMPI SSTORE PUSH32 0xFA76A4010D9533E3E964F2930A65FB6042A12FA6FF5B08281837A10B0BE7321E SWAP2 SWAP1 PUSH2 0xA81 DUP7 CALLER DUP8 PUSH2 0x166E JUMP JUMPDEST DUP2 MLOAD SWAP6 DUP7 MSTORE TIMESTAMP SWAP1 DUP7 ADD MSTORE CALLER SWAP5 LOG4 PUSH1 0x1 DUP1 SSTORE DUP1 RETURN JUMPDEST PUSH4 0x4E487B71 PUSH1 0xE0 SHL DUP9 MSTORE PUSH1 0x11 DUP10 MSTORE PUSH1 0x24 DUP9 REVERT JUMPDEST DUP7 SWAP1 PUSH1 0x84 SWAP3 MLOAD SWAP2 PUSH3 0x461BCD PUSH1 0xE5 SHL DUP4 MSTORE DUP3 ADD MSTORE PUSH1 0x21 PUSH1 0x24 DUP3 ADD MSTORE PUSH32 0x4E6F20746F6B656E7320746F20636C61696D20666F7220746869732073686172 PUSH1 0x44 DUP3 ADD MSTORE PUSH1 0x65 PUSH1 0xF8 SHL PUSH1 0x64 DUP3 ADD MSTORE REVERT JUMPDEST DUP3 MLOAD PUSH3 0x461BCD PUSH1 0xE5 SHL DUP2 MSTORE DUP1 DUP10 ADD DUP8 SWAP1 MSTORE PUSH1 0x12 PUSH1 0x24 DUP3 ADD MSTORE PUSH18 0x4E6F20746F6B656E7320746F20636C61696D PUSH1 0x70 SHL PUSH1 0x44 DUP3 ADD MSTORE PUSH1 0x64 SWAP1 REVERT JUMPDEST DUP2 MLOAD PUSH3 0x461BCD PUSH1 0xE5 SHL DUP2 MSTORE DUP1 DUP9 ADD DUP7 SWAP1 MSTORE PUSH1 0x16 PUSH1 0x24 DUP3 ADD MSTORE PUSH22 0x151BDAD95B9CC8185B1C9958591E4818DB185A5B5959 PUSH1 0x52 SHL PUSH1 0x44 DUP3 ADD MSTORE PUSH1 0x64 SWAP1 REVERT JUMPDEST PUSH2 0xB7E SWAP3 POP DUP1 RETURNDATASIZE LT PUSH2 0x871 JUMPI PUSH2 0x862 DUP2 DUP4 PUSH2 0xF89 JUMP JUMPDEST DUP8 DUP1 PUSH2 0x9A3 JUMP JUMPDEST DUP4 MLOAD RETURNDATASIZE DUP10 DUP3 RETURNDATACOPY RETURNDATASIZE SWAP1 REVERT JUMPDEST PUSH2 0xBA5 SWAP3 POP DUP1 RETURNDATASIZE LT PUSH2 0x89E JUMPI PUSH2 0x88F DUP2 DUP4 PUSH2 0xF89 JUMP JUMPDEST DUP12 DUP1 PUSH2 0x613 JUMP JUMPDEST DUP6 MLOAD RETURNDATASIZE DUP12 DUP3 RETURNDATACOPY RETURNDATASIZE SWAP1 REVERT JUMPDEST POP POP SWAP2 CALLVALUE PUSH2 0x2DE JUMPI PUSH2 0xBC7 CALLDATASIZE PUSH2 0xFFC JUMP JUMPDEST SWAP4 SWAP1 DUP3 MSTORE PUSH1 0x20 MSTORE DUP2 DUP2 KECCAK256 SWAP1 DUP2 SLOAD DUP5 LT ISZERO PUSH2 0x2DE JUMPI POP PUSH1 0x60 SWAP3 PUSH2 0xBE8 SWAP2 PUSH2 0x1012 JUMP JUMPDEST POP PUSH1 0x1 DUP1 PUSH1 0xA0 SHL SUB DUP2 SLOAD AND SWAP2 PUSH1 0x2 PUSH1 0x1 DUP4 ADD SLOAD SWAP3 ADD SLOAD SWAP2 DUP2 MLOAD SWAP4 DUP5 MSTORE PUSH1 0x20 DUP5 ADD MSTORE DUP3 ADD MSTORE RETURN JUMPDEST POP POP POP CALLVALUE PUSH2 0x28E JUMPI DUP2 PUSH1 0x3 NOT CALLDATASIZE ADD SLT PUSH2 0x28E JUMPI PUSH1 0x2 SLOAD SWAP1 MLOAD PUSH1 0x1 PUSH1 0x1 PUSH1 0xA0 SHL SUB SWAP1 SWAP2 AND DUP2 MSTORE PUSH1 0x20 SWAP1 RETURN JUMPDEST POP POP CALLVALUE PUSH2 0x19D JUMPI DUP2 PUSH1 0x3 NOT CALLDATASIZE ADD SLT PUSH2 0x19D JUMPI PUSH1 0x20 SWAP3 DUP3 SWAP2 PUSH2 0xC57 PUSH2 0xF05 JUMP JUMPDEST SWAP1 CALLDATALOAD DUP3 MSTORE PUSH1 0x3 DUP6 MSTORE DUP3 DUP3 KECCAK256 PUSH1 0x1 PUSH1 0x1 PUSH1 0xA0 SHL SUB SWAP1 SWAP2 AND DUP3 MSTORE DUP5 MSTORE KECCAK256 SLOAD SWAP1 MLOAD SWAP1 DUP2 MSTORE RETURN JUMPDEST POP POP CALLVALUE PUSH2 0x19D JUMPI PUSH1 0x60 CALLDATASIZE PUSH1 0x3 NOT ADD SLT PUSH2 0x19D JUMPI PUSH1 0x44 CALLDATALOAD PUSH1 0x1 PUSH1 0x1 PUSH1 0xA0 SHL SUB DUP2 AND SWAP2 SWAP1 DUP3 SWAP1 SUB PUSH2 0x8AF JUMPI PUSH1 0x20 SWAP4 PUSH1 0xFF SWAP3 DUP5 SWAP3 CALLDATALOAD DUP3 MSTORE PUSH1 0x6 DUP7 MSTORE DUP3 DUP3 KECCAK256 PUSH1 0x24 CALLDATALOAD DUP4 MSTORE DUP7 MSTORE DUP3 DUP3 KECCAK256 SWAP1 DUP3 MSTORE DUP6 MSTORE KECCAK256 SLOAD AND SWAP1 MLOAD SWAP1 ISZERO ISZERO DUP2 MSTORE RETURN JUMPDEST POP POP POP CALLVALUE PUSH2 0x28E JUMPI PUSH1 0x20 SWAP1 PUSH2 0xCED PUSH2 0xCE7 CALLDATASIZE PUSH2 0xFC7 JUMP JUMPDEST SWAP2 PUSH2 0x16F0 JUMP JUMPDEST SWAP1 MLOAD SWAP1 DUP2 MSTORE RETURN JUMPDEST POP POP SWAP2 CALLVALUE PUSH2 0x2DE JUMPI PUSH1 0x80 CALLDATASIZE PUSH1 0x3 NOT ADD SLT PUSH2 0x2DE JUMPI PUSH2 0xD10 PUSH2 0xEEA JUMP JUMPDEST POP PUSH2 0xD19 PUSH2 0xF05 JUMP JUMPDEST POP PUSH1 0x64 CALLDATALOAD SWAP3 PUSH1 0x1 PUSH1 0x1 PUSH1 0x40 SHL SUB DUP5 GT PUSH2 0x28E JUMPI CALLDATASIZE PUSH1 0x23 DUP6 ADD SLT ISZERO PUSH2 0x28E JUMPI DUP4 ADD CALLDATALOAD PUSH2 0xD43 DUP2 PUSH2 0xFAC JUMP JUMPDEST SWAP4 PUSH2 0xD50 DUP5 MLOAD SWAP6 DUP7 PUSH2 0xF89 JUMP JUMPDEST DUP2 DUP6 MSTORE CALLDATASIZE PUSH1 0x24 DUP4 DUP4 ADD ADD GT PUSH2 0x19D JUMPI SWAP1 PUSH1 0x20 SWAP5 DUP2 PUSH1 0x24 DUP8 SWAP5 ADD DUP5 DUP4 ADD CALLDATACOPY ADD ADD MSTORE MLOAD PUSH4 0xA85BD01 PUSH1 0xE1 SHL DUP2 MSTORE RETURN JUMPDEST POP POP SWAP1 CALLVALUE PUSH2 0x19D JUMPI PUSH2 0xD8E CALLDATASIZE PUSH2 0xF1B JUMP JUMPDEST SWAP2 SWAP3 SWAP1 PUSH2 0xD99 PUSH2 0x10F1 JUMP JUMPDEST PUSH1 0x1 PUSH1 0x1 PUSH1 0xA0 SHL SUB AND SWAP4 DUP5 ISZERO PUSH2 0xEB0 JUMPI DUP3 ISZERO PUSH2 0xE6E JUMPI DUP2 MLOAD PUSH4 0x23B872DD PUSH1 0xE0 SHL PUSH1 0x20 DUP3 ADD MSTORE PUSH2 0xDE9 SWAP1 PUSH2 0xDE3 DUP2 PUSH2 0xDD5 DUP8 ADDRESS CALLER PUSH1 0x24 DUP6 ADD PUSH2 0x1147 JUMP JUMPDEST SUB PUSH1 0x1F NOT DUP2 ADD DUP4 MSTORE DUP3 PUSH2 0xF89 JUMP JUMPDEST DUP7 PUSH2 0x1176 JUMP JUMPDEST DUP4 DUP7 MSTORE PUSH1 0x3 PUSH1 0x20 MSTORE DUP2 DUP7 KECCAK256 DUP6 DUP8 MSTORE PUSH1 0x20 MSTORE DUP2 DUP7 KECCAK256 DUP1 SLOAD SWAP2 DUP5 DUP4 ADD DUP1 SWAP4 GT PUSH2 0xE5B JUMPI POP SWAP2 PUSH32 0x1A86F2FEC285B1CF50577B325C975209EBCFA748A48DA509410F0143A28448D7 SWAP4 SWAP2 PUSH2 0x526 SWAP4 SSTORE DUP5 DUP8 MSTORE PUSH1 0x3 PUSH1 0x20 MSTORE DUP1 DUP8 KECCAK256 DUP7 DUP9 MSTORE PUSH1 0x20 MSTORE TIMESTAMP PUSH1 0x1 DUP3 DUP10 KECCAK256 ADD SSTORE MLOAD SWAP2 DUP3 SWAP2 TIMESTAMP SWAP1 CALLER SWAP1 DUP5 PUSH2 0x10D0 JUMP JUMPDEST PUSH4 0x4E487B71 PUSH1 0xE0 SHL DUP9 MSTORE PUSH1 0x11 SWAP1 MSTORE PUSH1 0x24 DUP8 REVERT JUMPDEST PUSH1 0x20 PUSH1 0x64 SWAP3 MLOAD SWAP2 PUSH3 0x461BCD PUSH1 0xE5 SHL DUP4 MSTORE DUP3 ADD MSTORE PUSH1 0x1D PUSH1 0x24 DUP3 ADD MSTORE PUSH32 0x416D6F756E74206D7573742062652067726561746572207468616E2030000000 PUSH1 0x44 DUP3 ADD MSTORE REVERT JUMPDEST PUSH1 0x20 PUSH1 0x64 SWAP3 MLOAD SWAP2 PUSH3 0x461BCD PUSH1 0xE5 SHL DUP4 MSTORE DUP3 ADD MSTORE PUSH1 0x15 PUSH1 0x24 DUP3 ADD MSTORE PUSH21 0x496E76616C696420746F6B656E2061646472657373 PUSH1 0x58 SHL PUSH1 0x44 DUP3 ADD MSTORE REVERT JUMPDEST PUSH1 0x4 CALLDATALOAD SWAP1 PUSH1 0x1 PUSH1 0x1 PUSH1 0xA0 SHL SUB DUP3 AND DUP3 SUB PUSH2 0xF00 JUMPI JUMP JUMPDEST PUSH1 0x0 DUP1 REVERT JUMPDEST PUSH1 0x24 CALLDATALOAD SWAP1 PUSH1 0x1 PUSH1 0x1 PUSH1 0xA0 SHL SUB DUP3 AND DUP3 SUB PUSH2 0xF00 JUMPI JUMP JUMPDEST PUSH1 0x60 SWAP1 PUSH1 0x3 NOT ADD SLT PUSH2 0xF00 JUMPI PUSH1 0x4 CALLDATALOAD SWAP1 PUSH1 0x24 CALLDATALOAD PUSH1 0x1 PUSH1 0x1 PUSH1 0xA0 SHL SUB DUP2 AND DUP2 SUB PUSH2 0xF00 JUMPI SWAP1 PUSH1 0x44 CALLDATALOAD SWAP1 JUMP JUMPDEST PUSH1 0x1 PUSH1 0x1 PUSH1 0x40 SHL SUB DUP2 GT PUSH2 0xF58 JUMPI PUSH1 0x40 MSTORE JUMP JUMPDEST PUSH4 0x4E487B71 PUSH1 0xE0 SHL PUSH1 0x0 MSTORE PUSH1 0x41 PUSH1 0x4 MSTORE PUSH1 0x24 PUSH1 0x0 REVERT JUMPDEST PUSH1 0x60 DUP2 ADD SWAP1 DUP2 LT PUSH1 0x1 PUSH1 0x1 PUSH1 0x40 SHL SUB DUP3 GT OR PUSH2 0xF58 JUMPI PUSH1 0x40 MSTORE JUMP JUMPDEST PUSH1 0x1F SWAP1 SWAP2 ADD PUSH1 0x1F NOT AND DUP2 ADD SWAP1 PUSH1 0x1 PUSH1 0x1 PUSH1 0x40 SHL SUB DUP3 GT SWAP1 DUP3 LT OR PUSH2 0xF58 JUMPI PUSH1 0x40 MSTORE JUMP JUMPDEST PUSH1 0x1 PUSH1 0x1 PUSH1 0x40 SHL SUB DUP2 GT PUSH2 0xF58 JUMPI PUSH1 0x1F ADD PUSH1 0x1F NOT AND PUSH1 0x20 ADD SWAP1 JUMP JUMPDEST PUSH1 0x60 SWAP1 PUSH1 0x3 NOT ADD SLT PUSH2 0xF00 JUMPI PUSH1 0x4 CALLDATALOAD SWAP1 PUSH1 0x1 PUSH1 0x1 PUSH1 0xA0 SHL SUB SWAP1 PUSH1 0x24 CALLDATALOAD DUP3 DUP2 AND DUP2 SUB PUSH2 0xF00 JUMPI SWAP2 PUSH1 0x44 CALLDATALOAD SWAP1 DUP2 AND DUP2 SUB PUSH2 0xF00 JUMPI SWAP1 JUMP JUMPDEST PUSH1 0x40 SWAP1 PUSH1 0x3 NOT ADD SLT PUSH2 0xF00 JUMPI PUSH1 0x4 CALLDATALOAD SWAP1 PUSH1 0x24 CALLDATALOAD SWAP1 JUMP JUMPDEST DUP1 SLOAD DUP3 LT ISZERO PUSH2 0x102E JUMPI PUSH1 0x0 MSTORE PUSH1 0x3 PUSH1 0x20 PUSH1 0x0 KECCAK256 SWAP2 MUL ADD SWAP1 PUSH1 0x0 SWAP1 JUMP JUMPDEST PUSH4 0x4E487B71 PUSH1 0xE0 SHL PUSH1 0x0 MSTORE PUSH1 0x32 PUSH1 0x4 MSTORE PUSH1 0x24 PUSH1 0x0 REVERT JUMPDEST PUSH1 0x60 SWAP1 PUSH1 0x3 NOT ADD SLT PUSH2 0xF00 JUMPI PUSH1 0x1 PUSH1 0x1 PUSH1 0xA0 SHL SUB PUSH1 0x4 CALLDATALOAD DUP2 DUP2 AND DUP2 SUB PUSH2 0xF00 JUMPI SWAP2 PUSH1 0x24 CALLDATALOAD SWAP2 PUSH1 0x44 CALLDATALOAD SWAP1 DUP2 AND DUP2 SUB PUSH2 0xF00 JUMPI SWAP1 JUMP JUMPDEST PUSH1 0x0 SLOAD PUSH1 0x1 PUSH1 0x1 PUSH1 0xA0 SHL SUB AND CALLER SUB PUSH2 0x108C JUMPI JUMP JUMPDEST PUSH1 0x64 PUSH1 0x40 MLOAD PUSH3 0x461BCD PUSH1 0xE5 SHL DUP2 MSTORE PUSH1 0x20 PUSH1 0x4 DUP3 ADD MSTORE PUSH1 0x20 PUSH1 0x24 DUP3 ADD MSTORE PUSH32 0x4F776E61626C653A2063616C6C6572206973206E6F7420746865206F776E6572 PUSH1 0x44 DUP3 ADD MSTORE REVERT JUMPDEST SWAP1 DUP2 MSTORE PUSH1 0x1 PUSH1 0x1 PUSH1 0xA0 SHL SUB SWAP1 SWAP2 AND PUSH1 0x20 DUP3 ADD MSTORE PUSH1 0x40 DUP2 ADD SWAP2 SWAP1 SWAP2 MSTORE PUSH1 0x60 ADD SWAP1 JUMP JUMPDEST PUSH1 0x2 PUSH1 0x1 SLOAD EQ PUSH2 0x1102 JUMPI PUSH1 0x2 PUSH1 0x1 SSTORE JUMP JUMPDEST PUSH1 0x40 MLOAD PUSH3 0x461BCD PUSH1 0xE5 SHL DUP2 MSTORE PUSH1 0x20 PUSH1 0x4 DUP3 ADD MSTORE PUSH1 0x1F PUSH1 0x24 DUP3 ADD MSTORE PUSH32 0x5265656E7472616E637947756172643A207265656E7472616E742063616C6C00 PUSH1 0x44 DUP3 ADD MSTORE PUSH1 0x64 SWAP1 REVERT JUMPDEST PUSH1 0x1 PUSH1 0x1 PUSH1 0xA0 SHL SUB SWAP2 DUP3 AND DUP2 MSTORE SWAP2 AND PUSH1 0x20 DUP3 ADD MSTORE PUSH1 0x40 DUP2 ADD SWAP2 SWAP1 SWAP2 MSTORE PUSH1 0x60 ADD SWAP1 JUMP JUMPDEST MLOAD SWAP1 DUP2 ISZERO ISZERO DUP3 SUB PUSH2 0xF00 JUMPI JUMP JUMPDEST PUSH1 0x40 DUP1 MLOAD PUSH1 0x1 PUSH1 0x1 PUSH1 0xA0 SHL SUB SWAP3 SWAP1 SWAP3 AND SWAP3 SWAP2 SWAP1 DUP2 ADD SWAP1 PUSH1 0x1 PUSH1 0x1 PUSH1 0x40 SHL SUB DUP3 GT DUP2 DUP4 LT OR PUSH2 0xF58 JUMPI PUSH2 0x120A SWAP2 PUSH1 0x40 MSTORE PUSH1 0x20 SWAP4 DUP5 DUP3 MSTORE PUSH32 0x5361666545524332303A206C6F772D6C6576656C2063616C6C206661696C6564 DUP6 DUP4 ADD MSTORE PUSH1 0x0 DUP1 DUP6 DUP8 DUP3 SWAP8 MLOAD SWAP2 ADD DUP3 DUP6 GAS CALL RETURNDATASIZE ISZERO PUSH2 0x129F JUMPI RETURNDATASIZE SWAP2 PUSH2 0x11EF DUP4 PUSH2 0xFAC JUMP JUMPDEST SWAP3 PUSH2 0x11FD PUSH1 0x40 MLOAD SWAP5 DUP6 PUSH2 0xF89 JUMP JUMPDEST DUP4 MSTORE RETURNDATASIZE DUP7 DUP9 DUP6 ADD RETURNDATACOPY PUSH2 0x12A3 JUMP JUMPDEST SWAP1 DUP2 MLOAD SWAP1 DUP4 DUP3 ISZERO SWAP3 DUP4 ISZERO PUSH2 0x127D JUMPI JUMPDEST POP POP POP SWAP1 POP ISZERO PUSH2 0x1226 JUMPI POP JUMP JUMPDEST PUSH1 0x84 SWAP1 PUSH1 0x40 MLOAD SWAP1 PUSH3 0x461BCD PUSH1 0xE5 SHL DUP3 MSTORE PUSH1 0x4 DUP3 ADD MSTORE PUSH1 0x2A PUSH1 0x24 DUP3 ADD MSTORE PUSH32 0x5361666545524332303A204552433230206F7065726174696F6E20646964206E PUSH1 0x44 DUP3 ADD MSTORE PUSH10 0x1BDD081CDD58D8D95959 PUSH1 0xB2 SHL PUSH1 0x64 DUP3 ADD MSTORE REVERT JUMPDEST DUP5 DUP1 SWAP3 SWAP4 SWAP5 POP ADD SUB SLT PUSH2 0x2DE JUMPI POP DUP2 PUSH2 0x1296 SWAP2 ADD PUSH2 0x1169 JUMP JUMPDEST DUP1 CODESIZE DUP4 DUP2 PUSH2 0x1219 JUMP JUMPDEST PUSH1 0x60 SWAP2 JUMPDEST SWAP2 SWAP3 SWAP1 ISZERO PUSH2 0x1305 JUMPI POP DUP2 MLOAD ISZERO PUSH2 0x12B7 JUMPI POP SWAP1 JUMP JUMPDEST EXTCODESIZE ISZERO PUSH2 0x12C0 JUMPI SWAP1 JUMP JUMPDEST PUSH1 0x40 MLOAD PUSH3 0x461BCD PUSH1 0xE5 SHL DUP2 MSTORE PUSH1 0x20 PUSH1 0x4 DUP3 ADD MSTORE PUSH1 0x1D PUSH1 0x24 DUP3 ADD MSTORE PUSH32 0x416464726573733A2063616C6C20746F206E6F6E2D636F6E7472616374000000 PUSH1 0x44 DUP3 ADD MSTORE PUSH1 0x64 SWAP1 REVERT JUMPDEST DUP3 MLOAD SWAP1 SWAP2 POP ISZERO PUSH2 0x1318 JUMPI POP DUP1 MLOAD SWAP1 PUSH1 0x20 ADD REVERT JUMPDEST PUSH1 0x40 MLOAD SWAP1 PUSH3 0x461BCD PUSH1 0xE5 SHL DUP3 MSTORE DUP2 PUSH1 0x20 DUP1 PUSH1 0x4 DUP4 ADD MSTORE DUP3 MLOAD SWAP1 DUP2 PUSH1 0x24 DUP5 ADD MSTORE PUSH1 0x0 SWAP4 JUMPDEST DUP3 DUP6 LT PUSH2 0x135E JUMPI POP POP PUSH1 0x44 SWAP3 POP PUSH1 0x0 DUP4 DUP3 DUP5 ADD ADD MSTORE PUSH1 0x1F DUP1 NOT SWAP2 ADD AND DUP2 ADD SUB ADD SWAP1 REVERT JUMPDEST DUP5 DUP2 ADD DUP3 ADD MLOAD DUP7 DUP7 ADD PUSH1 0x44 ADD MSTORE SWAP4 DUP2 ADD SWAP4 DUP6 SWAP4 POP PUSH2 0x133B JUMP JUMPDEST MLOAD SWAP1 PUSH1 0x1 PUSH1 0x1 PUSH1 0xA0 SHL SUB DUP3 AND DUP3 SUB PUSH2 0xF00 JUMPI JUMP JUMPDEST DUP1 SWAP2 PUSH2 0x3C0 SWAP3 DUP4 SWAP2 SUB SLT PUSH2 0xF00 JUMPI PUSH1 0x40 MLOAD SWAP2 DUP3 ADD PUSH1 0x1 PUSH1 0x1 PUSH1 0x40 SHL SUB DUP2 GT DUP4 DUP3 LT OR PUSH2 0xF58 JUMPI PUSH1 0x40 MSTORE DUP1 MLOAD DUP3 MSTORE PUSH2 0x13C4 PUSH1 0x20 DUP3 ADD PUSH2 0x1377 JUMP JUMPDEST PUSH1 0x20 DUP4 ADD MSTORE PUSH1 0x40 DUP2 ADD MLOAD PUSH1 0x40 DUP4 ADD MSTORE PUSH1 0x60 DUP2 ADD MLOAD PUSH1 0x60 DUP4 ADD MSTORE PUSH1 0x80 DUP2 ADD MLOAD PUSH1 0x80 DUP4 ADD MSTORE PUSH1 0xA0 DUP2 ADD MLOAD PUSH1 0xA0 DUP4 ADD MSTORE PUSH1 0xC0 DUP2 ADD MLOAD PUSH1 0xC0 DUP4 ADD MSTORE PUSH1 0xE0 DUP2 ADD MLOAD PUSH1 0xE0 DUP4 ADD MSTORE PUSH2 0x100 DUP1 DUP3 ADD MLOAD SWAP1 DUP4 ADD MSTORE PUSH2 0x120 PUSH2 0x141E DUP2 DUP4 ADD PUSH2 0x1169 JUMP JUMPDEST SWAP1 DUP4 ADD MSTORE PUSH2 0x140 PUSH2 0x1430 DUP2 DUP4 ADD PUSH2 0x1169 JUMP JUMPDEST SWAP1 DUP4 ADD MSTORE PUSH2 0x160 DUP1 DUP3 ADD MLOAD SWAP1 DUP4 ADD MSTORE PUSH2 0x180 DUP1 DUP3 ADD MLOAD SWAP1 DUP4 ADD MSTORE PUSH2 0x1A0 DUP1 DUP3 ADD MLOAD SWAP1 DUP4 ADD MSTORE PUSH2 0x1C0 PUSH2 0x1463 DUP2 DUP4 ADD PUSH2 0x1169 JUMP JUMPDEST SWAP1 DUP4 ADD MSTORE PUSH2 0x1E0 PUSH2 0x1475 DUP2 DUP4 ADD PUSH2 0x1377 JUMP JUMPDEST SWAP1 DUP4 ADD MSTORE PUSH2 0x200 DUP1 DUP3 ADD MLOAD SWAP1 DUP4 ADD MSTORE PUSH2 0x220 DUP1 DUP3 ADD MLOAD SWAP1 DUP4 ADD MSTORE PUSH2 0x240 DUP1 DUP3 ADD MLOAD SWAP1 DUP4 ADD MSTORE PUSH2 0x260 DUP1 DUP3 ADD MLOAD SWAP1 DUP4 ADD MSTORE PUSH2 0x280 DUP1 DUP3 ADD MLOAD SWAP1 DUP4 ADD MSTORE PUSH2 0x2A0 DUP1 DUP3 ADD MLOAD SWAP1 DUP4 ADD MSTORE PUSH2 0x2C0 DUP1 DUP3 ADD MLOAD SWAP1 DUP4 ADD MSTORE PUSH2 0x2E0 DUP1 DUP3 ADD MLOAD SWAP1 DUP4 ADD MSTORE PUSH2 0x300 DUP1 DUP3 ADD MLOAD SWAP1 DUP4 ADD MSTORE PUSH2 0x320 DUP1 DUP3 ADD MLOAD SWAP1 DUP4 ADD MSTORE PUSH2 0x340 PUSH2 0x14F5 DUP2 DUP4 ADD PUSH2 0x1169 JUMP JUMPDEST SWAP1 DUP4 ADD MSTORE PUSH2 0x360 DUP1 DUP3 ADD MLOAD SWAP1 DUP4 ADD MSTORE PUSH2 0x380 DUP1 DUP3 ADD MLOAD SWAP1 DUP4 ADD MSTORE PUSH2 0x151D PUSH2 0x3A0 DUP1 SWAP3 ADD PUSH2 0x1377 JUMP JUMPDEST SWAP1 DUP3 ADD MSTORE SWAP1 JUMP JUMPDEST ISZERO PUSH2 0x152B JUMPI JUMP JUMPDEST PUSH1 0x40 MLOAD PUSH3 0x461BCD PUSH1 0xE5 SHL DUP2 MSTORE PUSH1 0x20 PUSH1 0x4 DUP3 ADD MSTORE PUSH1 0x14 PUSH1 0x24 DUP3 ADD MSTORE PUSH20 0x457374617465206E6F7420636C61696D61626C65 PUSH1 0x60 SHL PUSH1 0x44 DUP3 ADD MSTORE PUSH1 0x64 SWAP1 REVERT JUMPDEST SWAP1 DUP2 PUSH1 0xE0 SWAP2 SUB SLT PUSH2 0xF00 JUMPI PUSH1 0x40 MLOAD SWAP1 PUSH1 0xE0 DUP3 ADD PUSH1 0x1 PUSH1 0x1 PUSH1 0x40 SHL SUB DUP2 GT DUP4 DUP3 LT OR PUSH2 0xF58 JUMPI PUSH2 0x15D9 SWAP2 PUSH1 0xC0 SWAP2 PUSH1 0x40 MSTORE DUP1 MLOAD DUP5 MSTORE PUSH2 0x15A6 PUSH1 0x20 DUP3 ADD PUSH2 0x1377 JUMP JUMPDEST PUSH1 0x20 DUP6 ADD MSTORE PUSH1 0x40 DUP2 ADD MLOAD PUSH1 0x40 DUP6 ADD MSTORE PUSH1 0x60 DUP2 ADD MLOAD PUSH1 0x60 DUP6 ADD MSTORE PUSH1 0x80 DUP2 ADD MLOAD PUSH1 0x80 DUP6 ADD MSTORE PUSH1 0xA0 DUP2 ADD MLOAD PUSH1 0xA0 DUP6 ADD MSTORE ADD PUSH2 0x1169 JUMP JUMPDEST PUSH1 0xC0 DUP3 ADD MSTORE SWAP1 JUMP JUMPDEST SWAP1 DUP2 MSTORE PUSH1 0x1 PUSH1 0x1 PUSH1 0xA0 SHL SUB SWAP1 SWAP2 AND PUSH1 0x20 DUP3 ADD MSTORE PUSH1 0x40 ADD SWAP1 JUMP JUMPDEST ISZERO PUSH2 0x1601 JUMPI JUMP JUMPDEST PUSH1 0x40 MLOAD PUSH3 0x461BCD PUSH1 0xE5 SHL DUP2 MSTORE PUSH1 0x20 PUSH1 0x4 DUP3 ADD MSTORE PUSH1 0x1C PUSH1 0x24 DUP3 ADD MSTORE PUSH28 0x135D5CDD0818DB185A5B481A5B9A195C9A5D185B98D948199A5C9CDD PUSH1 0x22 SHL PUSH1 0x44 DUP3 ADD MSTORE PUSH1 0x64 SWAP1 REVERT JUMPDEST DUP2 DUP2 MUL SWAP3 SWAP2 DUP2 ISZERO SWAP2 DUP5 DIV EQ OR ISZERO PUSH2 0x1658 JUMPI JUMP JUMPDEST PUSH4 0x4E487B71 PUSH1 0xE0 SHL PUSH1 0x0 MSTORE PUSH1 0x11 PUSH1 0x4 MSTORE PUSH1 0x24 PUSH1 0x0 REVERT JUMPDEST PUSH1 0x40 MLOAD PUSH4 0xA9059CBB PUSH1 0xE0 SHL PUSH1 0x20 DUP3 ADD MSTORE PUSH1 0x1 PUSH1 0x1 PUSH1 0xA0 SHL SUB SWAP1 SWAP3 AND PUSH1 0x24 DUP4 ADD MSTORE PUSH1 0x44 DUP1 DUP4 ADD SWAP4 SWAP1 SWAP4 MSTORE SWAP2 DUP2 MSTORE PUSH1 0x80 DUP2 ADD SWAP2 PUSH1 0x1 PUSH1 0x1 PUSH1 0x40 SHL SUB DUP4 GT DUP3 DUP5 LT OR PUSH2 0xF58 JUMPI PUSH2 0x16BD SWAP3 PUSH1 0x40 MSTORE PUSH2 0x1176 JUMP JUMPDEST JUMP JUMPDEST SWAP1 PUSH1 0x40 MLOAD PUSH2 0x16CC DUP2 PUSH2 0xF6E JUMP JUMPDEST DUP3 SLOAD PUSH1 0x1 PUSH1 0x1 PUSH1 0xA0 SHL SUB AND DUP2 MSTORE PUSH1 0x1 DUP4 ADD SLOAD PUSH1 0x20 DUP3 ADD MSTORE PUSH1 0x2 SWAP1 SWAP3 ADD SLOAD PUSH1 0x40 DUP4 ADD MSTORE JUMP JUMPDEST SWAP2 SWAP1 SWAP2 PUSH1 0x0 SWAP3 DUP2 DUP5 MSTORE PUSH1 0x5 PUSH1 0x20 MSTORE PUSH1 0x40 SWAP2 DUP3 DUP6 KECCAK256 SWAP2 PUSH1 0x1 DUP1 PUSH1 0xA0 SHL SUB DUP1 SWAP2 AND SWAP3 DUP4 DUP8 MSTORE PUSH1 0x20 MSTORE DUP4 DUP7 KECCAK256 DUP2 DUP7 AND DUP8 MSTORE PUSH1 0x20 MSTORE PUSH1 0xFF DUP5 DUP8 KECCAK256 SLOAD AND PUSH2 0x17C9 JUMPI PUSH2 0x1751 SWAP5 PUSH1 0xE0 SWAP2 PUSH1 0x2 SLOAD AND DUP6 MLOAD DUP1 DUP1 SWAP9 DUP2 SWAP5 PUSH4 0x10DB0C29 DUP8 SHL DUP4 MSTORE DUP8 PUSH1 0x4 DUP5 ADD PUSH2 0x15E1 JUMP JUMPDEST SUB SWAP2 GAS STATICCALL SWAP4 DUP5 ISZERO PUSH2 0x17BF JUMPI DUP6 SWAP5 PUSH2 0x179F JUMPI JUMPDEST POP PUSH1 0xC0 DUP5 ADD MLOAD ISZERO PUSH2 0x1798 JUMPI SWAP2 DUP5 DUP2 SWAP3 PUSH2 0x1794 SWAP6 SWAP5 PUSH1 0x64 SWAP8 MSTORE PUSH1 0x3 PUSH1 0x20 MSTORE DUP3 DUP3 KECCAK256 SWAP1 DUP3 MSTORE PUSH1 0x20 MSTORE KECCAK256 SLOAD SWAP2 ADD MLOAD SWAP1 PUSH2 0x1645 JUMP JUMPDEST DIV SWAP1 JUMP JUMPDEST POP POP POP POP SWAP1 JUMP JUMPDEST PUSH2 0x17B8 SWAP2 SWAP5 POP PUSH1 0xE0 RETURNDATASIZE DUP2 GT PUSH2 0x871 JUMPI PUSH2 0x862 DUP2 DUP4 PUSH2 0xF89 JUMP JUMPDEST SWAP3 CODESIZE PUSH2 0x1763 JUMP JUMPDEST DUP4 MLOAD RETURNDATASIZE DUP8 DUP3 RETURNDATACOPY RETURNDATASIZE SWAP1 REVERT JUMPDEST POP POP POP POP POP SWAP1 JUMP JUMPDEST ISZERO PUSH2 0x17D8 JUMPI JUMP JUMPDEST PUSH1 0x40 MLOAD PUSH3 0x461BCD PUSH1 0xE5 SHL DUP2 MSTORE PUSH1 0x20 PUSH1 0x4 DUP3 ADD MSTORE PUSH1 0x11 PUSH1 0x24 DUP3 ADD MSTORE PUSH17 0x125B9D985B1A59081C9958DA5C1A595B9D PUSH1 0x7A SHL PUSH1 0x44 DUP3 ADD MSTORE PUSH1 0x64 SWAP1 REVERT INVALID 0xD7 AND 0x4F SAR 0xD9 LOG1 GT DUP4 0xBC PUSH10 0xC9DF8EDB503D8B08B4A 0x49 0xA8 DUP6 CREATE TIMESTAMP PUSH16 0x54690D42DB0F8BE0079C531659141344 0xCD 0x1F 0xD0 LOG4 CALLCODE DUP5 NOT 0x49 PUSH32 0x9722A3DAAFE3B4186F6B6457E0A26469706673582212201309A72BAA0DEF4CBB JUMPI SWAP4 0x4B 0x21 0xBD 0xC2 0xAF DUP5 0x4F 0xB5 0xB5 0xDD INVALID 0xC9 SHL SHL 0xBC MULMOD MLOAD CALLVALUE 0xAA BASEFEE 0xAF PUSH5 0x736F6C6343 STOP ADDMOD SGT STOP CALLER "},"methodIdentifiers":{"claimNFT(uint256,uint256)":"7a6b8ade","claimTokens(uint256,address)":"6e164e23","defaiEstate()":"50f7920c","depositNFT(uint256,address,uint256)":"7d6f643b","depositTokens(uint256,address,uint256)":"015bf264","emergencyWithdrawNFT(address,uint256,address)":"b1a81295","emergencyWithdrawToken(address,uint256,address)":"83509080","estateNFTs(uint256,uint256)":"6749a067","estateTokenBalances(uint256,address)":"d1a88787","getClaimableTokenAmount(uint256,address,address)":"3290fa1e","getEstateNFTs(uint256)":"dde7ac40","getEstateTokenBalance(uint256,address)":"46729116","nftClaims(uint256,uint256,address)":"45932b97","onERC721Received(address,address,uint256,bytes)":"150b7a02","owner()":"8da5cb5b","renounceOwnership()":"715018a6","tokenClaims(uint256,address,address)":"a2402526","transferOwnership(address)":"f2fde38b"}},"storageLayout":{"storage":[{"astId":396,"contract":"contracts/TokenVault.sol:TokenVault","label":"_owner","offset":0,"slot":"0","type":"t_address"},{"astId":620,"contract":"contracts/TokenVault.sol:TokenVault","label":"_status","offset":0,"slot":"1","type":"t_uint256"},{"astId":8303,"contract":"contracts/TokenVault.sol:TokenVault","label":"defaiEstate","offset":0,"slot":"2","type":"t_contract(IDefAIEstate)8290"},{"astId":8322,"contract":"contracts/TokenVault.sol:TokenVault","label":"estateTokenBalances","offset":0,"slot":"3","type":"t_mapping(t_uint256,t_mapping(t_address,t_struct(TokenBalance)8308_storage))"},{"astId":8328,"contract":"contracts/TokenVault.sol:TokenVault","label":"estateNFTs","offset":0,"slot":"4","type":"t_mapping(t_uint256,t_array(t_struct(NFTDeposit)8315_storage)dyn_storage)"},{"astId":8336,"contract":"contracts/TokenVault.sol:TokenVault","label":"tokenClaims","offset":0,"slot":"5","type":"t_mapping(t_uint256,t_mapping(t_address,t_mapping(t_address,t_bool)))"},{"astId":8344,"contract":"contracts/TokenVault.sol:TokenVault","label":"nftClaims","offset":0,"slot":"6","type":"t_mapping(t_uint256,t_mapping(t_uint256,t_mapping(t_address,t_bool)))"}],"types":{"t_address":{"encoding":"inplace","label":"address","numberOfBytes":"20"},"t_array(t_struct(NFTDeposit)8315_storage)dyn_storage":{"base":"t_struct(NFTDeposit)8315_storage","encoding":"dynamic_array","label":"struct TokenVault.NFTDeposit[]","numberOfBytes":"32"},"t_bool":{"encoding":"inplace","label":"bool","numberOfBytes":"1"},"t_contract(IDefAIEstate)8290":{"encoding":"inplace","label":"contract IDefAIEstate","numberOfBytes":"20"},"t_mapping(t_address,t_bool)":{"encoding":"mapping","key":"t_address","label":"mapping(address => bool)","numberOfBytes":"32","value":"t_bool"},"t_mapping(t_address,t_mapping(t_address,t_bool))":{"encoding":"mapping","key":"t_address","label":"mapping(address => mapping(address => bool))","numberOfBytes":"32","value":"t_mapping(t_address,t_bool)"},"t_mapping(t_address,t_struct(TokenBalance)8308_storage)":{"encoding":"mapping","key":"t_address","label":"mapping(address => struct TokenVault.TokenBalance)","numberOfBytes":"32","value":"t_struct(TokenBalance)8308_storage"},"t_mapping(t_uint256,t_array(t_struct(NFTDeposit)8315_storage)dyn_storage)":{"encoding":"mapping","key":"t_uint256","label":"mapping(uint256 => struct TokenVault.NFTDeposit[])","numberOfBytes":"32","value":"t_array(t_struct(NFTDeposit)8315_storage)dyn_storage"},"t_mapping(t_uint256,t_mapping(t_address,t_bool))":{"encoding":"mapping","key":"t_uint256","label":"mapping(uint256 => mapping(address => bool))","numberOfBytes":"32","value":"t_mapping(t_address,t_bool)"},"t_mapping(t_uint256,t_mapping(t_address,t_mapping(t_address,t_bool)))":{"encoding":"mapping","key":"t_uint256","label":"mapping(uint256 => mapping(address => mapping(address => bool)))","numberOfBytes":"32","value":"t_mapping(t_address,t_mapping(t_address,t_bool))"},"t_mapping(t_uint256,t_mapping(t_address,t_struct(TokenBalance)8308_storage))":{"encoding":"mapping","key":"t_uint256","label":"mapping(uint256 => mapping(address => struct TokenVault.TokenBalance))","numberOfBytes":"32","value":"t_mapping(t_address,t_struct(TokenBalance)8308_storage)"},"t_mapping(t_uint256,t_mapping(t_uint256,t_mapping(t_address,t_bool)))":{"encoding":"mapping","key":"t_uint256","label":"mapping(uint256 => mapping(uint256 => mapping(address => bool)))","numberOfBytes":"32","value":"t_mapping(t_uint256,t_mapping(t_address,t_bool))"},"t_struct(NFTDeposit)8315_storage":{"encoding":"inplace","label":"struct TokenVault.NFTDeposit","members":[{"astId":8310,"contract":"contracts/TokenVault.sol:TokenVault","label":"collection","offset":0,"slot":"0","type":"t_address"},{"astId":8312,"contract":"contracts/TokenVault.sol:TokenVault","label":"tokenId","offset":0,"slot":"1","type":"t_uint256"},{"astId":8314,"contract":"contracts/TokenVault.sol:TokenVault","label":"depositTime","offset":0,"slot":"2","type":"t_uint256"}],"numberOfBytes":"96"},"t_struct(TokenBalance)8308_storage":{"encoding":"inplace","label":"struct TokenVault.TokenBalance","members":[{"astId":8305,"contract":"contracts/TokenVault.sol:TokenVault","label":"amount","offset":0,"slot":"0","type":"t_uint256"},{"astId":8307,"contract":"contracts/TokenVault.sol:TokenVault","label":"lastUpdated","offset":0,"slot":"1","type":"t_uint256"}],"numberOfBytes":"64"},"t_uint256":{"encoding":"inplace","label":"uint256","numberOfBytes":"32"}}}}}}