{
  "_format": "hh-sol-artifact-1",
  "contractName": "DefaiNFT",
  "sourceName": "contracts/DefaiNFT.sol",
  "abi": [
    {
      "inputs": [
        {
          "internalType": "string",
          "name": "name",
          "type": "string"
        },
        {
          "internalType": "string",
          "name": "symbol",
          "type": "string"
        },
        {
          "internalType": "string",
          "name": "_baseTokenURI",
          "type": "string"
        }
      ],
      "stateMutability": "nonpayable",
      "type": "constructor"
    },
    {
      "anonymous": false,
      "inputs": [
        {
          "indexed": true,
          "internalType": "address",
          "name": "owner",
          "type": "address"
        },
        {
          "indexed": true,
          "internalType": "address",
          "name": "approved",
          "type": "address"
        },
        {
          "indexed": true,
          "internalType": "uint256",
          "name": "tokenId",
          "type": "uint256"
        }
      ],
      "name": "Approval",
      "type": "event"
    },
    {
      "anonymous": false,
      "inputs": [
        {
          "indexed": true,
          "internalType": "address",
          "name": "owner",
          "type": "address"
        },
        {
          "indexed": true,
          "internalType": "address",
          "name": "operator",
          "type": "address"
        },
        {
          "indexed": false,
          "internalType": "bool",
          "name": "approved",
          "type": "bool"
        }
      ],
      "name": "ApprovalForAll",
      "type": "event"
    },
    {
      "anonymous": false,
      "inputs": [
        {
          "indexed": false,
          "internalType": "uint256",
          "name": "_fromTokenId",
          "type": "uint256"
        },
        {
          "indexed": false,
          "internalType": "uint256",
          "name": "_toTokenId",
          "type": "uint256"
        }
      ],
      "name": "BatchMetadataUpdate",
      "type": "event"
    },
    {
      "anonymous": false,
      "inputs": [
        {
          "indexed": false,
          "internalType": "uint256",
          "name": "_tokenId",
          "type": "uint256"
        }
      ],
      "name": "MetadataUpdate",
      "type": "event"
    },
    {
      "anonymous": false,
      "inputs": [
        {
          "indexed": true,
          "internalType": "bytes32",
          "name": "role",
          "type": "bytes32"
        },
        {
          "indexed": true,
          "internalType": "bytes32",
          "name": "previousAdminRole",
          "type": "bytes32"
        },
        {
          "indexed": true,
          "internalType": "bytes32",
          "name": "newAdminRole",
          "type": "bytes32"
        }
      ],
      "name": "RoleAdminChanged",
      "type": "event"
    },
    {
      "anonymous": false,
      "inputs": [
        {
          "indexed": true,
          "internalType": "bytes32",
          "name": "role",
          "type": "bytes32"
        },
        {
          "indexed": true,
          "internalType": "address",
          "name": "account",
          "type": "address"
        },
        {
          "indexed": true,
          "internalType": "address",
          "name": "sender",
          "type": "address"
        }
      ],
      "name": "RoleGranted",
      "type": "event"
    },
    {
      "anonymous": false,
      "inputs": [
        {
          "indexed": true,
          "internalType": "bytes32",
          "name": "role",
          "type": "bytes32"
        },
        {
          "indexed": true,
          "internalType": "address",
          "name": "account",
          "type": "address"
        },
        {
          "indexed": true,
          "internalType": "address",
          "name": "sender",
          "type": "address"
        }
      ],
      "name": "RoleRevoked",
      "type": "event"
    },
    {
      "anonymous": false,
      "inputs": [
        {
          "indexed": true,
          "internalType": "address",
          "name": "from",
          "type": "address"
        },
        {
          "indexed": true,
          "internalType": "address",
          "name": "to",
          "type": "address"
        },
        {
          "indexed": true,
          "internalType": "uint256",
          "name": "tokenId",
          "type": "uint256"
        }
      ],
      "name": "Transfer",
      "type": "event"
    },
    {
      "inputs": [],
      "name": "DEFAULT_ADMIN_ROLE",
      "outputs": [
        {
          "internalType": "bytes32",
          "name": "",
          "type": "bytes32"
        }
      ],
      "stateMutability": "view",
      "type": "function"
    },
    {
      "inputs": [],
      "name": "MINTER_ROLE",
      "outputs": [
        {
          "internalType": "bytes32",
          "name": "",
          "type": "bytes32"
        }
      ],
      "stateMutability": "view",
      "type": "function"
    },
    {
      "inputs": [],
      "name": "URI_SETTER_ROLE",
      "outputs": [
        {
          "internalType": "bytes32",
          "name": "",
          "type": "bytes32"
        }
      ],
      "stateMutability": "view",
      "type": "function"
    },
    {
      "inputs": [
        {
          "internalType": "address",
          "name": "to",
          "type": "address"
        },
        {
          "internalType": "uint256",
          "name": "tokenId",
          "type": "uint256"
        }
      ],
      "name": "approve",
      "outputs": [],
      "stateMutability": "nonpayable",
      "type": "function"
    },
    {
      "inputs": [
        {
          "internalType": "address",
          "name": "owner",
          "type": "address"
        }
      ],
      "name": "balanceOf",
      "outputs": [
        {
          "internalType": "uint256",
          "name": "",
          "type": "uint256"
        }
      ],
      "stateMutability": "view",
      "type": "function"
    },
    {
      "inputs": [],
      "name": "baseTokenURI",
      "outputs": [
        {
          "internalType": "string",
          "name": "",
          "type": "string"
        }
      ],
      "stateMutability": "view",
      "type": "function"
    },
    {
      "inputs": [
        {
          "internalType": "uint256",
          "name": "tokenId",
          "type": "uint256"
        }
      ],
      "name": "burn",
      "outputs": [],
      "stateMutability": "nonpayable",
      "type": "function"
    },
    {
      "inputs": [
        {
          "internalType": "uint256",
          "name": "tokenId",
          "type": "uint256"
        }
      ],
      "name": "exists",
      "outputs": [
        {
          "internalType": "bool",
          "name": "",
          "type": "bool"
        }
      ],
      "stateMutability": "view",
      "type": "function"
    },
    {
      "inputs": [
        {
          "internalType": "uint256",
          "name": "tokenId",
          "type": "uint256"
        }
      ],
      "name": "getApproved",
      "outputs": [
        {
          "internalType": "address",
          "name": "",
          "type": "address"
        }
      ],
      "stateMutability": "view",
      "type": "function"
    },
    {
      "inputs": [
        {
          "internalType": "bytes32",
          "name": "role",
          "type": "bytes32"
        }
      ],
      "name": "getRoleAdmin",
      "outputs": [
        {
          "internalType": "bytes32",
          "name": "",
          "type": "bytes32"
        }
      ],
      "stateMutability": "view",
      "type": "function"
    },
    {
      "inputs": [
        {
          "internalType": "bytes32",
          "name": "role",
          "type": "bytes32"
        },
        {
          "internalType": "address",
          "name": "account",
          "type": "address"
        }
      ],
      "name": "grantRole",
      "outputs": [],
      "stateMutability": "nonpayable",
      "type": "function"
    },
    {
      "inputs": [
        {
          "internalType": "bytes32",
          "name": "role",
          "type": "bytes32"
        },
        {
          "internalType": "address",
          "name": "account",
          "type": "address"
        }
      ],
      "name": "hasRole",
      "outputs": [
        {
          "internalType": "bool",
          "name": "",
          "type": "bool"
        }
      ],
      "stateMutability": "view",
      "type": "function"
    },
    {
      "inputs": [
        {
          "internalType": "address",
          "name": "owner",
          "type": "address"
        },
        {
          "internalType": "address",
          "name": "operator",
          "type": "address"
        }
      ],
      "name": "isApprovedForAll",
      "outputs": [
        {
          "internalType": "bool",
          "name": "",
          "type": "bool"
        }
      ],
      "stateMutability": "view",
      "type": "function"
    },
    {
      "inputs": [
        {
          "internalType": "address",
          "name": "to",
          "type": "address"
        },
        {
          "internalType": "uint256",
          "name": "tokenId",
          "type": "uint256"
        }
      ],
      "name": "mint",
      "outputs": [],
      "stateMutability": "nonpayable",
      "type": "function"
    },
    {
      "inputs": [
        {
          "internalType": "address",
          "name": "to",
          "type": "address"
        },
        {
          "internalType": "uint256",
          "name": "tokenId",
          "type": "uint256"
        },
        {
          "internalType": "uint8",
          "name": "tier",
          "type": "uint8"
        }
      ],
      "name": "mintWithTier",
      "outputs": [],
      "stateMutability": "nonpayable",
      "type": "function"
    },
    {
      "inputs": [],
      "name": "name",
      "outputs": [
        {
          "internalType": "string",
          "name": "",
          "type": "string"
        }
      ],
      "stateMutability": "view",
      "type": "function"
    },
    {
      "inputs": [
        {
          "internalType": "uint256",
          "name": "tokenId",
          "type": "uint256"
        }
      ],
      "name": "ownerOf",
      "outputs": [
        {
          "internalType": "address",
          "name": "",
          "type": "address"
        }
      ],
      "stateMutability": "view",
      "type": "function"
    },
    {
      "inputs": [
        {
          "internalType": "bytes32",
          "name": "role",
          "type": "bytes32"
        },
        {
          "internalType": "address",
          "name": "account",
          "type": "address"
        }
      ],
      "name": "renounceRole",
      "outputs": [],
      "stateMutability": "nonpayable",
      "type": "function"
    },
    {
      "inputs": [
        {
          "internalType": "bytes32",
          "name": "role",
          "type": "bytes32"
        },
        {
          "internalType": "address",
          "name": "account",
          "type": "address"
        }
      ],
      "name": "revokeRole",
      "outputs": [],
      "stateMutability": "nonpayable",
      "type": "function"
    },
    {
      "inputs": [
        {
          "internalType": "address",
          "name": "from",
          "type": "address"
        },
        {
          "internalType": "address",
          "name": "to",
          "type": "address"
        },
        {
          "internalType": "uint256",
          "name": "tokenId",
          "type": "uint256"
        }
      ],
      "name": "safeTransferFrom",
      "outputs": [],
      "stateMutability": "nonpayable",
      "type": "function"
    },
    {
      "inputs": [
        {
          "internalType": "address",
          "name": "from",
          "type": "address"
        },
        {
          "internalType": "address",
          "name": "to",
          "type": "address"
        },
        {
          "internalType": "uint256",
          "name": "tokenId",
          "type": "uint256"
        },
        {
          "internalType": "bytes",
          "name": "data",
          "type": "bytes"
        }
      ],
      "name": "safeTransferFrom",
      "outputs": [],
      "stateMutability": "nonpayable",
      "type": "function"
    },
    {
      "inputs": [
        {
          "internalType": "address",
          "name": "operator",
          "type": "address"
        },
        {
          "internalType": "bool",
          "name": "approved",
          "type": "bool"
        }
      ],
      "name": "setApprovalForAll",
      "outputs": [],
      "stateMutability": "nonpayable",
      "type": "function"
    },
    {
      "inputs": [
        {
          "internalType": "string",
          "name": "_baseTokenURI",
          "type": "string"
        }
      ],
      "name": "setBaseURI",
      "outputs": [],
      "stateMutability": "nonpayable",
      "type": "function"
    },
    {
      "inputs": [
        {
          "internalType": "uint8",
          "name": "tier",
          "type": "uint8"
        },
        {
          "internalType": "string",
          "name": "uri",
          "type": "string"
        }
      ],
      "name": "setTierURI",
      "outputs": [],
      "stateMutability": "nonpayable",
      "type": "function"
    },
    {
      "inputs": [
        {
          "internalType": "uint256",
          "name": "tokenId",
          "type": "uint256"
        },
        {
          "internalType": "string",
          "name": "uri",
          "type": "string"
        }
      ],
      "name": "setTokenURI",
      "outputs": [],
      "stateMutability": "nonpayable",
      "type": "function"
    },
    {
      "inputs": [
        {
          "internalType": "bytes4",
          "name": "interfaceId",
          "type": "bytes4"
        }
      ],
      "name": "supportsInterface",
      "outputs": [
        {
          "internalType": "bool",
          "name": "",
          "type": "bool"
        }
      ],
      "stateMutability": "view",
      "type": "function"
    },
    {
      "inputs": [],
      "name": "symbol",
      "outputs": [
        {
          "internalType": "string",
          "name": "",
          "type": "string"
        }
      ],
      "stateMutability": "view",
      "type": "function"
    },
    {
      "inputs": [
        {
          "internalType": "uint8",
          "name": "",
          "type": "uint8"
        }
      ],
      "name": "tierURIs",
      "outputs": [
        {
          "internalType": "string",
          "name": "",
          "type": "string"
        }
      ],
      "stateMutability": "view",
      "type": "function"
    },
    {
      "inputs": [
        {
          "internalType": "uint256",
          "name": "",
          "type": "uint256"
        }
      ],
      "name": "tokenTiers",
      "outputs": [
        {
          "internalType": "uint8",
          "name": "",
          "type": "uint8"
        }
      ],
      "stateMutability": "view",
      "type": "function"
    },
    {
      "inputs": [
        {
          "internalType": "uint256",
          "name": "tokenId",
          "type": "uint256"
        }
      ],
      "name": "tokenURI",
      "outputs": [
        {
          "internalType": "string",
          "name": "",
          "type": "string"
        }
      ],
      "stateMutability": "view",
      "type": "function"
    },
    {
      "inputs": [
        {
          "internalType": "address",
          "name": "from",
          "type": "address"
        },
        {
          "internalType": "address",
          "name": "to",
          "type": "address"
        },
        {
          "internalType": "uint256",
          "name": "tokenId",
          "type": "uint256"
        }
      ],
      "name": "transferFrom",
      "outputs": [],
      "stateMutability": "nonpayable",
      "type": "function"
    }
  ],
  "bytecode": "0x60806040523480156200001157600080fd5b50604051620027aa380380620027aa83398101604081905262000034916200023f565b828260006200004483826200035f565b5060016200005382826200035f565b506008915062000066905082826200035f565b5062000074600033620000d5565b620000a07f9f2df0fed2c77648de5860a4cc508cd0818c85b8b8a1ab4ceeef8d981c8956a633620000d5565b620000cc7f7804d923f43a17d325d77e781528e0793b2edd9890ab45fc64efd7b4b427744c33620000d5565b5050506200042b565b60008281526007602090815260408083206001600160a01b038516845290915290205460ff16620001765760008281526007602090815260408083206001600160a01b03851684529091529020805460ff19166001179055620001353390565b6001600160a01b0316816001600160a01b0316837f2f8788117e7eff1d82e926ec794901d17c78024a50270940304540a733656f0d60405160405180910390a45b5050565b634e487b7160e01b600052604160045260246000fd5b600082601f830112620001a257600080fd5b81516001600160401b0380821115620001bf57620001bf6200017a565b604051601f8301601f19908116603f01168101908282118183101715620001ea57620001ea6200017a565b816040528381526020925086838588010111156200020757600080fd5b600091505b838210156200022b57858201830151818301840152908201906200020c565b600093810190920192909252949350505050565b6000806000606084860312156200025557600080fd5b83516001600160401b03808211156200026d57600080fd5b6200027b8783880162000190565b945060208601519150808211156200029257600080fd5b620002a08783880162000190565b93506040860151915080821115620002b757600080fd5b50620002c68682870162000190565b9150509250925092565b600181811c90821680620002e557607f821691505b6020821081036200030657634e487b7160e01b600052602260045260246000fd5b50919050565b601f8211156200035a57600081815260208120601f850160051c81016020861015620003355750805b601f850160051c820191505b81811015620003565782815560010162000341565b5050505b505050565b81516001600160401b038111156200037b576200037b6200017a565b62000393816200038c8454620002d0565b846200030c565b602080601f831160018114620003cb5760008415620003b25750858301515b600019600386901b1c1916600185901b17855562000356565b600085815260208120601f198616915b82811015620003fc57888601518255948401946001909101908401620003db565b50858210156200041b5787850151600019600388901b60f8161c191681555b5050505050600190811b01905550565b61236f806200043b6000396000f3fe608060405234801561001057600080fd5b50600436106101e55760003560e01c80636352211e1161010f578063b88d4fde116100a2578063d547741f11610071578063d547741f1461045c578063d547cfb71461046f578063e985e9c514610477578063ea8df943146104b357600080fd5b8063b88d4fde146103fc578063c0f52dcd1461040f578063c87b56dd14610422578063d53913931461043557600080fd5b806391d14854116100de57806391d14854146103c657806395d89b41146103d9578063a217fddf146103e1578063a22cb465146103e957600080fd5b80636352211e1461035657806370a08231146103695780637f3457101461037c578063818f2e421461039157600080fd5b80632f2ff15d1161018757806342842e0e1161015657806342842e0e1461030a57806342966c681461031d5780634f558e791461033057806355f804b31461034357600080fd5b80632f2ff15d146102be578063333e972d146102d157806336568abe146102e457806340c10f19146102f757600080fd5b8063095ea7b3116101c3578063095ea7b314610252578063162094c41461026757806323b872dd1461027a578063248a9ca31461028d57600080fd5b806301ffc9a7146101ea57806306fdde0314610212578063081812fc14610227575b600080fd5b6101fd6101f8366004611af8565b6104c6565b60405190151581526020015b60405180910390f35b61021a6104d7565b6040516102099190611b65565b61023a610235366004611b78565b610569565b6040516001600160a01b039091168152602001610209565b610265610260366004611bad565b610590565b005b610265610275366004611c83565b6106aa565b610265610288366004611cca565b6106cc565b6102b061029b366004611b78565b60009081526007602052604090206001015490565b604051908152602001610209565b6102656102cc366004611d06565b6106fe565b6102656102df366004611d43565b610723565b6102656102f2366004611d06565b61075d565b610265610305366004611bad565b6107db565b610265610318366004611cca565b61080f565b61026561032b366004611b78565b61082a565b6101fd61033e366004611b78565b610836565b610265610351366004611d7b565b610841565b61023a610364366004611b78565b610865565b6102b0610377366004611db0565b6108c5565b6102b060008051602061231a83398151915281565b6103b461039f366004611b78565b600a6020526000908152604090205460ff1681565b60405160ff9091168152602001610209565b6101fd6103d4366004611d06565b61094b565b61021a610976565b6102b0600081565b6102656103f7366004611dcb565b610985565b61026561040a366004611e07565b610990565b61021a61041d366004611e83565b6109c2565b61021a610430366004611b78565b610a5c565b6102b07f9f2df0fed2c77648de5860a4cc508cd0818c85b8b8a1ab4ceeef8d981c8956a681565b61026561046a366004611d06565b610b49565b61021a610b6e565b6101fd610485366004611e9e565b6001600160a01b03918216600090815260056020908152604080832093909416825291909152205460ff1690565b6102656104c1366004611ec8565b610b7b565b60006104d182610bd3565b92915050565b6060600080546104e690611f04565b80601f016020809104026020016040519081016040528092919081815260200182805461051290611f04565b801561055f5780601f106105345761010080835404028352916020019161055f565b820191906000526020600020905b81548152906001019060200180831161054257829003601f168201915b5050505050905090565b600061057482610bf8565b506000908152600460205260409020546001600160a01b031690565b600061059b82610865565b9050806001600160a01b0316836001600160a01b03160361060d5760405162461bcd60e51b815260206004820152602160248201527f4552433732313a20617070726f76616c20746f2063757272656e74206f776e656044820152603960f91b60648201526084015b60405180910390fd5b336001600160a01b038216148061062957506106298133610485565b61069b5760405162461bcd60e51b815260206004820152603d60248201527f4552433732313a20617070726f76652063616c6c6572206973206e6f7420746f60448201527f6b656e206f776e6572206f7220617070726f76656420666f7220616c6c0000006064820152608401610604565b6106a58383610c48565b505050565b60008051602061231a8339815191526106c281610cb6565b6106a58383610cc0565b6106d7335b82610d7c565b6106f35760405162461bcd60e51b815260040161060490611f3e565b6106a5838383610dfb565b60008281526007602052604090206001015461071981610cb6565b6106a58383610f5f565b60008051602061231a83398151915261073b81610cb6565b60ff831660009081526009602052604090206107578382611fd9565b50505050565b6001600160a01b03811633146107cd5760405162461bcd60e51b815260206004820152602f60248201527f416363657373436f6e74726f6c3a2063616e206f6e6c792072656e6f756e636560448201526e103937b632b9903337b91039b2b63360891b6064820152608401610604565b6107d78282610fe5565b5050565b7f9f2df0fed2c77648de5860a4cc508cd0818c85b8b8a1ab4ceeef8d981c8956a661080581610cb6565b6106a5838361104c565b6106a583838360405180602001604052806000815250610990565b61083381611066565b50565b60006104d182611094565b60008051602061231a83398151915261085981610cb6565b60086106a58382611fd9565b6000818152600260205260408120546001600160a01b0316806104d15760405162461bcd60e51b8152602060048201526018602482015277115490cdcc8c4e881a5b9d985b1a59081d1bdad95b88125160421b6044820152606401610604565b60006001600160a01b03821661092f5760405162461bcd60e51b815260206004820152602960248201527f4552433732313a2061646472657373207a65726f206973206e6f7420612076616044820152683634b21037bbb732b960b91b6064820152608401610604565b506001600160a01b031660009081526003602052604090205490565b60009182526007602090815260408084206001600160a01b0393909316845291905290205460ff1690565b6060600180546104e690611f04565b6107d73383836110b1565b61099a3383610d7c565b6109b65760405162461bcd60e51b815260040161060490611f3e565b6107578484848461117f565b600960205260009081526040902080546109db90611f04565b80601f0160208091040260200160405190810160405280929190818152602001828054610a0790611f04565b8015610a545780601f10610a2957610100808354040283529160200191610a54565b820191906000526020600020905b815481529060010190602001808311610a3757829003601f168201915b505050505081565b6060610a6782611094565b610aaa5760405162461bcd60e51b8152602060048201526014602482015273151bdad95b88191bd95cc81b9bdd08195e1a5cdd60621b6044820152606401610604565b6000610ab5836111b2565b805190915015610ac55792915050565b6000838152600a602090815260408083205460ff16808452600990925282208054919291610af290611f04565b90501115610b3e5760ff81166000908152600960205260409020610b15856112a2565b604051602001610b26929190612099565b60405160208183030381529060405292505050919050565b6008610b15856112a2565b600082815260076020526040902060010154610b6481610cb6565b6106a58383610fe5565b600880546109db90611f04565b7f9f2df0fed2c77648de5860a4cc508cd0818c85b8b8a1ab4ceeef8d981c8956a6610ba581610cb6565b610baf848461104c565b506000918252600a6020526040909120805460ff191660ff90921691909117905550565b60006001600160e01b03198216637965db0b60e01b14806104d157506104d182611335565b610c0181611094565b6108335760405162461bcd60e51b8152602060048201526018602482015277115490cdcc8c4e881a5b9d985b1a59081d1bdad95b88125160421b6044820152606401610604565b600081815260046020526040902080546001600160a01b0319166001600160a01b0384169081179091558190610c7d82610865565b6001600160a01b03167f8c5be1e5ebec7d5bd14f71427d1e84f3dd0314c0f7b2291e5b200ac8c7c3b92560405160405180910390a45050565b610833813361135a565b610cc982611094565b610d2c5760405162461bcd60e51b815260206004820152602e60248201527f45524337323155524953746f726167653a2055524920736574206f66206e6f6e60448201526d32bc34b9ba32b73a103a37b5b2b760911b6064820152608401610604565b6000828152600660205260409020610d448282611fd9565b506040518281527ff8e1a15aba9398e019f0b49df1a4fde98ee17ae345cb5f6b5e2c27f5033e8ce79060200160405180910390a15050565b600080610d8883610865565b9050806001600160a01b0316846001600160a01b03161480610dcf57506001600160a01b0380821660009081526005602090815260408083209388168352929052205460ff165b80610df35750836001600160a01b0316610de884610569565b6001600160a01b0316145b949350505050565b826001600160a01b0316610e0e82610865565b6001600160a01b031614610e345760405162461bcd60e51b815260040161060490612120565b6001600160a01b038216610e965760405162461bcd60e51b8152602060048201526024808201527f4552433732313a207472616e7366657220746f20746865207a65726f206164646044820152637265737360e01b6064820152608401610604565b826001600160a01b0316610ea982610865565b6001600160a01b031614610ecf5760405162461bcd60e51b815260040161060490612120565b600081815260046020908152604080832080546001600160a01b03199081169091556001600160a01b0387811680865260038552838620805460001901905590871680865283862080546001019055868652600290945282852080549092168417909155905184937fddf252ad1be2c89b69c2b068fc378daa952ba7f163c4a11628f55a4df523b3ef91a4505050565b610f69828261094b565b6107d75760008281526007602090815260408083206001600160a01b03851684529091529020805460ff19166001179055610fa13390565b6001600160a01b0316816001600160a01b0316837f2f8788117e7eff1d82e926ec794901d17c78024a50270940304540a733656f0d60405160405180910390a45050565b610fef828261094b565b156107d75760008281526007602090815260408083206001600160a01b0385168085529252808320805460ff1916905551339285917ff6391f5c32d9c69d2a47ea670b442974b53935d1edc7fd64eb21e047a839171b9190a45050565b6107d78282604051806020016040528060008152506113b3565b61106f336106d1565b61108b5760405162461bcd60e51b815260040161060490611f3e565b610833816113e6565b6000908152600260205260409020546001600160a01b0316151590565b816001600160a01b0316836001600160a01b0316036111125760405162461bcd60e51b815260206004820152601960248201527f4552433732313a20617070726f766520746f2063616c6c6572000000000000006044820152606401610604565b6001600160a01b03838116600081815260056020908152604080832094871680845294825291829020805460ff191686151590811790915591519182527f17307eab39ab6107e8899845ad3d59bd9653f200f220920489ca2b5937696c31910160405180910390a3505050565b61118a848484610dfb565b61119684848484611407565b6107575760405162461bcd60e51b815260040161060490612165565b60606111bd82610bf8565b600082815260066020526040812080546111d690611f04565b80601f016020809104026020016040519081016040528092919081815260200182805461120290611f04565b801561124f5780601f106112245761010080835404028352916020019161124f565b820191906000526020600020905b81548152906001019060200180831161123257829003601f168201915b50505050509050600061126d60408051602081019091526000815290565b9050805160000361127f575092915050565b815115611299578082604051602001610b269291906121b7565b610df384611508565b606060006112af8361157c565b600101905060008167ffffffffffffffff8111156112cf576112cf611bd7565b6040519080825280601f01601f1916602001820160405280156112f9576020820181803683370190505b5090508181016020015b600019016f181899199a1a9b1b9c1cb0b131b232b360811b600a86061a8153600a850494508461130357509392505050565b60006001600160e01b03198216632483248360e11b14806104d157506104d182611654565b611364828261094b565b6107d757611371816116a4565b61137c8360206116b6565b60405160200161138d9291906121dd565b60408051601f198184030181529082905262461bcd60e51b825261060491600401611b65565b6113bd8383611852565b6113ca6000848484611407565b6106a55760405162461bcd60e51b815260040161060490612165565b6113ef816119bf565b6000908152600a60205260409020805460ff19169055565b60006001600160a01b0384163b156114fd57604051630a85bd0160e11b81526001600160a01b0385169063150b7a029061144b903390899088908890600401612252565b6020604051808303816000875af1925050508015611486575060408051601f3d908101601f191682019092526114839181019061228f565b60015b6114e3573d8080156114b4576040519150601f19603f3d011682016040523d82523d6000602084013e6114b9565b606091505b5080516000036114db5760405162461bcd60e51b815260040161060490612165565b805181602001fd5b6001600160e01b031916630a85bd0160e11b149050610df3565b506001949350505050565b606061151382610bf8565b600061152a60408051602081019091526000815290565b9050600081511161154a5760405180602001604052806000815250611575565b80611554846112a2565b6040516020016115659291906121b7565b6040516020818303038152906040525b9392505050565b60008072184f03e93ff9f4daa797ed6e38ed64bf6a1f0160401b83106115bb5772184f03e93ff9f4daa797ed6e38ed64bf6a1f0160401b830492506040015b6d04ee2d6d415b85acef810000000083106115e7576d04ee2d6d415b85acef8100000000830492506020015b662386f26fc10000831061160557662386f26fc10000830492506010015b6305f5e100831061161d576305f5e100830492506008015b612710831061163157612710830492506004015b60648310611643576064830492506002015b600a83106104d15760010192915050565b60006001600160e01b031982166380ac58cd60e01b148061168557506001600160e01b03198216635b5e139f60e01b145b806104d157506301ffc9a760e01b6001600160e01b03198316146104d1565b60606104d16001600160a01b03831660145b606060006116c58360026122c2565b6116d09060026122d9565b67ffffffffffffffff8111156116e8576116e8611bd7565b6040519080825280601f01601f191660200182016040528015611712576020820181803683370190505b509050600360fc1b8160008151811061172d5761172d6122ec565b60200101906001600160f81b031916908160001a905350600f60fb1b8160018151811061175c5761175c6122ec565b60200101906001600160f81b031916908160001a90535060006117808460026122c2565b61178b9060016122d9565b90505b6001811115611803576f181899199a1a9b1b9c1cb0b131b232b360811b85600f16601081106117bf576117bf6122ec565b1a60f81b8282815181106117d5576117d56122ec565b60200101906001600160f81b031916908160001a90535060049490941c936117fc81612302565b905061178e565b5083156115755760405162461bcd60e51b815260206004820181905260248201527f537472696e67733a20686578206c656e67746820696e73756666696369656e746044820152606401610604565b6001600160a01b0382166118a85760405162461bcd60e51b815260206004820181905260248201527f4552433732313a206d696e7420746f20746865207a65726f20616464726573736044820152606401610604565b6118b181611094565b156118fe5760405162461bcd60e51b815260206004820152601c60248201527f4552433732313a20746f6b656e20616c7265616479206d696e746564000000006044820152606401610604565b61190781611094565b156119545760405162461bcd60e51b815260206004820152601c60248201527f4552433732313a20746f6b656e20616c7265616479206d696e746564000000006044820152606401610604565b6001600160a01b038216600081815260036020908152604080832080546001019055848352600290915280822080546001600160a01b0319168417905551839291907fddf252ad1be2c89b69c2b068fc378daa952ba7f163c4a11628f55a4df523b3ef908290a45050565b6119c8816119ff565b600081815260066020526040902080546119e190611f04565b15905061083357600081815260066020526040812061083391611a94565b6000611a0a82610865565b9050611a1582610865565b600083815260046020908152604080832080546001600160a01b03199081169091556001600160a01b0385168085526003845282852080546000190190558785526002909352818420805490911690555192935084927fddf252ad1be2c89b69c2b068fc378daa952ba7f163c4a11628f55a4df523b3ef908390a45050565b508054611aa090611f04565b6000825580601f10611ab0575050565b601f01602090049060005260206000209081019061083391905b80821115611ade5760008155600101611aca565b5090565b6001600160e01b03198116811461083357600080fd5b600060208284031215611b0a57600080fd5b813561157581611ae2565b60005b83811015611b30578181015183820152602001611b18565b50506000910152565b60008151808452611b51816020860160208601611b15565b601f01601f19169290920160200192915050565b6020815260006115756020830184611b39565b600060208284031215611b8a57600080fd5b5035919050565b80356001600160a01b0381168114611ba857600080fd5b919050565b60008060408385031215611bc057600080fd5b611bc983611b91565b946020939093013593505050565b634e487b7160e01b600052604160045260246000fd5b600067ffffffffffffffff80841115611c0857611c08611bd7565b604051601f8501601f19908116603f01168101908282118183101715611c3057611c30611bd7565b81604052809350858152868686011115611c4957600080fd5b858560208301376000602087830101525050509392505050565b600082601f830112611c7457600080fd5b61157583833560208501611bed565b60008060408385031215611c9657600080fd5b82359150602083013567ffffffffffffffff811115611cb457600080fd5b611cc085828601611c63565b9150509250929050565b600080600060608486031215611cdf57600080fd5b611ce884611b91565b9250611cf660208501611b91565b9150604084013590509250925092565b60008060408385031215611d1957600080fd5b82359150611d2960208401611b91565b90509250929050565b803560ff81168114611ba857600080fd5b60008060408385031215611d5657600080fd5b611d5f83611d32565b9150602083013567ffffffffffffffff811115611cb457600080fd5b600060208284031215611d8d57600080fd5b813567ffffffffffffffff811115611da457600080fd5b610df384828501611c63565b600060208284031215611dc257600080fd5b61157582611b91565b60008060408385031215611dde57600080fd5b611de783611b91565b915060208301358015158114611dfc57600080fd5b809150509250929050565b60008060008060808587031215611e1d57600080fd5b611e2685611b91565b9350611e3460208601611b91565b925060408501359150606085013567ffffffffffffffff811115611e5757600080fd5b8501601f81018713611e6857600080fd5b611e7787823560208401611bed565b91505092959194509250565b600060208284031215611e9557600080fd5b61157582611d32565b60008060408385031215611eb157600080fd5b611eba83611b91565b9150611d2960208401611b91565b600080600060608486031215611edd57600080fd5b611ee684611b91565b925060208401359150611efb60408501611d32565b90509250925092565b600181811c90821680611f1857607f821691505b602082108103611f3857634e487b7160e01b600052602260045260246000fd5b50919050565b6020808252602d908201527f4552433732313a2063616c6c6572206973206e6f7420746f6b656e206f776e6560408201526c1c881bdc88185c1c1c9bdd9959609a1b606082015260800190565b601f8211156106a557600081815260208120601f850160051c81016020861015611fb25750805b601f850160051c820191505b81811015611fd157828155600101611fbe565b505050505050565b815167ffffffffffffffff811115611ff357611ff3611bd7565b612007816120018454611f04565b84611f8b565b602080601f83116001811461203c57600084156120245750858301515b600019600386901b1c1916600185901b178555611fd1565b600085815260208120601f198616915b8281101561206b5788860151825594840194600190910190840161204c565b50858210156120895787850151600019600388901b60f8161c191681555b5050505050600190811b01905550565b60008084546120a781611f04565b600182811680156120bf57600181146120d457612103565b60ff1984168752821515830287019450612103565b8860005260208060002060005b858110156120fa5781548a8201529084019082016120e1565b50505082870194505b505050508351612117818360208801611b15565b01949350505050565b60208082526025908201527f4552433732313a207472616e736665722066726f6d20696e636f72726563742060408201526437bbb732b960d91b606082015260800190565b60208082526032908201527f4552433732313a207472616e7366657220746f206e6f6e20455243373231526560408201527131b2b4bb32b91034b6b83632b6b2b73a32b960711b606082015260800190565b600083516121c9818460208801611b15565b835190830190612117818360208801611b15565b7f416363657373436f6e74726f6c3a206163636f756e7420000000000000000000815260008351612215816017850160208801611b15565b7001034b99036b4b9b9b4b733903937b6329607d1b6017918401918201528351612246816028840160208801611b15565b01602801949350505050565b6001600160a01b038581168252841660208201526040810183905260806060820181905260009061228590830184611b39565b9695505050505050565b6000602082840312156122a157600080fd5b815161157581611ae2565b634e487b7160e01b600052601160045260246000fd5b80820281158282048414176104d1576104d16122ac565b808201808211156104d1576104d16122ac565b634e487b7160e01b600052603260045260246000fd5b600081612311576123116122ac565b50600019019056fe7804d923f43a17d325d77e781528e0793b2edd9890ab45fc64efd7b4b427744ca2646970667358221220f574b479abf30c89e47a701236b8d2b0f0e473b9aec46f46863cdcdb791321d964736f6c63430008140033",
  "linkReferences": {},
  "deployedLinkReferences": {}
}